:020000040800F2
:10000000801C0020C9000008F51E0008F71E00082B
:1000100000000000000000000000000000000000E0
:10002000000000000000000000000000FB1E0008AF
:100030000000000000000000FD1E0008FF1E000878
:10004000F900000800000000F9000008F9000008AD
:10005000F9000008F9000008F9000008F90000089C
:1000600000000000F9000008F9000008F90000088D
:10007000F9000008F9000008F9000008000000007D
:10008000F90000080000000000000000F90000086E
:10009000F9000008F9000008F9000008F90000085C
:1000A000F9000008F9000008F90000080B1F00081B
:1000B000F90000080348854604F088F90048004725
:1000C0007D1E0008801C00200C4880F308880C4826
:1000D0000168090E0B4A914205D10B480B4901609A
:1000E0000B480C4901600C4880470C480047FEE76C
:1000F000FEE7FEE7FEE7FEE7FEE70000801C0020CB
:10010000040000001F000000181002400100000061
:100110000000014000000000451D0008B500000877
:1001200010B504460920C006844209D101214804C3
:1001300000F0A1FC00210120400400F09CFC3CE008
:100140007448844208D10121000200F094FC00218F
:10015000200200F090FC30E06F48844208D1012179
:10016000000200F088FC0021200200F084FC24E062
:100170006A48844209D10121080500F07CFC002175
:100180000120000500F077FC17E06548844208D1A3
:100190000121400200F06FFC0021600200F06BFCC6
:1001A0000BE06048844208D10121880500F063FC1F
:1001B00000210120800500F05EFC10BDF0B50A466C
:1001C00000210023002400BF3DE001258D402B4687
:1001D00015681D402C469C4234D11579012D02D062
:1001E0001579022D16D185684F000326BE40B54310
:1001F000856055794E00B5408668354385608588B1
:1002000001268E40B5438580858896798E40B6B2AA
:100210003543858005684F000326BE40B543056021
:1002200015794E00B540066835430560C5684F0036
:100230000326BE40B543C560D5794E00B540C668BB
:100240003543C560491C1029BFD3F0BD3649016054
:10025000002101710121417100218171C17170473B
:1002600008B5012212040092009A0A430092009AF3
:10027000C261C161009AC261C2690092C269009202
:1002800008BD02460020138A0B40002B01D001203C
:1002900000E0002070470146088A704702460020AF
:1002A000938A0B40002B01D0012000E00020704712
:1002B0000146888A70478161704701857047002A2E
:1002C00001D0816100E00185704781827047F0B5FF
:1002D000002300244D07EE0E1546B5402B46CD10E9
:1002E000AE0005462035AD594E07F70E0F26BE402D
:1002F000B543CE10B60007462037BD51CD10AE0035
:100300003D46AD591D432C46CD10AD003E467451BF
:10031000F0BD00000004004800080048000C004840
:100320000010004800140048FFFF00000021827800
:10033000002A27D0274A03231B02D21803789B10D8
:100340009B00D15802789207D30EFF229A400B46A9
:100350009343194642789207120E03789B07DB0EEF
:100360009A4011431B4A03231B02D21803789B10A7
:100370009B00D1500278D306DB0E01229A40154B28
:100380001A6007E00278D306DB0E01229A40114B77
:1003900080331A607047002905D00F4A1269024362
:1003A0000D4B1A6104E00C4A126982430A4B1A6130
:1003B0007047042806D10949096904221143074AF4
:1003C000116105E00549096904229143034A11615D
:1003D0007047000000E100E000ED00E000E000E018
:1003E000F848006801210843F6490860084640685B
:1003F000F5490840F349486008460068F349084059
:10040000F049086008460068012189048843ED49E5
:100410000860084640683F2109048843E94948606C
:100420000846C06A00090001C8620846006BE84936
:100430000840E44908630846406B400840004863B0
:100440000020886070470021DE4A91701146887054
:10045000704710B5024600210023002051110029E9
:1004600002D1D84C23680BE0012902D1D54C236A74
:1004700006E0022902D1D34C636A01E0D14C636BE0
:10048000D106C90E01248C401C40002C01D0012053
:1004900000E0002010BD38B50020009000240025A9
:1004A00000BF1120FFF7D5FF05460098401C0090C3
:1004B000052109030098884201D0002DF1D01120B8
:1004C000FFF7C7FF002801D0012400E000242046E8
:1004D00038BD01460020BB4A1068F82302469A4303
:1004E0001046CA001043B74A10607047002806D073
:1004F000B449096801221143B24A116005E0B149CB
:10050000096849084900AF4A116070470146002058
:10051000AC4A506BF82302469A431046CA00104377
:10052000A84A50637047002806D0A649496B0122AB
:100530001143A44A516305E0A249496B49084900A7
:10054000A04A51637047002806D09E49496B042297
:1005500091439C4A516305E09A49496B0422114337
:10056000984A516370479749096A49084900954A72
:1005700011621146096A04229143924A116211469E
:10058000096A0143116270478E49096A1822914332
:100590008C4A11621146096A0143116270470028B2
:1005A00006D08849496A01221143864A516205E012
:1005B0008449496A49084900824A51627047814A20
:1005C00052687B23DB039A437E4B5A601A4652687B
:1005D00003460B431A437B4B5A607047002807D0F1
:1005E00078490968012212061143764A116006E033
:1005F00074490968012212069143724A11607047DA
:10060000002807D06F49496B0122120411436D4A3B
:10061000516306E06B49496B012212049143694A18
:100620005163704701460020664AD06A0009000104
:1006300002460A431046634AD0627047002807D03A
:10064000604909680122D20411435E4A116006E044
:100650005C4909680122D20491435A4A11607047EB
:1006600002460020574B58680002000A13060B434D
:100670001843544B5860704701460020514A506857
:100680008008800002460A4310464E4A5060704778
:100690004C4840680C210840704701460020494AF8
:1006A0005068F02302469A43104602460A43104619
:1006B000444A5060704701460020424A5068072370
:1006C0001B0202469A43104602460A4310463D4A20
:1006D000506070473B494968012292039143394A6F
:1006E00051601146496882B21143364A5160114641
:1006F000096B92159143334A11631146096B020C41
:100700001143304A116370472E49096B40229143CF
:100710002C4A11631146096B014311637047294943
:10072000096B10229143274A11631146096B01435B
:10073000116370470021010F012906D1214A126B74
:10074000920892001F4B1A6310E0022907D11D4A3C
:10075000126B03231B049A431A4B1A6306E0194ACF
:10076000126B03239B049A43164B1A63154A126BB0
:100770000243144B1A6370471249096B802291435C
:10078000104A11631146096B014311637047FEB5AE
:1007900004460025002600200290019000900027CA
:1007A000084840680C2108400546002D06D0042D5D
:1007B00012D0082D13D00C2D37D133E0054820601E
:1007C00036E00000001002400CB8FF08FFFFF6FE04
:1007D000ACFEF0FF00127A00CE48206028E0CE4840
:1007E00040680F21890408400646CB484068032131
:1007F000C90308400290B00C861C0298002803D15F
:10080000C648374647430BE0C348C06A0007000F9D
:10081000401C0190BF48019903F08AFB70430746D2
:10082000276005E0BE48206002E0BA48206000BFB3
:1008300000BFB9484068F021084005462D09B94875
:10084000405D009020680099C8406060B2484068F0
:1008500007210902084005462D0AB248405D009074
:1008600061680098C140A160AB48006BFF21013175
:100870000840884202D0AC48E0600DE0A6484068DD
:10088000012189030840884203D0A0684008E06045
:1008900002E0A0688008E0609F48006B40210840AB
:1008A000402802D0A148206102E00120C00320615D
:1008B0009948006B10210840102802D095486061CB
:1008C00001E0206860619448006B8007800F002879
:1008D00002D1A068A06119E08F48006B8007800FEB
:1008E000012802D12068A06110E08B48006B8007CE
:1008F000800F022802D18003A06107E08648006BC8
:100900008007800F032801D18248A0618248006BD4
:10091000032109040840002802D1A068E06120E01A
:100920007D48006B03210904084001210904884225
:1009300002D12068E06114E07748006B03210904CC
:10094000084001214904884202D18010E06108E09A
:100950007148006B032109040840884201D16D48A9
:10096000E0616D48006B032189040840002802D132
:10097000A068206220E06848006B032189040840D9
:1009800001218904884202D12068206214E0624873
:10099000006B0321890408400121C904884202D167
:1009A0000011206208E05C48006B032189040840C4
:1009B000884201D1574820625748006B8021084087
:1009C000802802D05648606200E06762FEBD52494E
:1009D000096A0143504A11627047002807D04E4906
:1009E000096A0122D20311434B4A116206E04A49C7
:1009F000096A0122D2039143474A116270470028D5
:100A000007D04549096A012212041143424A116282
:100A100006E04149096A0122120491433E4A1162EB
:100A20007047002905D03C4A526902433A4B5A614B
:100A300004E0394A52698243374B5A6170470029B2
:100A400005D0354A92690243334B9A6104E0324A39
:100A500092698243304B9A617047002905D02E4A33
:100A6000D26902432C4BDA6104E02B4AD2698243FB
:100A7000294BDA617047002905D0274A926A024360
:100A8000254B9A6204E0244A926A8243224B9A627E
:100A90007047002905D0204AD26802431E4BDA6015
:100AA00004E01D4AD26882431B4BDA60704700297C
:100AB00005D0194A12690243174B1A6104E0164A1D
:100AC00012698243144B1A617047002905D0124AFB
:100AD000527A0243104B5A7204E00F4A527A824310
:100AE0000D4B5A7270470C48406A012109060843B1
:100AF00009494862704701460020074A92680A4047
:100B0000002A01D0012000E00020704702498872CD
:100B10007047000000127A000010024000093D00FA
:100B2000006CDC0200000020809FD50012800000D5
:100B300010B50446F748844208D10121C014FFF7DC
:100B4000A8FF0021E014FFF7A4FF62E00120800766
:100B5000844208D101210846FFF7A9FF00210120A6
:100B6000FFF7A5FF55E0EC48844208D1012102209F
:100B7000FFF79DFF00210220FFF799FF49E0E748BA
:100B8000844208D101211020FFF791FF002110209D
:100B9000FFF78DFF3DE0E248844208D1012120208B
:100BA000FFF785FF00212020FFF781FF31E0DD48BE
:100BB000844208D101218015FFF779FF0021A0159B
:100BC000FFF775FF25E0D848844209D101210804C8
:100BD000FFF75FFF002101200004FFF75AFF18E034
:100BE000D248844209D101214804FFF752FF002175
:100BF00001204004FFF74DFF0BE0CD48844208D1AF
:100C000001218804FFF745FF002101208004FFF740
:100C100040FF10BD00220288BE4B984206D001233F
:100C20009B07984202D0BC4B984203D1C14B1A405B
:100C30004B881A43B94B984203D0BF4B1A400B89DB
:100C40001A4302804B68C3620B880385B14B9842FC
:100C500008D0B54B984205D0B44B984202D0B44B63
:100C6000984201D18B7A0386012383827047002149
:100C7000C943416000210180018141808172704738
:100C80000185828270470A4600210188A94B1940DC
:100C90000B46134319460180704741627047C16299
:100CA00070470146486A70470146088D7047002921
:100CB00004D0028802231A43028004E002889D4B7C
:100CC0006E331A4002807047002904D00288042342
:100CD0001A43028004E00288964B6C331A4002806B
:100CE0007047002904D0028880231A43028004E060
:100CF0000288904B103B1A400280704702888D4B4F
:100D000068331A40028002880A43028070470288D2
:100D1000894B1A40028002880A43028070470029EA
:100D200004D0028801231A43028004E00288814B28
:100D30006F331A40028070470A884B881A438B88A9
:100D40001A43CB881A430B891A434B891A438B8960
:100D50001A4344231A527047002101804180818048
:100D6000C1800181418181817047002907D04422DF
:100D7000125A0123DB031A4344231A5205E044228A
:100D8000125A53045B0C44221352704770B500246E
:100D900000220023058C674E6F3635400584028C97
:100DA0008388048B634D2C40B51E2C400D882C434A
:100DB000751E2A408D892A434D882A43554DA842E5
:100DC00008D0594DA84205D0584DA84202D0584DE0
:100DD000A84212D1574D68352A40CD892A43554D36
:100DE0006C352A408D882A43524D903D2B40534DFF
:100DF0002B400D8A2B434D8A2B43838004838D68BF
:100E00004563028470BD70B5002400220023058C68
:100E1000484E603635400584028C8388048B484DEB
:100E20002C40454D2C400D782D062D0C2C43414D6A
:100E300050352A408D892D052D0C2A434D882D05CE
:100E40002D0C2A43334DA84202D0374DA8421CD165
:100E50003C4D2B400D8AAD042D0C2B432D4DA8424B
:100E600013D1344D103D2A40CD892D052D0C2A4338
:100E7000304D30352A408D882D052D0C2A43324DBA
:100E80002B404D8AAD042D0C2B43838004838D6849
:100E90008563028470BD70B5002400220023058C98
:100EA000244E903E35400584028C8388848B214DEE
:100EB0002C40204D6D352C400D882C431F4D2A4071
:100EC0000D7B2D062D0C2A438D782D062D0C2A43E3
:100ED000104DA84217D11C4D2A408D7B2D062D0C9C
:100EE0002A43184D2A400D792D062D0C2A43174D03
:100EF0002B40174D2B400D8A2D052D0C2B434D8A71
:100F00002D052D0C2B43838084838D68C56302845B
:100F100070BD0000002C01400004004000100040A3
:100F20000014004000200040004001400044014007
:100F3000004801408FFF0000FFFC0000FFFD0000A3
:100F4000FF8F0000FFFB0000FFF70000FFEF000035
:100F5000FFDF000070B5002200230024058CF94E4D
:100F600035400584038C8488828BF74D2A40F74DE9
:100F70002A400D782D062D0C2A43F54D2B400D7B74
:100F80002D072D0C2B438D782D072D0C2B43F14D68
:100F9000A84205D1F04D2C400D8AAD052D0C2C43F7
:100FA000848082838D680564038470BD0021018084
:100FB0004180818081608181C1810182418270474D
:100FC00070B50346002000241846183001258D40D6
:100FD000ACB21D8CA5431D84002901D0082909D17C
:100FE0004D10281805687026B5430560056815433F
:100FF00005600DE00D1F2D046D0C281805680726EF
:101000003603B543056005681606360C35430560A2
:1010100070BD4163704781637047C163704701646D
:1010200070470A460021018BCC4B19400B461343F5
:101030001946018370470A460021018BC24B1940B3
:1010400013061B0C1943018370470A460021818B4C
:10105000C24B19400B4613431946818370470A4619
:101060000021818BB84B194013061B0C1943818357
:101070007047002904D0828801231A43828004E04B
:101080008288B64B6F331A40828070470A4600212F
:10109000018BB24B683319400B4613431946018349
:1010A00070470A460021018BAD4B194013061B0CFB
:1010B0001943018370470A460021818BA74B68338F
:1010C00019400B4613431946818370470A46002195
:1010D000818BA34B194013061B0C19438183704766
:1010E0000A460021018B9D4B6C3319400B4613437C
:1010F0001946018370470A460021018B994B19401C
:1011000013061B0C1943018370470A460021818B8B
:10111000924B6C3319400B46134319468183704739
:101120000A460021818B8F4B194013061B0C194373
:10113000818370470A460021018B884B103B194080
:101140000B4613431946018370470A460021018B61
:101150004904490C13061B0C1943018370470A46C6
:101160000021818B7D4B103B19400B4613431946E0
:10117000818370470A460021818B4904490C13067C
:101180001B0C1943818370470A460021018C734B65
:101190006E3319400B4613431946018470470A46C3
:1011A0000021018C6D4B683319400B4613431946DF
:1011B000018470470A460021018C684B5033194066
:1011C00013051B0C1943018470470A460021018C4A
:1011D000624B103B194013051B0C194301847047E7
:1011E0000A460021018C604B194013061B0C194361
:1011F000018470470A460021018C594B194013069F
:101200001B0C1943018470470A460021018C504B86
:10121000194013071B0C19430184704702894F4B77
:1012200068331A40028102890A430281704730B54F
:10123000002301248C40A3B2048C9C430484048CBE
:1012400015468D40ADB22C43048430BD30B500232B
:1012500004248C40A3B2048C9C430484048C154663
:101260008D40ADB22C43048430BD002904D0828867
:1012700004231A43828004E08288384B6C331A407E
:1012800082807047828B394B1A408283828B0B0697
:101290001B0C1A4382837047F8B50C4600210025C9
:1012A00000260096068C274F3E400684818B058CD5
:1012B0002607360C00962E4E31401606360C31436A
:1012C0001E07360C31432B4E354001273F03009E4D
:1012D0003E43354381830584F8BD828B1F4B6433C5
:1012E0001A408283828B0A4382837047F8B50C468A
:1012F0000021002500260096068C184F903F3E40A6
:101300000684818B058C2606360C0096134E833E90
:1013100031401E05360C16433143174E3540FF272A
:101320000137009E3E43354381830584F8BD028B1F
:101330000E4B1A400283028B0B061B0C1A430283CE
:1013400070470000FFEF0000FF8F0000FFFC00006F
:10135000FFDF0000002C0140FFBF00008FFF0000F6
:10136000FFF70000FFFB0000FFFD0000FFF300009F
:10137000FF0C0000FF5F0000FFF50000F8B50C4611
:101380000021002500260096068CE64F3E4006848C
:10139000018B058C2605360C0096E34E31401E0766
:1013A000360C31431606360C3143DE4E903E354046
:1013B0001027009E3E43354301830584F8BD028B10
:1013C000D84B1B1D1A400283028B0A4302837047CD
:1013D000F0B50C4600210025068CD24F0F373E4059
:1013E0000684018B058CCF4EE33E31401E05360C42
:1013F00016433143CB4EB61D3540012626433543B7
:1014000001830584F0BD70B505460C462088002890
:101410000AD12389A28861882846FFF7D9FFE1888D
:101420002846FFF7CCFF25E0208804280AD123892D
:10143000A28861882846FFF7A1FFE1882846FFF7C8
:1014400076FF17E0208808280AD12389A2886188BE
:101450002846FFF74BFFE1882846FFF73EFF09E0EB
:101460002389A28861882846FFF716FFE18828466D
:10147000FFF708FF70BD00210180418001218180BC
:101480000021C18001817047F8B505460C46002651
:1014900001276088002801D1022600E00026A088EC
:1014A000012801D1022700E001272088002814D15B
:1014B0002389A28861882846FFF78AFFE1882846A9
:1014C000FFF77DFF23893A4631462846FFF756FF4E
:1014D000E1882846FFF72BFF13E02389A288618863
:1014E0002846FFF74BFFE1882846FFF720FF2389B6
:1014F0003A4631462846FFF76BFFE1882846FFF75A
:101500005EFFF8BD0146486B70470146886B704727
:101510000146C86B70470146086C7047002A03D02B
:1015200083890B43838102E083898B4383817047E6
:101530008182704702460020138A0B40002B01D0A5
:10154000012000E000207047CA430282704730B596
:101550000246002000230024158A0D402B46958961
:101560000D402C46002B03D0002C01D0012000E0C0
:10157000002030BDCA430282704710B50B461343AA
:101580004824235210BD002A03D083890B43838152
:1015900002E083898B4383817047002904D08288CD
:1015A00008231A43828004E082885E4B08331A4085
:1015B0008280704701895B4A09321140018170477E
:1015C0000A4600210189574B603B19400B461343E3
:1015D00019460181704730B504460D46294620461C
:1015E000FFF7EEFF208907210843208130BDF8B5C1
:1015F00004460D4616461F46602D06D13B46012285
:1016000031462046FFF7BAFE05E03B46012231464F
:101610002046FFF7DDFE29462046FFF7D1FF20894F
:10162000072108432081F8BD30B50C46002101890F
:10163000C9B21D062D0C154325432943018130BD38
:10164000FFB505460E46174600243A463146284661
:10165000039BFFF7E9FF2C8932480930044007203B
:101660000443304860380440702004432C81FFBD9F
:10167000F0B504460D4616461F463B4632462946FF
:101680002046FFF7D1FF20890121890308432081EB
:10169000F0BD8288234B603B1A40828082880A43D7
:1016A0008280704702891F4B09331A4002810289E8
:1016B0000A430281704702891A4B703B1A4002812B
:1016C00002890A4302817047F0B50C4600210025CB
:1016D00000260189058B068C124F093739400F46C9
:1016E00027433946114F3D40FF2702373D430D4FF9
:1016F0009A3F3E401F053F0C17433E43018105833F
:101700000684F0BD002904D0828880231A43828099
:1017100004E08288034B703B1A408280704750225D
:1017200011527047EFFF0000FF0C0000FCFC0000AE
:1017300010B50446F848844209D101218803FFF717
:10174000A8F9002101208003FFF7A3F956E0F34830
:10175000844209D101214804FFF7A9F900210120A1
:101760004004FFF7A4F949E0ED48844209D1012182
:101770008804FFF79CF9002101208004FFF797F906
:101780003CE0E848844209D10121C804FFF78FF901
:1017900000210120C004FFF78AF92FE0E2488442CB
:1017A00009D101210805FFF782F900210120000578
:1017B000FFF77DF922E0DD48844208D10121202095
:1017C000FFF767F900212020FFF763F916E0D848FA
:1017D000844208D101214020FFF75BF9002140201D
:1017E000FFF757F90AE0D348844207D1012180204E
:1017F000FFF74FF900218020FFF74BF910BDF0B53E
:101800008BB004460D46002700200A900026206871
:101810004008400020606668032109033046884381
:101820000646A868064366602668C3480640E9681D
:10183000686808432969084306432660A6680321AF
:10184000090230468843064668690643A660684632
:10185000FEF79DFFB048844202D106980A900DE041
:10186000AE48844202D107980A9007E0AC4884420F
:1018700002D108980A9001E002980A90206801219C
:10188000C903084000280CD029680A9A500002F0C9
:101890004FFB074629680A9A500002F049FB0E46A2
:1018A00009E029680A9802F043FB074629680A986C
:1018B00002F03EFB0E4628684008B04200D87F1C6C
:1018C00020680121C9030840002806D03807460FC8
:1018D00038469A49084030430746A7810BB0F0BD0F
:1018E0004B21C9010160002141608160C1600C2170
:1018F000016100214161704710B5002242680F2448
:1019000024021346A3431A464C680B6823438C6891
:101910002343CC6823431A43426010BD0021016079
:1019200041608160C1607047002904D002680123D2
:101930001A43026003E002685208520002607047D6
:10194000002A03D003680B43036002E003688B4363
:1019500003607047002905D002680123DB031A43A6
:10196000026004E002680123DB039A4302607047CF
:10197000002905D082680123DB021A43826004E05B
:1019800082680123DB029A4382607047002905D0F8
:1019900042680123DB041A43426004E042680123E9
:1019A000DB049A4342607047002905D04268012356
:1019B0009B041A43426004E0426801239B049A435B
:1019C00042607047002A03D043680B43436002E043
:1019D00043688B4343607047002905D04268012368
:1019E000DB031A43426004E042680123DB039A43AD
:1019F00042607047002905D042680123DB051A4385
:101A0000426004E042680123DB059A43426070476C
:101A10004269120E1206426142690A4342617047EE
:101A2000028AFF231B021A400282028A0A430282B0
:101A30007047002904D0026802231A43026003E0C1
:101A4000026802239A4302607047826803231B05E1
:101A50009A43826082680A4382607047002905D0F9
:101A6000426801231B051A43426004E042680123D7
:101A70001B059A4342607047426803235B059A4303
:101A8000426042680A4342607047CA05D20D02852F
:101A900070470146888CC005C00D7047426812022D
:101AA000120A426042680B061A43426070470029DE
:101AB00005D0026801235B031A43026004E0026858
:101AC00001235B039A430260704702680123DB0233
:101AD0009A43026002680A4302607047426810231A
:101AE0009A43426042680A4342607047426820233A
:101AF0009A43426042680A4342607047002905D019
:101B0000426801239B031A43426004E042680123B8
:101B10009B039A43426070470038014000440040F4
:101B200000480040004C00400050004000140140BC
:101B300000180140001C0140F3E9FFFFF0FF000026
:101B4000002904D0826808231A43826003E0826877
:101B500008239A4382607047028AD2B20282028AC4
:101B60000B021A4302827047002904D082682023A6
:101B70001A43826003E0826820239A4382607047A0
:101B8000002904D0826810231A43826003E082682F
:101B900010239A4382607047826807235B049A434C
:101BA000826082684B041A43826070474269120265
:101BB000120A426142690B061A4342617047826809
:101BC00004239A43826082680A4382607047002936
:101BD00004D0826802231A43826003E082680223F1
:101BE0009A4382607047002905D0826801239B03D5
:101BF0001A43826004E0826801239B039A43826057
:101C0000704782680123DB039A43826082680A433B
:101C10008260704702681F235B059A430260026876
:101C20004B051A430260704702681F231B049A4346
:101C3000026002680B041A4302607047002A03D056
:101C400083680B43836002E083688B438360704743
:101C5000826801235B039A43826082680A43826040
:101C60007047F8B5034600240026009600250020A2
:101C700018460E04340ECEB200960127009EB740DF
:101C80003D46022C01D1001D02E0032C00D108309A
:101C9000002A03D006682E43066002E00668AE43C1
:101CA0000660F8BD002A03D0038B0B43038302E0D8
:101CB000038B8B4303837047826801231B039A4382
:101CC000826082680A438260704702460020D369BE
:101CD0000B40002B01D0012000E000207047016282
:101CE000704770B502460B460024002100250020F5
:101CF0001E04350ED9B201268E403146012D02D187
:101D00001668314006E0022D02D15668314001E0EC
:101D1000966831401C0C0126A6403446D6693440F2
:101D2000002903D0002C01D0012000E0002070BD6C
:101D300010B5002300220B0C01249C4022460262B5
:101D400010BD000041480068012108433F49086078
:101D5000084640684860084640680521C9040843B1
:101D60003A494860084640684860084600680121D2
:101D7000090608433549086000BF3448006801215E
:101D8000490608400028F8D03048406880088000A4
:101D90002E49486008464068022108432B494860A4
:101DA00000BF2A4840680C2108400828F9D1704734
:101DB000F8B50025002400260027244840680C219F
:101DC00008400546002D04D0042D06D0082D2AD148
:101DD00007E01F481F49086029E01D481D490860A9
:101DE00025E01A4840680F21890408400446174836
:101DF00040680321C90308400646A00C841C002E3D
:101E000004D115486043134908600BE00F48C06ACD
:101E10000007000F471C39460D4802F089F860435F
:101E20000C49086003E00A480A49086000BF00BF87
:101E300006484068F0210840000908490D5C054843
:101E40000068E84003490860F8BD00000010024047
:101E500000127A001000002000093D00140000204C
:101E600010B500F067F800F06AF900F0C5F801213C
:101E70004020FEF7D6FD05F0DBF910BDFFF7F0FFBF
:101E800010E009A011F076F9134805F0F7FF0A22D7
:101E9000114612A004F01CFE7D20000104F087FD15
:101EA00001F098FDEDE700000D0A202A2A2A2A2ACF
:101EB0002A2A2A2A2A20656D77696ECBD9B6C8B23C
:101EC000E2CAD4B3CCD0F22A2A2A2A2A2A2A2A2AD7
:101ED0002A2A200D0A000000FFFFFF0020656D5731
:101EE000696E205370656564207465737420446561
:101EF0006D6F0000704700BFFEE7704770470A48EB
:101F00000068401C08490860704710B50749084838
:101F1000FFF7E7FE002805D0054920318988C8B2BF
:101F200000F015F910BD0000240000200501050097
:101F30000038014010B57D21C9002A48006801F031
:101F4000F7FF0446601E2849884201D901200CE0B1
:101F5000601E264948610321081F00F00BF800208D
:101F600022498861072008610020002801D000BFB5
:101F7000FEE710BD10B5002819DA1D4A03071B0F34
:101F8000083B9B089B00D2588307DC0EFF23A3402D
:101F90009A438B071B0E8407E40EA3401A43144B8D
:101FA0000407240F083CA408A4001A5118E0114AA1
:101FB00003231B02D21883089B00D2588307DC0E30
:101FC000FF23A3409A438B071B0E8407E40EA34014
:101FD0001A43084B032424021B198408A4001A5135
:101FE00010BD000010000020FFFFFF0000E000E037
:101FF0001CED00E000E100E00EB501210802FEF753
:102000002CFD26492648006801F092FF401E81B24F
:1020100068460180002141800920019068460181C5
:1020200069462048FEF7F6FD01211E48FEF759FEDD
:102030000EBD10B5044601211A48FEF770FE0AE0F5
:1020400000BF01211748FFF775FA0028F9D00121D8
:102050001448FFF779FA2046611E8CB20028EFD1B0
:1020600000211048FEF75BFE10BD10B5044602E0EB
:102070006420FFF7DEFF2046611E8CB20028F7D1F6
:1020800010BD10B5044603E07D20C000FFF7EDFF52
:102090002046611E8CB20028F6D110BD40420F00D0
:1020A00010000020002000401CB501214804FEF76C
:1020B000B8FC01218803FEF7C2FC01220921C806F1
:1020C000FEF705F901220A210920C006FEF7FFF8F4
:1020D00003204002009002216846017103214171F2
:1020E000002181710121C17169460920C006FEF7F6
:1020F00065F81CBD00B587B0E120400201900020CA
:1021000002900390049006900C20059001A933489A
:10211000FFF775FB012232493048FFF7A2FD01218C
:102120002E48FFF701FC07B000BD08B51B2168462B
:102130000170012141708170FEF7F8F808BD10B5FB
:10214000FFF7B2FFFFF7D6FFFFF7EFFF10BD10B5A7
:10215000044600BF80212148FFF7B7FD0028F9D0D1
:1021600021461E48FFF791FC00BF40211B48FFF7A6
:10217000ACFD0028F9D010BD70B504460D4603E053
:102180002078FFF7E4FF641C2846691E8DB2002802
:10219000F6D170BD10B5044603E02078FFF7D7FFF5
:1021A000641C20780028F8D10A20FFF7D0FF10BD6A
:1021B00070B504460D46E0B2FFF7C9FF204670BD7A
:1021C00010B5044600BF20210448FFF77EFD00281B
:1021D000F9D00248FFF75DFC10BD00000038014057
:1021E0000501050010B504462021FE48FEF765F8FC
:1021F0008021FC48FEF75FF8E0430006000A204318
:102200000921C90688611021F648FEF756F84021D9
:10221000F448FEF752F84021F248FEF74CF810213E
:10222000F048FEF748F810BD10B504462021ED48EF
:10223000FEF741F88021EB48FEF73DF8E043000649
:10224000000A20430921C90688611021E548FEF7EC
:1022500034F84021E348FEF730F84021E148FEF72A
:102260002AF81021DF48FEF726F810BD1CB5012121
:1022700003204004FEF7D5FB0120C003009001219C
:10228000684601710321417100218171694609206D
:10229000C006FDF793FF082000906946D148FDF77E
:1022A0008DFF102000906946CE48FDF787FF202063
:1022B00000906946CB48FDF781FF402000906946B9
:1022C000C848FDF77BFF802000906946C548FDF7B0
:1022D00075FF01214804FEF7A4FB0920C006006831
:1022E000000C00040921C906086008460068BE49C0
:1022F00008430921C906086008468088FF210902B1
:1023000008400921C90688800846808AFF21090201
:1023100008400921C90688820821B248FDF7CDFF8F
:102320000A20FFF7A2FE0821AE48FDF7C4FF642093
:10233000FFF79BFEB220FFF755FF0520FFF774FF64
:102340000520FFF771FF0020FFF76EFF3320FFF736
:102350006BFF3320FFF768FFB720FFF743FF322002
:10236000FFF762FFC220FFF73DFF0120FFF75CFF90
:10237000C320FFF737FF0B20FFF756FFBB20FFF707
:1023800031FF2020FFF750FFC520FFF72BFF202053
:10239000FFF74AFFD020FFF725FFA420FFF744FFF7
:1023A000A120FFF741FFD220FFF71CFF4C20FFF7D1
:1023B0003BFFE820FFF716FF0320FFF735FFE9207A
:1023C000FFF710FF0D20FFF72FFF1220FFF72CFF64
:1023D0000020FFF729FF3620FFF704FF0020FFF75A
:1023E00023FF3520FFF7FEFE0020FFF71DFF3A20F8
:1023F000FFF7F8FE0520FFF717FFC620FFF7F2FEF4
:102400001120FFF711FFE020FFF7ECFED020FFF7CF
:102410000BFF0620FFF708FF0B20FFF705FF0A2040
:10242000FFF702FF0920FFF7FFFE0520FFF7FCFE84
:102430002E20FFF7F9FE4320FFF7F6FE4420FFF7BA
:10244000F3FE0920FFF7F0FE1620FFF7EDFE152042
:10245000FFF7EAFE2320FFF7E7FE2720FFF7E4FE61
:10246000E120FFF7BFFED020FFF7DEFE0620FFF7DA
:10247000DBFE0B20FFF7D8FE0920FFF7D5FE082072
:10248000FFF7D2FE0620FFF7CFFE2E20FFF7CCFE8F
:102490004420FFF7C9FE4420FFF7C6FE3A20FFF7AD
:1024A000C3FE1520FFF7C0FE1520FFF7BDFE232059
:1024B000FFF7BAFE2620FFF7B7FE2120FFF792FEB6
:1024C0001120FFF78FFE7820FFF7CFFD2920FFF7BF
:1024D00089FE3220FFF7C9FD0121C9030920C0068A
:1024E000FDF7E9FE1CBD10B50920C0060068000C10
:1024F00000040921C90608600846C068000C0004F1
:10250000C8600846C068384908430921C906C86040
:102510000846808AFF21090208400921C9068882ED
:1025200020213048FDF7C7FE40212E48FDF7C3FEAD
:1025300010212C48FDF7C1FE80212A48FDF7BDFE81
:102540000920C006008AC4B280212648FDF7B3FEE8
:1025500010212448FDF7AFFE0920C0060068000CDA
:1025600000040921C9060860084600681E4908439E
:102570000921C906086008468088FF210902084031
:102580000921C90688800846808AFF21084309215D
:10259000C9068882204610BD70B504460D462A2023
:1025A000FFF720FE2012FFF73FFEE0B2FFF73CFEF0
:1025B0000020FFF739FEF020FFF736FE2B20FFF753
:1025C00011FE2812FFF730FEE8B2FFF72DFE0120C2
:1025D000FFF72AFE4020FFF727FE2C20FFF702FE20
:1025E00070BD0000000400485555000070B5044659
:1025F0000D4620217D48FDF75EFE80217B48FDF7DA
:102600005AFEE0430006000A20430921C9068861FA
:1026100010217648FDF751FE40217448FDF74DFE2C
:1026200040217248FDF747FEE8430006000A2843B0
:102630000921C906886140216C48FDF73EFE402112
:102640006A48FDF738FE10216848FDF734FE70BD7A
:1026500070B505460E4614462A20FFF7C3FD281222
:10266000FFF7E2FDE8B2FFF7DFFD2B20FFF7BAFD31
:102670003012FFF7D9FDF0B2FFF7D6FD2C20FFF79F
:10268000B1FD20215948FDF716FE80215748FDF77E
:1026900012FE2012C0430006000A2112084309213D
:1026A000C906886110215148FDF707FE40214F48B7
:1026B000FDF703FE40214D48FDF7FDFDE043000618
:1026C000000AE1B208430921C90688614021474850
:1026D000FDF7F3FD40214548FDF7EDFD102143488E
:1026E000FDF7E9FD70BDF3B581B0044620460299BF
:1026F000FFF752FF3E20FFF775FDFFF7F4FEFFF7EF
:10270000F2FE0546FFF7EFFE0646FFF7ECFE074632
:102710003804310208432843FEBDFFB581B00446AA
:102720000D4616460A9F2A20FFF75CFD2012FFF790
:102730007BFDE0B2FFF778FD3012FFF775FDF0B2D8
:10274000FFF772FD2B20FFF74DFD2812FFF76CFD00
:10275000E8B2FFF769FD04990812FFF765FD0499D7
:10276000C8B2FFF761FD301B401C0499491B491C8E
:10277000484300902C20FFF735FD20211B48FDF732
:102780009AFD80211948FDF796FD10211748FDF7A5
:1027900094FD20E03812C0430006000A39120843B5
:1027A0000921C906886140211048FDF786FD4021B6
:1027B0000E48FDF780FDF8430006000AF9B2084311
:1027C0000921C906886140210848FDF776FD4021AE
:1027D0000648FDF770FD0098411E00910028D9D1F0
:1027E00010210248FDF767FD05B0F0BD0004004868
:1027F000084800687047074A1268111800BF054A68
:1028000012688A1A002AFADC7047704770477047CE
:10281000704770472400002010B5012109030348C8
:1028200003F08EFC024805F039FB10BDA405002022
:10283000F8850208F8B507460C4615461E46B2B2A2
:10284000A9B2A0B2FFF704FFF8BDF8B507460C46E1
:102850001546A9B2A0B2FFF746FF0646002630464D
:10286000F8BDF7B504460D4629462046029AFFF703
:10287000ECFF064621698868804707463046784065
:10288000034629462046029AFFF7D4FFFEBDFFB556
:1028900083B00D4614461E46FE480068C06B0068B3
:1028A0000290FC480068007CC007C00F00280FD0D1
:1028B0000AE02F4605E0224639460398FFF7D1FF8C
:1028C0007F1CB742F7DD641C0C988442F1DD0AE0FE
:1028D000029880B200900C9883B2B2B2A1B2A8B2B2
:1028E0000190FFF71AFF07B0F0BDF8B505460E4698
:1028F00014461F463B462246314628460094FFF7C1
:10290000C6FFF8BDF8B506460C4617461D462346D9
:102910003A46214630460095FFF7B9FFF8BDFFB5AE
:1029200085B00E461C460F9F0E9D109800680390C0
:102930001098406802907619D6480068007C80079D
:10294000800F002806D0012838D002281DD0032887
:102950005AD132E000BF207880222A41104000285E
:1029600001D0029800E0039803463146761C079A8E
:102970000598FFF75FFF681C0546082801D1002570
:10298000641C781E071EE6D13EE000BF207880213F
:1029900029410840002805D03146029B079A059836
:1029A000FFF748FF761C681C0546082801D1002562
:1029B000641C781E071EE9D126E000BF059909694D
:1029C00088688047049000BF207880212941084012
:1029D00000280ED03146079A0598FFF736FF019080
:1029E00004990198484003463146079A0598FFF735
:1029F00021FF761C681C0546082801D10025641CAF
:102A0000781E071EE0D100BF00BF09B0F0BDFFB5C2
:102A100083B00F460698007802900C9D0C9D7F199C
:102A20009C480068007C8007800F002802D00228A4
:102A300050D150E00E98002828D000BF0320401B42
:102A400044000620011BC0200841029908400646A8
:102A5000E640B1000E984058019038467F1C009027
:102A60000146019B059A0398FFF7E4FE681C0546A2
:102A7000042805D100250698401C06900078029095
:102A80000D98401E0D900028D8D123E000BF0320F0
:102A9000401B44000620011BC02008410299084049
:102AA000E040064638467F1C334600900146059AB2
:102AB0000398FFF7BFFE681C0546042805D10025D2
:102AC0000698401C0690007802900D98401E0D90CC
:102AD0000028DCD150E00E98002828D000BF032049
:102AE000401B44000620011BC020084102990840F9
:102AF0000646E640002E09D0B1000E9840580190DD
:102B00003946019B059A0398FFF794FE7F1C681CC9
:102B10000546042805D100250698401C069000783B
:102B200002900D98401E0D900028D8D123E000BFE0
:102B30000320401B44000620011BC02008410299CD
:102B400008400646E640002E05D033463946059A31
:102B50000398FFF76FFE7F1C681C0546042805D10B
:102B600000250698401C0690007802900D98401EA3
:102B70000D900028DCD100BF00BF07B0F0BDFFB54D
:102B800083B00F460698007802900C9D0C9D7F192B
:102B900040480068007C8007800F002802D002288F
:102BA00050D150E00E98002828D000BF0120401BD3
:102BB00084000420011BF0200841029908400646C9
:102BC000E640B1000E984058019038467F1C0090B6
:102BD0000146019B059A0398FFF72CFE681C0546E9
:102BE000022805D100250698401C06900078029026
:102BF0000D98401E0D900028D8D123E000BF012081
:102C0000401B84000420011BF02008410299084069
:102C1000E040064638467F1C334600900146059A40
:102C20000398FFF707FE681C0546022805D100251A
:102C30000698401C0690007802900D98401E0D905A
:102C40000028DCD153E00E9800282BD000BF0120D3
:102C5000401B84000420011BF02008410299084019
:102C60000646E640002E09D0B1000E98405801906B
:102C70003946019B059A0398FFF7DCFD7F1C681C11
:102C80000546022805D100250698401C06900078CC
:102C9000029001E0740000200D98401E0D90002865
:102CA000D5D123E000BF0120401B84000420011B7C
:102CB000F0200841029908400646E640002E05D063
:102CC00033463946059A0398FFF7B4FD7F1C681C0C
:102CD0000546022805D100250698401C069000787C
:102CE00002900D98401E0D900028DCD100BF00BF5F
:102CF00007B0F0BDFFB581B00F461C460A9DF748EE
:102D00000068007C8007800F002802D0022845D18F
:102D10001FE00B9800280FD00BE02678B1000B982D
:102D200043583946039A0198FFF784FD6D1E7F1CB6
:102D3000641C002DF1DC0BE008E023783946039A8F
:102D40000198FFF777FD6D1E7F1C641C002DF4DCDD
:102D500024E00B98002811D00DE02678002E07D033
:102D6000B1000B9843583946039A0198FFF762FD6A
:102D70006D1E7F1C641C002DEFDC0EE00BE026783E
:102D8000002E05D033463946039A0198FFF752FDCD
:102D90006D1E7F1C641C002DF1DC00BF00BF05B060
:102DA000F0BDFFB581B007460D461C460A9E08E0FF
:102DB000238829463846039AFFF73CFD761E6D1C92
:102DC000A41C002EF4DC05B0F0BDFFB581B00746B1
:102DD0000D461C460A9E08E0236829463846039A99
:102DE000FFF728FD761E6D1C241D002EF4DC05B0B7
:102DF000F0BDFFB583B015461E460F9F0D980828FD
:102E000048D006DC012809D002281BD0042873D141
:102E10002CE0102850D020286ED15DE000240DE079
:102E20001099119862193B460196009102900499FD
:102E30000398FFF774FD0E983F18641C0C988442A9
:102E4000EEDB59E000240DE01099119862193B4621
:102E500001960091029004990398FFF7D8FD0E980F
:102E60003F18641C0C988442EEDB45E000240DE022
:102E70001199109862193B460196029100900499AD
:102E80000398FFF77CFE0E983F18641C0C98844250
:102E9000EEDB31E000240BE0119862193B4600960E
:102EA000019004990398FFF725FF0E983F18641CC2
:102EB0000C988442F0DB1FE0002409E062193B46D5
:102EC000009604990398FFF76CFF0E983F18641C56
:102ED0000C988442F2DB0FE0002409E062193B46C3
:102EE000009604990398FFF770FF0E983F18641C32
:102EF0000C988442F2DB00BF00BF07B0F0BD70B594
:102F00000446A06800280BD11C2003F05BF9A060E8
:102F1000A568216988688047064607F03DF8A861E2
:102F2000A068002801D1012070BD0020FCE710B589
:102F300004460A46A168130010F03DF90F1F090B63
:102F40000D0F1F1F1F11131517191B1D1F00486898
:102F500010BD8868FCE7C868FAE70869F8E788697F
:102F6000F6E70020F4E70120F2E70120F0E7002077
:102F7000EEE70020ECE70020EAE70020C043E7E7A7
:102F80000246012901D1564870470020FCE78268BB
:102F900000230B804B8093895B1E1BB28B80138AAE
:102FA0005B1E1BB2CB8070477CB504460D461646AF
:102FB000002000900190009501966A460321A069C7
:102FC00000F0B4F87CBDF8B504460D460020009032
:102FD0002046FFF794FFA068002807D0A668356058
:102FE00000956A460221A06900F0A0F8F8BDF8B586
:102FF00005460E4617462846FFF781FFA8680028B9
:1030000003D0AC68E66027616661F8BDFEB5054691
:103010000E4617460020009001902846FFF76FFFEC
:10302000A868002810D0AC686069002801D130463B
:1030300000E0606960616660A760009601976A467B
:103040000721A86900F072F8FEBD70B5044620465D
:10305000FFF755FF054600220121A06900F066F840
:103060000543284670BD10B5044600220521A0691D
:1030700000F05CF810BD10B5044600220621A069DE
:1030800000F054F810BD7CB504460D4616460020ED
:10309000009001906846057100966A460421A06977
:1030A00000F044F87CBD00B502460846093803002C
:1030B00010F081F8080507090B260D0F11260948A5
:1030C00000BD0948FCE70948FAE70948F8E709485C
:1030D000F6E70948F4E70948F2E700007400002029
:1030E000E4970208C72F0008EF2F00080D300008F2
:1030F0004B30000867300008773000088730000840
:103100000020DDE710B500231A461049104803F0EF
:103110008DFBFF224132F021002006F005FEFF2248
:103120004132F021002006F016FE10BDF8B506462B
:103130000C461746012C03D1FFF798F80020F8BD84
:103140000025ED4300BF00BF2846F8E79C73020846
:10315000183401080020F7490860F7490860F7496A
:103160000860704710B504461120C00404F07EFECC
:1031700003F0A8FA002C04D005221146F04803F011
:103180008DFD10BD7CB5044606F030FB054606F00B
:1031900047FB06461120C004EA4933462A460091FF
:1031A00001900021084603F03BFE002C04D00522CC
:1031B0001146E34803F072FD7CBDF1B588B006F01E
:1031C00015FB039006F02CFB064606F0FFFA049070
:1031D0000498B04209DD1120C00404F047FE00212C
:1031E0000846049B039A03F07BFAD748006800283E
:1031F00067D1C925D548D64901222B4600920191B5
:1032000002902A460021084604F010F90690012099
:103210003346009000210846039A04F0CFF8CA49CB
:103220000860CA48CA4901226423009201910290B1
:103230000021084604F0FAF80790069804F064FAB2
:1032400005901120C00404F011FE03F03BFA07982A
:1032500004F05AFA1120C004BA49642300220091F4
:1032600001901146104603F0DBFD079804F001FAC7
:103270000746069804F048FA002409E0386804F08C
:10328000FDFD22466421084603F02CFD641C3F1D11
:10329000642CF3DBAC48006804F036FA0021039894
:1032A00033460A46009602910190069804F094F97C
:1032B000069804F0CBF8079804F0C8F8059804F0D5
:1032C00023FAA148006804F079FA0898002804D08D
:1032D000052211469A4803F0E1FC09B0F0BD10B593
:1032E000212109019B48006807F088FE044620461A
:1032F00007F036FF10BD10B521210901954800687F
:1033000007F07CFE0446204608F0A6FA10BD70B512
:10331000044620680E280DD00F2802D01E2816D192
:1033200005E08D4800788D490968884713E0002042
:10333000E06010E0E5686868002807D028686E281B
:1033400003D101208649086000BF00BF03E020468A
:1033500007F024FD00BF00BF70BD10B502E00A20D9
:1033600003F025FB734800680128F8D07C4800680A
:10337000012804D100207A490860012010BD0020F6
:10338000FCE7FEB506460C46256803F019FE6846C4
:1033900004F002FC6846007A002803D00120206077
:1033A0000020FEBD6846007A002806D1012D04D118
:1033B000206001206A490860F3E7FFF7CEFF684903
:1033C000086008460068ECE7F0B585B00446206860
:1033D0000E2806D00F283BD01D2809D0262879D1E9
:1033E00049E007F0FFFD2146019008F0CBF880E0AE
:1033F00021210901606807F001FE03900E21039866
:1034000006F024FF5749039806F0F8FE0121C9028F
:10341000606807F0F3FD03900021039801F078FA4B
:103420005149606807F0EAFD03900021039801F01C
:103430006FFAFF216131606807F0E0FD03904BA156
:10344000039807F05BFA4B49039807F045FA50E000
:10345000606807F042FE0646606807F04FFE0746C8
:10346000454846497B1E721E009101900021084686
:1034700003F0D6FC3DE0A06807F0E6FD0546E068F5
:103480000290029802282ED18002281A02D0012828
:1034900027D120E02748006800280DD000202549CA
:1034A000086003F07EFE25490968401A2249086039
:1034B000002007F077FF0CE001201E49086003F0B0
:1034C00070FE1D490968401A1C490860606807F0D1
:1034D00069FF06E009E0012021490860FFF73AFE94
:1034E00000BF00BF00BF00BF03E0204607F056FC4E
:1034F00000BF00BF05B0F0BDFEB50446206801283E
:103500000BD00E2802D00F284DD139E007F06AFD0C
:103510000746214608F036F849E006F067F9054607
:1035200041206B10691000900022606808F086F955
:103530003DE00000440000203C000020400000204E
:10354000447302085555FF0054000020B47302086C
:103550005898020828000020500000203000002069
:10356000480000206C36010801080000496E7472A2
:103570006F000000C8790208C0CEDC00FFFFFF002A
:10358000606807F0AAFD0546606807F0B7FD0646CB
:10359000F948FA49731E6A1E0091019000210846FD
:1035A00003F03EFC03E0204607F0F8FB00BF00BF3D
:1035B000FEBD10B504466068002808D10E212068C1
:1035C00001F0DBFD0021206801F0EBFD03E0204667
:1035D00001F0A8FB10BD00BF0020FBE7F3B581B0F0
:1035E0000546002600E0761CA85D0028FBD10127D7
:1035F000012402E00A204743641C3946029800F087
:1036000097FC0A28F6D20020A91908550EE00A21D5
:10361000029800F08DFC3031A81900192038C177CC
:103620000A21029800F084FC0290641E002CEED166
:10363000FEBD10B502460020002300E0401C145CD3
:10364000002CFBD103E0CC5C1454401C5B1CCC5C14
:10365000002CF8D1145410BD10B586B0142101A867
:1036600000F0C9FCFF216131C548006807F0C6FCC5
:103670000446C4A101A8FFF7DCFFC4480168491C47
:1036800001A8FFF7ABFFC2A101A8FFF7D2FFC14815
:10369000016801A8FFF7A2FFBFA101A8FFF7C9FFBA
:1036A000BE484068411E01A8FFF798FF01A92046C7
:1036B00007F024F906B010BD7CB507F093FC064670
:1036C00007F042FF02F0FEFF02F0BCFF06F08EF8AA
:1036D000044606F0A5F8054607F084FC0646294690
:1036E0003D39204650383346AD4A019100900521BE
:1036F000AC4803F023F8A249086007F073FC0646C3
:1037000000216010401E3346A74A0191009002211B
:10371000A64803F013F8A64908600846006807F0B9
:103720001FFD9748006807F0CDFD07F05BFC0646DB
:1037300007F0D6FB03F044FC07F054FC064607F004
:10374000DBFB00F0C9F900209049086014E0FFF7A6
:1037500001FDFFF781FF914909688C4A12689200C8
:103760008858804700208B49086092490860874844
:103770000068401C854908608848006883490968DA
:10378000890040580028E2D1804908607C480068E0
:1037900007F036FB8648006807F032FB02F0BCFEFB
:1037A0007CBD002801D0012100E00021824A117077
:1037B000704700210170704710B5804800680028EC
:1037C00002D07F48006810BD03F0EBFC7D4909681A
:1037D000401AF8E7F8B50446212109016848006855
:1037E00007F00CFC0090642C01DDFFF784FD002144
:1037F000009806F03BFD22460021009806F00DFDE2
:1038000003F0CFFC064600BFFFF7D6FF871B642CF2
:1038100003DD3946009806F029FD052003F0C7F8BE
:10382000FFF79BFD0546A74201D2002DECD0642C8A
:1038300001DDFFF754FD03F0C3FBF8BD10B50446EE
:10384000204661490968884710BD014653480089F0
:103850000840002801D0012070470020FCE710B587
:103860004748006807F07CFC07F0BCFB044608F002
:1038700007F810BD10B54E48006807F071FC07F05E
:10388000B1FB044607F0FCFF10BD10B541480068CD
:10389000401C40490860FFF75DFCFFF7DDFE10BDEE
:1038A00010B53748006807F0D7FF03F089FB10BD5B
:1038B00070B504463E48006807F064FD00280AD051
:1038C000FF2161313A48006807F098FB0546214620
:1038D000284607F013F870BD10B53548006807F0AA
:1038E000BBFF10BD10B504462046FFF773FFFFF77E
:1038F000CCFF10BDF3B585B00C4605F077FF029004
:1039000005F08EFF0190029840100490019840103D
:103910000390FFF7AFFFFFF7C3FF03F051FB012058
:10392000FFF78CFF154804F0A9FA022004F008FB09
:10393000264804F0BDFA3C220499059803F0D2F819
:10394000234804F0B5FA03F013FC07460398C01BA4
:1039500002460A322046049903F0C4F8002500E02C
:103960006D1C605D0028FBD150202E46464330463A
:10397000FFF7B8FF07B0F0BDC0CEDC00FFFFFF00CF
:103980002800002044656D6F2000000034000020F6
:103990002E000000380000202F000000A415002099
:1039A000C93300084C340108F9340008D834010840
:1039B0002C0000204C00002050000020440000207B
:1039C000400000203C000020300000207465010809
:1039D000809702088CB02D492D4803F0B9FE07F0FE
:1039E00001FB06462B4907F0E4FD00F0A9FF00218A
:1039F00001A801F059FB00200690002101A801F068
:103A000079FB012101A801F04FFB00200690012164
:103A100001A801F06FFB204801F058FB1F4806F099
:103A2000DFFB1F4800F066FF1E4806F0F7FD1E484A
:103A300006F0B0FE1D4805F025FC022004F080FAD7
:103A40001B4800F03FF805F031FE0546102D13DB52
:103A50000420FFF7FAFE00280ED002F031FC0446E5
:103A600001204005844203DD12481349086006E046
:103A700012481149086002E011480F49086001200E
:103A8000FFF78FFE01E0FFF717FEFCE74C00002078
:103A9000833300080F330008B33500085DA1000828
:103AA000C946000881A4000865A6000845920008E0
:103AB000A4150020BB31000830000020853100082B
:103AC000653100080349016002214160052101813F
:103AD0007047000058000020F0B589B02022364918
:103AE00001A800F061FA05F081FE054605F098FE98
:103AF00004466E100020FFF7A1FE022004F020FA19
:103B00002E4804F0BBF92E4804F0D2F9A00082112F
:103B100031462CA002F0E6FF2C4804F0C9F90B2036
:103B20006043821131462AA002F0DCFF364804F0DF
:103B3000A5F9162060438211314634A002F0D2FF6D
:103B40003E4804F0B5F91620604380110246123257
:103B500031463BA002F0C6FF184804F08FF91B481D
:103B600004F0A6F903F022FB0746394601A800F04D
:103B70004DFA6001001B8211314601A802F0B2FF2C
:103B800026206043821136480088281A41103548A3
:103B900003F084F8094804F071F9094804F088F941
:103BA00038206043821131462FA002F09BFF33483A
:103BB000FFF710FE09B0F0BD10350108FFFFFF0050
:103BC000746501085354656D57696E00809702084B
:103BD000556E6976657273616C2067726170686991
:103BE0006320736F6674776172650A666F72206511
:103BF0006D626564646564206170706C6963617492
:103C0000696F6E7300000000FF882200466F72200B
:103C100053544D3332204D43552050726F647563B9
:103C20007473202D20436F72746578204D33202DDE
:103C300020436F72746578204D340000E08C0208D8
:103C4000436F6D70696C6564204D61792031372058
:103C5000323031382031383A34353A3432000000CD
:103C600000A60108E84C02087777772E73742E635C
:103C70006F6D2F73746D33320000000088130000E5
:103C8000F0B589B005F0B2FD059005F0C9FD0490CE
:103C90000020029000250598471E412604983D38D3
:103CA000069003F055FA089003F036FA079007984B
:103CB00004F0E4F8FFF780FD039000BF3A46314678
:103CC0002846069B03F0A4F90298401C0290FFF7D7
:103CD00073FD044603986430201A0028EEDD039833
:103CE000241A781B401C0699891B491C48430299D9
:103CF000484300902146009800F01AF97D21C90040
:103D000048430190089804F0B9F8019809B0F0BD53
:103D1000F0B59BB0282103A800F06DF905F066FD11
:103D2000054605F07DFD044605F050FD119002F0BA
:103D3000F3FB1198A0420ADD002168468186C18606
:103D400029B2018721B241870DA804F093F860A140
:103D50006BA0FFF7CFFD002608E0B1006B4A50587A
:103D600002F0E8FCB10012AA5050761C082EF4DBD9
:103D7000FFF722FD074600266CE07107C90E12AA64
:103D8000505804F07FF800F0FDF82946019000F04B
:103D9000E5F8E80F40194010081A01B2684602958C
:103DA000818700F0EFF82146019000F0D7F8E00F8E
:103DB00000194010081A01B268460294C18700F049
:103DC000E1F82946029000F0C9F86846808F143067
:103DD000081801B210A8018000F0D4F82146029022
:103DE00000F0BCF86846C08F1430081801B210A863
:103DF00041800223C35E0022825E68463E21415E0E
:103E000002913C21415E01910299019803F000F971
:103E100010A80021415EA94203DB681E00B210A970
:103E2000088010A90220085EA04202DB601E00B2DA
:103E3000488069463C20085E002801DA0020888717
:103E400010A90220085E002801DA0020488003F053
:103E5000B7F8761CFFF7B0FCC01B2D49884203DA87
:103E6000FFF77BFA002888D0FFF70FFDFFF708FF68
:103E70001A90002003F0FEFF0020FFF7DFFC25482A
:103E800003F0FCFF022004F05BF8234804F010F874
:103E900005221146214802F001FF21A103A8FFF7E6
:103EA000C8FB03A81A99FFF799FB03F069F9201AD8
:103EB000401069100246029003A802F013FE7D2014
:103EC0004001FFF787FC02F0BDFB1BB0F0BD000016
:103ED0004D756C7469206C6179657220636C6970D2
:103EE00070696E670A486967686C79206F707469D9
:103EF0006D697A656420647269766572730000008A
:103F0000486967682073706565640000587302082B
:103F100088130000FFFFFF00746501084473020866
:103F2000506978656C732F7365633A200000000058
:103F300030B50B46014600202022012409E00D4641
:103F4000D5409D4205D31D469540491B25469540C9
:103F500040191546521E002DF1DC30BD70B500240D
:103F60002546002801DA01244042002901DA012512
:103F70004942FFF7DDFFAC4200D04042002C00D0A8
:103F8000494270BD0549064A08685043054A8018F1
:103F90000860400870470149086070479805002094
:103FA0006D4EC6413930000010B5431A934209D214
:103FB0008318881803E0401E01785B1E1970521E9A
:103FC000F9D210BD03460B439B0703D009E008C993
:103FD000121F08C0042AFAD203E00B780370401CB9
:103FE000491C521EF9D210BDD2B201E00270401C31
:103FF000491EFBD270470022F6E710B513460A4669
:1040000004461946FFF7F0FF204610BD421E5378C4
:10401000521C002BFBD10B781370491C521C002B37
:10402000F9D17047421C0178401C0029FBD1801A4D
:10403000704703460A780270401C491C002AF9D1D7
:1040400018467047F8B502464A40D40F42004B006C
:1040500052085B089A4202D20246084611464A00BC
:1040600023D0C30D4A00DDB2120EAD1A202D35DA71
:1040700049020126490AF6058A19002C00D052424D
:1040800020214F1B1146B9402A411018C20D9A42F7
:1040900021D0002C17D0012D08DCDA05801AD20FB0
:1040A0008019D207DBB200F007F9F8BDDA05801AF3
:1040B000012340001B06C01880185A428018CA0FFE
:1040C0001043490007E04908C2071143DA05801A86
:1040D00080194008801800F0E7F8F8BD610001225F
:1040E000511A001BF7E70122D2075140AAE701222B
:1040F000D2075040A6E7024670B54A40D30FDB070F
:1041000040002DD04A002AD0010E140E00021202E7
:104110000919400A520A8418E50104465443000A6A
:10412000120A2E045043A4194219200CC543AA18A0
:10413000120C0125AD03521C521912047F392404BC
:1041400000D0521C104301D44000491EC2B20C06DC
:10415000C0092018401C4008802A02D003E000203B
:1041600070BD40084000002900DA0020184370BDEF
:1041700070B502464A40D50F40004A00ED0740089E
:104180005208002814D0002A12D0C40DD30D4102C9
:104190000120C0055202490A520AE41A09181218ED
:1041A0007D34914201D3641C00E04900002C01DA07
:1041B000002070BD0023914201D3891A03434008B7
:1041C00049000028F7D100290AD0914202D10121EB
:1041D000C90705E0914201D2012101E00121C94353
:1041E000E005C018401900F05FF870BDC217C10F9C
:1041F000504010B54018CA079623002100F05CF823
:1042000010BDC20F410040020123400ADB05D20766
:10421000090EC0187F2901DA00207047962903DCB7
:104220009623591AC84001E096398840002AF4D0F4
:1042300040427047C20FD207400040080BD0C10D6A
:104240000723DB01C91840020905400A1143C208CF
:10425000400711437047002001467047CB0FDB0732
:10426000490010B5490802460A4307D00A0D072441
:104270000903E401090B121B002A01DC002010BD18
:10428000C900440F0C43C100E018D205801800F0AB
:104290000BF810BD0122D207002800DB101A0029FC
:1042A00000DB511A81427047002904DA401C4900A2
:1042B00001D140084000704770B40024050C05D1BE
:1042C0001024000402D1002921D01124050E01D1AF
:1042D00000020834050F01D10001241D850F01D112
:1042E0008000A41C002801DB4000641C002908D0C9
:1042F00020252E1B0D46F540A14000D00121294369
:10430000084301061B1B000ADB1D02D5002070BC00
:104310007047DB05181880180029F8DA401C49009E
:10432000F5D170BC400840007047FEB500231A4626
:104330001B1A8A4103DB0020014603B0F0BD4A008E
:104340000D0301212D0B0905520D0D43D10702D19B
:1043500000186D41521E5110FF31FF31013100270D
:1043600004463E463846009701910246012100204E
:10437000090500F04DF8C3197141F818324684461A
:104380008E464A4161462846611A904104D36046F0
:10439000241A954176461F46241900986D41401C09
:1043A00000903428E1DDF91930467041091BA8411D
:1043B00003D20022D243134601E0002213460198A3
:1043C0000105381C714100F034F8B6E7064C0125B0
:1043D000064E05E0E36807CC2B430C3C98471034AD
:1043E000B442F7D3FBF76AFED0B50208F0B5020875
:1043F00010B5202A04DB0146203A9140002010BD70
:10440000914020239C1A0346E3401943904010BD7D
:1044100010B5202A04DB0846203AD040002110BD08
:104420000B46D340D0402024A21A9140084319469D
:1044300010BD10B5002B08DA0024401C6141921811
:104440005B411A4301D14008400010BDF0B51FB4D4
:1044500082B005460C0003D008460EF095FE02E03F
:104460000EF092FE20300246009021462846FFF7CB
:10447000BFFF049B059A04460F46184311430843A7
:1044800014D0184610431BD0009840210A1A184631
:104490000599FFF7BDFF05460E46009A0599049859
:1044A000FFF7A6FF084305D0012004E02046394667
:1044B00007B0F0BD0020C11705430E432C4337431E
:1044C00000990E986305401A7905E40A00220C430E
:1044D000FD0A0A3002D500200146E9E7010510195E
:1044E00069410C9C0D9D00196941FFF7A2FFDFE7B0
:1044F00070B58C180578401C6B075B0F01D10378F1
:10450000401C2A1106D10278401C03E006780E7088
:10451000401C491C5B1EF9D12B0705D40023521EF9
:104520000DD40B70491CFAE70378401CCB1A921C7F
:1045300003E01D780D70491C5B1C521EF9D5A14289
:10454000D8D3002070BD002800DC40427047000036
:1045500038B5456804460146284606F009FA0028A1
:104560001BD020682E4A112811D006DC0B2823D03E
:104570000E2831D00F284FD110E0282845D009212E
:104580008901884248D121462846526804E0926851
:10459000002A02D021462846904738BD284601F01F
:1045A000A7FE0090406E0468684601F0EFFE002C04
:1045B000F3D02846A04738BD284601F099FE009068
:1045C000683001F0E9FD009803216C3001F0ECFD4A
:1045D000684601F0DBFE1FE0E168486809680D29C4
:1045E00002D0202911D105E000280EDD28460CF06C
:1045F00036FC05E0002803DD28460CF030FC38BD11
:10460000022128460CF040FC38BDE068002803D1A8
:104610000021284600F088F9204606F0BFFB38BD8F
:1046200000010020F0B504461546082285B08069D7
:10463000A25E668A00270296039204900197009179
:104640000C20205E1026C1180A20A65F205E0E22D4
:10465000A25E4019334600F007F80546616800F095
:104660007BF9284605B0F0BDF0B585B00E9C144F1F
:104670000A9E0B9D4C34029700960195039406F018
:10468000DFFA040018D001F033FE102204900D99D7
:1046900006F076FA049830220A493430FFF784FC99
:1046A000084D04990C3D2868486604A801F06EFE88
:1046B0002868416820468847204605B0F0BD0000C4
:1046C000514500080C010020F0B504468068884977
:1046D00080000D5860688DB000287DD0052804D07A
:1046E00006287AD0122879D1B0E0E86900284FD0A6
:1046F0000ECD6E460FC6214610310FC90C3D04F099
:104700005DF90026B000285803F0B8FBA169E869FC
:104710000A1A216909186069801902F0ABFBA169C6
:10472000E8690A1A21690918E069801B02F0A2FBF6
:10473000E169E8690A1A616909182069801902F0BB
:1047400023FCE169E8690A1A61690918A069801BFC
:1047500002F01AFC761C022ED4DBA86803F08EFB54
:10476000E069E9696669431A206942187118801C7A
:10477000521E02F04DFCE169E869A2690B1A6169F9
:104780000918101A401C921E02F042FCEE6912E059
:104790000026B000285803F071FBE069831BA06974
:1047A000821B606981192069801902F0B9FB761CAF
:1047B000022EEEDB02262969E8680191009061690A
:1047C000E06908184310A069891C821B20698019C0
:1047D00002F026FBA96902E084E010E085E0686948
:1047E00001910090E3696069C0184110A069491CFB
:1047F000821B20699B1E801902F012FB75E0206865
:1048000001F076FD0690206807F014FB00280AD01E
:10481000A068002801D000200AE00698006F002858
:1048200006D0012004E00698406F002800D0022046
:10483000069980004018C56E06A801F0A7FD002368
:104840001A462846216802F07BF84EE0206801F005
:104850004FFD0690866E002E42D05C210F5EA1684F
:10486000002939D0032939D00021890009180C6C9E
:10487000406D03F01DFB204603F000FB04A802F08E
:1048800061FC6846008AA98B421868460282808AC9
:104890002022411A68468182418A891C4182C18A4C
:1048A000891EC18206981E214030825E415E04A8A6
:1048B00003F063F906A801F069FD022003F040FB54
:1048C000304601F015FD3A4604A9089002F022F99D
:1048D00008A801F05BFD08E00121C6E70221C4E75A
:1048E00006A8F6E7206806F05FFF00200DB0F0BDD7
:1048F0008C98020802460449024808600349486A45
:104900004A6270473C010020000100200C01002099
:1049100010B5002903D0102106F0BFF810BD1021FA
:1049200006F012F810BD00000A0010B5034902D0CD
:1049300006F0B3F810BD06F007F810BD0001000046
:10494000034802494160034981607047FB10010838
:104950000001002005100108F0B5012485B00E46C5
:10496000054600281DD001F0C3FC0190876E01A808
:10497000009701F00BFD3146684604F03BFB002830
:104980000FD000980024B84208D0284601F0B0FCAF
:1049900001900099816601A801F0F8FC284606F014
:1049A00091FC204605B0F0BDF0B51C460E461546FC
:1049B000091987B0074640191F4A049102901268EE
:1049C000526E52689047781B1B4A039012680499F4
:1049D000526E5268904771193819174A0491059020
:1049E0001268526E52689047711B134A0191126807
:1049F0000598526E52689047002C1AD00E4D361B07
:104A000029680298496E4A68314690472A683146BB
:104A1000526E03985268904728683C1B406E049978
:104A20004268204690472A682046526E0199526893
:104A3000904707B0F0BD000074000020F0B50446B8
:104A40008FB040680027019001F052FC0146803190
:104A500000900E688D68816E0B917C21095A0C9133
:104A6000C06D002800D00768684601F08FFC05E0A3
:104A7000696820468847002825D12D68002DF7D188
:104A80002068172856D00CDC0F2844D004DC0B28F3
:104A90007AD00D282DD18EE0112816D0142828D1D7
:104AA0003EE0262848D004DC1E2853D0202820D100
:104AB0008FE02A281ED009218901884219D1214678
:104AC00001980CF0C3FA0FB0F0BD0198E56801F051
:104AD0000FFC0290697A002908D1297A012905D1B1
:104AE0004030818FFF2201321143818702A801F0FB
:104AF0004DFC72E0019801F0FBFB0090E168002999
:104B000002D08030416002E080304068E06068465A
:104B100001F03CFCD7E7002F5FD00198B8475CE07C
:104B200005A9019800F053FB082206A9E068FFF7E9
:104B30003BFAC8E70B983CE0E0680228C3D1019833
:104B40000C90E0680D9027200A900AA9A06807F051
:104B500049FBB8E7E068012804D00021019800F083
:104B6000AFFAB0E7304606F019FC00280DD0304609
:104B700006F09EFD304606F0E3FA002812D001212F
:104B8000304605F08AFF0DE031E00B9806F0E0FDBD
:104B90000646019801F0ACFB009080300660684644
:104BA00001F0F4FB0121019800F08AFA002E8AD16D
:104BB0000020E06087E70C9800070ED4E068C0682A
:104BC00000280AD0007A002807D0019806F070FD6E
:104BD00003E0214601980CF074F92146019805F094
:104BE000C7FE002896D0204606F0D8F86BE701985B
:104BF00001F07EFB0090703001F0CEFA684676E757
:104C0000F0B5144687B00822825E87694568039232
:104C10000C9E04AAE0C2428A0025019502920091EE
:104C20000C21415E1025C9180A230E22C35E455F80
:104C3000825E18192B4600F003F807B0F0BD0000A3
:104C4000F0B591B084460120179C00030443169FE1
:104C50001C9E2F4860360290189D00970396019481
:104C6000604605F0EDFF06004ED001F041FB30221A
:104C70000990199905F084FF0998282225493430B4
:104C8000FFF792F909981B9941667C210D52014664
:104C9000002780310F601F4DC766083D8F6069682F
:104CA000C16509A801F072FB04A9304600F08FFA33
:104CB00019481A4903970191029000966F461A20ED
:104CC0001621385E795E1822431A1420BA5E385EC7
:104CD0005B1C121A521C05F0B3FF07466868416856
:104CE00030468847304601F003FB0990876609A8E3
:104CF00001F04CFB0A48044202D1304606F0F0F8BD
:104D000030461A9900F01AFA304611B0F0BD000092
:104D10003D4A0008D00100208D5300088217000092
:104D200004200000F0B5044691B0006800F0AAF934
:104D3000002801D0D24D01E0D14D2C3560681528F6
:104D40001DD00CDC0B281ED004DC00287ED00528EA
:104D50007DD128E10E287BD01228F9D137E1162821
:104D600006D0172807D0182807D01C28F0D108E053
:104D7000E86911B0F0BD286AFBE7686AF9E7A86A3C
:104D8000F7E76869F5E7206806901C20079020681F
:104D900001F0AEFA0590016D06A88847064605A801
:104DA00001F0F4FA022E0FDB07CD6B4607C3334642
:104DB0000C3D6269A169206903F0D6FD206987195D
:104DC000A069801B00902CE0286803F057F8216947
:104DD000E8690A18521E606902F04CF8A269E86995
:104DE000111A491C606902F045F8676920697F1C47
:104DF000394602F079F83946A06902F075F868681A
:104E000003F03CF820693946401C02F06DF8A069B7
:104E10003946401E02F068F8A0692769801EBF1C51
:104E20000090286803F02AF860693946009A02F079
:104E300021F8686803F022F860693946401C009A3E
:104E400002F018F8686A02280EDD02E007E1A9E026
:104E5000F5E0A86803F012F861696A6A38468B18B1
:104E6000891C5B1E009A24E0296AB14223DD676930
:104E7000B81C0090022E01DBBF1900E0BF1C2069A6
:104E8000022E01DB801900E0801C22693B4652188B
:104E9000521E009902F0BCF8022E02DBA069821BB0
:104EA00001E0A269921EA069E9693B46401A401CD4
:104EB000009902F0ADF8022E02DB6069861901E06C
:104EC0006669B61CE76928687F1E02F0D7FF3A467C
:104ED0003146206902F058F83A463146A06902F09E
:104EE00053F8E7696868BF1E02F0C8FF20693A46B8
:104EF0003146401C02F048F8A0693A463146401E4F
:104F000002F042F8E869022802DC286A022821DD62
:104F1000A86A022802DDE1690F1A01E0E769BF1EF5
:104F2000A86802F0ABFFEA69022A07DD21693B4667
:104F30008A18881C3146521E02F06AF8286A022834
:104F400008DDA269E8693B46101A3146401C921EF2
:104F500002F05EF8286802F091FFA2692169E06919
:104F600001F088FF686802F089FFE0692169A269A1
:104F7000401E491C521E01F07DFFA86A02287DDDFB
:104F8000A1692669891E0091E469B61C271AA41E2E
:104F90007F1CA86802F072FF234639463046009A0B
:104FA00002F036F86AE0208A6E4600B2B081A18A2B
:104FB00009B2F181228B12B23282A38B1BB27382AF
:104FC000EC682D690195009401F02AFF56E0208AD3
:104FD000298B411868468181A18AC181208B298B48
:104FE000411A68460182A18B4182206801F080F954
:104FF0000590006F00281ED0022002F0A1FF059846
:105000007C21095A0907C90F89000818006C02F0B1
:1050100035FF0598406B02F04BFF0598006F01F0DB
:1050200067F90F9005995A228A5E03A901F072FD73
:105030000FA801F0ABF905A801F0A8F91EE0218A3C
:1050400068468181A18AC181218B0182A18B418225
:10505000A86802F013FF03A801F0F8FF0EE0206833
:1050600001F046F905904030418B0C2211434183F9
:1050700005A801F08BF9206806F096FB002078E681
:105080000C02002038B5002400280AD001F030F9C5
:1050900000904030808F000700D50124684601F061
:1050A00075F9204638BD000010B5022905D2034A23
:1050B000890051582C22FEF777FF10BD9C980208FA
:1050C00010B5002801D00CF03BFD10BD074A064981
:1050D00011600749044AC969083A054B50601268D3
:1050E0009A61D8610846704700020020CC01002078
:1050F000D001002070B5034602291BD28C000E4D52
:105100002C2228591946FEF74FFF29590220CA6957
:10511000022A00DAC86129590A6A022A00DA0862FA
:1051200029594A6A022A00DA486229598A6A022AF7
:1051300000DA886270BD00009C9802087CB50D46BC
:10514000040019D001F0D4F80090006F0190684677
:1051500001F01CF9294601A803F04CFF00280BD0F0
:10516000204601F0C5F8009001990167684601F0FA
:105170000DF9204606F0A6F87CBD38B50C460500B2
:105180000ED001F0B5F8009040301A21415EA142E6
:1051900003D04483284606F095F8684601F0F6F8F7
:1051A00038BD38B50C46050010D001F0A1F800223A
:1051B000009090000099521C40180464022AF8D311
:1051C000684601F0E3F8284606F07CF838BDF3B5F0
:1051D0008DB0002703970C460D9801F089F80190D7
:1051E000C06D012185680D982A6890470C902A6847
:1051F00003210D98904707902A6802210D98904747
:1052000006902A6800210D9890470646019806F0FE
:1052100080FC0590019806F083FC04900198418E73
:10522000890602D55822115E039100F035F8054633
:105230000198C06E002802D005F060FF0746258067
:1052400067800C99A180079A0598801A401E2081DA
:10525000039AB2185219D219E280069B049AD21A04
:10526000521E6281A18120827019E681401E6082F7
:1052700001A801F08BF80C20205E09901020205E20
:105280000A900AAA09A90D9800F038F80998A08197
:105290000A9820820FB0F0BD10B501464A8E00205A
:1052A000920607D55422505E002803D1486B01F0C6
:1052B000A1FF801C10BD70B58AB00C46054601F0F8
:1052C00017F80990C06D866809A801F05FF800958D
:1052D000002C06D0012C06D0022C0BD0032C04D1BC
:1052E0000AE0182000E0162001907168684688479F
:1052F0000AB070BD1520F7E71720F5E7F7B58AB0BB
:10530000044600F0F5FF0190C16D8D6803C805905B
:10531000069101A801F03AF82A680021204690473A
:105320000546204605F073FE2BE000F0E1FF0290F9
:105330006B46142200219A5E415E0423C35E891AE3
:105340009A1A02266B461627865FDF5FF31BAB4275
:1053500011D1008D000607D50C98006888420ADB41
:105360000C98491E016006E00B980068904202DC30
:105370000B98521C026002A801F008F8204605F0C4
:1053800070FE0400D1D10DB0F0BD0000F0B50446B0
:10539000406887B0054605F06BFE029000F0A8FF5C
:1053A0000190466E816C80300091076801A800F082
:1053B000EDFF2068172852D008DC0E2838D00F28BF
:1053C0000ED014284BD015283BD148E01E281AD007
:1053D0001F2828D022283FD0312832D100203CE09D
:1053E00021490098884203D004F0CCFB01F06AF90F
:1053F000002E12D0E268A168206802900395059201
:10540000049102A822E0E068002806D0002F06D010
:10541000AF4204D0384606F04BF907B0F0BD28463D
:1054200006F096F9F9E72146029805F0A1FAF4E7AB
:10543000E0684168002904DD00680928EFD00A28E7
:1054400006D0002E0BD0029860602046B047E4E7FB
:10545000284606F086F9E0E70098E060DDE72046A0
:1054600005F09CFCD9E70000FFFFFF0FF7B50446ED
:10547000C66886B0002002F017FD02210546002E06
:1054800005D03079002802D02846084301E028469C
:10549000884302F009FD2069012600280BD0A1688D
:1054A0006B46E26846C303966388228804680899BD
:1054B0000798A0471FE0124F124B38681B68427CC8
:1054C0002146E0689847002806D1E088012801D0ED
:1054D000002001E03868806BA288E388A16800960C
:1054E000029303920491059001966388228808999B
:1054F000079803F01BFF284602F0D6FC09B0F0BD68
:10550000740000206C000020F7B51849104648438D
:105510007D211446C900FEF721FD451CE10F204600
:105520000919604349104618274600233A46019955
:105530000098FFF739FA012414E020463946604309
:1055400079434018B04206DD3B4622460199009857
:10555000FFF72AFA7F1E3B46224601990098FFF783
:1055600023FA641CAC42E8DDFEBD0000C30200006B
:105570001CB50024019401AC009400F0EFF81CBDB0
:10558000FFB585B0059907980E9E441A06990898AC
:10559000451A00200290306801902046284319D017
:1055A0002046FEF7D0FF07462846FEF7CCFF87428D
:1055B0000CDA20462C46054606990598059106907A
:1055C000089907980890079101200290002C06DDA9
:1055D000204605E0059800F043F909B0F0BD6042AF
:1055E000A0420AD00799059807900898644206904F
:1055F0006D4200200591C04300E00120564F00900D
:10560000002D14D0E00F001940100190002D01DA98
:105610004042019050480068807E002847D00098A2
:10562000002802DA30680019306000277FE0029815
:10563000002838681CD0807E002801D0002514E0A6
:10564000079A0599069803F0DBFFC6E70198411C0D
:1056500001910CF045FB002806D1059841193868E6
:10566000406E4268069890476D1CA542EEDD1BE037
:10567000817E002901D0002514E0406E05AC03684E
:1056800007CC9847A9E70198411C01910CF028FB31
:10569000002806D139680598496E40194A6806996C
:1056A00090476D1CA542EEDD0198401E4AE00026A1
:1056B00014E029460198714308182146FEF74EFC74
:1056C00001460698081802990029059909D0224A2E
:1056D00089191268526E52689047761CA642E8DD1E
:1056E0007BE78B191C490968496E4A6801461846D0
:1056F000F2E728460199784340182146FEF72EFC30
:1057000006994018039031680098081830600CF032
:10571000E7FA00280AD102980028059814D0C11988
:105720000D480068406E4268039890477F1CA7426E
:10573000DFDD0098002802DA306800193060316837
:105740000098081A306048E70349C0190968496E93
:105750004A680399E9E7000074000020FFB53F495B
:1057600085B009680E980D7E1E461746012D1DD086
:1057700005980699C01B891B02460A431BD06D1E63
:105780000DF03CFD012189024018049003F028FD32
:1057900004466C43049803F02BFD01216843490241
:1057A000002C0ADA0A1B921255420AE00090069970
:1057B0000598FFF7E5FE09B0F0BDFF34FF34023471
:1057C000A512002803DA081A8012444203E0FF30D1
:1057D000FF3002308412002D04DD681CC10F081850
:1057E000411003E0E80F401941106D1EE80F401909
:1057F0004210002C04DD601CC30F1818431003E096
:10580000E00F00194310641EE00F001944100598C2
:1058100045186846058006987918C5186846458079
:105820000598851A684685800698BA1A051B684649
:10583000C5800281321B42818181F118C181002320
:105840001A46042100F07EF80699059809F0B4FB89
:105850003146384609F0B0FBADE700007400002087
:1058600010B5084A13681A7E012A06D0521ED30FBB
:105870009A18521000F008F810BD5A6E52689047FE
:1058800010BD000074000020F7B506462B491046F5
:1058900048437D2184B01446C900FEF75FFB471CD6
:1058A000E10F20460919604349104018244901902E
:1058B00009683219496E301B0B6805999847012514
:1058C00037E02846214668436143411801988142E8
:1058D0001ADDBC4217DD059872190119701B184BAF
:1058E000029200901B68401C5B6E521E1B6898471A
:1058F000134B05981B68011B00985B6E029A1B688E
:10590000401C521E9847641E059832194119301BDD
:105910000B4B029200901B685B6E1B689847084B0C
:1059200005981B68411B5B6E029A1B68009898479C
:105930006D1CBD42C5DD07B0F0BD0000C302000014
:1059400074000020FFB5684C0F4666428DB0002100
:105950000BE00D9A880082180220105EA04200DA47
:105960000446B04200DD0646491CB942F1DB5F48FF
:105970000068406900280DD00622825E1099511AF5
:10598000B14200DA0E460221415E1098081AA04288
:1059900000DD0446A3E0002155480D46016076E095
:1059A000781E854201DA681C00E000200146A8004C
:1059B00003900D9A8900821802209446105E0D9A79
:1059C0008B1802229A5EA04296464CD1A6451AD167
:1059D000039A0D98825E0F981018109AA218944698
:1059E0000D9A525E0F995318404998420968496EC2
:1059F00009688E4602DA1A46614602E002466146AE
:105A0000184673462AE00D9800220C907B1E28460B
:105A10009C460CE0002801D0401E00E0781E0C9B44
:105A20008100C9180223CB5EA34203D1521C6245F8
:105A3000F0DB2346A34229D003990D981A1B405E40
:105A400071460B1B0F995A408C46109908D4274A6F
:105A5000604412686118526E13680246984715E058
:105A600006F0A4FC12E0A64510D0A64501DBA0423A
:105A700003DDA0420ADBA64508DC62460AA92046EF
:105A800006F03CFE002801D00A98E9E76D1CBD42F3
:105A900086DB0F980190109820180390002005468F
:105AA000089017E013496A00895E0491089900295B
:105AB0000AD0019A04995218019908180B490968EB
:105AC000496E0B680399984708980121484008904F
:105AD00004986D1C064909688D42E3DB641CB442DE
