:020000040800F2
:10000000401B0020C9000008A51F0008A71F00080A
:1000100000000000000000000000000000000000E0
:10002000000000000000000000000000AB1F0008FE
:100030000000000000000000AD1F0008AF1F000816
:10004000F900000800000000F9000008F9000008AD
:10005000F9000008F9000008F9000008F90000089C
:1000600000000000F9000008F9000008F90000088D
:10007000F9000008F9000008F9000008000000007D
:10008000F90000080000000000000000F90000086E
:10009000F9000008F9000008F9000008F90000085C
:1000A000F9000008F9000008F9000008BB1F00086B
:1000B000F90000080348854603F0ECF800480047C3
:1000C0007D1E0008401B00200C4880F308880C4867
:1000D0000168090E0B4A914205D10B480B4901609A
:1000E0000B480C4901600C4880470C480047FEE76C
:1000F000FEE7FEE7FEE7FEE7FEE70000401B00200C
:10010000040000001F000000181002400100000061
:100110000000014000000000451D0008B500000877
:1001200010B504460920C006844209D101214804C3
:1001300000F0A1FC00210120400400F09CFC3CE008
:100140007448844208D10121000200F094FC00218F
:10015000200200F090FC30E06F48844208D1012179
:10016000000200F088FC0021200200F084FC24E062
:100170006A48844209D10121080500F07CFC002175
:100180000120000500F077FC17E06548844208D1A3
:100190000121400200F06FFC0021600200F06BFCC6
:1001A0000BE06048844208D10121880500F063FC1F
:1001B00000210120800500F05EFC10BDF0B50A466C
:1001C00000210023002400BF3DE001258D402B4687
:1001D00015681D402C469C4234D11579012D02D062
:1001E0001579022D16D185684F000326BE40B54310
:1001F000856055794E00B5408668354385608588B1
:1002000001268E40B5438580858896798E40B6B2AA
:100210003543858005684F000326BE40B543056021
:1002200015794E00B540066835430560C5684F0036
:100230000326BE40B543C560D5794E00B540C668BB
:100240003543C560491C1029BFD3F0BD3649016054
:10025000002101710121417100218171C17170473B
:1002600008B5012212040092009A0A430092009AF3
:10027000C261C161009AC261C2690092C269009202
:1002800008BD02460020138A0B40002B01D001203C
:1002900000E0002070470146088A704702460020AF
:1002A000938A0B40002B01D0012000E00020704712
:1002B0000146888A70478161704701857047002A2E
:1002C00001D0816100E00185704781827047F0B5FF
:1002D000002300244D07EE0E1546B5402B46CD10E9
:1002E000AE0005462035AD594E07F70E0F26BE402D
:1002F000B543CE10B60007462037BD51CD10AE0035
:100300003D46AD591D432C46CD10AD003E467451BF
:10031000F0BD00000004004800080048000C004840
:100320000010004800140048FFFF00000021827800
:10033000002A27D0274A03231B02D21803789B10D8
:100340009B00D15802789207D30EFF229A400B46A9
:100350009343194642789207120E03789B07DB0EEF
:100360009A4011431B4A03231B02D21803789B10A7
:100370009B00D1500278D306DB0E01229A40154B28
:100380001A6007E00278D306DB0E01229A40114B77
:1003900080331A607047002905D00F4A1269024362
:1003A0000D4B1A6104E00C4A126982430A4B1A6130
:1003B0007047042806D10949096904221143074AF4
:1003C000116105E00549096904229143034A11615D
:1003D0007047000000E100E000ED00E000E000E018
:1003E000F848006801210843F6490860084640685B
:1003F000F5490840F349486008460068F349084059
:10040000F049086008460068012189048843ED49E5
:100410000860084640683F2109048843E94948606C
:100420000846C06A00090001C8620846006BE84936
:100430000840E44908630846406B400840004863B0
:100440000020886070470021DE4A91701146887054
:10045000704710B5024600210023002051110029E9
:1004600002D1D84C23680BE0012902D1D54C236A74
:1004700006E0022902D1D34C636A01E0D14C636BE0
:10048000D106C90E01248C401C40002C01D0012053
:1004900000E0002010BD38B50020009000240025A9
:1004A00000BF1120FFF7D5FF05460098401C0090C3
:1004B000052109030098884201D0002DF1D01120B8
:1004C000FFF7C7FF002801D0012400E000242046E8
:1004D00038BD01460020BB4A1068F82302469A4303
:1004E0001046CA001043B74A10607047002806D073
:1004F000B449096801221143B24A116005E0B149CB
:10050000096849084900AF4A116070470146002058
:10051000AC4A506BF82302469A431046CA00104377
:10052000A84A50637047002806D0A649496B0122AB
:100530001143A44A516305E0A249496B49084900A7
:10054000A04A51637047002806D09E49496B042297
:1005500091439C4A516305E09A49496B0422114337
:10056000984A516370479749096A49084900954A72
:1005700011621146096A04229143924A116211469E
:10058000096A0143116270478E49096A1822914332
:100590008C4A11621146096A0143116270470028B2
:1005A00006D08849496A01221143864A516205E012
:1005B0008449496A49084900824A51627047814A20
:1005C00052687B23DB039A437E4B5A601A4652687B
:1005D00003460B431A437B4B5A607047002807D0F1
:1005E00078490968012212061143764A116006E033
:1005F00074490968012212069143724A11607047DA
:10060000002807D06F49496B0122120411436D4A3B
:10061000516306E06B49496B012212049143694A18
:100620005163704701460020664AD06A0009000104
:1006300002460A431046634AD0627047002807D03A
:10064000604909680122D20411435E4A116006E044
:100650005C4909680122D20491435A4A11607047EB
:1006600002460020574B58680002000A13060B434D
:100670001843544B5860704701460020514A506857
:100680008008800002460A4310464E4A5060704778
:100690004C4840680C210840704701460020494AF8
:1006A0005068F02302469A43104602460A43104619
:1006B000444A5060704701460020424A5068072370
:1006C0001B0202469A43104602460A4310463D4A20
:1006D000506070473B494968012292039143394A6F
:1006E00051601146496882B21143364A5160114641
:1006F000096B92159143334A11631146096B020C41
:100700001143304A116370472E49096B40229143CF
:100710002C4A11631146096B014311637047294943
:10072000096B10229143274A11631146096B01435B
:10073000116370470021010F012906D1214A126B74
:10074000920892001F4B1A6310E0022907D11D4A3C
:10075000126B03231B049A431A4B1A6306E0194ACF
:10076000126B03239B049A43164B1A63154A126BB0
:100770000243144B1A6370471249096B802291435C
:10078000104A11631146096B014311637047FEB5AE
:1007900004460025002600200290019000900027CA
:1007A000084840680C2108400546002D06D0042D5D
:1007B00012D0082D13D00C2D37D133E0054820601E
:1007C00036E00000001002400CB8FF08FFFFF6FE04
:1007D000ACFEF0FF00127A00CE48206028E0CE4840
:1007E00040680F21890408400646CB484068032131
:1007F000C90308400290B00C861C0298002803D15F
:10080000C648374647430BE0C348C06A0007000F9D
:10081000401C0190BF48019902F0F2FC704307466A
:10082000276005E0BE48206002E0BA48206000BFB3
:1008300000BFB9484068F021084005462D09B94875
:10084000405D009020680099C8406060B2484068F0
:1008500007210902084005462D0AB248405D009074
:1008600061680098C140A160AB48006BFF21013175
:100870000840884202D0AC48E0600DE0A6484068DD
:10088000012189030840884203D0A0684008E06045
:1008900002E0A0688008E0609F48006B40210840AB
:1008A000402802D0A148206102E00120C00320615D
:1008B0009948006B10210840102802D095486061CB
:1008C00001E0206860619448006B8007800F002879
:1008D00002D1A068A06119E08F48006B8007800FEB
:1008E000012802D12068A06110E08B48006B8007CE
:1008F000800F022802D18003A06107E08648006BC8
:100900008007800F032801D18248A0618248006BD4
:10091000032109040840002802D1A068E06120E01A
:100920007D48006B03210904084001210904884225
:1009300002D12068E06114E07748006B03210904CC
:10094000084001214904884202D18010E06108E09A
:100950007148006B032109040840884201D16D48A9
:10096000E0616D48006B032189040840002802D132
:10097000A068206220E06848006B032189040840D9
:1009800001218904884202D12068206214E0624873
:10099000006B0321890408400121C904884202D167
:1009A0000011206208E05C48006B032189040840C4
:1009B000884201D1574820625748006B8021084087
:1009C000802802D05648606200E06762FEBD52494E
:1009D000096A0143504A11627047002807D04E4906
:1009E000096A0122D20311434B4A116206E04A49C7
:1009F000096A0122D2039143474A116270470028D5
:100A000007D04549096A012212041143424A116282
:100A100006E04149096A0122120491433E4A1162EB
:100A20007047002905D03C4A526902433A4B5A614B
:100A300004E0394A52698243374B5A6170470029B2
:100A400005D0354A92690243334B9A6104E0324A39
:100A500092698243304B9A617047002905D02E4A33
:100A6000D26902432C4BDA6104E02B4AD2698243FB
:100A7000294BDA617047002905D0274A926A024360
:100A8000254B9A6204E0244A926A8243224B9A627E
:100A90007047002905D0204AD26802431E4BDA6015
:100AA00004E01D4AD26882431B4BDA60704700297C
:100AB00005D0194A12690243174B1A6104E0164A1D
:100AC00012698243144B1A617047002905D0124AFB
:100AD000527A0243104B5A7204E00F4A527A824310
:100AE0000D4B5A7270470C48406A012109060843B1
:100AF00009494862704701460020074A92680A4047
:100B0000002A01D0012000E00020704702498872CD
:100B10007047000000127A000010024000093D00FA
:100B2000006CDC0200000020809FD50012800000D5
:100B300010B50446F748844208D10121C014FFF7DC
:100B4000A8FF0021E014FFF7A4FF62E00120800766
:100B5000844208D101210846FFF7A9FF00210120A6
:100B6000FFF7A5FF55E0EC48844208D1012102209F
:100B7000FFF79DFF00210220FFF799FF49E0E748BA
:100B8000844208D101211020FFF791FF002110209D
:100B9000FFF78DFF3DE0E248844208D1012120208B
:100BA000FFF785FF00212020FFF781FF31E0DD48BE
:100BB000844208D101218015FFF779FF0021A0159B
:100BC000FFF775FF25E0D848844209D101210804C8
:100BD000FFF75FFF002101200004FFF75AFF18E034
:100BE000D248844209D101214804FFF752FF002175
:100BF00001204004FFF74DFF0BE0CD48844208D1AF
:100C000001218804FFF745FF002101208004FFF740
:100C100040FF10BD00220288BE4B984206D001233F
:100C20009B07984202D0BC4B984203D1C14B1A405B
:100C30004B881A43B94B984203D0BF4B1A400B89DB
:100C40001A4302804B68C3620B880385B14B9842FC
:100C500008D0B54B984205D0B44B984202D0B44B63
:100C6000984201D18B7A0386012383827047002149
:100C7000C943416000210180018141808172704738
:100C80000185828270470A4600210188A94B1940DC
:100C90000B46134319460180704741627047C16299
:100CA00070470146486A70470146088D7047002921
:100CB00004D0028802231A43028004E002889D4B7C
:100CC0006E331A4002807047002904D00288042342
:100CD0001A43028004E00288964B6C331A4002806B
:100CE0007047002904D0028880231A43028004E060
:100CF0000288904B103B1A400280704702888D4B4F
:100D000068331A40028002880A43028070470288D2
:100D1000894B1A40028002880A43028070470029EA
:100D200004D0028801231A43028004E00288814B28
:100D30006F331A40028070470A884B881A438B88A9
:100D40001A43CB881A430B891A434B891A438B8960
:100D50001A4344231A527047002101804180818048
:100D6000C1800181418181817047002907D04422DF
:100D7000125A0123DB031A4344231A5205E044228A
:100D8000125A53045B0C44221352704770B500246E
:100D900000220023058C674E6F3635400584028C97
:100DA0008388048B634D2C40B51E2C400D882C434A
:100DB000751E2A408D892A434D882A43554DA842E5
:100DC00008D0594DA84205D0584DA84202D0584DE0
:100DD000A84212D1574D68352A40CD892A43554D36
:100DE0006C352A408D882A43524D903D2B40534DFF
:100DF0002B400D8A2B434D8A2B43838004838D68BF
:100E00004563028470BD70B5002400220023058C68
:100E1000484E603635400584028C8388048B484DEB
:100E20002C40454D2C400D782D062D0C2C43414D6A
:100E300050352A408D892D052D0C2A434D882D05CE
:100E40002D0C2A43334DA84202D0374DA8421CD165
:100E50003C4D2B400D8AAD042D0C2B432D4DA8424B
:100E600013D1344D103D2A40CD892D052D0C2A4338
:100E7000304D30352A408D882D052D0C2A43324DBA
:100E80002B404D8AAD042D0C2B43838004838D6849
:100E90008563028470BD70B5002400220023058C98
:100EA000244E903E35400584028C8388848B214DEE
:100EB0002C40204D6D352C400D882C431F4D2A4071
:100EC0000D7B2D062D0C2A438D782D062D0C2A43E3
:100ED000104DA84217D11C4D2A408D7B2D062D0C9C
:100EE0002A43184D2A400D792D062D0C2A43174D03
:100EF0002B40174D2B400D8A2D052D0C2B434D8A71
:100F00002D052D0C2B43838084838D68C56302845B
:100F100070BD0000002C01400004004000100040A3
:100F20000014004000200040004001400044014007
:100F3000004801408FFF0000FFFC0000FFFD0000A3
:100F4000FF8F0000FFFB0000FFF70000FFEF000035
:100F5000FFDF000070B5002200230024058CF94E4D
:100F600035400584038C8488828BF74D2A40F74DE9
:100F70002A400D782D062D0C2A43F54D2B400D7B74
:100F80002D072D0C2B438D782D072D0C2B43F14D68
:100F9000A84205D1F04D2C400D8AAD052D0C2C43F7
:100FA000848082838D680564038470BD0021018084
:100FB0004180818081608181C1810182418270474D
:100FC00070B50346002000241846183001258D40D6
:100FD000ACB21D8CA5431D84002901D0082909D17C
:100FE0004D10281805687026B5430560056815433F
:100FF00005600DE00D1F2D046D0C281805680726EF
:101000003603B543056005681606360C35430560A2
:1010100070BD4163704781637047C163704701646D
:1010200070470A460021018BCC4B19400B461343F5
:101030001946018370470A460021018BC24B1940B3
:1010400013061B0C1943018370470A460021818B4C
:10105000C24B19400B4613431946818370470A4619
:101060000021818BB84B194013061B0C1943818357
:101070007047002904D0828801231A43828004E04B
:101080008288B64B6F331A40828070470A4600212F
:10109000018BB24B683319400B4613431946018349
:1010A00070470A460021018BAD4B194013061B0CFB
:1010B0001943018370470A460021818BA74B68338F
:1010C00019400B4613431946818370470A46002195
:1010D000818BA34B194013061B0C19438183704766
:1010E0000A460021018B9D4B6C3319400B4613437C
:1010F0001946018370470A460021018B994B19401C
:1011000013061B0C1943018370470A460021818B8B
:10111000924B6C3319400B46134319468183704739
:101120000A460021818B8F4B194013061B0C194373
:10113000818370470A460021018B884B103B194080
:101140000B4613431946018370470A460021018B61
:101150004904490C13061B0C1943018370470A46C6
:101160000021818B7D4B103B19400B4613431946E0
:10117000818370470A460021818B4904490C13067C
:101180001B0C1943818370470A460021018C734B65
:101190006E3319400B4613431946018470470A46C3
:1011A0000021018C6D4B683319400B4613431946DF
:1011B000018470470A460021018C684B5033194066
:1011C00013051B0C1943018470470A460021018C4A
:1011D000624B103B194013051B0C194301847047E7
:1011E0000A460021018C604B194013061B0C194361
:1011F000018470470A460021018C594B194013069F
:101200001B0C1943018470470A460021018C504B86
:10121000194013071B0C19430184704702894F4B77
:1012200068331A40028102890A430281704730B54F
:10123000002301248C40A3B2048C9C430484048CBE
:1012400015468D40ADB22C43048430BD30B500232B
:1012500004248C40A3B2048C9C430484048C154663
:101260008D40ADB22C43048430BD002904D0828867
:1012700004231A43828004E08288384B6C331A407E
:1012800082807047828B394B1A408283828B0B0697
:101290001B0C1A4382837047F8B50C4600210025C9
:1012A00000260096068C274F3E400684818B058CD5
:1012B0002607360C00962E4E31401606360C31436A
:1012C0001E07360C31432B4E354001273F03009E4D
:1012D0003E43354381830584F8BD828B1F4B6433C5
:1012E0001A408283828B0A4382837047F8B50C468A
:1012F0000021002500260096068C184F903F3E40A6
:101300000684818B058C2606360C0096134E833E90
:1013100031401E05360C16433143174E3540FF272A
:101320000137009E3E43354381830584F8BD028B1F
:101330000E4B1A400283028B0B061B0C1A430283CE
:1013400070470000FFEF0000FF8F0000FFFC00006F
:10135000FFDF0000002C0140FFBF00008FFF0000F6
:10136000FFF70000FFFB0000FFFD0000FFF300009F
:10137000FF0C0000FF5F0000FFF50000F8B50C4611
:101380000021002500260096068CE64F3E4006848C
:10139000018B058C2605360C0096E34E31401E0766
:1013A000360C31431606360C3143DE4E903E354046
:1013B0001027009E3E43354301830584F8BD028B10
:1013C000D84B1B1D1A400283028B0A4302837047CD
:1013D000F0B50C4600210025068CD24F0F373E4059
:1013E0000684018B058CCF4EE33E31401E05360C42
:1013F00016433143CB4EB61D3540012626433543B7
:1014000001830584F0BD70B505460C462088002890
:101410000AD12389A28861882846FFF7D9FFE1888D
:101420002846FFF7CCFF25E0208804280AD123892D
:10143000A28861882846FFF7A1FFE1882846FFF7C8
:1014400076FF17E0208808280AD12389A2886188BE
:101450002846FFF74BFFE1882846FFF73EFF09E0EB
:101460002389A28861882846FFF716FFE18828466D
:10147000FFF708FF70BD00210180418001218180BC
:101480000021C18001817047F8B505460C46002651
:1014900001276088002801D1022600E00026A088EC
:1014A000012801D1022700E001272088002814D15B
:1014B0002389A28861882846FFF78AFFE1882846A9
:1014C000FFF77DFF23893A4631462846FFF756FF4E
:1014D000E1882846FFF72BFF13E02389A288618863
:1014E0002846FFF74BFFE1882846FFF720FF2389B6
:1014F0003A4631462846FFF76BFFE1882846FFF75A
:101500005EFFF8BD0146486B70470146886B704727
:101510000146C86B70470146086C7047002A03D02B
:1015200083890B43838102E083898B4383817047E6
:101530008182704702460020138A0B40002B01D0A5
:10154000012000E000207047CA430282704730B596
:101550000246002000230024158A0D402B46958961
:101560000D402C46002B03D0002C01D0012000E0C0
:10157000002030BDCA430282704710B50B461343AA
:101580004824235210BD002A03D083890B43838152
:1015900002E083898B4383817047002904D08288CD
:1015A00008231A43828004E082885E4B08331A4085
:1015B0008280704701895B4A09321140018170477E
:1015C0000A4600210189574B603B19400B461343E3
:1015D00019460181704730B504460D46294620461C
:1015E000FFF7EEFF208907210843208130BDF8B5C1
:1015F00004460D4616461F46602D06D13B46012285
:1016000031462046FFF7BAFE05E03B46012231464F
:101610002046FFF7DDFE29462046FFF7D1FF20894F
:10162000072108432081F8BD30B50C46002101890F
:10163000C9B21D062D0C154325432943018130BD38
:10164000FFB505460E46174600243A463146284661
:10165000039BFFF7E9FF2C8932480930044007203B
:101660000443304860380440702004432C81FFBD9F
:10167000F0B504460D4616461F463B4632462946FF
:101680002046FFF7D1FF20890121890308432081EB
:10169000F0BD8288234B603B1A40828082880A43D7
:1016A0008280704702891F4B09331A4002810289E8
:1016B0000A430281704702891A4B703B1A4002812B
:1016C00002890A4302817047F0B50C4600210025CB
:1016D00000260189058B068C124F093739400F46C9
:1016E00027433946114F3D40FF2702373D430D4FF9
:1016F0009A3F3E401F053F0C17433E43018105833F
:101700000684F0BD002904D0828880231A43828099
:1017100004E08288034B703B1A408280704750225D
:1017200011527047EFFF0000FF0C0000FCFC0000AE
:1017300010B50446F848844209D101218803FFF717
:10174000A8F9002101208003FFF7A3F956E0F34830
:10175000844209D101214804FFF7A9F900210120A1
:101760004004FFF7A4F949E0ED48844209D1012182
:101770008804FFF79CF9002101208004FFF797F906
:101780003CE0E848844209D10121C804FFF78FF901
:1017900000210120C004FFF78AF92FE0E2488442CB
:1017A00009D101210805FFF782F900210120000578
:1017B000FFF77DF922E0DD48844208D10121202095
:1017C000FFF767F900212020FFF763F916E0D848FA
:1017D000844208D101214020FFF75BF9002140201D
:1017E000FFF757F90AE0D348844207D1012180204E
:1017F000FFF74FF900218020FFF74BF910BDF0B53E
:101800008BB004460D46002700200A900026206871
:101810004008400020606668032109033046884381
:101820000646A868064366602668C3480640E9681D
:10183000686808432969084306432660A6680321AF
:10184000090230468843064668690643A660684632
:10185000FEF79DFFB048844202D106980A900DE041
:10186000AE48844202D107980A9007E0AC4884420F
:1018700002D108980A9001E002980A90206801219C
:10188000C903084000280CD029680A9A500001F0CA
:10189000B7FC074629680A9A500001F0B1FC0E46D1
:1018A00009E029680A9801F0ABFC074629680A9804
:1018B00001F0A6FC0E4628684008B04200D87F1C04
:1018C00020680121C9030840002806D03807460FC8
:1018D00038469A49084030430746A7810BB0F0BD0F
:1018E0004B21C9010160002141608160C1600C2170
:1018F000016100214161704710B5002242680F2448
:1019000024021346A3431A464C680B6823438C6891
:101910002343CC6823431A43426010BD0021016079
:1019200041608160C1607047002904D002680123D2
:101930001A43026003E002685208520002607047D6
:10194000002A03D003680B43036002E003688B4363
:1019500003607047002905D002680123DB031A43A6
:10196000026004E002680123DB039A4302607047CF
:10197000002905D082680123DB021A43826004E05B
:1019800082680123DB029A4382607047002905D0F8
:1019900042680123DB041A43426004E042680123E9
:1019A000DB049A4342607047002905D04268012356
:1019B0009B041A43426004E0426801239B049A435B
:1019C00042607047002A03D043680B43436002E043
:1019D00043688B4343607047002905D04268012368
:1019E000DB031A43426004E042680123DB039A43AD
:1019F00042607047002905D042680123DB051A4385
:101A0000426004E042680123DB059A43426070476C
:101A10004269120E1206426142690A4342617047EE
:101A2000028AFF231B021A400282028A0A430282B0
:101A30007047002904D0026802231A43026003E0C1
:101A4000026802239A4302607047826803231B05E1
:101A50009A43826082680A4382607047002905D0F9
:101A6000426801231B051A43426004E042680123D7
:101A70001B059A4342607047426803235B059A4303
:101A8000426042680A4342607047CA05D20D02852F
:101A900070470146888CC005C00D7047426812022D
:101AA000120A426042680B061A43426070470029DE
:101AB00005D0026801235B031A43026004E0026858
:101AC00001235B039A430260704702680123DB0233
:101AD0009A43026002680A4302607047426810231A
:101AE0009A43426042680A4342607047426820233A
:101AF0009A43426042680A4342607047002905D019
:101B0000426801239B031A43426004E042680123B8
:101B10009B039A43426070470038014000440040F4
:101B200000480040004C00400050004000140140BC
:101B300000180140001C0140F3E9FFFFF0FF000026
:101B4000002904D0826808231A43826003E0826877
:101B500008239A4382607047028AD2B20282028AC4
:101B60000B021A4302827047002904D082682023A6
:101B70001A43826003E0826820239A4382607047A0
:101B8000002904D0826810231A43826003E082682F
:101B900010239A4382607047826807235B049A434C
:101BA000826082684B041A43826070474269120265
:101BB000120A426142690B061A4342617047826809
:101BC00004239A43826082680A4382607047002936
:101BD00004D0826802231A43826003E082680223F1
:101BE0009A4382607047002905D0826801239B03D5
:101BF0001A43826004E0826801239B039A43826057
:101C0000704782680123DB039A43826082680A433B
:101C10008260704702681F235B059A430260026876
:101C20004B051A430260704702681F231B049A4346
:101C3000026002680B041A4302607047002A03D056
:101C400083680B43836002E083688B438360704743
:101C5000826801235B039A43826082680A43826040
:101C60007047F8B5034600240026009600250020A2
:101C700018460E04340ECEB200960127009EB740DF
:101C80003D46022C01D1001D02E0032C00D108309A
:101C9000002A03D006682E43066002E00668AE43C1
:101CA0000660F8BD002A03D0038B0B43038302E0D8
:101CB000038B8B4303837047826801231B039A4382
:101CC000826082680A438260704702460020D369BE
:101CD0000B40002B01D0012000E000207047016282
:101CE000704770B502460B460024002100250020F5
:101CF0001E04350ED9B201268E403146012D02D187
:101D00001668314006E0022D02D15668314001E0EC
:101D1000966831401C0C0126A6403446D6693440F2
:101D2000002903D0002C01D0012000E0002070BD6C
:101D300010B5002300220B0C01249C4022460262B5
:101D400010BD000041480068012108433F49086078
:101D5000084640684860084640680521C9040843B1
:101D60003A494860084640684860084600680121D2
:101D7000090608433549086000BF3448006801215E
:101D8000490608400028F8D03048406880088000A4
:101D90002E49486008464068022108432B494860A4
:101DA00000BF2A4840680C2108400828F9D1704734
:101DB000F8B50025002400260027244840680C219F
:101DC00008400546002D04D0042D06D0082D2AD148
:101DD00007E01F481F49086029E01D481D490860A9
:101DE00025E01A4840680F21890408400446174836
:101DF00040680321C90308400646A00C841C002E3D
:101E000004D115486043134908600BE00F48C06ACD
:101E10000007000F471C39460D4801F0F1F96043F7
:101E20000C49086003E00A480A49086000BF00BF87
:101E300006484068F0210840000908490D5C054843
:101E40000068E84003490860F8BD00000010024047
:101E500000127A001000002000093D00140000204C
:101E600010B500F0BFF800F0C2F900F01DF9012133
:101E70004020FEF7D6FD02F033F910BDFFF7F0FF6A
:101E8000304802F04FFAFF20000402F03DFA01F062
:101E90001FFF0A2002F06CFAFF2002F039FA5A23E1
:101EA000F0220A21502002F0ADF80A23F0225A2134
:101EB000502002F0A7F8002002F026FA224802F093
:101EC00027FA002002F066FA0A22A0211FA002F0E1
:101ED00081F8042002F05EFA1A22A0211FA002F06D
:101EE00079F8022002F056FA2A22A0211EA002F060
:101EF00071F8012002F04EFA3A22A0211EA002F051
:101F000069F8062002F046FA4A22A0211DA002F03C
:101F100061F8FF20000402F0F7F90B4802F0F8F92D
:101F2000002002F037FA0BE02046621C94B2042332
:101F300032220A2101F0B6FF1948844200DD002454
:101F4000F2E7000068880008FFFFFF004755495F7F
:101F5000544D5F4E4F524D414C0000004755495F74
:101F6000544D5F52455600004755495F544D5F54EC
:101F700052414E53000000004755495F544D5F5891
:101F80004F5200004755495F544D5F5452414E53E4
:101F9000207C204755495F544D5F52455600000054
:101FA0000F270000704700BFFEE7704770470A48E0
:101FB0000068401C08490860704710B50749084888
:101FC000FFF78FFE002805D0054920318988C8B267
:101FD00000F015F910BD00002400002005010500E7
:101FE0000038014010B57D21C9002A48006801F081
:101FF00007F90446601E2849884201D901200CE0F7
:10200000601E264948610321081F00F00BF80020DC
:1020100022498861072008610020002801D000BF04
:10202000FEE710BD10B5002819DA1D4A03071B0F83
:10203000083B9B089B00D2588307DC0EFF23A3407C
:102040009A438B071B0E8407E40EA3401A43144BDC
:102050000407240F083CA408A4001A5118E0114AF0
:1020600003231B02D21883089B00D2588307DC0E7F
:10207000FF23A3409A438B071B0E8407E40EA34063
:102080001A43084B032424021B198408A4001A5184
:1020900010BD000010000020FFFFFF0000E000E086
:1020A0001CED00E000E100E00EB501210802FEF7A2
:1020B000D4FC26492648006801F0A2F8401E81B2EF
:1020C0006846018000214180092001906846018115
:1020D00069462048FEF79EFD01211E48FEF701FEDD
:1020E0000EBD10B5044601211A48FEF718FE0AE09D
:1020F00000BF01211748FFF71DFA0028F9D0012180
:102100001448FFF721FA2046611E8CB20028EFD157
:1021100000211048FEF703FE10BD10B5044602E092
:102120006420FFF7DEFF2046611E8CB20028F7D145
:1021300010BD10B5044603E07D20C000FFF7EDFFA1
:102140002046611E8CB20028F6D110BD40420F001F
:1021500010000020002000401CB501214804FEF7BB
:1021600060FC01218803FEF76AFC01220921C806F0
:10217000FEF7ADF801220A210920C006FEF7A7F8F4
:102180000320400200900221684601710321417141
:10219000002181710121C17169460920C006FEF745
:1021A0000DF81CBD00B587B0E12040020190002071
:1021B00002900390049006900C20059001A93348EA
:1021C000FFF71DFB012232493048FFF74AFD01218C
:1021D0002E48FFF7A9FB07B000BD08B51B216846D4
:1021E0000170012141708170FEF7A0F808BD10B5A3
:1021F000FFF7B2FFFFF7D6FFFFF7EFFF10BD10B5F7
:10220000044600BF80212148FFF75FFD0028F9D078
:1022100021461E48FFF739FC00BF40211B48FFF74D
:1022200054FD0028F9D010BD70B504460D4603E0FA
:102230002078FFF7E4FF641C2846691E8DB2002851
:10224000F6D170BD10B5044603E02078FFF7D7FF44
:10225000641C20780028F8D10A20FFF7D0FF10BDB9
:1022600070B504460D46E0B2FFF7C9FF204670BDC9
:1022700010B5044600BF20210448FFF726FD0028C2
:10228000F9D00248FFF705FC10BD000000380140FE
:102290000501050010B504462021FE48FEF70DF8A3
:1022A0008021FC48FEF707F8E0430006000A2043BF
:1022B0000921C90688611021F648FDF7FEFF40217B
:1022C000F448FDF7FAFF4021F248FDF7F4FF102132
:1022D000F048FDF7F0FF10BD10B504462021ED4891
:1022E000FDF7E9FF8021EB48FDF7E5FFE04300063D
:1022F000000A20430921C90688611021E548FDF73D
:10230000DCFF4021E348FDF7D8FF4021E148FDF71D
:10231000D2FF1021DF48FDF7CEFF10BD1CB5012113
:1023200003204004FEF77DFB0120C0030090012143
:1023300068460171032141710021817169460920BC
:10234000C006FDF73BFF082000906946D148FDF725
:1023500035FF102000906946CE48FDF72FFF202062
:1023600000906946CB48FDF729FF40200090694660
:10237000C848FDF723FF802000906946C548FDF757
:102380001DFF01214804FEF74CFB0920C006006830
:10239000000C00040921C906086008460068BE490F
:1023A00008430921C906086008468088FF21090200
:1023B00008400921C90688800846808AFF21090251
:1023C00008400921C90688820821B248FDF775FF37
:1023D0000A20FFF7A2FE0821AE48FDF76CFF64203B
:1023E000FFF79BFEB220FFF755FF0520FFF774FFB4
:1023F0000520FFF771FF0020FFF76EFF3320FFF786
:102400006BFF3320FFF768FFB720FFF743FF322051
:10241000FFF762FFC220FFF73DFF0120FFF75CFFDF
:10242000C320FFF737FF0B20FFF756FFBB20FFF756
:1024300031FF2020FFF750FFC520FFF72BFF2020A2
:10244000FFF74AFFD020FFF725FFA420FFF744FF46
:10245000A120FFF741FFD220FFF71CFF4C20FFF720
:102460003BFFE820FFF716FF0320FFF735FFE920C9
:10247000FFF710FF0D20FFF72FFF1220FFF72CFFB3
:102480000020FFF729FF3620FFF704FF0020FFF7A9
:1024900023FF3520FFF7FEFE0020FFF71DFF3A2047
:1024A000FFF7F8FE0520FFF717FFC620FFF7F2FE43
:1024B0001120FFF711FFE020FFF7ECFED020FFF71F
:1024C0000BFF0620FFF708FF0B20FFF705FF0A2090
:1024D000FFF702FF0920FFF7FFFE0520FFF7FCFED4
:1024E0002E20FFF7F9FE4320FFF7F6FE4420FFF70A
:1024F000F3FE0920FFF7F0FE1620FFF7EDFE152092
:10250000FFF7EAFE2320FFF7E7FE2720FFF7E4FEB0
:10251000E120FFF7BFFED020FFF7DEFE0620FFF729
:10252000DBFE0B20FFF7D8FE0920FFF7D5FE0820C1
:10253000FFF7D2FE0620FFF7CFFE2E20FFF7CCFEDE
:102540004420FFF7C9FE4420FFF7C6FE3A20FFF7FC
:10255000C3FE1520FFF7C0FE1520FFF7BDFE2320A8
:10256000FFF7BAFE2620FFF7B7FE2120FFF792FE05
:102570001120FFF78FFE7820FFF7CFFD2920FFF70E
:1025800089FE3220FFF7C9FD0121C9030920C006D9
:10259000FDF791FE1CBD10B50920C0060068000CB7
:1025A00000040921C90608600846C068000C000440
:1025B000C8600846C068384908430921C906C86090
:1025C0000846808AFF21090208400921C90688823D
:1025D00020213048FDF76FFE40212E48FDF76BFEAD
:1025E00010212C48FDF769FE80212A48FDF765FE81
:1025F0000920C006008AC4B280212648FDF75BFE90
:1026000010212448FDF757FE0920C0060068000C81
:1026100000040921C9060860084600681E490843ED
:102620000921C906086008468088FF210902084080
:102630000921C90688800846808AFF2108430921AC
:10264000C9068882204610BD70B504460D462A2072
:10265000FFF720FE2012FFF73FFEE0B2FFF73CFE3F
:102660000020FFF739FEF020FFF736FE2B20FFF7A2
:1026700011FE2812FFF730FEE8B2FFF72DFE012011
:10268000FFF72AFE4020FFF727FE2C20FFF702FE6F
:1026900070BD0000000400485555000070B50446A8
:1026A0000D4620217D48FDF706FE80217B48FDF781
:1026B00002FEE0430006000A20430921C9068861A2
:1026C00010217648FDF7F9FD40217448FDF7F5FD2E
:1026D00040217248FDF7EFFDE8430006000A284359
:1026E0000921C906886140216C48FDF7E6FD4021BB
:1026F0006A48FDF7E0FD10216848FDF7DCFD70BD7C
:1027000070B505460E4614462A20FFF7C3FD281271
:10271000FFF7E2FDE8B2FFF7DFFD2B20FFF7BAFD80
:102720003012FFF7D9FDF0B2FFF7D6FD2C20FFF7EE
:10273000B1FD20215948FDF7BEFD80215748FDF726
:10274000BAFD2012C0430006000A211208430921E5
:10275000C906886110215148FDF7AFFD40214F485F
:10276000FDF7ABFD40214D48FDF7A5FDE043000618
:10277000000AE1B208430921C9068861402147489F
:10278000FDF79BFD40214548FDF795FD102143488D
:10279000FDF791FD70BDF3B581B004462046029966
:1027A000FFF752FF3E20FFF775FDFFF7F4FEFFF73E
:1027B000F2FE0546FFF7EFFE0646FFF7ECFE074682
:1027C0003804310208432843FEBDFFB581B00446FA
:1027D0000D4616460A9F2A20FFF75CFD2012FFF7E0
:1027E0007BFDE0B2FFF778FD3012FFF775FDF0B228
:1027F000FFF772FD2B20FFF74DFD2812FFF76CFD50
:10280000E8B2FFF769FD04990812FFF765FD049926
:10281000C8B2FFF761FD301B401C0499491B491CDD
:10282000484300902C20FFF735FD20211B48FDF781
:1028300042FD80211948FDF73EFD10211748FDF7A4
:102840003CFD20E03812C0430006000A391208435C
:102850000921C906886140211048FDF72EFD40215D
:102860000E48FDF728FDF8430006000AF9B20843B8
:102870000921C906886140210848FDF71EFD402155
:102880000648FDF718FD0098411E00910028D9D197
:1028900010210248FDF70FFD05B0F0BD000400480F
:1028A000084800687047074A1268111800BF054AB7
:1028B00012688A1A002AFADC70477047704770471E
:1028C000704770472400002010B505218902034895
:1028D00001F0CAF8024801F01FFD10BD30010020D0
:1028E00068880008F8B507460C4615461E46B2B281
:1028F000A9B2A0B2FFF704FFF8BDF8B507460C4631
:102900001546A9B2A0B2FFF746FF06463046F8BD0D
:10291000F7B504460D4629462046029AFFF7EDFF1B
:102920000646216988688047074630467840034656
:1029300029462046029AFFF7D5FFFEBDFFB583B0BA
:102940000D4614461E46FE480068C06B00680290A3
:10295000FB480068007CC007C00F00280FD00AE0C9
:102960002F4605E0224639460398FFF7D1FF7F1C2A
:10297000B742F7DD641C0C988442F1DD0AE002984E
:1029800080B200900C9883B2B2B2A1B2A8B201900A
:10299000FFF71BFF07B0F0BDF8B505460E4614461D
:1029A0001F463B462246314628460094FFF7C6FFA5
:1029B000F8BDF8B506460C4617461D4623463A466E
:1029C000214630460095FFF7B9FFF8BDFFB585B049
:1029D0000E461C460F9F0E9D10980068039010989D
:1029E000406802907619D6480068007C8007800F06
:1029F000002806D0012838D002281DD003285AD13B
:102A000032E000BF207880222A411040002801D007
:102A1000029800E0039803463146761C079A059811
:102A2000FFF760FF681C0546082801D10025641CDB
:102A3000781E071EE6D13EE000BF207880212941A4
:102A40000840002805D03146029B079A0598FFF7F9
:102A500049FF761C681C0546082801D10025641C26
:102A6000781E071EE9D126E000BF0599096988682C
:102A70008047049000BF2078802129410840002829
:102A80000ED03146079A0598FFF737FF0190049959
:102A90000198484003463146079A0598FFF722FF00
:102AA000761C681C0546082801D10025641C781E88
:102AB000071EE0D100BF00BF09B0F0BDFFB583B075
:102AC0000F460698007802900C9D0C9D7F199C483B
:102AD0000068007C8007800F002802D0022850D1B7
:102AE00050E00E98002828D000BF0320401B44006F
:102AF0000620011BC0200841029908400646E64016
:102B0000B1000E984058019038467F1C0090014655
:102B1000019B059A0398FFF7E5FE681C054604280B
:102B200005D100250698401C0690007802900D986B
:102B3000401E0D900028D8D123E000BF0320401B89
:102B400044000620011BC020084102990840E040D3
:102B5000064638467F1C334600900146059A039886
:102B6000FFF7C0FE681C0546042805D1002506981D
:102B7000401C0690007802900D98401E0D90002891
:102B8000DCD150E00E98002828D000BF0320401B65
:102B900044000620011BC020084102990840064657
:102BA000E640002E09D0B1000E98405801903946F9
:102BB000019B059A0398FFF795FE7F1C681C05464C
:102BC000042805D100250698401C06900078029044
:102BD0000D98401E0D900028D8D123E000BF03209F
:102BE000401B44000620011BC020084102990840F8
:102BF0000646E640002E05D033463946059A03982E
:102C0000FFF770FE7F1C681C0546042805D10025CF
:102C10000698401C0690007802900D98401E0D907A
:102C20000028DCD100BF00BF07B0F0BDFFB583B006
:102C30000F460698007802900C9D0C9D7F19404825
:102C40000068007C8007800F002802D0022850D145
:102C500050E00E98002828D000BF0120401B8400BF
:102C60000420011BF0200841029908400646E64076
:102C7000B1000E984058019038467F1C00900146E4
:102C8000019B059A0398FFF72DFE681C0546022854
:102C900005D100250698401C0690007802900D98FA
:102CA000401E0D900028D8D123E000BF0120401B1A
:102CB00084000420011BF020084102990840E040F4
:102CC000064638467F1C334600900146059A039815
:102CD000FFF708FE681C0546022805D10025069866
:102CE000401C0690007802900D98401E0D90002820
:102CF000DCD153E00E9800282BD000BF0120401BF0
:102D000084000420011BF020084102990840064677
:102D1000E640002E09D0B1000E9840580190394687
:102D2000019B059A0398FFF7DDFD7F1C681C054693
:102D3000022808D100250698401C0690007801E082
:102D40003C00002002900D98401E0D900028D5D127
:102D500023E000BF0120401B84000420011BF02061
:102D60000841029908400646E640002E05D0334649
:102D70003946059A0398FFF7B5FD7F1C681C054688
:102D8000022805D100250698401C06900078029084
:102D90000D98401E0D900028DCD100BF00BF07B089
:102DA000F0BDFFB581B00F461C460A9DF74800688C
:102DB000007C8007800F002802D0022845D11FE048
:102DC0000B9800280FD00BE02678B1000B984358E1
:102DD0003946039A0198FFF785FD6D1E7F1C641C20
:102DE000002DF1DC0BE008E023783946039A0198C6
:102DF000FFF778FD6D1E7F1C641C002DF4DC24E0C1
:102E00000B98002811D00DE02678002E07D0B100D5
:102E10000B9843583946039A0198FFF763FD6D1EDE
:102E20007F1C641C002DEFDC0EE00BE02678002EEA
:102E300005D033463946039A0198FFF753FD6D1EBE
:102E40007F1C641C002DF1DC00BF00BF05B0F0BD8D
:102E5000FFB581B007460D461C460A9E08E0238850
:102E600029463846039AFFF73DFD761E6D1CA41CCB
:102E7000002EF4DC05B0F0BDFFB581B007460D466D
:102E80001C460A9E08E0236829463846039AFFF745
:102E900029FD761E6D1C241D002EF4DC05B0F0BD4E
:102EA000FFB583B015461E460F9F0D98082848D0E1
:102EB00006DC012809D002281BD0042873D12CE09D
:102EC000102850D020286ED15DE000240DE010992C
:102ED000119862193B46019600910290049903985B
:102EE000FFF774FD0E983F18641C0C988442EEDBCB
:102EF00059E000240DE01099119862193B460196A3
:102F00000091029004990398FFF7D8FD0E983F189E
:102F1000641C0C988442EEDB45E000240DE011991E
:102F2000109862193B46019602910090049903980B
:102F3000FFF77CFE0E983F18641C0C988442EEDB71
:102F400031E000240BE0119862193B460096019095
:102F500004990398FFF725FF0E983F18641C0C98FE
:102F60008442F0DB1FE0002409E062193B46009632
:102F700004990398FFF76CFF0E983F18641C0C9897
:102F80008442F2DB0FE0002409E062193B46009620
:102F900004990398FFF770FF0E983F18641C0C9873
:102FA0008442F2DB00BF00BF07B0F0BD70B504463D
:102FB000A06800280BD11C2000F082FDA060A5684D
:102FC000216988688047064602F04AF9A861A0682E
:102FD000002801D1012070BD0020FCE710B5044697
:102FE0000A46A168130004F01DFD0F1F090B0D0F09
:102FF0001F1F1F11131517191B1D1F00486810BD37
:103000008868FCE7C868FAE70869F8E78869F6E7BE
:103010000020F4E70120F2E70120F0E70020EEE7CE
:103020000020ECE70020EAE70020C043E7E7024683
:10303000012901D1564870470020FCE7826800232F
:103040000B804B8093895B1E1BB28B80138A5B1EA7
:103050001BB2CB8070477CB504460D461646002057
:1030600000900190009501966A460321A06900F046
:10307000B3F87CBDF8B504460D460020009020460C
:10308000FFF794FFA068002807D0A6683560009578
:103090006A460221A06900F09FF8F8BDF8B5054620
:1030A0000E4617462846FFF781FFA868002803D080
:1030B000AC68E66027616661F8BDFEB505460E4660
:1030C00017460020009001902846FFF76FFFA86880
:1030D000002810D0AC686069002801D1304600E0BB
:1030E000606960616660A760009601976A46072183
:1030F000A86900F071F8FEBD70B504462046FFF7E0
:1031000055FF054600220121A06900F065F805433E
:10311000284670BD10B5044600220521A06900F0C4
:103120005BF810BD10B5044600220621A06900F02E
:1031300053F810BD7CB504460D461646002000909D
:1031400001906846057100966A460421A06900F066
:1031500043F87CBD00B5024608460938030004F078
:1031600061FC080507090B130D0F1113094800BD79
:103170000948FCE70948FAE70948F8E70948F6E78B
:103180000948F4E70948F2E70020F0E73C00002096
:10319000CC880008753000089D300008BB3000085E
:1031A000F9300008153100082531000835310008D4
:1031B00010B500231A461049104800F0E9FDFF221F
:1031C0004132F021002001F028FFFF224132F0219E
:1031D000002001F039FF10BDF8B506460C46174631
:1031E000012C03D1FFF79AF80020F8BD0025ED432C
:1031F00000BF00BF2846F8E7447C0008C47B0008F5
:1032000030B50B46014600202022012409E00D467E
:10321000D5409D4205D31D469540491B2546954006
:1032200040191546521E002DF1DC30BD70B500244A
:103230002546002801DA01244042002901DA01254F
:103240004942FFF7DDFFAC4200D04042002C00D0E5
:10325000494270BD10B5431A934209D283188818A9
:1032600003E0401E01785B1E1970521EF9D210BD9A
:1032700003460B439B0703D009E008C9121F08C08F
:10328000042AFAD203E00B780370401C491C521E3A
:10329000F9D210BD064C0125064E05E0E36807CCC7
:1032A0002B430C3C98471034B442F7D3FCF706FF8D
:1032B000DC930008FC93000870B58C180578401C5E
:1032C0006B075B0F01D10378401C2A1106D10278ED
:1032D000401C03E006780E70401C491C5B1EF9D1AF
:1032E0002B0705D40023521E0DD40B70491CFAE79E
:1032F0000378401CCB1A921C03E01D780D70491C0A
:103300005B1C521EF9D5A142D8D3002070BD002805
:1033100000DC404270471CB50024019401AC0094CD
:1033200000F0F0F81CBD0000FFB585B005990798C6
:103330000E9E441A06990898451A0020029030689B
:1033400001902046284319D02046FFF7E0FF0746AA
:103350002846FFF7DCFF87420CDA20462C4605465C
:103360000699059805910690089907980890079185
:1033700001200290002C06DD204605E0059800F0B3
:1033800043F909B0F0BD6042A0420AD00799059800
:1033900007900898644206906D4200200591C04352
:1033A00000E00120564F0090002D14D0E00F0019CE
:1033B00040100190002D01DA404201905048006811
:1033C000807E002847D00098002802DA3068001973
:1033D000306000277FE00298002838681CD0807E8B
:1033E000002801D0002514E0079A0599069801F0FD
:1033F00039FCC6E70198411C019103F067FE0028E3
:1034000006D1059841193868406E42680698904781
:103410006D1CA542EEDD1BE0817E002901D0002558
:1034200014E0406E05AC036807CC9847A9E7019803
:10343000411C019103F04AFE002806D13968059825
:10344000496E40194A68069990476D1CA542EEDD09
:103450000198401E4AE0002614E029460198714375
:1034600008182146FFF7E2FE01460698081802995F
:103470000029059909D0224A89191268526E5268AA
:103480009047761CA642E8DD7BE78B191C4909684A
:10349000496E4A6801461846F2E728460199784382
:1034A00040182146FFF7C2FE069940180390316884
:1034B00000980818306003F009FE00280AD102982D
:1034C0000028059814D0C1190D480068406E426864
:1034D000039890477F1CA742DFDD0098002802DA9E
:1034E00030680019306031680098081A306048E789
:1034F0000349C0190968496E4A680399E9E7000061
:103500003C000020FFB53F4985B009680E980D7E4C
:103510001E461746012D1DD005980699C01B891B14
:1035200002460A431BD06D1E04F098FA012189025D
:103530004018049001F0EDF904466C43049801F042
:10354000EFF9012168434902002C0ADA0A1B9212A2
:1035500055420AE0009006990598FFF7E5FE09B08C
:10356000F0BDFF34FF340234A512002803DA081A34
:103570008012444203E0FF30FF3002308412002DFD
:1035800004DD681CC10F0818411003E0E80F401962
:1035900041106D1EE80F40194210002C04DD601C24
:1035A000C30F1818431003E0E00F00194310641E06
:1035B000E00F0019441005984518684605800698E4
:1035C0007918C518684645800598851A684685802B
:1035D0000698BA1A051B6846C5800281321B4281D3
:1035E0008181F118C18100231A46042100F07EF880
:1035F0000699059802F0F8FF3146384602F0F4FFCC
:10360000ADE700003C00002010B5084A13681A7EA0
:10361000012A06D0521ED30F9A18521000F008F853
:1036200010BD5A6E5268904710BD00003C0000204B
:10363000F7B506462B49104648437D2184B0144611
:10364000C900FFF7F3FD471CE10F2046091960434D
:10365000491040182449019009683219496E301BFD
:103660000B6805999847012537E0284621466843AD
:1036700061434118019881421ADDBC4217DD05986B
:1036800072190119701B184B029200901B68401CA4
:103690005B6E521E1B689847134B05981B68011BF5
:1036A00000985B6E029A1B68401C521E9847641E6D
:1036B000059832194119301B0B4B029200901B6880
:1036C0005B6E1B689847084B05981B68411B5B6E37
:1036D000029A1B68009898476D1CBD42C5DD07B073
:1036E000F0BD0000C30200003C000020FFB5684CA4
:1036F0000F4666428DB000210BE00D9A88008218BB
:103700000220105EA04200DA0446B04200DD064608
:10371000491CB942F1DB5F480068406900280DD0C0
:103720000622825E1099511AB14200DA0E46022139
:10373000415E1098081AA04200DD0446A3E0002173
:1037400055480D46016076E0781E854201DA681C16
:1037500000E000200146A80003900D9A890082181D
:1037600002209446105E0D9A8B1802229A5EA042A7
:1037700096464CD1A6451AD1039A0D98825E0F98B1
:103780001018109AA21894460D9A525E0F99531869
:10379000404998420968496E09688E4602DA1A461D
:1037A000614602E002466146184673462AE00D98DB
:1037B00000220C907B1E28469C460CE0002801D07D
:1037C000401E00E0781E0C9B8100C9180223CB5ECE
:1037D000A34203D1521C6245F0DB2346A34229D009
:1037E00003990D981A1B405E71460B1B0F995A40A6
:1037F0008C46109908D4274A604412686118526EAA
:1038000013680246984715E002F0D2F912E0A64587
:1038100010D0A64501DBA04203DDA0420ADBA6458D
:1038200008DC62460AA9204602F088FA002801D086
:103830000A98E9E76D1CBD4286DB0F98019010984D
:103840002018039000200546089017E013496A00ED
:10385000895E0491089900290AD0019A04995218A6
:10386000019908180B490968496E0B680399984734
:10387000089801214840089004986D1C0649096881
:103880008D42E3DB641CB44200DC58E711B0F0BDAC
:10389000FF3F00003C000020780000206C16002054
:1038A000F0B54E4991B00A682221515E069124215B
:1038B000515E0991D5690026EC69F643A1898142E0
:1038C00006D8E389834203D32368471A0F9313E092
:1038D000A16863680F93002977D00B88834274D85E
:1038E0004E88864271D3C01A03044868990B0818A1
:1038F00000270226C75F865F781C66D0287EA37CDF
:10390000014658430A90207C2A2507910890555F6C
:10391000284601F065FBC0B20D903048A37C0168D9
:103920000A988A6B47430F98039338180127029728
:1039300005920490C869079BC17E807E019100902A
:10394000089A0999069801F023F8701C1BD02846A4
:103950000221084301F044FB0A9A204856430F9A7B
:103960000068B318816BA27C0297049303920591BF
:10397000C069079BC17E807E01910090089A0999D9
:10398000069801F005F8154E3068C069417E007E4A
:10399000814217D9022D15D028460421484001F054
:1039A0001FFB3068C069017EC27E437E5143099A85
:1039B000807E89189B18089A5043069A82180698A8
:1039C00001F07AF90D9801F00BFB0448627C006865
:1039D000418C8918418411B0F0BD00003C000020EA
:1039E000044800290068C069C06901D0027C0A60EF
:1039F000407C70473C000020022008807047C0696E
:103A000082898A4202D8C2898A4211D280680028FB
:103A100010D002888A420DD843888B420AD340686E
:103A2000890040189100401A0021415E002901DB05
:103A3000012070470020704710B5002801D002F027
:103A40001FF910BD38B50546FFF7F6FF040009D091
:103A500000F092F82A460021009000F017FF684617
:103A600000F09AF8204638BD024A106088088000AD
:103A700050607047F015002010B5002810D00446A3
:103A80000848E200406B815C002909D0022907D276
:103A9000121D8158486802F0A7F8204603F042FA48
:103AA00010BD000030150020002806D0034AD16B5D
:103AB0000160002900D04860D063704730150020B5
:103AC000F8B5044603F028F9E41C2A48A508AD001F
:103AD000016C2D1DA94200D90D46C46B17E021468B
:103AE0008039CA6FAA4211D1002C12D02168002956
:103AF00001D062684A606168002901D022680A60CA
:103B0000C26BA24233D12168C16330E02468002C2B
:103B1000E5D11848816BC0680F183846803800908E
:103B2000C06F3E1A3068002808D0002003F028FA41
:103B30000098C06F3E1A3068002818D17068A842FB
:103B400015DB8019441B3046241D03F0FDF909489C
:103B5000C168491BC1604169491941617068401BD6
:103B600002D0314602F040F820468038C567204632
:103B7000F8BD00003015002000B50649CA69521C86
:103B8000CA61496BC20089180A78521C0A7000F099
:103B90001BF800BD3015002002680A49083A126877
:103BA0004B6BD2009A181378022B04D3CB69002BED
:103BB00001D05B1ECB611178491E1170002101609C
:103BC0000846704730150020002805D00349C00082
:103BD000496B001D08580830704700003015002060
:103BE000FFB51E4605460123DB072D22306881B054
:103BF0009D4207D1431C0127ED433360491E0270EB
:103C0000CCB20BE00027002D05DA431C33600270B4
:103C10006D42012000E00020081AC4B20398002879
:103C20002CD0641EE4B229E02046641E0399E4B25D
:103C3000884205D1154801783068421C3260017015
:103C40001349A0000858009001462846FFF7EEFAF5
:103C5000C0B20A2814D8009941436D1A002C03D130
:103C6000002F01D0401CC0B20A2802D10120641CE0
:103C7000E4B231684A1C303032600870002CD3D175
:103C800031680020087005B0F0BD00003000002051
:103C9000608B000810B5C2B2CBB2D21A00D5524226
:103CA00093B202040C045B43120E240E121B00D5C7
:103CB000524292B2000C090C5243401AD21800B280
:103CC000002801DA404200B280B24043801810BDA3
:103CD00010B50021084600F0F9F9034A5042134696
:103CE000014600F003F810BDFF3F0000FEB5074697
:103CF0001C4615460E46042001F072F900900F484C
:103D0000C168C86C096DC7194519684687808E1946
:103D100005810C19C680448101A801F0C9FD07E0A6
:103D200023462A463146384600F0C6FF01F082FDA0
:103D30000028F5D1009801F053F9FEBD30000020B5
:103D4000F8B51C4616460D460746022B01DB00203F
:103D5000F8BD1C20FFF7B4FE0028F9D0002D01D0DB
:103D600005610BE0094AA1005158002901D105E085
:103D700011460A68002AFBD10969016184618682C3
:103D8000002101604160C7608160F8BD54000020DF
:103D900070B51D46FFF7D4FF04000AD000F012F8FA
:103DA000E0680068002804D10349A80009684018A9
:103DB0008465204670BD00003C00002010B5FFF770
:103DC00073FE10BD70B5002835D08169022932DA42
:103DD0001E4B8C001959002902D1185133E01146AD
:103DE0004A68002AFBD106E0CA68C56812682D68D7
:103DF000AA4203DD09680029F6D11CE000291AD087
:103E0000CA68C66812683668B2420DD1828A012A31
:103E100005D009E01146D2681268AA4204DB0A689C
:103E2000002AF7D1002906D04A68002A05D0106080
:103E30004A68426002E0012070BD18514860884223
:103E400000D100210160002070BD0000540000205E
:103E500081698A0009498B58834201D103688B50DC
:103E60004168002901D002680A600168002901D078
:103E700042684A60002101604160704754000020A0
:103E8000022801DB0020704705498000085804E043
:103E9000C16809680029F6D000680028F8D1704789
:103EA000540000207FB50D461E4669461446039116
:103EB00003AB00223146FFF793FE224629466846AF
:103EC00000F07EF87FBD0000F0B585B0060057D049
:103ED00000F0CCF8384D039029682220085E049049
:103EE00000F0CCF807462868818CC91B81843CE02F
:103EF0003249304600F0D8FB01460290304600F0CF
:103F0000A7FB29680446888D8007800F01283DD0D3
:103F1000022837D000204A8C101A48846A46108044
:103F2000621E80186A469080888C50800399491ED2
:103F30004018D0803046029900F036FB6A46296866
:103F4000508888843046029900F056FA86193078F5
:103F50000A281DD00D281BD0684600882968001942
:103F600048843078002803D0761C30780028BFD1F0
:103F70002868818CC9198184818D8908890081858F
:103F800005B0F0BDE00F00194010C4E72046C2E7BD
:103F90002868818D8907890F012903D0022901D062
:103FA000018C00E00499418431780A29D9D1828CAE
:103FB000039951188184D4E73C000020FF7F000062
:103FC00010B5034B1B6859849A84FFF77DFF10BD21
:103FD0003C000020F8B5064609480D4601682C2033
:103FE000085E02211446084300F0CAF9074622463B
:103FF00029463046FFF7E4FF384600F0C1F9F8BD26
:104000003C000020F8B50B4C2568EC6C2718286D97
:10401000A5184618C418002001F04AFC07E0234602
:104020002A4631463846FFF776F901F003FC0028AE
:10403000F5D1F8BD3C000020810003484058C1681C
:104040008A6A0821104700005400002002490968CC
:10405000C9694A68002110473C000020024A1268E2
:10406000D2695268104700003C00002002480068F6
:10407000C069407E704700003C0000200A492C22A5
:1040800009680C238A5E00201A40042A07D0082AF7
:1040900001D00C2A02D1C869007E40087047C86967
:1040A000007E401E704700003C0000200249800056
:1040B00008580069006870475400002002498000D9
:1040C00008580069406870475400002070B50D46DC
:1040D00002F09CFD0446284602F0A0FD204370BD7E
:1040E000F8B518480125856017490160006817492F
:1040F000884200D0FEE700F03FFA154E2E203070C7
:10410000FEF7DBFB134802F0CDFD03F011FD07467F
:1041100000F036FE002803D000F03EFE002807D154
:1041200000F040FE044600F031FE214600F052FF50
:104130000021084600F000F901F0FCF975703846DE
:10414000F8BD000000300240C2A507F4CDB5E8B5C7
:1041500030000020FC15002038B5040019D00D48AF
:104160000068006EA04201D100F0AEF82046FFF7D3
:1041700003FD00904069002801D000F060F900982C
:104180000068FFF71BFE6846FFF706FD2046FFF7B5
:1041900073FC38BD3C00002038B5002400280CD04A
:1041A000FFF7EAFC0090006800698068804701F032
:1041B00085F804466846FFF7EFFC204638BD38B561
:1041C000002808D0FFF7D8FC044600906846183451
:1041D000FFF7E2FC204638BDF8B516460F4605004D
:1041E00013D0FFF7C9FC009044696846FFF7D4FC80
:1041F0002846FFF7D1FF0346082801DD002C05D033
:1042000032463946284603F055F8F8BD324639465D
:10421000284603F00BFAF8BD10B5002823D000297A
:1042200022D0002A21D0002400230C5FD35E9C42C0
:1042300000DA23460380022402230C5FD35E9C42F3
:1042400000DA23464380042404230C5FD35E9C429F
:1042500000DD234683800623CB5E0621515E8B4220
:1042600000DC0B46C38010BD11460822FEF7F2FFAA
:1042700010BD00280BD003885B1803808388591871
:104280008180418889184180C1888918C180704720
:1042900002220623825ECB5E9A4213DC02220623B0
:1042A0008A5EC35E9A420DDC00220423825ECB5EEE
:1042B0009A4207DC00228A5E0421415E8A4201DCC8
:1042C000012070470020704710B500F017FE00F085
:1042D000D3FE01F00DF810BD70B5094D04462868F5
:1042E000022C467C0AD22046FFF7CAFD002805D0E2
:1042F00028684474FFF7E8FF02480460304670BD48
:104300003C0000209C00002010B500F019FE10BDFC
:1043100010B500F04DFE10BD0149886070470000E7
:1043200030000020034900280968CA6900D0C8612C
:10433000104670473C00002030B4094A1080094AFA
:104340001180094A1268527C9300084AD358DA68EF
:10435000146A0A46A446014630BC1846604700006D
:1043600064000020660000203C0000205400002073
:10437000024909680A7E0876104670473C00002012
:1043800003490A682C21515E908508467047000059
:104390003C00002003490A682A21515E50850846E6
:1043A000704700003C00002002480068002800D050
:1043B000004770472001002010B504498A68002A90
:1043C00000D18860FFF7F0FF10BD00001001002051
:1043D000F8B5084E044605683068016828468847E5
:1043E00007463068416828468847401920603846AB
:1043F000F8BD000040000020F8B50C460646002538
:10440000054F05E0386841683046884736182D1852
:10441000641EF7D22846F8BD40000020FFB581B0E9
:104420000A9D14460646B06822464768641C30461A
:10443000049B0299B8476D1EF5D105B0F0BD38B5A3
:104440000546FFF799FB00908189491E0CB28481D3
:104450006846FFF7A1FB002C02D12846FFF70CFBB2
:1044600038BD10B5082A0FDC0346012A19D0022AEC
:1044700051D0042A6FD002781A70001D491E5B1CAF
:104480000029F8D1012010BD102A08DC024603885B
:104490001380001D491E921C0029F8D1F2E700206C
:1044A00010BD0278001DD207120E491E2ED00478CE
:1044B000001DE407640E2243491E27D00478001D26
:1044C000E407A40E2243491E20D00478001DE4070F
:1044D000E40E2243491E19D00478001DE407240F7E
:1044E0002243491E12D00478001DE407640F2243C2
:1044F000491E0BD00478001DE407A40F2243491E77
:1045000004D00478E407E40F2243001D1A705B1CFA
:104510000029C6D1B6E70278001D9207120E491E87
:1045200013D00478001DA407A40E2243491E0CD00A
:104530000478001DA407240F2243491E05D00478E7
:10454000001DA407A40F2243491E1A705B1C0029FA
:10455000E1D197E7FFE70278001D1207120E491E0E
:1045600005D00478001D2407240F2243491E1A7029
:104570005B1C0029EFD185E710B509488169002946
:104580000CD101218161FEF79FF9FEF711FE04496C
:1045900004481C310860084600F070F910BD0000A6
:1045A00030000020796E00087CB506462648134688
:1045B00000680D4600280DD0002001F079F906E0D2
:1045C0006A462946304601F08FFC01F033F9002895
:1045D000F6D17CBD082219466846FEF73BFE1B4C0F
:1045E000684621680088CA6C821868460280408844
:1045F0000A6D8218684642808088CA6C82186846B4
:104600008280C088096D41186846C18001F050F968
:104610000DE069462068098841846946498881849B
:104620006A462946304601F05FFC01F003F9002894
:10463000EFD12068418CC26C891A4184818C026D53
:10464000891A81847CBD0000600000203C000020AD
:1046500073B5134A01A9126800989047002400908E
:1046600000281BD00F4900250968C969496900293C
:104670000CD00A68002A09D0019990477CBD684691
:10468000FFF7A6FE0546FFF7E1FC04190198401E5E
:104690000190F4D5284600F027F8041920467CBD87
:1046A0000C0100203C00002073B5009800240D464A
:1046B000002815D00B490968C969496900290DD03E
:1046C0004A68002A0AD0294690477CBD6846FFF711
:1046D0007FFE002804D00A2802D0641CAC42F5DB1F
:1046E00020467CBD3C00002038B50024694600947B
:1046F000FFF7B4FC0099814200DD0C1A204638BD5A
:1047000000230022C35E8A5E934200DA0280022305
:104710000222C35E8A5E934200DA428004230422AE
:10472000C35E8A5E934200DD828006230622C35E5A
:104730008A5E934200DDC280704770B5002400237A
:104740000C5FD35E9C4200DD2346038002250224D9
:104750004D5F145FA54200DD2C46448004250426ED
:104760004D5F965FB54200DA2E46868006254D5F86
:104770000621515E8D4200DB0D46C5809E4201DB65
:10478000A54201DA002070BD012070BD014610B5C0
:1047900002480068407C00F003F810BD3C00002097
:1047A000F3B5012681B00746022863DA324D6A6804
:1047B000002A01D0029990472F4802991030BC007E
:1047C000002933D0012902D0022953D118E005462F
:1047D0000059002811D13846FFF752FB00900028FD
:1047E00048D0C0680D21426A68469047020041D017
:1047F00002990098904728590026401C285139E01A
:104800003846FFF73DFB0090002833D0C0680D21EB
:10481000426A6846904704002CD02868002800D0DF
:10482000804702990098A047002623E012481030E4
:104830000059012814D13846FFF722FB00900028C8
:104840000ED0C0680D21426A68469047070007D025
:104850002868002800D0804702990098B8470026B1
:10486000054810300159002901D0012200E0002242
:10487000891A01513046FEBDF400002002494A6900
:1048800042604861704700003000002010B502E02F
:104890000170401C521E002A01D08307F8D19308F2
:1048A00015D092070B4C920F4C4305E00460446016
:1048B0008460C46010301B1F042BF7DA01E010C0C5
:1048C0005B1E002BFBD102E00170401C521E002A2F
:1048D000FAD110BD0101010110B5830702D5018095
:1048E000801C521E530810D00C040C19042B08DB3A
:1048F000046044608460C46010301B1F042BF7DA2E
:1049000001E010C05B1E002BFBD1D20700D001805C
:1049100010BD012100B58902401800F001F800BD6A
:1049200070B5000501210022000DC902884201DD99
:10493000401A012201239B02984200DD081A8311CC
:104940008006800E40240A4D211A5E00A85B484371
:10495000402906D0102B04DA73195B88611A4B4387
:10496000181820308009002A00D0404270BD000095
:10497000007C00080449054A0968497C89005158AF
:1049800009690968084700003C0000205400002025
:10499000F0B505468DB0002003908048169C006855
:1049A0001E4617468446002810D0149A159B179867
:1049B0000393049402920590139A12980192009026
:1049C0006046046833463A46284680E0E819401EAF
:1049D0008646139A12988B1910435B1E012807D044
:1049E00014980822101A0590002002910990D1E035
:1049F0006B480A220068825E8446501A002806DD51
:104A0000361A002E64DD1146159A50430419624689
:104A10000E20105E181A002802DD361A002E57DD0F
:104A200010460C22825E7046801A002800DD3F1A74
:104A3000634608229A5E0020AA4233DD501B149A76
:104A40003F1A082A26D006DC012A0BD0022A11D0F0
:104A5000042A27D116E0102A1ED0182A1ED0202A98
:104A600020D11BE0C2101419C208D200551940070A
:104A7000400F17E082101419820892005519800720
:104A8000800F0FE042101419420852005519C00758
:104A9000C00F07E0241803E0420000E08200141970
:104AA0002D180020002F13DD179A05920490159BF6
:104AB000149801900394029300966046407C3B4614
:104AC000820038488058C26854680A462946A04780
:104AD0000DB0F0BD139902980A2340180C90401EA7
:104AE0002F4901900A68D35E83424BDC0E21515E50
:104AF0000298814246DB0020009507900A940890B6
:104B00003EE00798002807D10A98007803900A9899
:104B1000401C0A900820079005990398149AC840F1
:104B200003999140C9B203910799891A0791002806
:104B300004D11B490968097C890719D418490968F7
:104B4000C96B0A680B92179A002A02D08200179844
:104B50008058086000991298019B0A18521E029909
:104B6000009800F0A9F80E480B990068C06B01602E
:104B70000898401C089012990098401800900898D6
:104B8000B842BEDB0998401C09900C980290159819
:104B900024180998B0429DDB9AE7000060000020CD
:104BA0003C0000205400002030B4124B0A241B6843
:104BB0001C5F8C421CDC0E241C5F8C4218DB08241A
:104BC0001C5F844200DD20460C241C5F944200DA06
:104BD000224682420CDB5B7C9C00074B1C59E3683D
:104BE0009D6813460A4601462046AC4630BC6047E5
:104BF00030BC70473C000020540000200A4630B40E
:104C000016490A230968CB5E934225DC0E23CB5E4E
:104C1000934221DB0823CB5E83421DDC0C23CB5E59
:104C2000834219DB0B7C0E4CDB0709D0497C8900E1
:104C30006358D968CC690146A44630BC1846604721
:104C4000CB6B497C1B6889006458E1688D6901461B
:104C50002046AC4630BC604730BC70473C0000206A
:104C60005400002030B40546114808230068C35E94
:104C7000AB421BDC0C23C35EAB4217DB0A23C35ED3
:104C80008B4200DD19460E23C35E934200DA1A46BA
:104C90008A420BDB407C83000648C058C368DC684E
:104CA00013460A462946A44630BC604730BC7047CC
:104CB0003C0000205400002038B505461248082466
:104CC0000068045FAC4200DD25460C24045F94427A
:104CD00000DA2246AA4216DB0A24045F8C4200DD79
:104CE00021460E24045F9C4200DA23468B420ADBF5
:104CF0000093407C83000548C058C3681C69134674
:104D00000A462946A04738BD3C0000205400002038
:104D100010B5082101F0F6FE10BD000010B50348E3
:104D200009210068407C01F0EDFE10BD3C00002030
:104D300010B5092101F0E6FE10BD70B500252C4626
:104D40002046FFF79DF8002800D06D1C641C022C43
:104D5000F6DB284670BD000010B503480068407CB3
:104D600000F004F810BD00003C00002010B5FFF773
:104D700087F8002803D0C168CA6A0221904710BD95
:104D800001480068704700007000002010B5012045
:104D900001F0FEFE10BD00000148406870470000B1
:104DA0007000002010B5022001F0F2FE10BD10B519
:104DB00000F002F810BD0000F8B500280CD086689D
:104DC000002E08D00E494A68002A04D00468FF204B
:104DD0000130844201DD0020F8BD0868844200DD16
:104DE0000446002507E0AF00F059FFF7C3FD044972
:104DF0006D1C4968C851A542F5DB01484068F8BD03
:104E0000800000200449054A0968497C89005158FE
:104E100009694968084700003C0000205400002050
:104E200010B5C20643050749074C9B0E0004D20E7D
:104E3000E35CC00E8A5C085C190208181104401873
:104E400010BD0000008900082089000810B50B4C37
:104E5000606800280DD120688000FEF731FE606098
:104E6000002808D021460648083108600846FFF7A8
:104E700005FD002010BD012010BD000080000020B5
:104E8000A16E0008F8B5FFF758FF074600242BE095
:104E90002046FEF7F5FF002825D015480068417C24
:104EA000009144742046FFF733FF082817DC1149AE
:104EB000A000085810490069884210D02046FFF72A
:104EC00037FF0646002508E0E8B2FFF79BFF0246E1
:104ED000E9B2204600F08AF86D1CB542F4DB0449C3
:104EE000009809684874641CBC42D1DBF8BD00001E
:104EF0003C00002054000020C493000810B50E4C64
:104F00000E492068407C8000085800280BD0C168FA
:104F1000002902D00968042901D00068F5E70028BB
:104F200001D0FEF795FF2068002101660146083197
:104F3000416100F02FF810BD3C000020540000201B
:104F400001490968496808477C000020044909684C
:104F50000A7C520701D5C96B00E0896B0860704775
:104F60003C0000207CB5094C05462068407C81004F
:104F700007484058C1680A6B6946904720686A46EE
:104F800029460830FFF7D9FB7CBD00003C0000201B
:104F90005400002004480168487C8200034808311E
:104FA0008058C268126B10473C000020540000205B
:104FB00001490968096808477C000020044909681C
:104FC0000A7C520701D5896B00E0C96B0860704705
:104FD0003C000020014A03C270470000700000201E
:104FE00001490968896808477C000020F8B5154622
:104FF0000E460124FEF744FF009000280BD0C06845
:105000001021426A68469047030004D02A46314680
:105010000098984700242046F8BDF8B515460E467E
:105020000124FEF72DFF009000280BD0C0680B2153
:10503000426A68469047030004D02A4631460098E9
:10504000984700242046F8BDF8B515460E460124C1
:10505000FEF716FF009000280BD0C0680A21426AB4
:1050600068469047030004D02A4631460098984786
:1050700000242046F8BD000010B5074C2068006BE6
:10508000FFF778FCFFF79AFF2068406BFFF772FC90
:10509000FFF75CFF10BD00003C000020FFB5174685
:1050A0006C4A8BB012680024189E1A981D46002A7C
:1050B00011D0169B199802930590159B1498019393
:1050C000179C00900496039414682B463A460B985C
:1050D000A0470FB0F0BD4A19521E96460B9A159B79
:1050E000D219521E0092149A1A43012A07D0169818
:1050F0000822101A0091059000200790A7E0564A58
:105100000A231268D35E94465A1A002A06DDAD1AA5
:10511000002DDEDD1946179B5A43961962460E2371
:10512000D35E7246D21A002A02DDAD1A002DD0DD00
:1051300062460C23D35E009AD21A002A00DDBF1A01
:105140000B9A6346141A08229A5EA2420ADD131BC8
:105150001A18FF1A101AD310C0089E19C00004199B
:105160005007400F002FB4DD179B02930490199A4B
:10517000169805920190039600956046407C3B4648
:10518000820036488058C26855680A462146A847BA
:105190009FE7159900980A2340180990401E2E4950
:1051A00004900A68D35E834249DC0E21515E009868
:1051B000814244DB002002900B980190002003966E
:1051C00006903AE00298002805D103980478401C24
:1051D00003900820029005992046C8401699169A17
:1051E0008C400299E4B2891A0291002804D11A492C
:1051F0000968097C890718D417490968C96B0A68C6
:105200000892199A002A02D08200199880580860E2
:1052100014990198049B4218521E0099FFF74CFD07
:105220000D4908980968C96B086006981499401CD4
:1052300006900198401801900698B842C2DB079882
:10524000401C079009980090179836180798A842B4
:105250009FDB3EE7600000203C000020540000205F
:10526000002818D0410817D0810817D0C10817D0DE
:10527000010917D0410917D0010A17D0410A17D0E8
:10528000010B15D0C10B13D0010C11D0810C11D022
:10529000000E11D020207047012070470220704777
:1052A000032070470420704705207047082070478E
:1052B00010207047122070471820704700B5002258
:1052C000FFF7CEFF012804D0811E062903D808224B
:1052D0000BE0012209E001460939072901D8102213
:1052E00003E011380F2800D82022104600BD00002E
:1052F0000248012100684030017570473C000020E1
:10530000F0B589B0040035D0FEF736FC019006C830
:1053100005920491076A856901A8FEF73DFC2046C5
:1053200000F0A8FA060025D0204600F0FCF8029014
:10533000B80704D52A4604A8029900F0F5FB2046D8
:10534000FEF71AFC01900298FEF716FC0690304614
:10535000FEF712FC039005620698019AC16911627A
:10536000C46101A8FEF718FC06A8FEF715FC03A807
:10537000FEF712FC09B0F0BDFFB507464C4887B0F8
:10538000119C8069109D04430E46002D0AD14848A7
:10539000408800282AD047480068407C8100444863
:1053A00044304558681C0FD0002D1FD02846FEF70A
:1053B000E3FB029000210222415E825E099BCF192D
:1053C0009619002B02D006E000250FE00423C35EEF
:1053D000591A491C09910A99002904D10621415EF4
:1053E000881A401C0A9002A8FEF7D6FB13982C30AE
:1053F000FEF728FB0490002856D02D482C49408801
:10540000401C48800498FEF7B7FB00900780468058
:105410000999294A7918491E81800A9922407118F0
:10542000491EC18012990161816A114381626846F7
:10543000FEF7B2FB1E48049E006900280AD0FEF762
:10544000C3FB07463046FEF7BFFB0146786948615B
:105450007E6101E0164806612946049800F0A6FA2C
:10546000A00602D5049800F037F9E00703D01048F1
:10547000416A491C4162600602D50498FFF740FF6B
:10548000A0070DD50498FEF777FB0090816A0222F1
:10549000114381626846FEF77FFB049800F0E8F84C
:1054A0000121049800F07CFB04980BB0F0BD0000D3
:1054B000900000203C0000209F3F3F0010B50446B4
:1054C00022684068E168172A0DD004DC0E2A0CD04F
:1054D000142A07D104E0222A0BD0282A02D10AE09C
:1054E00000F083F90020E06010BD214600F012F9C1
:1054F00010BD0248F7E700F0BBF810BDFFFFFF0F3B
:10550000034804490068407C800008587047000048
:105510003C000020D400002010B5002802D0FEF787
:1055200053FBC06910BD10B5002802D0FEF74CFB3C
:10553000806910BDF0B5274D85B06878002846D148
:1055400000272F6124486F6300682E464764AF80B0
:105550006F803C4644362046FEF792FC002814D06B
:105560000221CA1E1D48009201910290920C002156
:10557000039713460846FFF7FFFE164BA100705035
:10558000174A4C335A5000F073F8641C022CE2DBCB
:1055900000241448E700381800F0EEF812483818D4
:1055A00000F0EAF81148381800F0E6F8641C022C04
:1055B000EFDB306800F090F8FFF79AFE0120054914
:1055C00068700B483C3108600846FFF757F905B092
:1055D000F0BD0000900000203C000020E57A0008AB
:1055E000FFFFFF0F0C1700201C1700202C170020B6
:1055F000B56E000870B586B00E4605002DD0FEF7DA
:10560000BBFA0090846AA10724D503C801900291D7
:10561000E00302D5284600F021FA002E0CD0082223
:10562000314603A8FDF716FE03A9009800F0ACF878
:1056300003A901A8FFF764F8294601A800F0AEF815
:10564000002807D009480440012C08D001A92846A9
:1056500000F0FEF96846FEF79FFA06B070BD0098AC
:10566000026A816901A800F05FFAF3E7010800000F
:1056700010B50021FFF7BEFF10BDFEB515460E4662
:1056800004001CD0FEF778FA02460090008D8007D7
:1056900012D5314601A8FFF750F800280CD0684613
:1056A000FEF77AFA2A4601A9204601F089FB204636
:1056B000FFF732FF04460CE06846FEF76DFAFEBDC8
:1056C0002A4601A92046FFF7D8FF2046FEF77CFABC
:1056D000046A002CF4D1FEBD70B50C4D040028689E
:1056E000866C01D10A490C698464204600F031FAC5
:1056F000FFF750FC2046FEF767FA00222968825E19
:10570000CA640222825E30460A6570BD3C000020F9
:105710009000002070B50C00054607D0FFF703FF8E
:10572000002803D02146A56000F01CFA70BD0000DF
:105730000EB50E4854210068095C002901D00C48C0
:1057400011E0806CFEF718FA009003C801900291F6
:105750006846FEF721FA0748816A002902D001A8AD
:1057600000F01CF801A801F065FC0EBD3C00002013
:105770008C1600209000002002490A680260086030
:1057800070470000A400002010B50B460222002143
:10579000825E415E1846FEF76CFD10BD38B50C46C2
:1057A00005462046FEF7E8F901460090008D800787
:1057B00003D46846FEF7F0F913E02846FEF7A0FF91
:1057C00000988069002804D004466846FEF7E4F992
:1057D000E7E76846FEF7E0F9204600F075FB002891
:1057E00001DA002038BD012038BD38B50C4600284C
:1057F0000AD0002C08D0FEF7BFF92146009000F037
:1058000004F86846FEF7C8F938BD00224A800A80CD
:1058100082880388D21A8A80C2884088101AC88079
:10582000704710B5FFF77FFE002802D0FEF7CCF9D5
:10583000C06910BD10B50D4800684030007D0028DB
:1058400006D00B4C6069012803DD401E606100201A
:1058500010BD2069401C206100F0CCFF002803D05F
:10586000FFF766FF012010BD6069EEE73C000020F5
:105870008416002070B50546FFF7D3FF08E0AC4260
:1058800001D1002406E0FEF79FF9006AA84201D08A
:105890000400F4D1204670BD10B50446FEF794F91B
:1058A00080690028F9D1204600F00EFB10BD0000F1
:1058B000F0B53B4E074630685421095C87B000299B
:1058C00008D0384C6169491C6161012905DD01205E
:1058D00007B0F0BDFFF72CFFF9E7806CFEF74CF93D
:1058E0000021C9430090304D21612978002906D05C
:1058F000014602A808220831FDF7ACFC05E0018D45
:1059000089073ED503C803910290002F03D0394682
:1059100002A8FEF7F5FE3068406C002838D00098E9
:10592000049030680822416C05A8FDF793FCA86A32
:10593000002806D004A8FEF72FF9A86AFEF71CF984
:10594000049005A90498FFF71FFF05A902A8FEF718
:10595000D7FE04A8FEF720F9A96A002904D002A8FE
:10596000FFF71CFF002815D03068816C02A8FFF7F4
:1059700015FF00280ED00298039903C4FFF75AFFC1
:10598000A6E76069401E60616846FEF705F904E01D
:105990006846DFE76069401E6061002098E700000C
:1059A0003C0000208416002090000020FEB50D0071
:1059B000044647D0FEF7E0F80090002185610162BF
:1059C0002846FEF7D9F802900099C5698E6A082129
:1059D0000E40002D06D02846FEF7CEF80190002E8E
:1059E00006D014E0C4616846FEF7D6F802A827E0A6
:1059F000008D00070BD5009805620298C4616846C7
:105A0000FEF7CAF802A8FEF7C7F801A818E002A836
:105A1000FEF7C2F801A8FEF7BFF82846FEF7D4F853
:105A200011E004620BE02846FEF7CEF8002E0AD102
:105A3000018D090707D50198046200980562684640
:105A4000FEF7AAF8FEBD0190056A002DEBD1E8E74C
:105A500010B5202201F0B4F910BD000038B50400E3
:105A600022D0FEF789F80090018D890719D5406A88
:105A7000002808D00D49C96AA14204D0FEF76CFB8A
:105A80000099002048622046FFF746FD044606E0E4
:105A90002046FFF7E3FF2046FEF796F8046A002C45
:105AA000F6D16846FEF778F838BD00009000002077
:105AB000FFB585B016460D00074631D00846FEF703
:105AC0005BF80090846A0246A00726D5394602A8F2
:105AD000FEF733FE002820D012480440012C07D0E6
