:020000040800F2
:1000000018040020C900000841020008430200084B
:1000100000000000000000000000000000000000E0
:10002000000000000000000000000000470200087F
:100030000000000000000000490200084B02000818
:10004000F900000800000000F9000008F9000008AD
:10005000F9000008F9000008F9000008F90000089C
:1000600000000000F9000008F9000008F90000088D
:10007000F9000008F9000008F9000008000000007D
:10008000F90000080000000000000000F90000086E
:10009000F9000008F9000008F9000008F90000085C
:1000A000F9000008F9000008F9000008F90000084C
:1000B000F90000080348854600F0DEF800480047D4
:1000C0003D020008180400200C4880F308880C4802
:1000D0000168090E0B4A914205D10B480B4901609A
:1000E0000B480C4901600C4880470C480047FEE76C
:1000F000FEE7FEE7FEE7FEE7FEE70000180400204B
:10010000040000001F000000181002400100000061
:10011000000001400000000021010008B5000008B7
:1001200041480068012108433F490860084640688B
:100130004860084640680521C90408433A494860B8
:1001400008464068486008460068012109060843DF
:100150003549086000BF344800680121490608405D
:100160000028F8D030484068800880002E49486058
:1001700008464068022108432B49486000BF2A48CE
:1001800040680C2108400828F9D17047F8B50025CF
:10019000002400260027244840680C21084005461A
:1001A000002D04D0042D06D0082D2AD107E01F48C9
:1001B0001F49086029E01D481D49086025E01A48CC
:1001C00040680F218904084004461748406803210D
:1001D000C90308400646A00C841C002E04D1154813
:1001E0006043134908600BE00F48C06A0007000F26
:1001F000471C39460D4800F029F860430C49086057
:1002000003E00A480A49086000BF00BF064840688A
:10021000F0210840000908490D5C05480068E840E5
:1002200003490860F8BD00000010024000127A0087
:100230000000002000093D0004000020002070475D
:10024000704700BFFEE770477047704730B50B46F8
:10025000014600202022012409E00D46D5409D42A0
:1002600005D31D469540491B254695404019154626
:10027000521E002DF1DC30BD064C0125064E05E076
:10028000E36807CC2B430C3C98471034B442F7D3B7
:10029000FFF714FFBC020008DC02000802E008C8F7
:1002A000121F08C1002AFAD170477047002001E0F0
:1002B00001C1121F002AFBD170470000DC020008B8
:1002C00000000020140000009C020008F00200085A
:1002D0001400002004040000AC020008006CDC02E2
:1002E00000000000000000000102030406070809E6
:04000005080000B53A
:00000001FF
