:020000040800F2
:1000000028040020C9000008011F0008031F000881
:1000100000000000000000000000000000000000E0
:10002000000000000000000000000000071F0008A2
:100030000000000000000000091F00080B1F00085E
:10004000F900000800000000F9000008F9000008AD
:10005000F9000008F9000008F9000008F90000089C
:1000600000000000F9000008F9000008F90000088D
:10007000F9000008F9000008F9000008000000007D
:10008000F90000080000000000000000F90000086E
:10009000F9000008F9000008F9000008F90000085C
:1000A000F9000008F9000008F90000080D1F000819
:1000B000F90000080348854602F0E6FA00480047C8
:1000C000711E0008280400200C4880F308880C48A2
:1000D0000168090E0B4A914205D10B480B4901609A
:1000E0000B480C4901600C4880470C480047FEE76C
:1000F000FEE7FEE7FEE7FEE7FEE70000280400203B
:10010000040000001F000000181002400100000061
:100110000000014000000000451D0008B500000877
:1001200010B504460920C006844209D101214804C3
:1001300000F0A1FC00210120400400F09CFC3CE008
:100140007448844208D10121000200F094FC00218F
:10015000200200F090FC30E06F48844208D1012179
:10016000000200F088FC0021200200F084FC24E062
:100170006A48844209D10121080500F07CFC002175
:100180000120000500F077FC17E06548844208D1A3
:100190000121400200F06FFC0021600200F06BFCC6
:1001A0000BE06048844208D10121880500F063FC1F
:1001B00000210120800500F05EFC10BDF0B50A466C
:1001C00000210023002400BF3DE001258D402B4687
:1001D00015681D402C469C4234D11579012D02D062
:1001E0001579022D16D185684F000326BE40B54310
:1001F000856055794E00B5408668354385608588B1
:1002000001268E40B5438580858896798E40B6B2AA
:100210003543858005684F000326BE40B543056021
:1002200015794E00B540066835430560C5684F0036
:100230000326BE40B543C560D5794E00B540C668BB
:100240003543C560491C1029BFD3F0BD3649016054
:10025000002101710121417100218171C17170473B
:1002600008B5012212040092009A0A430092009AF3
:10027000C261C161009AC261C2690092C269009202
:1002800008BD02460020138A0B40002B01D001203C
:1002900000E0002070470146088A704702460020AF
:1002A000938A0B40002B01D0012000E00020704712
:1002B0000146888A70478161704701857047002A2E
:1002C00001D0816100E00185704781827047F0B5FF
:1002D000002300244D07EE0E1546B5402B46CD10E9
:1002E000AE0005462035AD594E07F70E0F26BE402D
:1002F000B543CE10B60007462037BD51CD10AE0035
:100300003D46AD591D432C46CD10AD003E467451BF
:10031000F0BD00000004004800080048000C004840
:100320000010004800140048FFFF00000021827800
:10033000002A27D0274A03231B02D21803789B10D8
:100340009B00D15802789207D30EFF229A400B46A9
:100350009343194642789207120E03789B07DB0EEF
:100360009A4011431B4A03231B02D21803789B10A7
:100370009B00D1500278D306DB0E01229A40154B28
:100380001A6007E00278D306DB0E01229A40114B77
:1003900080331A607047002905D00F4A1269024362
:1003A0000D4B1A6104E00C4A126982430A4B1A6130
:1003B0007047042806D10949096904221143074AF4
:1003C000116105E00549096904229143034A11615D
:1003D0007047000000E100E000ED00E000E000E018
:1003E000F848006801210843F6490860084640685B
:1003F000F5490840F349486008460068F349084059
:10040000F049086008460068012189048843ED49E5
:100410000860084640683F2109048843E94948606C
:100420000846C06A00090001C8620846006BE84936
:100430000840E44908630846406B400840004863B0
:100440000020886070470021DE4A91701146887054
:10045000704710B5024600210023002051110029E9
:1004600002D1D84C23680BE0012902D1D54C236A74
:1004700006E0022902D1D34C636A01E0D14C636BE0
:10048000D106C90E01248C401C40002C01D0012053
:1004900000E0002010BD38B50020009000240025A9
:1004A00000BF1120FFF7D5FF05460098401C0090C3
:1004B000052109030098884201D0002DF1D01120B8
:1004C000FFF7C7FF002801D0012400E000242046E8
:1004D00038BD01460020BB4A1068F82302469A4303
:1004E0001046CA001043B74A10607047002806D073
:1004F000B449096801221143B24A116005E0B149CB
:10050000096849084900AF4A116070470146002058
:10051000AC4A506BF82302469A431046CA00104377
:10052000A84A50637047002806D0A649496B0122AB
:100530001143A44A516305E0A249496B49084900A7
:10054000A04A51637047002806D09E49496B042297
:1005500091439C4A516305E09A49496B0422114337
:10056000984A516370479749096A49084900954A72
:1005700011621146096A04229143924A116211469E
:10058000096A0143116270478E49096A1822914332
:100590008C4A11621146096A0143116270470028B2
:1005A00006D08849496A01221143864A516205E012
:1005B0008449496A49084900824A51627047814A20
:1005C00052687B23DB039A437E4B5A601A4652687B
:1005D00003460B431A437B4B5A607047002807D0F1
:1005E00078490968012212061143764A116006E033
:1005F00074490968012212069143724A11607047DA
:10060000002807D06F49496B0122120411436D4A3B
:10061000516306E06B49496B012212049143694A18
:100620005163704701460020664AD06A0009000104
:1006300002460A431046634AD0627047002807D03A
:10064000604909680122D20411435E4A116006E044
:100650005C4909680122D20491435A4A11607047EB
:1006600002460020574B58680002000A13060B434D
:100670001843544B5860704701460020514A506857
:100680008008800002460A4310464E4A5060704778
:100690004C4840680C210840704701460020494AF8
:1006A0005068F02302469A43104602460A43104619
:1006B000444A5060704701460020424A5068072370
:1006C0001B0202469A43104602460A4310463D4A20
:1006D000506070473B494968012292039143394A6F
:1006E00051601146496882B21143364A5160114641
:1006F000096B92159143334A11631146096B020C41
:100700001143304A116370472E49096B40229143CF
:100710002C4A11631146096B014311637047294943
:10072000096B10229143274A11631146096B01435B
:10073000116370470021010F012906D1214A126B74
:10074000920892001F4B1A6310E0022907D11D4A3C
:10075000126B03231B049A431A4B1A6306E0194ACF
:10076000126B03239B049A43164B1A63154A126BB0
:100770000243144B1A6370471249096B802291435C
:10078000104A11631146096B014311637047FEB5AE
:1007900004460025002600200290019000900027CA
:1007A000084840680C2108400546002D06D0042D5D
:1007B00012D0082D13D00C2D37D133E0054820601E
:1007C00036E00000001002400CB8FF08FFFFF6FE04
:1007D000ACFEF0FF00127A00CE48206028E0CE4840
:1007E00040680F21890408400646CB484068032131
:1007F000C90308400290B00C861C0298002803D15F
:10080000C648374647430BE0C348C06A0007000F9D
:10081000401C0190BF48019901F020FF704307463A
:10082000276005E0BE48206002E0BA48206000BFB3
:1008300000BFB9484068F021084005462D09B94875
:10084000405D009020680099C8406060B2484068F0
:1008500007210902084005462D0AB248405D009074
:1008600061680098C140A160AB48006BFF21013175
:100870000840884202D0AC48E0600DE0A6484068DD
:10088000012189030840884203D0A0684008E06045
:1008900002E0A0688008E0609F48006B40210840AB
:1008A000402802D0A148206102E00120C00320615D
:1008B0009948006B10210840102802D095486061CB
:1008C00001E0206860619448006B8007800F002879
:1008D00002D1A068A06119E08F48006B8007800FEB
:1008E000012802D12068A06110E08B48006B8007CE
:1008F000800F022802D18003A06107E08648006BC8
:100900008007800F032801D18248A0618248006BD4
:10091000032109040840002802D1A068E06120E01A
:100920007D48006B03210904084001210904884225
:1009300002D12068E06114E07748006B03210904CC
:10094000084001214904884202D18010E06108E09A
:100950007148006B032109040840884201D16D48A9
:10096000E0616D48006B032189040840002802D132
:10097000A068206220E06848006B032189040840D9
:1009800001218904884202D12068206214E0624873
:10099000006B0321890408400121C904884202D167
:1009A0000011206208E05C48006B032189040840C4
:1009B000884201D1574820625748006B8021084087
:1009C000802802D05648606200E06762FEBD52494E
:1009D000096A0143504A11627047002807D04E4906
:1009E000096A0122D20311434B4A116206E04A49C7
:1009F000096A0122D2039143474A116270470028D5
:100A000007D04549096A012212041143424A116282
:100A100006E04149096A0122120491433E4A1162EB
:100A20007047002905D03C4A526902433A4B5A614B
:100A300004E0394A52698243374B5A6170470029B2
:100A400005D0354A92690243334B9A6104E0324A39
:100A500092698243304B9A617047002905D02E4A33
:100A6000D26902432C4BDA6104E02B4AD2698243FB
:100A7000294BDA617047002905D0274A926A024360
:100A8000254B9A6204E0244A926A8243224B9A627E
:100A90007047002905D0204AD26802431E4BDA6015
:100AA00004E01D4AD26882431B4BDA60704700297C
:100AB00005D0194A12690243174B1A6104E0164A1D
:100AC00012698243144B1A617047002905D0124AFB
:100AD000527A0243104B5A7204E00F4A527A824310
:100AE0000D4B5A7270470C48406A012109060843B1
:100AF00009494862704701460020074A92680A4047
:100B0000002A01D0012000E00020704702498872CD
:100B10007047000000127A000010024000093D00FA
:100B2000006CDC0200000020809FD50012800000D5
:100B300010B50446F748844208D10121C014FFF7DC
:100B4000A8FF0021E014FFF7A4FF62E00120800766
:100B5000844208D101210846FFF7A9FF00210120A6
:100B6000FFF7A5FF55E0EC48844208D1012102209F
:100B7000FFF79DFF00210220FFF799FF49E0E748BA
:100B8000844208D101211020FFF791FF002110209D
:100B9000FFF78DFF3DE0E248844208D1012120208B
:100BA000FFF785FF00212020FFF781FF31E0DD48BE
:100BB000844208D101218015FFF779FF0021A0159B
:100BC000FFF775FF25E0D848844209D101210804C8
:100BD000FFF75FFF002101200004FFF75AFF18E034
:100BE000D248844209D101214804FFF752FF002175
:100BF00001204004FFF74DFF0BE0CD48844208D1AF
:100C000001218804FFF745FF002101208004FFF740
:100C100040FF10BD00220288BE4B984206D001233F
:100C20009B07984202D0BC4B984203D1C14B1A405B
:100C30004B881A43B94B984203D0BF4B1A400B89DB
:100C40001A4302804B68C3620B880385B14B9842FC
:100C500008D0B54B984205D0B44B984202D0B44B63
:100C6000984201D18B7A0386012383827047002149
:100C7000C943416000210180018141808172704738
:100C80000185828270470A4600210188A94B1940DC
:100C90000B46134319460180704741627047C16299
:100CA00070470146486A70470146088D7047002921
:100CB00004D0028802231A43028004E002889D4B7C
:100CC0006E331A4002807047002904D00288042342
:100CD0001A43028004E00288964B6C331A4002806B
:100CE0007047002904D0028880231A43028004E060
:100CF0000288904B103B1A400280704702888D4B4F
:100D000068331A40028002880A43028070470288D2
:100D1000894B1A40028002880A43028070470029EA
:100D200004D0028801231A43028004E00288814B28
:100D30006F331A40028070470A884B881A438B88A9
:100D40001A43CB881A430B891A434B891A438B8960
:100D50001A4344231A527047002101804180818048
:100D6000C1800181418181817047002907D04422DF
:100D7000125A0123DB031A4344231A5205E044228A
:100D8000125A53045B0C44221352704770B500246E
:100D900000220023058C674E6F3635400584028C97
:100DA0008388048B634D2C40B51E2C400D882C434A
:100DB000751E2A408D892A434D882A43554DA842E5
:100DC00008D0594DA84205D0584DA84202D0584DE0
:100DD000A84212D1574D68352A40CD892A43554D36
:100DE0006C352A408D882A43524D903D2B40534DFF
:100DF0002B400D8A2B434D8A2B43838004838D68BF
:100E00004563028470BD70B5002400220023058C68
:100E1000484E603635400584028C8388048B484DEB
:100E20002C40454D2C400D782D062D0C2C43414D6A
:100E300050352A408D892D052D0C2A434D882D05CE
:100E40002D0C2A43334DA84202D0374DA8421CD165
:100E50003C4D2B400D8AAD042D0C2B432D4DA8424B
:100E600013D1344D103D2A40CD892D052D0C2A4338
:100E7000304D30352A408D882D052D0C2A43324DBA
:100E80002B404D8AAD042D0C2B43838004838D6849
:100E90008563028470BD70B5002400220023058C98
:100EA000244E903E35400584028C8388848B214DEE
:100EB0002C40204D6D352C400D882C431F4D2A4071
:100EC0000D7B2D062D0C2A438D782D062D0C2A43E3
:100ED000104DA84217D11C4D2A408D7B2D062D0C9C
:100EE0002A43184D2A400D792D062D0C2A43174D03
:100EF0002B40174D2B400D8A2D052D0C2B434D8A71
:100F00002D052D0C2B43838084838D68C56302845B
:100F100070BD0000002C01400004004000100040A3
:100F20000014004000200040004001400044014007
:100F3000004801408FFF0000FFFC0000FFFD0000A3
:100F4000FF8F0000FFFB0000FFF70000FFEF000035
:100F5000FFDF000070B5002200230024058CF94E4D
:100F600035400584038C8488828BF74D2A40F74DE9
:100F70002A400D782D062D0C2A43F54D2B400D7B74
:100F80002D072D0C2B438D782D072D0C2B43F14D68
:100F9000A84205D1F04D2C400D8AAD052D0C2C43F7
:100FA000848082838D680564038470BD0021018084
:100FB0004180818081608181C1810182418270474D
:100FC00070B50346002000241846183001258D40D6
:100FD000ACB21D8CA5431D84002901D0082909D17C
:100FE0004D10281805687026B5430560056815433F
:100FF00005600DE00D1F2D046D0C281805680726EF
:101000003603B543056005681606360C35430560A2
:1010100070BD4163704781637047C163704701646D
:1010200070470A460021018BCC4B19400B461343F5
:101030001946018370470A460021018BC24B1940B3
:1010400013061B0C1943018370470A460021818B4C
:10105000C24B19400B4613431946818370470A4619
:101060000021818BB84B194013061B0C1943818357
:101070007047002904D0828801231A43828004E04B
:101080008288B64B6F331A40828070470A4600212F
:10109000018BB24B683319400B4613431946018349
:1010A00070470A460021018BAD4B194013061B0CFB
:1010B0001943018370470A460021818BA74B68338F
:1010C00019400B4613431946818370470A46002195
:1010D000818BA34B194013061B0C19438183704766
:1010E0000A460021018B9D4B6C3319400B4613437C
:1010F0001946018370470A460021018B994B19401C
:1011000013061B0C1943018370470A460021818B8B
:10111000924B6C3319400B46134319468183704739
:101120000A460021818B8F4B194013061B0C194373
:10113000818370470A460021018B884B103B194080
:101140000B4613431946018370470A460021018B61
:101150004904490C13061B0C1943018370470A46C6
:101160000021818B7D4B103B19400B4613431946E0
:10117000818370470A460021818B4904490C13067C
:101180001B0C1943818370470A460021018C734B65
:101190006E3319400B4613431946018470470A46C3
:1011A0000021018C6D4B683319400B4613431946DF
:1011B000018470470A460021018C684B5033194066
:1011C00013051B0C1943018470470A460021018C4A
:1011D000624B103B194013051B0C194301847047E7
:1011E0000A460021018C604B194013061B0C194361
:1011F000018470470A460021018C594B194013069F
:101200001B0C1943018470470A460021018C504B86
:10121000194013071B0C19430184704702894F4B77
:1012200068331A40028102890A430281704730B54F
:10123000002301248C40A3B2048C9C430484048CBE
:1012400015468D40ADB22C43048430BD30B500232B
:1012500004248C40A3B2048C9C430484048C154663
:101260008D40ADB22C43048430BD002904D0828867
:1012700004231A43828004E08288384B6C331A407E
:1012800082807047828B394B1A408283828B0B0697
:101290001B0C1A4382837047F8B50C4600210025C9
:1012A00000260096068C274F3E400684818B058CD5
:1012B0002607360C00962E4E31401606360C31436A
:1012C0001E07360C31432B4E354001273F03009E4D
:1012D0003E43354381830584F8BD828B1F4B6433C5
:1012E0001A408283828B0A4382837047F8B50C468A
:1012F0000021002500260096068C184F903F3E40A6
:101300000684818B058C2606360C0096134E833E90
:1013100031401E05360C16433143174E3540FF272A
:101320000137009E3E43354381830584F8BD028B1F
:101330000E4B1A400283028B0B061B0C1A430283CE
:1013400070470000FFEF0000FF8F0000FFFC00006F
:10135000FFDF0000002C0140FFBF00008FFF0000F6
:10136000FFF70000FFFB0000FFFD0000FFF300009F
:10137000FF0C0000FF5F0000FFF50000F8B50C4611
:101380000021002500260096068CE64F3E4006848C
:10139000018B058C2605360C0096E34E31401E0766
:1013A000360C31431606360C3143DE4E903E354046
:1013B0001027009E3E43354301830584F8BD028B10
:1013C000D84B1B1D1A400283028B0A4302837047CD
:1013D000F0B50C4600210025068CD24F0F373E4059
:1013E0000684018B058CCF4EE33E31401E05360C42
:1013F00016433143CB4EB61D3540012626433543B7
:1014000001830584F0BD70B505460C462088002890
:101410000AD12389A28861882846FFF7D9FFE1888D
:101420002846FFF7CCFF25E0208804280AD123892D
:10143000A28861882846FFF7A1FFE1882846FFF7C8
:1014400076FF17E0208808280AD12389A2886188BE
:101450002846FFF74BFFE1882846FFF73EFF09E0EB
:101460002389A28861882846FFF716FFE18828466D
:10147000FFF708FF70BD00210180418001218180BC
:101480000021C18001817047F8B505460C46002651
:1014900001276088002801D1022600E00026A088EC
:1014A000012801D1022700E001272088002814D15B
:1014B0002389A28861882846FFF78AFFE1882846A9
:1014C000FFF77DFF23893A4631462846FFF756FF4E
:1014D000E1882846FFF72BFF13E02389A288618863
:1014E0002846FFF74BFFE1882846FFF720FF2389B6
:1014F0003A4631462846FFF76BFFE1882846FFF75A
:101500005EFFF8BD0146486B70470146886B704727
:101510000146C86B70470146086C7047002A03D02B
:1015200083890B43838102E083898B4383817047E6
:101530008182704702460020138A0B40002B01D0A5
:10154000012000E000207047CA430282704730B596
:101550000246002000230024158A0D402B46958961
:101560000D402C46002B03D0002C01D0012000E0C0
:10157000002030BDCA430282704710B50B461343AA
:101580004824235210BD002A03D083890B43838152
:1015900002E083898B4383817047002904D08288CD
:1015A00008231A43828004E082885E4B08331A4085
:1015B0008280704701895B4A09321140018170477E
:1015C0000A4600210189574B603B19400B461343E3
:1015D00019460181704730B504460D46294620461C
:1015E000FFF7EEFF208907210843208130BDF8B5C1
:1015F00004460D4616461F46602D06D13B46012285
:1016000031462046FFF7BAFE05E03B46012231464F
:101610002046FFF7DDFE29462046FFF7D1FF20894F
:10162000072108432081F8BD30B50C46002101890F
:10163000C9B21D062D0C154325432943018130BD38
:10164000FFB505460E46174600243A463146284661
:10165000039BFFF7E9FF2C8932480930044007203B
:101660000443304860380440702004432C81FFBD9F
:10167000F0B504460D4616461F463B4632462946FF
:101680002046FFF7D1FF20890121890308432081EB
:10169000F0BD8288234B603B1A40828082880A43D7
:1016A0008280704702891F4B09331A4002810289E8
:1016B0000A430281704702891A4B703B1A4002812B
:1016C00002890A4302817047F0B50C4600210025CB
:1016D00000260189058B068C124F093739400F46C9
:1016E00027433946114F3D40FF2702373D430D4FF9
:1016F0009A3F3E401F053F0C17433E43018105833F
:101700000684F0BD002904D0828880231A43828099
:1017100004E08288034B703B1A408280704750225D
:1017200011527047EFFF0000FF0C0000FCFC0000AE
:1017300010B50446F848844209D101218803FFF717
:10174000A8F9002101208003FFF7A3F956E0F34830
:10175000844209D101214804FFF7A9F900210120A1
:101760004004FFF7A4F949E0ED48844209D1012182
:101770008804FFF79CF9002101208004FFF797F906
:101780003CE0E848844209D10121C804FFF78FF901
:1017900000210120C004FFF78AF92FE0E2488442CB
:1017A00009D101210805FFF782F900210120000578
:1017B000FFF77DF922E0DD48844208D10121202095
:1017C000FFF767F900212020FFF763F916E0D848FA
:1017D000844208D101214020FFF75BF9002140201D
:1017E000FFF757F90AE0D348844207D1012180204E
:1017F000FFF74FF900218020FFF74BF910BDF0B53E
:101800008BB004460D46002700200A900026206871
:101810004008400020606668032109033046884381
:101820000646A868064366602668C3480640E9681D
:10183000686808432969084306432660A6680321AF
:10184000090230468843064668690643A660684632
:10185000FEF79DFFB048844202D106980A900DE041
:10186000AE48844202D107980A9007E0AC4884420F
:1018700002D108980A9001E002980A90206801219C
:10188000C903084000280CD029680A9A500000F0CB
:10189000E5FE074629680A9A500000F0DFFE0E4672
:1018A00009E029680A9800F0D9FE074629680A98D5
:1018B00000F0D4FE0E4628684008B04200D87F1CD5
:1018C00020680121C9030840002806D03807460FC8
:1018D00038469A49084030430746A7810BB0F0BD0F
:1018E0004B21C9010160002141608160C1600C2170
:1018F000016100214161704710B5002242680F2448
:1019000024021346A3431A464C680B6823438C6891
:101910002343CC6823431A43426010BD0021016079
:1019200041608160C1607047002904D002680123D2
:101930001A43026003E002685208520002607047D6
:10194000002A03D003680B43036002E003688B4363
:1019500003607047002905D002680123DB031A43A6
:10196000026004E002680123DB039A4302607047CF
:10197000002905D082680123DB021A43826004E05B
:1019800082680123DB029A4382607047002905D0F8
:1019900042680123DB041A43426004E042680123E9
:1019A000DB049A4342607047002905D04268012356
:1019B0009B041A43426004E0426801239B049A435B
:1019C00042607047002A03D043680B43436002E043
:1019D00043688B4343607047002905D04268012368
:1019E000DB031A43426004E042680123DB039A43AD
:1019F00042607047002905D042680123DB051A4385
:101A0000426004E042680123DB059A43426070476C
:101A10004269120E1206426142690A4342617047EE
:101A2000028AFF231B021A400282028A0A430282B0
:101A30007047002904D0026802231A43026003E0C1
:101A4000026802239A4302607047826803231B05E1
:101A50009A43826082680A4382607047002905D0F9
:101A6000426801231B051A43426004E042680123D7
:101A70001B059A4342607047426803235B059A4303
:101A8000426042680A4342607047CA05D20D02852F
:101A900070470146888CC005C00D7047426812022D
:101AA000120A426042680B061A43426070470029DE
:101AB00005D0026801235B031A43026004E0026858
:101AC00001235B039A430260704702680123DB0233
:101AD0009A43026002680A4302607047426810231A
:101AE0009A43426042680A4342607047426820233A
:101AF0009A43426042680A4342607047002905D019
:101B0000426801239B031A43426004E042680123B8
:101B10009B039A43426070470038014000440040F4
:101B200000480040004C00400050004000140140BC
:101B300000180140001C0140F3E9FFFFF0FF000026
:101B4000002904D0826808231A43826003E0826877
:101B500008239A4382607047028AD2B20282028AC4
:101B60000B021A4302827047002904D082682023A6
:101B70001A43826003E0826820239A4382607047A0
:101B8000002904D0826810231A43826003E082682F
:101B900010239A4382607047826807235B049A434C
:101BA000826082684B041A43826070474269120265
:101BB000120A426142690B061A4342617047826809
:101BC00004239A43826082680A4382607047002936
:101BD00004D0826802231A43826003E082680223F1
:101BE0009A4382607047002905D0826801239B03D5
:101BF0001A43826004E0826801239B039A43826057
:101C0000704782680123DB039A43826082680A433B
:101C10008260704702681F235B059A430260026876
:101C20004B051A430260704702681F231B049A4346
:101C3000026002680B041A4302607047002A03D056
:101C400083680B43836002E083688B438360704743
:101C5000826801235B039A43826082680A43826040
:101C60007047F8B5034600240026009600250020A2
:101C700018460E04340ECEB200960127009EB740DF
:101C80003D46022C01D1001D02E0032C00D108309A
:101C9000002A03D006682E43066002E00668AE43C1
:101CA0000660F8BD002A03D0038B0B43038302E0D8
:101CB000038B8B4303837047826801231B039A4382
:101CC000826082680A438260704702460020D369BE
:101CD0000B40002B01D0012000E000207047016282
:101CE000704770B502460B460024002100250020F5
:101CF0001E04350ED9B201268E403146012D02D187
:101D00001668314006E0022D02D15668314001E0EC
:101D1000966831401C0C0126A6403446D6693440F2
:101D2000002903D0002C01D0012000E0002070BD6C
:101D300010B5002300220B0C01249C4022460262B5
:101D400010BD000041480068012108433F49086078
:101D5000084640684860084640680521C9040843B1
:101D60003A494860084640684860084600680121D2
:101D7000090608433549086000BF3448006801215E
:101D8000490608400028F8D03048406880088000A4
:101D90002E49486008464068022108432B494860A4
:101DA00000BF2A4840680C2108400828F9D1704734
:101DB000F8B50025002400260027244840680C219F
:101DC00008400546002D04D0042D06D0082D2AD148
:101DD00007E01F481F49086029E01D481D490860A9
:101DE00025E01A4840680F21890408400446174836
:101DF00040680321C90308400646A00C841C002E3D
:101E000004D115486043134908600BE00F48C06ACD
:101E10000007000F471C39460D4800F01FFC6043C7
:101E20000C49086003E00A480A49086000BF00BF87
:101E300006484068F0210840000908490D5C054843
:101E40000068E84003490860F8BD00000010024047
:101E500000127A001000002000093D00140000204C
:101E600010B500F008F900F063F800F09BF910BD20
:101E70004B25AD02FFF7F4FF40E00021084600F0DB
:101E800027FB002404E00021F82000F04BFB641C39
:101E9000AC42F8D30021084600F01AFB002404E00D
:101EA000E021072000F03EFB641CAC42F8D3002187
:101EB000084600F00DFB002404E01F21002000F084
:101EC00031FB641CAC42F8D30021084600F000FB53
:101ED000002404E0FF21084600F024FB641CAC420F
:101EE000F8D30021084600F0F3FA002404E00021B2
:101EF000084600F017FB641CAC42F8D3BDE70000B5
:101F0000704700BFFEE770477047704710B506493D
:101F10000648FFF7E6FE002805D0044920318988ED
:101F2000C8B200F0B0F810BD05010500003801404E
:101F30000EB501210802FEF790FD264926480068EB
:101F400000F08CFB401E81B2684601800021418078
:101F5000092001906846018169462048FEF75AFE33
:101F600001211E48FEF7BDFE0EBD10B5044601213D
:101F70001A48FEF7D4FE0AE000BF01211748FFF718
:101F8000D9FA0028F9D001211448FFF7DDFA2046DC
:101F9000611E8CB20028EFD100211048FEF7BFFE71
:101FA00010BD10B5044602E06420FFF7DEFF2046B6
:101FB000611E8CB20028F7D110BD10B5044603E0B5
:101FC0007D20C000FFF7EDFF2046611E8CB2002887
:101FD000F6D110BD40420F0010000020002000404C
:101FE0001CB501214804FEF71CFD01218803FEF702
:101FF00026FD01220921C806FEF769F901220A21FE
:102000000920C006FEF763F9032040020090022178
:102010006846017103214171002181710121C17163
:1020200069460920C006FEF7C9F81CBD00B587B097
:10203000E12040020190002002900390049006905D
:102040000C20059001A93348FFF7D9FB0122324942
:102050003048FFF706FE01212E48FFF765FC07B068
:1020600000BD08B51B2168460170012141708170D7
:10207000FEF75CF908BD10B5FFF7B2FFFFF7D6FF1A
:10208000FFF7EFFF10BD10B5044600BF80212148C7
:10209000FFF71BFE0028F9D021461E48FFF7F5FC8C
:1020A00000BF40211B48FFF710FE0028F9D010BDEB
:1020B00070B504460D4603E02078FFF7E4FF641C8A
:1020C0002846691E8DB20028F6D170BD10B50446B1
:1020D00003E02078FFF7D7FF641C20780028F8D1B0
:1020E0000A20FFF7D0FF10BD70B504460D46E0B2E0
:1020F000FFF7C9FF204670BD10B5044600BF202180
:102100000448FFF7E2FD0028F9D00248FFF7C1FCC0
:1021100010BD0000003801400501050010B504465F
:102120002021FE48FEF7C9F88021FC48FEF7C3F8DD
:10213000E0430006000A20430921C90688611021F6
:10214000F648FEF7BAF84021F448FEF7B6F8402109
:10215000F248FEF7B0F81021F048FEF7ACF810BDD9
:1021600010B504462021ED48FEF7A5F88021EB4884
:10217000FEF7A1F8E0430006000A20430921C90642
:1021800088611021E548FEF798F84021E348FEF702
:1021900094F84021E148FEF78EF81021DF48FEF761
:1021A0008AF810BD1CB5012103204004FEF739FC5C
:1021B0000120C00300900121684601710321417193
:1021C0000021817169460920C006FDF7F7FF08204C
:1021D00000906946D148FDF7F1FF10200090694654
:1021E000CE48FDF7EBFF202000906946CB48FDF775
:1021F000E5FF402000906946C848FDF7DFFF8020DA
:1022000000906946C548FDF7D9FF01214804FEF753
:1022100008FC0920C0060068000C00040921C9065A
:10222000086008460068BE4908430921C9060860DD
:1022300008468088FF21090208400921C9068880D4
:102240000846808AFF21090208400921C9068882C0
:102250000821B248FEF731F80A20FFF7A2FE082154
:10226000AE48FEF728F86420FFF79BFEB220FFF788
:1022700055FF0520FFF774FF0520FFF771FF0020D1
:10228000FFF76EFF3320FFF76BFF3320FFF768FF88
:10229000B720FFF743FF3220FFF762FFC220FFF7AE
:1022A0003DFF0120FFF75CFFC320FFF737FF0B2046
:1022B000FFF756FFBB20FFF731FF2020FFF750FF4D
:1022C000C520FFF72BFF2020FFF74AFFD020FFF7A4
:1022D00025FFA420FFF744FFA120FFF741FFD220F4
:1022E000FFF71CFF4C20FFF73BFFE820FFF716FF2E
:1022F0000320FFF735FFE920FFF710FF0D20FFF760
:102300002FFF1220FFF72CFF0020FFF729FF3620B8
:10231000FFF704FF0020FFF723FF3520FFF7FEFE45
:102320000020FFF71DFF3A20FFF7F8FE0520FFF71A
:1023300017FFC620FFF7F2FE1120FFF711FFE02084
:10234000FFF7ECFED020FFF70BFF0620FFF708FF9A
:102350000B20FFF705FF0A20FFF702FF0920FFF718
:10236000FFFE0520FFF7FCFE2E20FFF7F9FE4320BD
:10237000FFF7F6FE4420FFF7F3FE0920FFF7F0FE1B
:102380001620FFF7EDFE1520FFF7EAFE2320FFF7EA
:10239000E7FE2720FFF7E4FEE120FFF7BFFED02095
:1023A000FFF7DEFE0620FFF7DBFE0B20FFF7D8FE6F
:1023B0000920FFF7D5FE0820FFF7D2FE0620FFF721
:1023C000CFFE2E20FFF7CCFE4420FFF7C9FE4420AD
:1023D000FFF7C6FE3A20FFF7C3FE1520FFF7C0FE49
:1023E0001520FFF7BDFE2320FFF7BAFE2620FFF7DA
:1023F000B7FE2120FFF792FE1120FFF78FFE782015
:10240000FFF7CFFD2920FFF789FE3220FFF7C9FD36
:102410000121C9030920C006FDF74DFF1CBD10B501
:102420000920C0060068000C00040921C9060860E4
:102430000846C068000C0004C8600846C0683849F7
:1024400008430921C906C8600846808AFF2109029D
:1024500008400921C906888220213048FDF72BFF5A
:1024600040212E48FDF727FF10212C48FDF725FFBE
:1024700080212A48FDF721FF0920C006008AC4B246
:1024800080212648FDF717FF10212448FDF713FF90
:102490000920C0060068000C00040921C906086074
:1024A000084600681E4908430921C9060860084615
:1024B0008088FF21090208400921C9068880084652
:1024C000808AFF2108430921C9068882204610BD61
:1024D00070B504460D462A20FFF720FE2012FFF7B4
:1024E0003FFEE0B2FFF73CFE0020FFF739FEF02090
:1024F000FFF736FE2B20FFF711FE2812FFF730FE04
:10250000E8B2FFF72DFE0120FFF72AFE4020FFF77B
:1025100027FE2C20FFF702FE70BD000000040048DB
:102520005555000070B504460D4620214A48FDF778
:10253000C2FE80214848FDF7BEFEE0430006000AC7
:1025400020430921C906886110214348FDF7B5FEE3
:1025500040214148FDF7B1FE40213F48FDF7ABFE69
:10256000E8430006000A28430921C9068861402182
:102570003948FDF7A2FE40213748FDF79CFE1021A7
:102580003548FDF798FE70BD70B505460E461446F9
:102590002A20FFF7C3FD2812FFF7E2FDE8B2FFF79C
:1025A000DFFD2B20FFF7BAFD3012FFF7D9FDF0B2A7
:1025B000FFF7D6FD2C20FFF7B1FD20212648FDF7BF
:1025C0007AFE80212448FDF776FE2012C0430006E3
:1025D000000A211208430921C906886110211E48FA
:1025E000FDF76BFE40211C48FDF767FE40211A48AD
:1025F000FDF761FEE0430006000AE1B2084309214D
:10260000C906886140211448FDF757FE4021124851
:10261000FDF751FE10211048FDF74DFE70BDF3B5DA
:1026200081B0044620460299FFF752FF3E20FFF793
:1026300075FDFFF7F4FEFFF7F2FE0546FFF7EFFE2C
:102640000646FFF7ECFE0746E810C002B11049014C
:102650000843F9100843FEBD0004004830B50B469E
:10266000014600202022012409E00D46D5409D426C
:1026700005D31D469540491B2546954040191546F2
:10268000521E002DF1DC30BD064C0125064E05E042
:10269000E36807CC2B430C3C98471034B442F7D383
:1026A000FDF70CFDCC260008EC26000802E008C867
:1026B000121F08C1002AFAD170477047002001E0BC
:1026C00001C1121F002AFBD170470000EC26000850
:1026D0000000002024000000AC260008102700089D
:1026E0002400002004040000BC26000800000000B4
:1026F000010203040102030406070809006CDC025E
:1027000000000000000000000102030406070809A1
:04000005080000B53A
:00000001FF
