:020000040800F2
:100000003004002045010008E1140008E314000852
:10001000E7140008EB140008EF14000800000000CB
:10002000000000000000000000000000F3140008C1
:10003000F514000800000000F7140008F914000887
:100040005F0100085F0100085F0100085F01000810
:100050005F0100085F0100085F0100085F01000800
:100060005F0100085F0100085F0100085F010008F0
:100070005F0100085F0100085F0100085F010008E0
:100080005F0100085F0100085F0100085F010008D0
:100090005F0100085F0100085F0100085F010008C0
:1000A0005F0100085F0100085F0100085F010008B0
:1000B0005F0100085F0100085F0100085F010008A0
:1000C0005F0100085F0100085F0100085F01000890
:1000D0005F0100085F0100085F0100085F01000880
:1000E0005F0100085F0100085F0100085F01000870
:1000F0005F0100085F0100085F0100085F01000860
:100100005F0100085F0100085F0100085F0100084F
:100110005F0100085F0100085F0100085F0100083F
:100120005F0100085F0100085F0100085F0100082F
:10013000DFF80CD001F0B4FD004800478D14000832
:10014000300400200648804706480047FEE7FEE7E7
:10015000FEE7FEE7FEE7FEE7FEE7FEE7FEE7FEE777
:1001600047020008310100080CB500200190009002
:100170006C48006840F480306A49086000BF6948F4
:10018000006800F4003000900198401C0190009835
:1001900018B90198B0F5A06FF1D16248006800F479
:1001A000003010B10120009001E000200090009884
:1001B000012843D15C48006840F010005A490860AB
:1001C0000846006820F0030008600846006840F018
:1001D0000200086053484068524948600846406839
:1001E00048600846406840F48060486008464068BF
:1001F00020F47C1048600846406840F4E8104860ED
:100200000846006840F08070086000BF45480068FC
:1002100000F000700028F9D04248406820F0030048
:10022000404948600846406840F00200486000BF0E
:100230003C48406800F00C000828F9D10CBD10B50E
:10024000FFF792FF10BD10B53648006840F001007E
:1002500034490860084640683449084031494860DC
:1002600008460068324908402E4908600846006880
:1002700020F4802008600846406820F4FE004860B2
:100280004FF41F008860FFF7DAFF4FF00060294944
:10029000086010BD10B5002100200022214B5B68D2
:1002A00003F00C0121B1042906D0082928D107E068
:1002B000214B224C236027E01F4B204C236023E07E
:1002C000184B5B6803F47010164B5B6803F48032C4
:1002D000022303EB904022B9194B4343174C236090
:1002E0000DE0104B5B6803F4003323B1144B434320
:1002F000124C236003E0104B4343104C236003E097
:100300000D4B0E4C236000BF00BF064B5B68C3F370
:1003100003130C4CE15C094B1B68CB40074C23607A
:1003200010BD000000100240002002400000FFF855
:10033000FFFFF6FE08ED00E000127A00000000204A
:1003400000093D000400002031490143314A116099
:10035000704770B5002100230F22C47804B32D4CE0
:10036000246804F4E064C4F5E064210AC1F10403E4
:10037000CA40447804FA03F1847814402143090107
:10038000254C0678A155047804F01F050124AC40E3
:1003900005786D11AD0005F1E025C5F8004109E0D3
:1003A000047804F01F050124AC401C4D067876113A
:1003B00045F8264070BD1A4A0A400243154B1B1FE0
:1003C0001A60704739B1134A121D12680243114B6B
:1003D0001B1D1A6006E00F4A121D126882430D4B66
:1003E0001B1D1A607047042808D14FF0E0210969ED
:1003F00041F004014FF0E022116107E04FF0E021ED
:10040000096921F004014FF0E022116170470000FA
:100410000000FA050CED00E000E400E080E100E0FF
:1004200080FFFF1F01684FF6FE721140016000213E
:10043000016041608160C1608D49884208D18C496A
:100440000839496841F00F01894A083A51608AE049
:1004500087491431884208D185490839496841F0F3
:10046000F001834A083A51607DE081492831884291
:1004700008D17F490839496841F470617C4A083ADB
:10048000516070E07A493C31884208D17849083996
:10049000496841F47041764A083A516063E0744912
:1004A0005031884208D172490839496841F47021B5
:1004B0006F4A083A516056E06D496431884208D16C
:1004C0006B490839496841F47001694A083A51603A
:1004D00049E067497831884208D165490839496857
:1004E00041F07061624A083A51603CE061498842DB
:1004F00006D1011F096841F00F01021F116032E0AF
:100500005C491431884208D15A49091F096841F0F1
:10051000F001584A121F116025E0564928318842DF
:1005200008D15449091F096841F47061514A121FEA
:10053000116018E04F493C31884208D14D49091FEC
:10054000096841F470414B4A121F11600BE04949A0
:100550005031884207D14749091F096841F4702189
:10056000444A121F1160704710B50022026847F616
:10057000F0739A430C6A8B6823430C6923434C69DC
:1005800023438C692343CC6923434C6A23438C6AFD
:1005900023431A430260CB6843600B6883604B6857
:1005A000C36010BD0021016041608160C1600161D4
:1005B00041618161C161016241628162704721B123
:1005C000026842F00102026004E002684FF6FE7326
:1005D0001A40026070471AB103680B43036002E0DF
:1005E00003688B4303607047416070470146486869
:1005F00080B2704701460020002201F080531BB1F9
:100600001C4B083B1A6802E0194B083B1A6802EAC7
:1006100001030BB1012000E00020704700F0805181
:1006200019B11449091F086002E0114908394860EE
:10063000704701460020002201F080531BB10D4B92
:10064000083B1A6802E00A4B083B1A6802EA0103F9
:100650000BB1012000E00020704700F0805119B17B
:100660000449091F086002E00149083948607047E1
:10067000080002400804024010B50446CC488442F9
:1006800008D10121042000F02DFB0021042000F0FE
:1006900029FB46E0C748844208D10121082000F028
:1006A00021FB0021082000F01DFB3AE0C2488442F3
:1006B00008D10121102000F015FB0021102000F0CE
:1006C00011FB2EE0BD48844208D10121202000F01A
:1006D00009FB0021202000F005FB22E0B8488442FD
:1006E00008D10121402000F0FDFA0021402000F057
:1006F000F9FA16E0B348844208D10121802000F0C5
:10070000F1FA0021802000F0EDFA0AE0AE488442C0
:1007100007D10121801500F0E5FA0021A01500F0B5
:10072000E1FA10BD10B50121084600F0DBFA002106
:10073000012000F0D7FA10BD2DE9F0410246002556
:100740000026002000230024002791F803C00CF0AD
:100750000F0591F803C00CF0100CBCF1000F03D092
:1007600091F802C04CEA050591F800C0BCF1000FF9
:1007700031D0146800202BE04FF0010C0CFA00F38C
:10078000B1F800C00CEA03069E4220D183004FF06E
:100790000F0C0CFA03F7BC4305FA03FC4CEA040403
:1007A00091F803C0BCF1280F06D14FF0010C0CFAF0
:1007B00000FCC2F814C00AE091F803C0BCF1480F75
:1007C00005D14FF0010C0CFA00FCC2F810C0401C1F
:1007D0000828D1D31460B1F800C0BCF1FF0F34DD9C
:1007E000546800202EE000F1080C4FF0010808FAD0
:1007F0000CF3B1F800C00CEA03069E4221D183003D
:100800004FF00F0C0CFA03F7BC4305FA03FC4CEA5B
:10081000040491F803C0BCF1280F05D100F1080CC5
:1008200008FA0CF8C2F8148091F803C0BCF1480F24
:1008300007D100F1080C4FF0010808FA0CF8C2F8D3
:100840001080401C0828CED35460BDE8F0814FF6DC
:10085000FF710180022181700421C170704702463E
:10086000002093680B400BB1012000E0002070478E
:100870000146886880B2704702460020D3680B406A
:100880000BB1012000E0002070470146C86880B22B
:10089000704701617047416170470AB1016100E032
:1008A00041617047C16070474FF480320A438261F2
:1008B0008161826182698269704702460020434BF0
:1008C00018684FF68073184040EA021008433F4B07
:1008D000186070473E49C8617047F0B50A4600236A
:1008E00000240021002500F00046B6F1004F02D19F
:1008F000364EF16901E0354E7168C0F3034583B2AD
:1009000000F44016B6F5401F08D121F070612F4E5B
:10091000766826F070662D4F7E6012E000F4801637
:10092000B6F5801F06D1032606FA05F4A14341F06F
:10093000706106E0460D360103FA06F6B14341F058
:10094000706122B1460D360103FA06F6314300F01C
:100950000046B6F1004F02D11C4EF16101E01B4E82
:100960007160F0BD30B500228B071C0F0F2303FA16
:1009700004F2164B08338C1053F824309343134C75
:1009800008348D1044F8253023468C1053F8243059
:100990008C07240F00FA04F423430C4C08348D1008
:1009A00044F8253030BD0A49DC310860704700004A
:1009B00000080140000C01400010014000140140FB
:1009C00000180140001C01400020014000000140CF
:1009D00000002042DF48006840F00100DD49086067
:1009E00008464068DC490840DA4948600846006823
:1009F000DA490840D74908600846006820F480209A
:100A000008600846406820F4FE0048604FF41F006C
:100A100088607047CF49096821F48031CD4A116060
:100A20001146096821F480211160B0F5803F03D0A0
:100A3000B0F5802F0ED106E0C649096841F4803137
:100A4000C44A116007E0C349096841F4A021C14AC2
:100A5000116000E000BF00BF704710B501460022E2
:100A6000002300204A11012A02D1BA4C236806E073
:100A7000022A02D1B74C236A01E0B64C636A01F046
:100A80001F02012494401C400CB1012000E0002012
:100A900010BD38B5002000900024002500BF312093
:100AA000FFF7DBFF05460098401C00900098B0F56A
:100AB000A06F01D0002DF2D03120FFF7CEFF08B19A
:100AC000012400E00024204638BD01460020A14A50
:100AD000106820F0F80040EAC10010607047A0499B
:100AE00008607047024600209A4B586820F47C103A
:100AF00042EA01031843974B5860704798490866CB
:100B0000704701460020934A506820F003000843D4
:100B1000506070478F48406800F00C0070470146F5
:100B200000208C4A506820F0F00008435060704765
:100B300001460020874A506820F4E0600843506076
:100B4000704701460020834A506820F4605040EA14
:100B5000C1005060704729B17E4A527A02437D4BF2
:100B60005A7204E07B4A527A82437A4B5A72704737
:100B70007B49D8310860704701460020754A5068AB
:100B800020F440400843506070470021714A2032F1
:100B90001170704A82F82010012802D004280AD16E
:100BA00004E001216B4A2032117005E00521694AF9
:100BB0002032117000E000BF00BF70476949086033
:100BC00070476449096A0143624A11627047654986
:100BD00044390860704730B500210022002400230A
:100BE0005C4D6D6805F00C0121B1042905D0082980
:100BF00023D105E05C4D056022E05B4D05601FE000
:100C0000544D6D6805F47012524D6D6805F48034D2
:100C1000022505EB92421CB9544D554305600BE08B
:100C20004C4D6D6805F400351DB1504D55430560C0
:100C300002E04D4D5543056002E04B4D056000BF9D
:100C400000BF444D6D6805F0F0010909484D6B5C2B
:100C50000568DD4045603F4D6D6805F4E061090AB7
:100C6000434D6B5C4568DD4085603A4D6D6805F429
:100C70006051C90A3E4D6B5C4568DD40C560354D2D
:100C80006D6805F44041890B3A4D6B5CC568B5FB56
:100C9000F3F5056130BD29B12E4A526902432D4B4F
:100CA0005A6104E02B4A526982432A4B5A617047C9
:100CB00029B1284A92690243264B9A6104E0254AE9
:100CC00092698243234B9A61704729B1214AD269C4
:100CD0000243204BDA6104E01E4AD26982431D4B75
:100CE000DA61704729B11B4AD2680243194BDA60B6
:100CF00004E0184AD2688243164BDA60704729B183
:100D0000144A12690243134B1A6104E0114A126932
:100D10008243104B1A61704712494039086070478E
:100D20000F49C86470470B49C87170470948406A49
:100D300040F0807007494862704701460020054A2C
:100D400092680A400AB1012000E000207047014982
:100D500088727047001002400000FFF8FFFFF6FEA7
:100D6000000042428004424200127A0000093D0025
:100D7000140000202400002010B50446BE48844220
:100D800008D101218014FFF7ADFF0021A014FFF767
:100D9000A9FF16E0B948844208D101210014FFF7E9
:100DA000AEFF00212014FFF7AAFF0AE0B4488442F6
:100DB00007D10121C013FFF7A2FF0021E013FFF7C5
:100DC0009EFF10BD10B50022028802F441520B882C
:100DD0004C8823438C882343CC8823430C892343AA
:100DE0004C8923438C892343CC8923431A430280B3
:100DF000838B4FF2FF74234083830B8A038210BDE1
:100E00002DE9F04F85B005460C464FF0000902274A
:100E10004FF000084FF0010B0026B246A88B4FF2AE
:100E200040010840A88302202884B5F81C90A068DF
:100E3000022801D100BF38E0A08810B94FF0010BA3
:100E400001E04FF0020B8D48854200D100E000BF69
:100E50006846FFF7C0FEDDF800A0E088B0F5007F2F
:100E60000AD14FEA1A2000EB80004000A168B0FBD5
:100E7000F1F0401D86B20BE04FEA4B10BAFBF0F0E8
:100E800000EB80004000A168B0FBF1F0401D86B28D
:100E90000A20B6FBF0F606F00108A6EB0800C0F346
:100EA0004F074FF6FF7000EA0828022F01DBFF2FE3
:100EB00002DD02274FF00008E08840EA08003843CE
:100EC0002884A088A18908436188084321880843B1
:100ED00040F4006040EA0909A5F81C9005B0BDE89F
:100EE000F08F0021018041808180C180018141819A
:100EF0008181C181072101827047002101804180E9
:100F00008180C1800221816000218181704721B1EF
:100F1000028842F04002028004E002884FF6BF736C
:100F20001A400280704721B1828B42F48062828332
:100F300004E0828B4FF6FF331A408283704730B54E
:100F4000002400230C110125A540ABB21AB18588FD
:100F50001D43858002E085889D43858030BD1AB1A0
:100F600083880B43838002E083888B4383807047B0
:100F7000818170470146888970474FF6FF62914230
:100F800004D0028842F48072028004E002884FF6A6
:100F9000FF631A400280704721B1828842F0040248
:100FA000828004E082884FF6FB731A40828070478B
:100FB00002884FF2FF731A40028002880A430280BF
:100FC0007047018841F480510180704721B1028847
:100FD00042F40052028004E002884DF6FF731A408A
:100FE0000280704702460020012901D0108B00E0EA
:100FF000908A70470146088A7047B1F5804F04D146
:10100000028842F48042028004E002884BF6FF73BB
:101010001A40028070470246002013890B400BB132
:10102000012000E000207047CA4302817047F0B5FC
:101030000246002000240023002501F00F070126AE
:10104000BE40B4B20B1101269E40B3B2968806EAA8
:1010500003051689264016B10DB1012000E00020DD
:10106000F0BD10B5002201F00F040123A3409AB295
:10107000D343038110BD0000003001400038004020
:10108000003C004010B50446FB48844209D10121D0
:101090008803FFF727FE00214FF48040FFF722FE70
:1010A00032E0F648844209D101214804FFF727FEC7
:1010B00000214FF40030FFF722FE25E0F048844283
:1010C00009D101218804FFF71AFE00214FF4802086
:1010D000FFF715FE18E0EB48844209D10121C8044E
:1010E000FFF70DFE00214FF40020FFF708FE0BE094
:1010F000E548844208D101210805FFF700FE0021E0
:101100004FF48010FFF7FBFD10BD2DE9F04786B0CE
:1011100005460E460024A24600BFA1460027B0891E
:1011200000B100BF2F462C8A4CF6FF700440F088B7
:1011300004432C82AC894EF6F3100440B088318908
:101140000843718908430443AC81AC8A4FF6FF40E1
:101150000440B0890443AC8201A8FFF73CFDC648B7
:10116000874202D1DDF810A001E0DDF80CA0A889CB
:1011700000F4004040B10AEBCA0000EB0A103168ED
:101180004900B0FBF1F807E00AEBCA0000EB0A10D7
:1011900031688900B0FBF1F86420B8FBF0F004017D
:1011A0002009642101FB1089A88900F4004040B1A6
:1011B000322000EBC900B0FBF1F000F0070004435F
:1011C00008E0322000EB09106421B0FBF1F000F0E0
:1011D0000F0004432C8106B0BDE8F0874FF4165190
:1011E000016000218180C18001810C2141810021A9
:1011F0008181704710B502460020108A4FF2FF032C
:1012000018400B884C8823438C882343CC88234385
:101210001843108210BD0021018041808180C1806F
:10122000704721B1828942F40052828104E08289B0
:101230004DF6FF731A4082817047F0B503460024D3
:1012400000260025002040F66A17B94200D100BFF1
:101250001846C1F3421401F01F06012707FA06F5EC
:10126000012C01D10C3004E0022C01D1103000E03F
:1012700014301AB107682F43076002E00768AF43D4
:101280000760F0BD1AB1838A0B43838202E0838A30
:101290008B4383827047028A4FF6F0731A400282B2
:1012A000028A0A430282704782894FF2FF731A4012
:1012B000828182890A438281704721B1828942F00A
:1012C0000202828104E082894FF6FD731A40828116
:1012D0007047028A4FF6DF731A400282028A0A437D
:1012E0000282704721B1028A42F48042028204E005
:1012F000028A4BF6FF731A4002827047C1F308025C
:101300008280704701468888C0F308007047818951
:1013100041F0010181817047028BD2B20283028BBE
:1013200042EA012202837047028B02F47F42028369
:10133000028B0A430283704721B1828A42F0200265
:10134000828204E0828A4FF6DF731A4082827047FD
:1013500021B1828A42F01002828204E0828A4FF632
:10136000EF731A408282704721B1828A42F00802EC
:10137000828204E0828A4FF6F7731A4082827047B5
:1013800021B1828942F40042828103E08289C2F362
:101390000E028281704721B1828A42F40062828209
:1013A00004E0828A4FF2FF731A4082827047828A79
:1013B0004FF6FB731A408282828A0A438282704708
:1013C00021B1828A42F00202828204E0828A4FF6D0
:1013D000FD731A408282704702460020B1F5007FFB
:1013E00000D100BF13880B400BB1012000E00020AA
:1013F000704701F40072B2F5007F00D100BFCA430C
:101400000280704770B502460024002300250020AA
:1014100040F66A16B14200D100BFC1F3421501F097
:101420001F03012606FA03F3012D02D196893340EA
:1014300006E0022D02D1168A334001E0968A33403D
:101440000C12012606FA04F41688344013B10CB1CC
:10145000012000E0002070BD10B50022002340F6FE
:101460006A14A14200D100BF0A1201249440A3B221
:10147000DC43048010BD00000038014000440040FF
:1014800000480040004C00400050004000F036F89A
:1014900000F0AAF800F048F900F0CCFA00F09BFB4D
:1014A00018E04FF6FF700C490880084600F0EEFA8D
:1014B000012000F084F8002007490880084600F069
:1014C000E5FA012000F07BF8044800F00AFB012057
:1014D00000F075F8E5E7000028000020E21C000895
:1014E000704700BFFEE700BFFEE700BFFEE700BF9A
:1014F000FEE77047704770477047000010B56FF007
:101500000400FEF770FF344800683449B0FBF1F086
:10151000334908700846007800EB4001C1EBC01069
:101520004FF6FF7101EAC0002E49088010BD014648
:101530002B4A12784A434FF0E0235A6100229A6105
:101540001A46126942F001021A6100BF4FF0E02210
:10155000106900F001021AB100F48032002AF5D0BF
:101560004FF0E022126922F001024FF0E0231A61ED
:1015700000229A61704701461A4A12884A434FF086
:10158000E0235A6100229A611A46126942F0010270
:101590001A6100BF4FF0E022106900F001021AB199
:1015A00000F48032002AF5D04FF0E022126922F0D8
:1015B00001024FF0E0231A6100229A61704730B5B2
:1015C0000446002505E04FF47A70FFF7D4FF681C4D
:1015D00085B2A542F7DB30BD0000002000127A0082
:1015E0002A0000202C00002000B587B0012108034C
:1015F000FFF75EFB0121D420FFF75AFB0120ADF875
:10160000040003208DF8060010208DF8070001A9C2
:101610006548FFF791F82020ADF8040018208DF8F8
:10162000070001A96148FFF787F84020ADF80400E2
:1016300001A95E48FFF780F88020ADF8040001A9F9
:101640005A48FFF779F801215748FFF722F900209F
:10165000ADF808004FF48270ADF80A000020ADF834
:101660000C00ADF80E00ADF810004FF40070ADF8AE
:1016700012000020ADF81400ADF816000720ADF8F8
:10168000180002A94A48FFF79DFB01214848FFF7CF
:101690003EFC07B000BD10B5044600214448FFF7EA
:1016A00036FC082C04D100214148FFF781FC05E0FD
:1016B000102C03D1E1013E48FFF77AFC01213C48A0
:1016C000FFF725FC10BD10B5044600BF02213848C5
:1016D000FFF7A1FC0028F9D021463548FFF748FC68
:1016E00000BF01213248FFF796FC0028F9D03048AE
:1016F000FFF740FCC0B210BD10B5044600BF022188
:101700002B48FFF788FC0028F9D021462848FFF72E
:101710002FFC00BF01212648FFF77DFC0028F9D0EF
:101720002348FFF727FC10BD00B58BB00121084608
:10173000FFF7B1FA1E480C300090102002900020F4
:10174000049005900690079008904FF4005009907F
:1017500000200A9069461748FEF706FF4FF4007014
:10176000FEF75CFF012202211148FFF7F8FB0BB0E6
:1017700000BD70B504460D460E4830384563C4635D
:1017800001210C48FEF71BFF00BF4FF40070FEF76D
:1017900031FF0028F9D04FF40070FEF73FFF002121
:1017A0000448FEF70CFF70BD001001400008014026
:1017B000003001403000024008B501211420FFF73D
:1017C00077FA0420ADF8000003208DF80200102005
:1017D0008DF803006946F348FEF7AEFF0820ADF828
:1017E00000006946EF48FEF7A7FF4FF48070ADF8A0
:1017F00000006946EB48FEF79FFF0421E948FFF728
:1018000048F808BD10B504460820FFF744FF012141
:10181000E548FFF740F84FF48071E248FFF73BF8E6
:101820002046FFF750FF0121DF48FFF732F8102074
:10183000FFF731FF10BD10B504460820FFF72BFF5E
:101840000121D948FFF727F84FF48071D548FFF7F9
:1018500020F82046FFF737FF0121D348FFF719F89A
:101860001020FFF718FF10BD10B50821CD48FFF775
:1018700012F80A20FFF77FFE0821CA48FFF709F88F
:101880006420FFF778FEB220FFF7BCFF0C20FFF7C3
:10189000D2FF0C20FFF7CFFF0020FFF7CCFF332053
:1018A000FFF7C9FF3320FFF7C6FFB720FFF7AAFFF6
:1018B0000220FFF7C0FFC220FFF7A4FF0120FFF7BF
:1018C000BAFFC320FFF79EFF1620FFF7B4FFBB202F
:1018D000FFF798FF3C20FFF7AEFFC520FFF792FF10
:1018E0002020FFF7A8FFD020FFF78CFFA420FFF7F0
:1018F000A2FFA220FFF79FFFD220FFF783FF4C201B
:10190000FFF799FFE820FFF77DFF8320FFF793FFA4
:10191000E920FFF777FF0920FFF78DFF0920FFF788
:101920008AFF0820FFF787FF3620FFF76BFF0020B4
:10193000FFF781FF3520FFF765FF0020FFF77BFFF2
:101940003A20FFF75FFF0520FFF775FFC620FFF77E
:1019500059FF0D20FFF76FFFE020FFF753FFD02066
:10196000FFF769FF0620FFF766FF0C20FFF763FF14
:101970000920FFF760FF0920FFF75DFF2520FFF733
:101980005AFF2E20FFF757FF3320FFF754FF452063
:10199000FFF751FF3620FFF74EFF1220FFF74BFFF6
:1019A0001220FFF748FF2E20FFF745FF3420FFF7F6
:1019B00042FFE120FFF726FFD020FFF73CFF062083
:1019C000FFF739FF0C20FFF736FF0920FFF733FF41
:1019D0000920FFF730FF2520FFF72DFF2E20FFF70E
:1019E0002AFF3320FFF727FF4520FFF724FF36208B
:1019F000FFF721FF1220FFF71EFF1220FFF71BFF4A
:101A00002E20FFF718FF3420FFF715FF2120FFF7E6
:101A1000F9FE1120FFF7F6FE7820FFF7ACFD292034
:101A2000FFF7F0FE3220FFF7A6FD04215D48FEF728
:101A300032FF10BD10B5FFF7BFFEFFF715FF10BD59
:101A400070B504460D462B20FFF7DCFE2012FFF791
:101A5000F2FEE0B2FFF7EFFE2812FFF7ECFEE8B26D
:101A6000FFF7E9FE70BD70B504460D462A20FFF76A
:101A7000C9FE2012FFF7DFFEE0B2FFF7DCFE2812FE
:101A8000FFF7D9FEE8B2FFF7D6FE70BD10B50446E9
:101A9000EF210020FFF7D4FFEF210020FFF7E3FF45
:101AA0002C20FFF7AFFE0820FFF7F5FD01213E488F
:101AB000FEF7F1FE4FF480713A48FEF7EAFE4FF46C
:101AC00061412046FFF755FE4FF461412046FFF784
:101AD00050FE01213448FEF7DCFE1020FFF7DBFD4D
:101AE00010BD10B50446EF210020FFF7A9FFEF213C
:101AF0000020FFF7B8FF2C20FFF784FE0820FFF737
:101B0000CAFD01212848FEF7C6FE4FF48071254822
:101B1000FEF7BFFE2548006B40F0800023490863B4
:101B20004FF461412046FFF724FE4FF4614104F574
:101B30006140FFF71EFE1D48006B20F080001B492E
:101B4000086301211848FEF7A4FE1020FFF7A3FD4B
:101B500010BD2DE9F04707460C4615461E46DDF838
:101B6000208029463846FFF76BFF31462046FFF7B5
:101B70007AFFE81B401C311B491C00FB01F92C209B
:101B8000FFF740FE07E04FEA2820FFF754FE08F079
:101B9000FF00FFF750FE5FEA0900A9F10109F2D149
:101BA000BDE8F0870008014000100140000002403D
:101BB00008B54FF4A060FEF7C7FB25208DF80000A4
:101BC00001208DF801008DF802008DF803006846B1
:101BD000FEF7BFFB08BD00B585B001210420FFF76B
:101BE00067F801218803FFF763F84FF40070ADF840
:101BF000100018208DF8130003208DF8120004A99E
:101C00002548FEF799FD4FF48060ADF810000420E0
:101C10008DF8130004A92048FEF78EFD4FF4E13043
:101C200000900020ADF80400ADF80600ADF8080003
:101C3000ADF80C000C20ADF80A0069461748FFF714
:101C400064FAFFF7B5FF012240F225511348FFF770
:101C5000F4FA01211148FFF7E4FA05B000BD70B5B0
:101C600004460D46E1B20D48FFF748FB00BF802156
:101C70000A48FFF7B1FB0028F9D0204670BD10B527
:101C8000044600BF20210548FFF7A6FB0028F9D035
:101C90000248FFF737FB10BD000801400038014043
:101CA000064C074D06E0E06840F0010394E80700A9
:101CB00098471034AC42F6D3FEF73EFAE4DE010852
:101CC00004DF010802E008C8121F08C1002AFAD187
:101CD00070477047002001E001C1121F002AFBD1AC
:101CE0007047DEE7A522736073236B07734973297E
:101CF00083079AE4CBC5E445E444E424E424EBE51B
:101D0000EC05E425E424EC04EC04EBE4EC05EC0540
:101D1000E405DC05E425E405EBE6F3E7FBE7F3C7C0
:101D2000EB86F386F3A7F386FB87FBA8F347DA4538
:101D3000D1C4D1A5D1A6D1A6D1A7D1E9C1EAB1CA52
:101D4000A16A892A68A858AA590C490D410E390F71
:101D50003910310F314F296F296F316F292E392EEC
:101D6000412F38CF4130392F412D588A910AC189EE
:101D7000E1A7E1E5EA24E203D181E1C3E184D98569
:101D8000E1C5E1E5D9E3F2A5EAA4DAA3EB45CA612E
:101D9000D2C2FBC6F3C5F3E5F404EC24EC23F40350
:101DA000F3E4FBC5D262C203DAC6EB69F38AD2A6BA
:101DB000BA02BAC3CC47C569ADE896478E46964786
:101DC000962796288E278E468E2686478E299E4EEB
:101DD0007CAE41CA390B410E392F392F314F395062
:101DE000312F392F392E392D412C596D9B13BBD5ED
:101DF000BB94C395C354B2D1A24FA250A2709A8F84
:101E00009AADA2ADA2CFA28F9A4FA291A2919A5061
:101E10009A91A291A270A26FA28FA26FA2909AB281
:101E20008A928AB261CF596F61B0597059B1599194
:101E300059B059B0519051B059D151D24971415016
:101E4000415039303910410F40ED48EC48EB594CC6
:101E500071EE825092919AB19A709A70A2919AB052
:101E60009A70A270A270822F594C48EC410D38CD67
:101E700038ED392F312E314F396F394F31503150C4
:101E800031503130312F312F392F390F390E410D6B
:101E9000492D61AE8A919AF292B19A709A709A50D5
:101EA000A270A2709A509A70A290A2909A70A2907A
:101EB000A290A2919AB19AB192B0826F82CF8AF029
:101EC0007AAEF7A8F7AABDC783E362E36AC56A855D
:101ED0008AE6BBA7D3E6DC04DBE3E403E3E4EBC47C
:101EE000EBC4E3E4E403EBE3EBE3EBE4EBE4E3C4B4
:101EF000E3E4E3E5E405EBE5F3A6EB45DAA3D26220
:101F0000D242D222CA02D223D243DA44EAA6E287DC
:101F1000C9C5C165C145B124B105A0E5A147A9A9BD
:101F2000AA0B91AB89CC712B50893829306B38CDF5
:101F300030AE28CE20CE20CD18CC20EC20AB184AD5
:101F400030AD30AD30AD288C38AB58889129C18880
:101F5000D985D163E203E223D9E3EA24C901D1841C
:101F6000D163D1C3DA03DA02EAA4EAE4F3A6D281A8
:101F7000CA60F3A5F3A5EBC4E3C4E3E3E403EBE336
:101F8000F3C4F3A5DAC4B9C1B9C2DAC7DAA6DAE88C
:101F9000BA24A1C1AB03B4C7ADA88DE68E468E2688
:101FA0008E068E278E068E26860586068E098DADB8
:101FB000532920C7288A30AD30CE20CD20CD20AD8A
:101FC00028CD28AD28AC286A40EB8AD2ABB5B374D3
:101FD000BB74BB54A2909A0D9A4FA291A2B1A2D009
:101FE000AB10AB10A2AE9A2E9A2F9A4F9A50922F06
:101FF000922F9A509A2F9A2F9A4E9A2E922F925051
:1020000092727A30594D490D512E512F492F494F17
:10201000494F494E496F494F412F38EE38CE30ADC8
:10202000308D286D308D386C300A488B696E820F88
:1020300092309A719230920F9A2F9A2F922F924F3C
:102040009A6F9A2F922F8A507A3061AE48EC386B93
:10205000306B30CC28AC28CC28CD28CD208D208DDD
:1020600020AD28CE20AD208D28AD28AD30CD494EF5
:1020700061F07A71722F71CE79CE81EE89EF920F75
:102080009230923092309250922F922F92509A70BA
:1020900092508A2F81EE820E71ED722E724D496937
:1020A00038A6EFE4F7E6EF88E709BD878B828281E7
:1020B000BBC7CBC7DBC6DBC4DBE3E3E3EBC3EB822D
:1020C000F382F382F382EBA2E3C2E3C3E3C2E3A3AE
:1020D000EBC4E384EB84E2E3DA21D1C1D9E2DA0391
:1020E000D1E2D1A2C162C962C963C123C944C96531
:1020F000B104A0A4A10599069126892778E6686411
:10210000688570E789CB89EC818C692B508A386AA5
:10211000306C204D208E28CE20CC20CB188908078B
:1021200028CC28AC30CC30CB38686086A168C1861A
:10213000C102D183D182DA23E284EAA5EAA6C98268
:10214000C141C9A1DA22D201E2A3EAE3F385E302A5
:10215000D2C1EBA4EBC4E3C4E3E3E3E3E3C3E3C32F
:10216000EB83F386F326C1E2B160D245DAA7CA4613
:10217000C266A9C39A02A3A5B54895C685E58E0592
:1021800085E48E0485E4860586068E288DEA74CB68
:1021900021C518A828CD28AE28AE20AD28CD20CD49
:1021A00020AD288D308C40CB7A71AB95AB53B353B7
:1021B000BB53AAB0A26FAAAFB311B312B313BB53F0
:1021C000BB73BB32A26F920E920F920E922E924E62
:1021D000924F920F9A0F9A0F9A0E922F920F8A3067
:1021E000929269AE50EC510D48ED492F490F492F9D
:1021F000492E494E494E492E40CD38AD388D388D47
:10220000384C386D406C486C586C792E99F1A1F1BE
:10221000A1D0A9D0A1AFA1CFA1EF9A0E9A2E922E54
:10222000924E922E922E8A2F8A5082507A1069AF47
:1022300050ED386A308B308B288B30AC30AD30AD00
:1022400030AD288C30ED390E30ED38EE414F516F06
:10225000516E596E596D69AE79EE820F8A2F925088
:1022600092708A308A308A3092508A508A4F820F18
:1022700079EE698C71CD720E724E61CC30A6180366
:102280002885EFC4E7A4EFA6F7A8F74AEE49D4A63D
:10229000D406DBE6DBC5DBA4DBC4E3A3E382EB828D
:1022A000F382FB83F382EBA2E3C2E3C2E3C2EBA3BC
:1022B000EBA4EB64DAA2D221EA63F285E224D1C472
:1022C000C9A4C184C185C185C1A6B986B166B167FB
:1022D000A988A168890678C6606460A5716879A933
:1022E00060C54002400258A6716A79CC698C48CA20
:1022F000386B30AE288E28AD20AB28EA18A9080725
:1023000028CB20AB288A38CA50E88168A9A7C164C5
:10231000C922EA25EA24D1E2E2E5D283FB87EAE595
:10232000C9E1B980B980CA01E2C3F344F3A5E3432C
:10233000E383E382E3A2E3C2DBC2DBC2E3C3E3C322
:10234000EBA4F365F346D283B9C1C203E328C20606
:10235000BA06BA26A1E49283AC68A5C885C58E25C5
:102360008E048E0485E486068E088DE98DAC5BC9EB
:10237000194618CA28EE28AE288E20AD28CD28EDA3
:1023800028AD308D388C69F0AB95B373B332BB3266
:10239000BB12BB11BB11BB51BB52BB53C354C35483
:1023A000BB13B2F29A2E91EE9A2F9A2F9A2E922E5A
:1023B000922E9A2F9A2F9A0F9A0F9A2F922F92302D
:1023C0008A30612C50CB598F490E492F492F492E05
:1023D000492E492E410D40ED40CD40AD488D488DF0
:1023E000508D58AD60CE78EF810F9130A150A12F64
:1023F000A94FB14FB16FB18FA98EA9AEA1CE99ED02
:102400009A0D922E8A0E820E8A508A518A308A51F3
:10241000823171F0618E490D38AB308B308C388D44
:1024200038AC30CC30EC38ED38ED390E412E492E39
:10243000490D48EC512D61AE71EF7A0F8230823038
:1024400079EF7A1079F079EF71CE698D616C618CDA
:1024500069CC722E724E516A30A6202410021023CD
:1024600020A5E7CAEFE9EFC8F787FF69FE67D44206
:10247000CB82E3E5E3C4DBC4E3C4E3C4E3C4EBC35E
:10248000EBA3F383EB83E3C3E3E3DBC2E3A2EB83DE
:10249000EB22DAA2EAE4EAC4DA23C9A2C163C1A644
:1024A000B9A7A966A187996789468146710568C45D
:1024B00068E57106794879AA69284865402350E59E
:1024C000616750E4300128012823388559AA61CC7E
:1024D000492C306C286D28CD28EB20E910461027B8
:1024E00020AA2069286948A968E899A8B985C12265
:1024F000C901D141F285DA23DAA3E324E344F36589
:10250000EB04C200B180CA42EB25F386F3A5E36376
:10251000F404E3C2E3E2DBE2DBE1E3C2E3C2E3C3F0
:10252000EBC3EB64F385DAE3C241CA62E368D30923
:10253000A9A6A9C7A9E79A059B47AD6995C78DE5E7
:102540008604862486068E096CC674C8958E4288D9
:10255000190720EC20AE208E28AF28AE208D20CE8B
:1025600028AD304C594EA374B373B331C351BB1172
:10257000BAF0C371BB51BB32BB32BB53BB54BB14AB
:10258000BB13BB12A26F920D920D9A2E9A2E922F10
:10259000922F922F920F9A0F920F920F92308A0FD2
:1025A000718D610B696E71F0514E490E492E494F84
:1025B000492E490D410D490D512E592F610E690FBC
:1025C0007950792F890F911090CF90AE98AE98AE38
:1025D000A8EFA8EFB10FB90FC14FC16FB96EB18E9F
:1025E000A9CEA20F89EE718C79EE8A508A30923092
:1025F0009231821079EF7A517A727211596F490EC5
:1026000040CD40ED412D494E494F410E40EE410E27
:10261000492E514E492E48ED48EC510D512D592D62
:10262000594D594D592D512C596C61AD620D620DAA
:1026300059CC4149288618241002102310431063F6
:102640002105A66CC72EDFADEF6AF6A8DD44C3E115
:10265000D3E4D3E6CBE7D407CBE6D3C6DBE5DBE4B4
:10266000E3C4EBA3E383E3C3DBC3E3A2EBA3F36421
:10267000E2E3E2C4DA64C1C3B9A4B9A5A9A6996723
:10268000810770C660844843402330012000200049
:10269000200028013002300340A648E730432001E3
:1026A00038A3516630A3100010001001182230C763
:1026B000494B410D30CD28AB20A918A70825186734
:1026C0002088286940AA712A8108A125CA06EA86BD
:1026D000E1E3D161D1A1EAC4DAC2EB84EBA3F384D4
:1026E000EB64E303DAC3E324EB85EB84EBA4E3A31D
:1026F000E3C2E3E2DBE1DBE1E3E1E3E2E3C2E3C225
:10270000E3A2EB84F3A4DB02CAC1E364E387DB4A00
:10271000B208A9C9A20A9A088A87A4A99DA885A572
:1027200086057DE685E885CC32E343059D5131C7BA
:1027300020C820CC20AE28CF28AF28CF28AE28AE86
:10274000206C490D92F4BBB5B352BB10C330C30F1C
:10275000C330BAEFBB51BB52BB53BB53BB32BB13ED
:10276000C333C352BB11AA8F9A2E920E91EE920FD1
:102770009A2F920F920E9A2F9A2F920E922F81EEED
:10278000692B716D82517A31598F490D490E514F24
:10279000490E410D492E516F596F614F692F71508C
:1027A0008170893091109930A130A951B151A9108F
:1027B000A90FA8AEB0AEB8AEC0AEC0CEC10FC14F6B
:1027C000B16FA9AF99EF796C610B718D8A3092511D
:1027D0008A308A5071CE698D71EF7A5282B372520B
:1027E000598F492D412D410D494E494F492E410DDB
:1027F00040ED40ED492D492D492D492D490D490CFC
:10280000492C492C514C516C518C412A38E828A64E
:102810002065100308021023104308420842088272
:10282000212544AF4C8D6CAA8CC8B4C6C486C4277D
:10283000BC29AC2BA42C9C0B9BC9AB87BBC7CBE69C
:10284000D3E4DBE3DBC3DBC3E3C3EBC4EB84E3042C
:10285000DA84B9C4B9C5A9A6A1A7894768C65887AB
:102860004067408728041803100208010000080090
:1028700008000800100010011802180218221801A0
:102880001000182128C41862000008200820102217
:10289000184530CA30EB28CA2088102408031825B0
:1028A000286740AA692C70C98886B186C1A5D1C3A2
:1028B000EAA5F2A5E263E2C2DAE1E382EBA2F3A3C6
:1028C000EB83F384F3A4EBA4E3A4E3A3E3E4DBC28C
:1028D000DBC1DC01D3E0D3C0DBC1E3C2EBC2E3A2C6
:1028E000E3A2EBA2EBA2DB41DB41EBC4E3A6CAE728
:1028F000B249A20B99EB920B826993C8A56A8DC865
:102900007DE86DA975AC6CCD11833206947239895E
:1029100028C920AB20AD28AD208D28AE28AE288E4A
:10292000306C7A51B3B5AB11BB71BB0FC32ECB4F1B
:10293000CB4FBB2EBB50BB33B312B331BB30BB301C
:10294000BB30BB30BB31BB11B2D1AA919A3091EFF1
:10295000920E920E922E9A2E9A2E922E922E8A0ECF
:1029600079AD81EF92718251618E492D492E492EA8
:10297000490E490E492E512E512E50EE58CD68CE9B
:1029800070CE78AE808D808E806D888D908D98CE43
:10299000A10FB10FC110C8CFC06EC06EC8CFC91093
:1029A000C130A94FA9D099AF710C58CA612C71AE32
:1029B00082308271825071CF594D594D61AF61F0B3
:1029C0006A3159D040EC284A308B410C414D414D81
:1029D000414D412C412C390B38EB38EB390B412B55
:1029E000390A38EA30A82887208618651024102371
:1029F000082208220842002108620862004108A259
:102A000019043C953C315BEC7C2AA449B46AAC6C5B
:102A1000940C7BED6BAD6B6B7B8A93A9B409C428D6
:102A2000C3C5CBC3DBE3E3A3EBA3F3A5EB25CA2428
:102A3000B9C5A9A7998881076886504640263027DE
:102A400018061005080408040002000100210841CE
:102A500000200800000008010802080108011021F8
:102A600008010801102210430001000108210000A4
:102A70000802102518671866102508021803288612
:102A800040E9618C58A868459927B1A6B162B9E2BE
:102A9000CA62E304EB44E322EBA3EBC2EBA1F3C273
:102AA000F3C3EBA3E3A3EBE3DBA2DBE2D3C1DC21C3
:102AB000F545E4E3DC61D3E0DBC0E3C1EBC2E3C294
:102AC000E3C2EBC2E3C2E3A2E3C3E3C4DBA6D36A7F
:102AD000A2289A0C922D922D824A7AE7950B85CBEB
:102AE0005D495D6D5D30438E090629A97351394BEF
:102AF000208A28AC28AC20AC28CD28AE286E306DBA
:102B0000514FA333BB93BB50C370C34ECB4ECB6D61
:102B1000CB6DC36DBB2EBB31BB32BB2FBB4EC36E67
:102B2000C36ECB6FC350C332BB33BB13AAD2A290C8
:102B30009A4E920D920D9A0E9A2E9A2E922E922FB6
:102B4000925092508A508A71616E594D596E48ED7B
:102B5000512E512E492E490E490E590E612F692FC3
:102B6000792F813091509951910F90EF90CE908DA7
:102B7000906CA06DA88DB8AEC0AEC08EC08EC0AF38
:102B8000C0CFB90FB950B190912E68AC58CB50EB73
:102B9000512C594C71EF7A3069EF598E40EB38CA9D
:102BA000498E516E496E40EC28491807202828A903
:102BB00030E9392A3109394A394A310828E828E800
:102BC00020861845104510240803080208430842CF
:102BD00008420841086108620861088208810041D2
:102BE00010E34C545C31844EA4ADA46C942C740F4F
:102BF00053CF53F053CF63AD7BECA44DB44CB3E94A
:102C0000BBA5CBC3DBC3EBA3F364EAA4CA04B1A5A1
:102C1000A18781085887484748683848280720070F
:102C200018481848208720862065182310011001B5
:102C3000100110010801080108010801080108023B
:102C40000002000108020803080308020821080026
:102C500000000001000208030802184428A54128CA
:102C60004949388540437966A206B245C2E5BAE4CF
:102C7000B2C1C342DBC3E3E3EBE3E3C2E3A2E3C2DB
:102C8000E3C2E3C2DBA1DC02DC21D441CC20C420BE
:102C9000E563FE87FE47F564DC41DBC0E3C1EBE2A0
:102CA000E3C2EBC2DB81DBC3E3E4DBE5DBE8C34A81
:102CB000A24A920C922E924E824C72C97C4C7DAFED
:102CC0004D0D4D3244931A4D00E9190A41EE312C55
:102CD000208B30CD28AC28CC28CD206D286D408DA0
:102CE0008231BBB3B32EC36FC32DCB6DD36CD38CEA
:102CF000D38BCB8BCB6CC32FC32FC34CC36BCB8B72
:102D0000CB8CCB8EC350BB11BB33C354C353BB312D
:102D1000B310AAAF9A4E920E920E920F922F92502B
:102D200092308A2F9270820F614C71CF7210510DC8
:102D3000510D512F490E490E492F510E510E610F61
:102D4000690F710F810F89509971A9D2B1D2B15019
:102D5000A90FA8EEA8CDA0ADB0EEC12FC8EFC8AEA8
:102D6000C8AFC8AEC8F0C130A90F90EE70CC50CB40
:102D7000510C388A40CA514C516D496C498C30EA2B
:102D800030EA412C494D414D390B30AA1847100506
:102D90000804100410441044104310430843104327
:102DA00008420823082308420842084208420862F1
:102DB00008610861088108610040086108610862D3
:102DC00018E36C7474518C2D946D8C6E6BEE43D043
:102DD0003BF244335C52749194D09C6E9BCAA3889E
:102DE000BBA6D3E5DBA3F365EAC4C983B124990686
:102DF0006866586748684069388A386A308930A9F7
:102E000030A930CA28882846282420032002280216
:102E100028232823282328442864206520A520C6A9
:102E200018A610651865184510241003080208013B
:102E30000821000000000021082220A528E630C556
:102E400020423081596392A6B347A2E3AB43C466E4
:102E5000C465BC03C423D3E2DBE2E3C2E3E2E402E1
:102E6000DBC1E401D3E0DC81F584FE05FE45D561DC
:102E7000CD40F6A5FEE7F646E564D420DBE1E3E2CB
:102E8000E3A2E3A2E3A3E3E5DBC6D387CB8ABB0BD4
:102E90009A2B922D922E924F826D6ACC746F6D9206
:102EA00034B034D42C560A70014D112C10CB20EDC7
:102EB00020AC208C28CD28ED208C30AD306B612DDE
:102EC000AB11BB6EC36CCB8CC32AD36BD38AD389B3
:102ED000D389D3A9CB69CB2CCB2CD38BD3C9D3A982
:102EE000CB8AC30CC30FC331C332BB12BB11BB515E
:102EF000C372BB11B2F1A2909A3091EF920F922F50
:102F0000920F924F924F718C694C82308271618F17
:102F100050ED490E492F514F492F490E490E510E80
:102F200058EE60CE588D68CD70EE894FA9F2CA95E3
:102F3000DAD5DAD5C232A14E98CCA0ACB8EDC8EE45
:102F4000D0CED0AFD0AFD0F0C110A8EF88AD790E01
:102F500058CC50EC28083048492B390A392A398B8B
:102F600020A82089390B498D498D416B3109208773
:102F70001025080408230843084208420862086232
:102F80000882086208620842084208620861086113
:102F90000861004008610881088108620841084210
:102FA00018C4640F744F8C8F846F5C2F44113C7471
:102FB0003C965CD66CD474B27C4F7BCC8348AB8798
:102FC000D407E3E6EB65E264C963B0C49865706654
:102FD000606758C948C948A938693849388940A93B
:102FE00040A9384738474067488650C65908614964
:102FF000696A698B71AB71CC69AB596B516B414A92
:10300000312A312928E8188718661044080200017F
:103010000820084100200021002208420801102158
:103020001840626583468303A3C4C4E7B4A5ACC556
:10303000B526BD25BCE4C442D422DC03DBE1D3C009
:10304000D3E0D420CC20CC80DD61FEC5FF66EEA3AA
:10305000DE82DEC3DEE5C5C1DE25DD64CC00D3C182
:10306000E3E4E3A4E3C6DBC7CB47BAC7B2CAAA8C82
:10307000920C9A2E9A2E922F826E62CE5C32555608
:1030800024B51C762458237601F0098F116F190E90
:1030900018CE20AD28CE28AD208B498E40A9820DB8
:1030A000C38FC34AD3A9D3A9CB47DBA8DBC8DB872F
:1030B000DBA7DBC6DB87D349D349DBA8DBC8DBA8AA
:1030C000D36ACB0DC30FC330C350BB30BB11BB3170
:1030D000BB52BB32C353BB13A2919A30920F920ED4
:1030E000922E922F922F798C79AD8A508A717A1014
:1030F000594E510E492F494F492F410E492E492F04
:10310000490E512F48EE490D510E58ED58CC710E15
:1031100091D1BAB4DBB7EC19DB55C231B94DB8CB9C
:10312000C8CCD8EFD08ED08ED0F0C930B91098CEA0
:1031300080EE608B50AA28072006288728E83149AE
:10314000396A2087186728A8394A418B398B314A58
:103150002908108608440823002208420842086211
:103160000862086108610861086108610861086116
:1031700008610861086108610842084208010822E4
:1031800020C574507CD17CF25C713C112C54349677
:103190003C964C745C5263EF6BAC83AA9BC9C3C86A
:1031A000E3E8E345D222C962C124B0E6A12A916CCA
:1031B000710A50684867486850AA590B592B590B37
:1031C00050C9610A718B81ED8A2D8A4D924E926FA2
:1031D000926F8A2F81CE716C692B590B510B410B69
:1031E00030CA30CA20A818A718A618A50863082155
:1031F0000800082000000021004200410860294327
:10320000526563049487A4C69CA4AD04AD65A5650E
:103210009D64A584AD44BCE3C482C421CC20DCA061
:10322000ED21E562E5C2DDA0D5A0F703F724DEA21B
:10323000D6C2E7A6D765A5C0BDE3DE05CCC3C3A251
:10324000DBC5E3E7DBA8CB48B288A228A22B9A2DE6
:10325000920E9A2E920E922F82905B1043F33CD8DE
:1032600024D80C5814392C3A02930A3132F51150F3
:1032700010CE20CF288D206B412D724F5908AACC3B
:10328000D3ACD3A8DBC7DBA6D365E3C7E3C6DB8536
:10329000E3A5E3C5E3A5E387E367E3A6E3A6DB874E
:1032A000D349D32DCB2EC34DC36EC36FC371BB3275
:1032B000BB12BB12C333BB33BB13AAB29A50920FDB
:1032C0009A2E920E922E89ED922E92508A30825131
:1032D00069AF510E490E490E492F492F494F494FA9
:1032E000492F412F494F414E412D492D492D50CC59
:1032F00058EC60EC712DA292E418FC79F3B6DA7107
:10330000C96DC0ACC8ADD8EEC8AED0EFC8EFB9102B
:10331000A90F88EE70EC40282806202518251044B7
:1033200028E7312918861045186620C7314939AA7F
:1033300039CB318A292818A5084408420862086256
:103340000862086108610861086108610861086233
:1033500008610861086108420842082208221864CE
:10336000314785146CD44C532C13245624762455A1
:10337000345443F153CF6BAC8BCAB42AD42AD367ED
:10338000D2A5D1E2C982B903C168B9EB910A582626
:103390005026584670C8896C91AD89AE81AD81EEDA
:1033A000922F9A4FA26E9A4E9A2E924E922E81CDC5
:1033B000714C610B610C694D698E698E618E598EFD
:1033C000518E414C312B290920E610A408420021DE
:1033D0000820000008410021000010C14AA6846AAC
:1033E0009D4B8CE795269DA6A5A5958495C48DE457
:1033F00085A396049DC3A563AD02BD01DDE3FEA4D4
:10340000FF04FF04FF45FF64F702FFA3EF84D6E249
:10341000AE00D7A6C7659E219DA1B5A4D5C8C42579
:10342000D3E7CB68BAE8AA689A09A20BA20D9A0F53
:10343000920F920E922E8A4F7AB15B523BF524780E
:103440001CBA0C5A147A14390B5613153BB811B127
:1034500008CE20CF286D306B7250826D7187C36BA0
:10346000DBC9E3A6E3C4E3A4DB84E3C4E3C4E3A4CD
:10347000E3A4EBC3E3A4E3A5E3A5E3A4E385DB674F
:10348000D349D32ACB4BCB8BCBACC38EC370C332C7
:10349000BB13BB12BB12BB12BB33BB34AAD39A30D3
:1034A00091EF922F920E920E9A2F922F92308A5174
:1034B00071F048ED490E492E494F492E492E412EB3
:1034C000412E414F412F496F414E412C494D494CAE
:1034D000490B50EC614D612C714DB2D2EC57FC7828
:1034E000FBD6DA51C10CC0CCC90DD92FC08DD1305B
:1034F000B8EFB10FA12E78CC48482005180410036E
:103500001003104420C520C510640803082310854B
:1035100020E7292831693189294818E51083086294
:103520000862086108610861086108610861084172
:103530000841086208410821086218C42906396850
:10354000522B6CF45473341424352C772C763C5560
:103550004C536C31844FA44DB40AC387CAC5CA44C6
:10356000D1E3D183C964C167A96980C86026604678
:1035700070E891AB99CCA1CD99AD99CD91EE920E19
:10358000920E9A2D9A0D9A2D9A4E89ED798C798DFD
:1035900081EF79EF79EF7A1071F0596E492D490C6E
:1035A000412C30EA20A810650823002100000020EB
:1035B0000020082100200020006019404AE3742503
:1035C0008D269DC79DE695A595E495E48DE486241A
:1035D00086248E0496049DC3B625E727FFA8FF64C2
:1035E000FF42FF63FF42FF82F782DF21EFA4DF6526
:1035F0009DC0B6C4B7458E2296029DA4BDA8B40551
:10360000AB26A2A79A49922A922C922E922F921020
:10361000920F920E9A4F8A4F72905B533BF624386A
:10362000147A0C7B0C7B147A14191BF933F911D220
:1036300010CE20AE306C40CB9B11822A9A47D3C962
:10364000DBA6E384E3A3E3C4E3A3E3A3E3A3E3A34D
:10365000E3A3EBC3EBA3EBA4E3A4E3C3E3A4DB6624
:10366000DB48DB69D38AD3CACBABC36DBB2FBB119D
:10367000C332C332BB31BB31BB32BB53BB13AA9184
:103680009A0F9A2F920E9A0E9A0E9A0E922F8A5194
:103690007210510D490E492E490E490E492E494EC0
:1036A000412E494F412E414E416D392B394B416CD2
:1036B000496C496C490B594C71AE81EEA270D394A0
:1036C000FCB8FC57EB13C16DB8ECE1F1E1D1C0EEF1
:1036D000C0EEC12FB0EE992E896D4847200420041A
:1036E00018031022106310831063188310630822DC
:1036F000000210641064106410A418E5210518E499
:1037000010C3088108610861086108420842084244
:103710000841086208620862108318C520E520A5E8
:1037200028E64C533BF23C333C3433F343D25BF159
:103730006B8E8BAC9B69B306BAC4CA83D223D1C348
:10374000D184C944C166B18880A65804608789AB1A
:1037500089CBA20DAA2DA20DA1EDA20DA22D9A2D0D
:103760009A2D9A0C9A2D9A4E8A0D8A0E8A508A505A
:1037700079EF71CE618D514D490C410C38EC30AB75
:1037800020891046082400020002002200210000C7
:1037900000000040002000A021C05BA58D699DA70E
:1037A00095859563958295A395E48DE385C38624DD
:1037B0008E4585E48DE495E3A624CF06EF86F76475
:1037C000FF83FF82FF82FFA1F782D6E0DF64D74547
:1037D0009DC195E1A6C586028E039DE5AD87B467C0
:1037E00092848A488A4C828E7A907A907A7082701B
:1037F0008A2F920F9A2F922F825062F24BB42C375D
:103800001C9A0C7B0C7B14BC0C5A1C5A3419099161
:1038100010CE288D386B698DB3919A68B307DBA7FA
:10382000E3A5E384E3A4E3A3E3A3E3A3E3A3E3A384
:10383000E3C3E3C3E3A3E3A3E3C3E3C3E3C3E386D5
:10384000DB67DB88D389CB8BC36CC34FBB30C33101
:10385000C351BB2FC34FBB6FBB4FBB50BB51B2F16A
:10386000A270920E920E9A0E9A0E9A0E922F8A5073
:103870007A31512D492E490E492E490E492E494E75
:10388000494E494F494E412D28A92087396A49CBD5
:10389000418B49AC498C490A48EA718D9A50B2F281
:1038A000CB53F476FC77FBB4CA0FB94CF2D3EAB42D
:1038B000C14FB8CEC12FB92FA10D894D5088280511
:1038C00018031023082208221062106208421042D6
:1038D000108308220842084308630862084208620D
:1038E00008610861086108610861084208420842ED
:1038F0000862086208620862004108220822104338
:1039000020E654314BF153F05C116C10740F940F9E
:10391000ABEDBBABCB69D306D2A5DA44D1C3D1633F
:10392000C944B966A948788658256909820C924C21
:103930009A4C9A0CA20CA20CA20CA22CA24CA24C47
:10394000AA6DAA8E9A4D924E924F8A2F71AD698CB4
:10395000698D594C512C410B38EB28CA28AA18689C
:1039600010250823000200010001000100010020D1
:10397000006000600940434485499E0A9E0795A463
:10398000A624BEA5AE239DC195C296248E2485E3B0
:103990008E048DE38DC2960495C29DA0CEE3F7C43C
:1039A000F762FF61FFC2F781E761D742C703B684C0
:1039B00095E2960385C2864386238DE5A5A7B4E9E3
:1039C0008AE6828B828F72D262D25AD26B1272F2E4
:1039D0007A7182308A30927082916AB14B3333F6B9
:1039E0001C59149B0C9C047B045A1C5A2BF901B0E3
:1039F00010ED208C3869928ECBF0BAE8CB67DBA64D
:103A0000E3C5EBC5EBA4DB63E3A3EBC4E3A3E3A350
:103A1000EBC4E3A3E3C2E3C2E3C2E3C2E3C2E3A5B0
:103A2000E3A6E3A8DB8ACB6CC32DC32EC32FC34F01
:103A3000C34FC34DC34DC36DBB6DBB6EC370BB10D5
:103A4000AA8F920E9A2F9A0E9A0E9A0E920E8A5062
:103A50007A10512D512D596E598F594E490D490DDE
:103A6000494E490E492E496D28A8080320E64A0B05
:103A70004A0B49CB49CC51AC516B50E9610A920ECB
:103A8000C332DBD4F476FC97F3D5C22FC22FFC37B8
:103A9000EB34C16EB8EDC94FB90EB18F892D58A95D
:103AA0003046180310221042106208410841086293
:103AB0000842106208420862086208620841084130
:103AC000086108610861086108610842084208420B
:103AD000084208620862086208621063084208230C
:103AE00018A58471847083EE93ED9BCBABAAB36A67
:103AF000BB08BA86C225B9C3C1A3C164C165B924D4
:103B0000B966A9C970A7586771AD826E826D822BA4
:103B10008A2B924B920A9A2AB2ACB28BB2ABBAEC15
:103B2000BB0EA26D9A0C81CC81ED820D69AC618CCB
:103B3000618C596C494C412C310B28A91046080462
:103B4000082300220001002108210001002000209C
:103B50000080220064868E0986278E2585E38DA14C
:103B6000B6C4E7A7DF66BEC49E0285E285E38E0485
:103B70008E048DE296038DC38DC28DA0B661EFC415
:103B8000FFC3EF20EF20EF82DF62BEC1B6C39E44C9
:103B900085A2962486037E038624860495C6A529DD
:103BA0008B8872AC6AB05B1453554B7453945B545E
:103BB0005AD36292729272916A9072F352F33B9569
:103BC0002C591C9B047B0C9C0C9C143A23F901B0CF
:103BD00008EC18AA40E9B38FD3CCDB68E366EBC6E8
:103BE000E3A4DB43EBA4EBC4E3A3EBA3E3A3EBC4A9
:103BF000E3A3E3C3E3C2EBC1EBA0EBC1EBC2E3A3DE
:103C0000E3A5E3A7DBAACB2CC32EC34EC34DD36DD4
:103C1000CB4BCB4BD38CCB8CC36CC36DC38FCB91B5
:103C2000B2F09A4F9A4F9A2E91EE9A0F92308A10D4
:103C300079D0590C510C69CF7A5161AE510D490DB3
:103C4000490D492E412D496D392910240822294654
:103C50004A494A0A49CA59EB59CC598B590A690A47
:103C6000794BBB31E435FCB7FC97F435BA8DDB9268
:103C7000FC96F3B4C9AEB8ACC8EEC0EEB14F892D16
:103C8000610B3886184310220841108208810862AF
:103C90000842084208420842084108610862086276
:103CA00008620861086108410861086208620862E8
:103CB00008620861084108410842082210231044A4
:103CC00028E79CF394919C2E9BCC934992C79AA78A
:103CD000A287AA27A9E6A9A5A986A987A9A8A9C9EB
:103CE000A20A714950E959CD6A6F6A0C720B79EAE0
:103CF0008A2A924AAB0CB30BBAEABACACB2CC32CB1
:103D0000A28A920A920C926E822D7A0D69EC69ED6C
:103D100059AC410A38CA28A91867082500030002CF
:103D20000001000000410021082100200000008067
:103D30002A417D08964986467E247E038E438DC0A7
:103D4000A621DF65EFC6E7C6B6A28DE1960496040C
:103D50008DC3A684AEA4960395C195C0B660EFC38B
:103D6000F781FF82D680CEC0E7C4B681AE839604C9
:103D700085E48E0586047E047E247E038E069DA93E
:103D8000844A630C635353763B7633D63BF643D673
:103D90004B76537653355B335AF25AD352F43B7613
:103DA0002BD7143914BB047B14BC1C5B1397018FF5
:103DB00000EB190A51EABBEECB89EBA7EB65E323D5
:103DC000D2C1E344F3A5EB84DB42EBA3EBA3E3A373
:103DD000E3C3E3C3E3C2EBC1EBC1EBC1E3A2E3C3C3
:103DE000E3C5E3A7DB69CB4CCB4DCB6CD36BD38A5C
:103DF000D3AAD3AACB6ACB8BD3ADCB8DC36EC37101
:103E0000B2D0A26FA26F920E9A2F922F92308A3068
:103E100079AF58CB612D79EF8A717A10698E592D5F
:103E2000490D492E494D414C312918630821108212
:103E300039C75209520A59EB61CC618B616B714BE6
:103E400068E9794ABB32EC77FC97FCD6DBF2CB8F82
:103E5000F4B4FC95F393C98EC8CDC0AEC0EFA92FC2
:103E6000894D610A3066100210420881088108827B
:103E70000862086208620862084108410841086255
:103E80000841086108610861086208620862086206
:103E900008610841106218A320C420E52927314990
:103EA00041CB74B46C727C927C308C3094508BCF4C
:103EB0007B0C7AAB7A2A8A2B8A4C824C7A4C722DF4
:103EC00051AB3129318B422E41ED518A71EA920A70
:103ED000AA8BC38EBB6CBB0ABAC8DB8CC2E9AA48EA
:103EE0009A29924A9AAD822C7A2D6A0D61CD490B9E
:103EF000306930AA28891847080400020001002010
:103F000008410041002000210000004100402A013A
:103F1000854A960886057E0586457DC48E0495E112
:103F2000AE20EF84F7C3EFC3DFA3B6828DC1960343
:103F30009603AEA4D7A7C706B662B640D701F7E38B
:103F4000F780FFA2EF61C660CF22CF25A6438DC3C5
:103F50008E2585E58605860586247E23862595E9BA
:103F6000850B5B6D4B5243B633F824171BF62C17A9
:103F7000341833F833F73C163B754B564B563B76AB
:103F800033D724581C79149A149B147B0B98027312
:103F900022D23AAF7B6EB3ECD3A8F3A7E2C3C20040
:103FA000DAA2F365DAC3D281E302F3C4EBC4E3A37C
:103FB000E3C3E3A2E3A2EBC2EBC2EBC2E382E3C43E
:103FC000DB84DBA6D367D34AD34ADB89DBA9DBA832
:103FD000D387DBA9D389D38BCB6CC34EBB2FC35202
:103FE000B2D0A26FAAD1922E920E8A0E92508A510E
:103FF000692D58AB716E82108A518A308210694ED9
:1040000050CC510E516E498C30E81042106108417D
:1040100020C349C8620A69CB79ED718B716B798BCA
:10402000714A70EA78EABAB1FC98FC96F474EC93A1
:10403000ECB3EC93FCF6F373C98EB88DC0CFB1101E
:10404000A10E918E50A81802102208410881088103
:104050000881088108611061104110411041086217
:1040600000620861086108810861086108610861EF
:10407000086110610841106220C418A5106418A6D8
:1040800039AB3C143C134C3354125BF3539142EE66
:104090003A6C3A0B4A4C520C41AB41EC422D31ED9B
:1040A000194B21CC2A2D322C4A4C6A4B926BBB0CFB
:1040B000D38DBB2BAAA8C329D3ABC2E8B247A24871
:1040C000AACB9ACC822B7A2C69CC490B306928690F
:1040D00038EB20691827080400020001002008407E
:1040E00008400000084108410020000011007469E8
:1040F00095EA8E06862486257DE48E26960495A074
:10410000BE61F7A3FFC2F7A1F7E3CF239DC095A13E
:1041100095C1BEE4DFE7E7A7DF65E743EFA3F7A1BB
:10412000FFA1FFA1FFC3DF21BE80C7249E438DE313
:1041300085E485E68606860586257E447E45860AD4
:1041400085AE5C3033512BD62C7A145803D70BB67E
:104150001C181C392479247823F73C193BD833B731
:104160002BD6137413D51C7814991C9B0BB92BF9FF
:1041700044175BF383EFBC0BE3E9DA83C9C0D1E0FA
:10418000EAC4E283C9C0E282FB65F384E343E382CD
:10419000E3A2E3C2E3C2E3A2E3A2E382E3A3E3C4B4
:1041A000DBC4DBA5DB86D347DB88E3A7DBA6DBC765
:1041B000D3A7DBE9D3AACB4BC32DC32FC331C33263
:1041C000AA90AAB1AAD1920E922F922F923081EF8B
:1041D000690C692D81EF925092308A30925179F0BA
:1041E000614E50ED490C496B28E7084208610840D0
:1041F0001040310559C971CB81ED81AC794B796B98
:1042000081AC814C78AA910BCA90F415FCB6FCD510
:10421000F4D4F514EC93FC96F334C90EC8EFC0F057
:10422000A8CF990D70CA3804204210410840086197
:10423000086108610861086110411041104108627D
:10424000006208610861086108610861086108612D
:10425000106108410821080108220803102520E800
:1042600041ED2CBA34DA2C57343633F62B531AAFCF
:10427000124D1A2C2A8D2A2D21ED326F222E11ED8E
:104280001A2E226F2A4D322B5A8A92EBBB4BDB8BB4
:10429000D329BAA7CB28DBEBC308AA45AA67BB0B77
:1042A0009A6A8A8B828C510938C9288A30CB28AA0D
:1042B00020681026080400020001002000200020D1
:1042C00000201081000008410840004032439E0D4C
:1042D0008DE885E486047DE485E4960595A2A5E055
:1042E000DF23F783F781FFA1F7A1E783C6C3A5E02A
:1042F000A600CF44E7C6D724EF65F7C5F7A3F7615B
:10430000F781F7A2EFA2F7C4CEE1AE61A6628DE21B
:1043100085E48E068E0685E686057E257E27760B4D
:1043200075D04CF32C341C3714590C790C58037588
:1043300003761C5A149A0C791459243A2C392C58A7
:1043400023F602B002901C151C581C3A245B2C3A30
:1043500033B65390940ECC0BCAE5C180C120E1E383
:10436000EA24C940D1E2FB26EAE4CA00CA60E3625B
:10437000E3A3E3A2EBE3EBC3E3C3E3A3EBE4E3A335
:10438000E3E4DBC3DBA4DB64E3A6E3C5DB85DBE6B8
:10439000DBE8CB68CB4BBAECC32FC332C333BAF2E2
:1043A000B2B2B2D2AAB191EE9A2F9A508A2F798ED8
:1043B000716D81EF92309A50922F8A0F92708A50CD
:1043C000720F594E410C412A20850842086108604D
:1043D00010401842412669AA79AC91CD896C814B75
:1043E000814B916D90EC98ECA8ECD291FC35FCB52A
:1043F000EC93ECB3F4F5EC34FBF6F2B4C08DC8AF3B
:10440000C910B14F890B48251801102108411082AD
:10441000086108810881086110611041104108613C
:104420000862086208420862086108610861086160
:1044300008611062106310231004182628E9416CEB
:10444000522F359E3D9E2CBA1BD713340AD10A8FAA
:104450000A8E12CE128D126D228E1A6E120D09EC7A
:104460001A6E2A4E3A4C5A8A8309BBCBDBEADB47E9
:10447000CAA5D327E3E9BAC6B2A6BB09B2E9A28AA4
:10448000926B69A9490838C9288928CB28EB20A84C
:10449000082508040002000100210040002000005F
:1044A000082108410841000031E542A453A58DC907
:1044B00085C68E058E2485E496248DA295A0CEE235
:1044C000F7A4F782F781FFA0F7A0FFE3EFA4D703DB
:1044D000D723DF84EFE6D6C4DF25F7A5F7A3FFA235
:1044E000F7A2F7A2F7A3EFC4DF64B6A295E08DE2CE
:1044F0008E2585E4860686067DE676276E095D6D47
:104500004D1034B41C9614B9043804170C580BB66B
:1045100002F40BB71C9B0C7A0C9A0BF81418247835
:104520002C771B31016A12F01B930B76349B1B57BF
:104530002B3452EEA3EEBB08B1A1C981D161D9429F
:10454000D963D141EA24EA84C980B960D280EB847E
:10455000EBA4E382EBC4EBE4E3C3DBA2E3E3DBC263
:10456000E3E2DC03D3E3DBC4E3A5DBC5DBE6D3C7CF
:10457000C388BB29CB8EC32FC332BB12BAF3BAF3A5
:10458000BB33BB12AA9091CE91EE9A509A5089EF0C
:1045900089EF9230920F9A0F9A2F8A0E8A2F8A4FA4
:1045A000827069CF596D390A100408630882086166
:1045B000106110012843592879AB91CD918C896BFA
:1045C000812B910CA14DB10DB0CCB94DE2D2FC358F
:1045D000FCB5EC94FD57CB71CAD0FB35E1B1C88E68
:1045E000C8CFB8EEA96D712A386520431021084163
:1045F00008420882086208610861104110410861A0
:10460000086208620862086208610861086108417E
:10461000084108420803100428A8392B416C416D59
:1046200051EF4DDD2C9913540AD202B0026F0A8F5C
:1046300012CF12AE0A8D12AC1AAC09E9226B226CB1
:104640002A4B39C96A4A932AC3CADC09CB25C2C29C
:10465000D324E3A6D325CB47BB28AAE89268928A45
:10466000696848E8490A30AA28CB20AA10670824BC
:1046700000020001000100210021002100010001D1
:1046800008220001004129833A63852B85288DE7A4
:10469000960685A396248DC28DA09DE0C6C2EFA389
:1046A000F7C3F7A2FFE3F7A0F7A0FFA2FFA2FFC3A3
:1046B000EFA3EFA4EFA6D707D6E6EFA7EF64F7A422
:1046C000FFE4F7A3EF83E763EFA6CF05958096039A
:1046D0008DE485C485E486057E0676095DAC44CF0D
:1046E0002C5214560C7814BA045903F603D61BF74F
:1046F00002D302D31C39149A149A03D703750BD52D
:1047000034972B93014901691ACF0AD22BD81AD5B5
:1047100032B272EEA2CAB1C5C183C962D963D903EC
:10472000D8E2D963E1E4D181C140DA82F365F3A52F
:10473000EBA4EBA4E3A3DB82DBC2DBC1DBE1EC4255
:10474000E422DC03D404D3C5CBA5CBC5D407CBC9A5
:10475000C3AAD430D432BB72BB33BB13C333BB3315
:10476000BB12B2F29A2E89EDA270A2919A30920FEA
:104770009A509A2F9A0F9A0EA22F9A0F922F8A2F41
:104780009270823069AE48EA202510440822002148
:104790001082084110013064614981AB918C918C89
:1047A000914C90EBB14DB92EB8EDB0ACC16EF35356
:1047B000FC56FCD6F495F495CAAFC9AEF252D90FA7
:1047C000C8CEC10EB98E916C60C830441822104218
:1047D00008420862086208420862086208620862C9
:1047E000086208620862086208610861086108419D
:1047F00008420843186528C8394B496D496D492D51
:10480000516E2C770B3302B102700A8F0AAF12B0CF
:10481000128E12AD0A6912A8334A4B8C5BED3A89AD
:1048200041E76228A32ACBCADBE8DB86CAE3DB6464
:10483000E3A5E3A5D365C326AAA6AB098228612612
:10484000594940C92849206A20CA20C900240022A9
:104850000021002000200020002100210022080368
:104860000804210729A74AE75365854796288DE55F
:104870008DE395C29580AE42BEC2D763EFC3F7C247
:10488000F7A1F7C1F7A1F7A0FFA0FF80F740FF81D4
:10489000FFC3EF63E766E78BBE48D709E788E766A3
:1048A000EF85F7A5EF85E745E766DF88AE448DA283
:1048B00095E48E047DE47E2576486E0B4D6E3CB209
:1048C0002C9514980C9A0C9A0C9A149903741BB595
:1048D0000AF302920B551C791C9A0BB602B1031213
:1048E00023D433D301A900E611EB0A2E2B3422B3D3
:1048F00042B2724C9A08B985C964C964C923D924E3
:10490000D904D922D962C920D1A1F326F365F34590
:10491000F385EB84DB42D361DC22EC82E461FD03AE
:10492000DC41CC03BBE4B3A4BBC6B3C6B3A6C42B63
:10493000D48FE4D3CC13B332B333C333BB33BB32E2
:10494000B3319A6E922EA290B312AAB1920F920F27
:10495000920E99EEA22F9A0E9A0E9A2F9A2F920FDC
:104960009230923081EF616C3067182410431063ED
:1049700008411082104110014085694989AC99AD08
:10498000994CA12DA0ABB90EC92FB8EDB0CCC9EF91
:10499000FBF5FC96F474FCF6F414B98CD18EE1901E
:1049A000C8CEC8EEC14EA96E792A404520231022F8
:1049B00008621062086208420862006200620862CF
:1049C0000862086208620861086108610862106292
:1049D0001064188528E8394B416C412C490D512D44
:1049E00061D0137502D20AD10AAF0AAF0A8E12AF94
:1049F00012AD126933287D2CB6B1CF34A54E6A862C
:104A00007A66AB28CBA8DBC8DBA6D324CB03E3C5EF
:104A1000DBA5E3E6CB64BAE5B30881E669666168C5
:104A200048E8284930CC310C18890825004300415A
:104A30000020004000400041004100220003082502
:104A40001887296A52EC5B6885098DA68DC38DE2B3
:104A500095E1B682CF03E784EFC3EFC2F7C1F7C099
:104A6000FFA0F7A1FFC1FFC1FFA0FF60FF40FF61F2
:104A7000F783EFA5CEE6DF6EBE8DC6CCCF2CCF0977
:104A8000E7AAE768EFA9DF28CEE7E7CAC6E68D61A7
:104A900095C38E247DE47626766A558C34CE2451D7
:104AA0001C550C571CDA149A149A149903740313A6
:104AB0000AF202D1031324582458031402B10290BD
:104AC0001B10339109A900A300E509AB2AF21A5182
:104AD00052F27A2BA1C7B966C144C164C144D0E384
:104AE000D904D923D101C921E223F2E5F326FB66DB
:104AF000EB25CA60CAE0D3C0FD45E4C2ED23F584CE
:104B0000C421B44493C493C59C278BA59BC7BC4CBC
:104B1000DCF1D493B350B331BB73BB12BAF1C352BF
:104B2000B2F09A8EAB10C393BB12A24F920E920EAC
:104B30009A4F9A2F9A0E9A0E9A0E99EF9A0F9A0FF1
:104B4000920F9A518A2F71AD492A2045080310848B
:104B5000086200411082102120014065798A916C21
:104B6000A16DA94EA8EDB8EEC970E212C96FB0EB05
:104B7000DA90FC55FC95FC94FCB6EB52B90CC92EAE
:104B8000D12FC8EFC0EEB94FA9CE68E9302410018B
:104B900008621062084110620841006200620882E7
:104BA00008820082006108820862104210431844A3
:104BB0002086208730E9392C412D496E514D61D036
:104BC0006A112C1723B502AF028E0A8E1ACE1ACDA7
:104BD0000A2743889E2EC72FAE0A94C79406A36760
:104BE000B347CB87DBC6E3E6D323CAE3DB85DBA58C
:104BF000E406C323BB04BB4789E5716661484908E5
:104C0000306838CC288B2089104708440042004186
:104C1000002000200020000000220002108420E775
:104C20002928190729A67CAB95CA960685C1A662D4
:104C3000BF03E784EFA3F7C2F7C1F7C1F7C0FFC016
:104C4000FFC0FFA1FFA1F780FF81FFC3FFA3F763B0
:104C5000EF85E7A7C6E8BEADBED0AE4EC710BEAC6E
:104C6000CF2CC6CBCF0CD74DB648D76BD7AAAE64E6
:104C700095E285A285E57E2765E93CC92C6C2C90E0
:104C800024931C740C340C3514361C781C17031236
:104C900002D102B10B1223F61B950AD20A910A8F98
:104CA0001AAE2ACE09A8008300A4012932D122100D
:104CB0005AF38A8D99A8A105A8E4A124A904C0E308
:104CC000D124D924D123D141E224E243EAC5FB27F0
:104CD000C9E0B9E0D341F545FE26D4E1F5E5DD6450
:104CE000A40194246B837C8863C663A48C699BEBCA
:104CF000DD13CC52B371B352B332CB73BB11B311CA
:104D0000BB72CBF3D415BB32A24F9A0E9A0EA26F90
:104D1000AAB09A2E922E9A0E9A0E9A0F9A0F9A2F46
:104D20009A0F920F9A507A0E514B38C8208608235A
:104D3000000210A329451862180120015086898CB1
:104D4000996DA10DA90DB0ADC0CED191F2B4EAB369
:104D5000B98CDAF0FCD6FCB5FCB5FBF4C9EEB8EDC5
:104D6000C0EEC0CEC90FB92FB18FA20E61281802B4
:104D700010411061086110611062108210A2086178
:104D800000410062006108410821100218232065DB
:104D90002887392B498D498E496E516E598F596E2E
:104DA00069AF2C560B310ACF12EF12AE1AAC0A269D
:104DB0004387B6EED7ADCF0AB5E6ACE5A405BBC7D1
:104DC000CB87DBC6E3E6DBA4CB23D324E3C7E3A591
:104DD000D344C324C3879A4571247189590A38681A
:104DE00030AA30AB206A1868084600230022002150
:104DF00000200821084308231084210621462105AC
:104E000018E410E409014B6595CA8DA49602C724E5
:104E1000E7E5F7E3FFA2FFA1FFA0FFA0FFA0FFA02F
:104E2000FFA0FFA0FF80FFA1FF82F744EF66EF68BD
:104E3000DF68D78AD7ADB6AEAE70A60FAE70BF1121
:104E4000AE6FA650AE91B6F2A66DB70BD7CBBEE54E
:104E500095C095E39E87862765674D084D2B558E37
:104E60004DB04DB12CAF13EF0B7013B323F502D13E
:104E700002B102900AD113530AF20A910A70128FFA
:104E80001A6D1A4B096700A300630909431319B08F
:104E900052B27A6E81A99147992691259925B1241C
:104EA000C965C904D123D963D9A3D1A2E243DA23C6
:104EB000B960C260EC64FE67EE04DDC3FEE9ACA33A
:104EC0008423640354044C672B634BE563E7A48E8F
:104ED000DD54D453B330BB72BB32C312C311C3B35E
:104EE000D435DC35C332AA70A20E91CEAA70B312AB
:104EF000922E922E922E924E922E920E922F9A2FA8
:104F0000920E920E924F824F618C514B410918259F
:104F10001824390649A7184110001822280258C73A
:104F200091ADA96EB10EB8ADC8EEC0AEC92FF2D426
:104F3000F334DAD0EC13FCD5FC95FCB7EB33B92C89
:104F4000B90EC12FC12FC12FB10EA9CF91ED5107BD
:104F500018221062086108410841082108410840F0
:104F600010820862086210631043186428A7390988
:104F7000414C49AE412D496E59D0514E514E594E7A
:104F800071F02C330B3023710A6C22CD1A682AE49D
:104F9000A68DD7EDCF48BE24B543BCC4C444CBC511
:104FA000D3A6DBC5DBC4D342D363E385E3A5DB45EE
:104FB000CB24D3C8A264794379A958E9408A38AB95
:104FC000288B204A208918A70844002200210021AC
:104FD000000100020003084518E752CD6BAF6BCC0F
:104FE000636A42C621E12A407D269605A642DFC6B5
:104FF000EFE4F7A2FF81FF80FFA0FFA0FFA0FFA0CA
:10500000FFA0FFA0FF80FFA2F763DEE4D6A6CEC913
:10501000C6ABBEECCF91BF12AE31A5F19D8FBED312
:10502000AE729E3395D3A695A6B29E8DC7ADC747E7
:10503000AE62BEC5AE858DC4756475A775E9762B65
:10504000766D6E0C660F556F342E130E13100AB06A
:1050500002B00AB002B00AD102910A910A90126E0F
:10506000228E222B010500A30063194A5B75198F5C
:10507000423172B169AB68E768A670E68947A166FC
:10508000B966C925D124D143D142C942D1A2C14078
:10509000C9E0E383ECC3FEC7E623E645E6E9848383
:1050A0005BE2440434252C671BA43C4753C7ACF097
:1050B000E555DC74BB30C372BB31BAF1D3B4E497AD
:1050C000DC56BB32AA4FA20EA20FAA71BB13AAD103
:1050D000924E8A0D8A2D924E922E922E922E924FA1
:1050E000922E924E8A2E824F618C48EA492A492A92
:1050F000518A51892863180230E428C4100128031A
:1051000060A8A1AEB14EC0EDC0ADC8CEC0ADC90E55
:10511000EA92F394EBD3F495FCD5FCB6FC15C1EE02
:10512000B94DB94EB92EC16FB12EA10DA9EF8A0D9F
:1051300040A51002086210A3108308211021082046
:1051400008410842106320C529073949498B498C19
:10515000496D412C410C496E514D48EC592D79F067
:1051600092921BAD3C712B6F1ACC124732C59E0B2D
:10517000DFEEBEE7AE03AD42B4C2CC62D403CBA334
:10518000DBE5DBC4D383D362DB63EBC5DB64D32411
:10519000DBA7B2A581637967612948AA386B286CBF
:1051A000288C208A20A810650022002100210001FF
:1051B000000208241886292A210831E86BCD956E53
:1051C000AE2F95AC74A75BC285459E05AE63E7E53F
:1051D000EFA2FFA2FF81FF81FFA0FFA0FFA0FFA021
:1051E000FFA0FFA0FF81F762F765EF68D6A9B62A96
:1051F000AE2E9E0EA650BEB4B653ADD1A54FA56F30
:10520000C695AE158D549E179E359610BF6FD7CAA2
:10521000D766D724B640AE41B6A4AE849E448E0570
:105220007DE57E067E29862D6DAF3C0E12ED0AAE21
:105230000AAF0AD0028F0AB00AB00A9112B0126EF9
:105240002AAE19CA00A400830064192A4AB3196F50
:1052500029905A51494C40684026486768E8894778
:10526000A987C1A7C945C903D164C922C942C98157
:10527000CA00D381E502FEE5E6A3E6E6C6876463DD
:1052800033C32C251C461C671C472406542AB53200
:10529000DD55ECD6D3D2B2EFBB10E414F4D7DC5515
:1052A000B351B311BB12B2D2B2D2C354B2F2920E06
:1052B000922D922D922D924E922E922E922E924EB1
:1052C0008A2E8A2F8A4F827069EE598D6A0F724F2B
:1052D0006A0E40C8308651C949A81884186318035B
:1052E00030046887B1AEB90DC0CDD10FC86DC8AE5E
:1052F000C0EDEAB2FC16FC95FCF6F474FC75E332E2
:10530000B18CA96DB18EB96FB96FB10EB16EA9EF45
:1053100079AC3086080200220063006308620862EC
:1053200008411062108318C520E62907290828A81B
:1053300020682869410B492C48EB69AE7A1092919C
:1053400092B16DB45CF21289124732E595CCDFEE72
:10535000AE659DC2A582B523C482D401DBC2DBE366
:10536000E404DBC3D362DB83E3C4E3C4E3A5E3A7C4
:10537000CAE691838165798A48A9386B308D206CA3
:1053800020AB28EA18860003000100220001000279
:105390001024188620E8292931A929E7324443023C
:1053A0008568AEABAE8A95A69E0695A2B662EFE47E
:1053B000F7A2FFA1FF80FF60FF80FFA0FFA0FF809A
:1053C000FF80FF80FFA1F762F765F7A8E78AC6CCE8
:1053D000B64E956E9570A591B591B54FBD4FA48C05
:1053E000BD71BDB4A5539533A5F495F1B6AFDFAC4F
:1053F000E7A7EFA5DF42EFA3F7E5E7C5D765B6C49A
:105400008DE2962385C47DC77E0D6D913C300ACD1B
:105410000AAF0AAF0A8F0AB00AB00A9012B0126E31
:10542000224C090600830083008410A8212C18ED6B
:1054300018ED312E28CC30AB38AA386A486868E7B6
:105440009988B187B945C144C924C0E2C942C9821B
:10545000C200BB20FE04FF24EF02F7A8B6464401B9
:1054600024041C2614470C4714881BE64C4ABD94A0
:10547000DD35F515EC94C370D3F3F4D7E434B32FD2
:10548000AB0FBB52BB52BB33C374C333A270920E7B
:10549000920D920D920D922E922E922E8A4F8A6F1D
:1054A000826F824F82917AB17291729172916A5039
:1054B00059EE6A4F72D0628E20A500021864102344
:1054C0002002400480E9B18DB8CCC0ADD910D0CF56
:1054D000C8ADC12DF333FC96FCD5F495FCD6FC3554
:1054E000B1EDA98CB9EFB16EB16FB92FB0EEB16E5D
:1054F000A23069ED3128110700E600840043006303
:10550000006308420842084308230003080410050A
:10551000184738CA514C594D71CF8A7192719250C7
:1055200092507D33228712453345962CC76D9E4697
:1055300095E39DC4A544B483CC02E3E2EBC2EBC384
:10554000E3E3DBA2DB82DBA3E3E5E3A4E3A6DB6723
:1055500099C38144798859084089306B288C20ACE4
:1055600020AA18C808440002000200020003102507
:1055700020A7310820E731A95B2D63EC6C8B74C741
:105580006CC38DE5A686AEA6AE64AE62BE60EFC308
:10559000F781FFA0FF80FF80FF80FFC0FFC0FFA05A
:1055A000FF80FF80FF80FF82F782F7A2F7E6E78A9D
:1055B000C6ACA5CEA5709CCEACADBCABC4ABBC6B31
:1055C000B42AC4ADB4CE946CADB1ADD2B62FDF4C1D
:1055D000EFA8F7A4FFC3FFC1F780F7C2EFC4CF6500
:1055E000960295E2960585E67DEA6DF05D5223AF61
:1055F00002AE0AAE0A8F0A8F12B00A6F128F1A8E8D
:1056000011AA0084008308A30884106618A920CC7E
:1056100018AC20AD208C28AC30CD30AC386A58A8FE
:1056200081489946A924B924B8C2C0C3D163C161D5
:10563000BA20D400FEC6FF63F783F7A7A60434217F
:105640001C2414470C270C8814671C274C6AB5735C
:10565000D534ECD3F4D4ECB4F4F6E454BB30BB70E2
:10566000C3F2CBF3C392BB31BAF1AA9099EE9A0D73
:105670009A0D9A0D9A0E9A2F9A70927082707A7083
:10568000729062705A7052504A70424F3A0F420FF5
:10569000527052B0528F39EC20E7104510031803B6
:1056A0002023282338037888B16DC92FC8AEC86E6F
:1056B000D0AEC0CDC9AEF3D4FC95FCB5FCD5FC95FD
:1056C000CAD0A96CB1AEB1AFB16FB92FB90FB90ED5
:1056D000A98F8A2F731153912AEF122B018A010788
:1056E000008500430023004300440845108728C973
:1056F000390B596D69CF8A5192728A108A0F925074
:105700009A913AC62A8453C6A68DBF6CA6868DC3CD
:1057100095C39DA5AD04C484D3E3EBA3F3C3E38297
:10572000E3C2E3A1E3A2E3E4E3C4DBC5DB86B24466
:1057300099A4816669484087308930AC20AB28EB5A
:1057400020CA08450003002200230004104620A9B7
:1057500028CA28C8314839E84AC9640A6C888D8942
:10576000960785C39643BF26AE41CF03C6C0EF81DF
:10577000FFC1FF80FF80FF80FFA0FFA0FFA0FFA070
:10578000FF80FFA1FFA1FFA1FFC1FFE0F7C2E76714
:10579000D70CC650AD70ACCEB48CC469C3E6CC088F
:1057A000CBE8C3E7BBE7B469ACCCB591BE10D6CCAF
:1057B000EF89F783FFC1FF80FFA0FFA1EF82D786AB
:1057C00095E195C28DE485E57E09552B4D31345226
:1057D00002AE0AAF12AF0A6F12B012B0126F22AE51
:1057E00009480063006308A30042186528E928CB34
:1057F00020AC20CD20CD20AD20AD28AE308C488906
:1058000069089167A125A8C3B0C3C904C944C1816F
:10581000BA00F543FF45FF82F7A3EFA695C22C20FF
:105820001C641CC7148804460C4714264449A572FE
:10583000D595E4F3ECB3ECD5EC94D3D2D3F2E4B544
:10584000D433C391B310C351BB11A24EA24FAA8F40
:10585000AA90AAB0A2B1A2F29AF382D26A705A4F69
:105860004A4F3A2E29EE2A0E2A2F2A4F222F29EFAD
:105870002A2F2A2E2A0E29ED29AC314A20871824F6
:10588000180310231802400488EAB92DC8CED0CFDF
:10589000D0CFC8ADB8ECD24FFC55FC95FCB5FCB6EA
:1058A000F415A98DA96DB1CFA96EB94FC12FC0EE66
:1058B000B12E91CF7AB15B734C15445634151AD082
:1058C000122E014900C700A608C8192A296C396C94
:1058D000496D514D698E82318A518A308A30925099
:1058E0009AB24B427CC6BEECC72B96058DE38DE386
:1058F00095E4A584B4E3CC23DBC3EBA3EBA3E3C221
:10590000E3C2E382EBE4E3A2DBA3EBE6C2E5996347
:105910009166794758C740C930CB28CB20EB20CAC5
:1059200010670804000300030024106720C928CB77
:1059300028CB28E931894AAA3AA65C28858A8DA60F
:105940008DC48DE38E01B6C3C723C6C1DF62EF816C
:10595000FF80FF80FF80FF80FFA0FFC0FFA0FF80CF
:10596000FF80FFA1FF80FFC1FFE1F780EF82E767C3
:10597000D6EBBDEFB550BD10BC6BC3E6D3C4D3C5E9
:10598000DBE5D3C4D405C425B427B4EEC5AFDECD62
:10599000EF69F783FFA0FFA0F780FF81F7C4C7047A
:1059A00095E28DE38DC48DE5860944AA1BAB23D116
:1059B00013100AAF12D00A6F12B012901A2E2A2DAD
:1059C0001948008500430883088210432086310A65
:1059D00028CB20CD20CD20CE20AE28CF288C3889D2
:1059E00061098947912598E3B0E3C925C944B940C5
:1059F000CAC0FE25FF44FFA2EFC2E7A5A6642BE0C4
:105A000024833D8814A50C860C87146723E774CE85
:105A1000BDB3D513ED35ECB4E473F4D4ECB4DC527F
:105A2000C3D1D3D2D3D3CB92CB72DBF5E456D436E9
:105A3000C3D5BC16BC379BB56AB14A703A702A0E02
:105A4000222E224E1A2E1A4F1A6F1A701A701A50DE
:105A50001A4F1A6F1A4E222E2A0E31AC316B3109B1
:105A600010440022084220024804A92CC10DC0EEB7
:105A7000C0CEC8ADC8EDB92CF353FC75FC95FCB68F
:105A8000FC56C22FA98DB1AEB18EB96FB92EC10E21
:105A9000B92EA18F8231633443F62C5724782479B0
:105AA0002C382BB52313125011EF19AE298F416FEB
:105AB000494F50ED50CD614E71CF7A3082508250B7
:105AC0008A71AE69D7ADBEE895E395E38DC39604C0
:105AD000A5E4AD22BCA2D402E3C3EBA3EBA3E3C2D3
