:020000040800F2
:1000000040040020C9000008792100087B21000875
:1000100000000000000000000000000000000000E0
:100020000000000000000000000000007F21000828
:10003000000000000000000081210008832100086A
:10004000F900000800000000F9000008F9000008AD
:10005000F9000008F9000008F9000008A1210008D3
:1000600000000000F9000008F9000008F90000088D
:10007000F9000008F9000008F9000008000000007D
:10008000F90000080000000000000000F90000086E
:10009000F9000008F9000008F9000008F90000085C
:1000A000F9000008F9000008F9000008852100089F
:1000B000F90000080348854602F0A2FF0048004707
:1000C0008D200008400400200C4880F308880C486C
:1000D0000168090E0B4A914205D10B480B4901609A
:1000E0000B480C4901600C4880470C480047FEE76C
:1000F000FEE7FEE7FEE7FEE7FEE700004004002023
:10010000040000001F000000181002400100000061
:100110000000014000000000591F0008B500000861
:100120003A483B490860002048608860C860394808
:1001300048617047002136498279002A35D00A4645
:10014000126803689A430B461A600A4652680368AD
:100150009A430B465A60027951180A6803681A4399
:100160000A602B4A926803689A43294B9A601A46A0
:10017000D26803689A43264BDA604279102A0CD180
:100180001A46926803681A43214B9A601A46D2684D
:1001900003681A431E4BDA600DE01D49427951187D
:1001A0000A6803681A430A6005E0027951180A6870
:1001B00003689A430A6070470021016001710C21B5
:1001C0004171002181717047114909690143104A49
:1001D00011617047014600200D4A52690A40002A09
:1001E00001D0012000E000207047094948617047B4
:1001F00001460020064A52690A40002A01D0012027
:1002000000E0002070470249486170470000940FE9
:1002100000040140FFFF6B0010B504460920C00632
:10022000844209D10121480400F0A1FC00210120F1
:10023000400400F09CFC3CE07448844208D1012159
:10024000000200F094FC0021200200F090FC30E05D
:100250006F48844208D10121000200F088FC00218F
:10026000200200F084FC24E06A48844209D1012184
:10027000080500F07CFC00210120000500F077FC5F
:1002800017E06548844208D10121400200F06FFC6C
:100290000021600200F06BFC0BE06048844208D152
:1002A0000121880500F063FC00210120800500F099
:1002B0005EFC10BDF0B50A4600210023002400BFFB
:1002C0003DE001258D402B4615681D402C469C4283
:1002D00034D11579012D02D01579022D16D18568FA
:1002E0004F000326BE40B543856055794E00B540AA
:1002F000866835438560858801268E40B5438580B4
:10030000858896798E40B6B23543858005684F0062
:100310000326BE40B543056015794E00B54006681A
:1003200035430560C5684F000326BE40B543C56030
:10033000D5794E00B540C6683543C560491C1029C3
:10034000BFD3F0BD36490160002101710121417127
:1003500000218171C171704708B501221204009219
:10036000009A0A430092009AC261C161009AC26178
:10037000C2690092C269009208BD02460020138A39
:100380000B40002B01D0012000E000207047014607
:10039000088A704702460020938A0B40002B01D048
:1003A000012000E0002070470146888A7047816183
:1003B000704701857047002A01D0816100E0018506
:1003C000704781827047F0B5002300244D07EE0E80
:1003D0001546B5402B46CD10AE0005462035AD592B
:1003E0004E07F70E0F26BE40B543CE10B6000746A7
:1003F0002037BD51CD10AE003D46AD591D432C46B2
:10040000CD10AD003E467451F0BD00000004004820
:1004100000080048000C0048001000480014004884
:10042000FFFF000000218278002A27D0274A0323FB
:100430001B02D21803789B109B00D15802789207B8
:10044000D30EFF229A400B469343194642789207F7
:10045000120E03789B07DB0E9A4011431B4A0323BD
:100460001B02D21803789B109B00D1500278D30650
:10047000DB0E01229A40154B1A6007E00278D30682
:10048000DB0E01229A40114B80331A60704700291D
:1004900005D00F4A126902430D4B1A6104E00C4A61
:1004A000126982430A4B1A617047042806D1094930
:1004B000096904221143074A116105E005490969E8
:1004C00004229143034A11617047000000E100E0FB
:1004D00000ED00E000E000E0F8480068012108437A
:1004E000F649086008464068F5490840F349486005
:1004F00008460068F3490840F0490860084600686B
:10050000012189048843ED490860084640683F217D
:1005100009048843E94948600846C06A00090001A7
:10052000C8620846006BE8490840E4490863084689
:10053000406B4008400048630020886070470021FD
:10054000DE4A917011468870704710B5024600214E
:10055000002300205111002902D1D84C23680BE060
:10056000012902D1D54C236A06E0022902D1D34CDD
:10057000636A01E0D14C636BD106C90E01248C4043
:100580001C40002C01D0012000E0002010BD38B537
:10059000002000900024002500BF1120FFF7D5FFA8
:1005A00005460098401C00900521090300988842E8
:1005B00001D0002DF1D01120FFF7C7FF002801D096
:1005C000012400E00024204638BD01460020BB4A3B
:1005D0001068F82302469A431046CA001043B74AEF
:1005E00010607047002806D0B44909680122114301
:1005F000B24A116005E0B149096849084900AF4AAB
:100600001160704701460020AC4A506BF823024647
:100610009A431046CA001043A84A50637047002806
:1006200006D0A649496B01221143A44A516305E053
:10063000A249496B49084900A04A51637047002804
:1006400006D09E49496B042291439C4A516305E0C0
:100650009A49496B04221143984A5163704797495C
:10066000096A49084900954A11621146096A04223B
:100670009143924A11621146096A0143116270471F
:100680008E49096A182291438C4A11621146096AFF
:10069000014311627047002806D08849496A012247
:1006A0001143864A516205E08449496A4908490074
:1006B000824A51627047814A52687B23DB039A4326
:1006C0007E4B5A601A46526803460B431A437B4BD3
:1006D0005A607047002807D078490968012212063D
:1006E0001143764A116006E0744909680122120636
:1006F0009143724A11607047002807D06F49496BD7
:100700000122120411436D4A516306E06B49496BA3
:10071000012212049143694A516370470146002047
:10072000664AD06A0009000102460A431046634A3D
:10073000D0627047002807D0604909680122D204BE
:1007400011435E4A116006E05C4909680122D20447
:1007500091435A4A1160704702460020574B58682F
:100760000002000A13060B431843544B58607047AD
:1007700001460020514A50688008800002460A4322
:1007800010464E4A506070474C4840680C21084063
:10079000704701460020494A5068F02302469A43B8
:1007A000104602460A431046444A506070470146CC
:1007B0000020424A506807231B0202469A43104613
:1007C00002460A4310463D4A506070473B4949681B
:1007D000012292039143394A51601146496882B21D
:1007E0001143364A51601146096B92159143334AC1
:1007F00011631146096B020C1143304A11637047B3
:100800002E49096B402291432C4A11631146096B12
:100810000143116370472949096B10229143274A0C
:1008200011631146096B0143116370470021010FE9
:10083000012906D1214A126B920892001F4B1A63BC
:1008400010E0022907D11D4A126B03231B049A43AF
:100850001A4B1A6306E0194A126B03239B049A434E
:10086000164B1A63154A126B0243144B1A637047F6
:100870001249096B80229143104A11631146096B9A
:10088000014311637047FEB5044600250026002091
:100890000290019000900027084840680C21084011
:1008A0000546002D06D0042D12D0082D13D00C2D96
:1008B00037D133E00548206036E0000000100240E8
:1008C0000CB8FF08FFFFF6FEACFEF0FF00127A0046
:1008D000CE48206028E0CE4840680F2189040840B7
:1008E0000646CB4840680321C90308400290B00C7B
:1008F000861C0298002803D1C648374647430BE0C0
:10090000C348C06A0007000F401C0190BF4801990E
:1009100002F060FB70430746276005E0BE48206098
:1009200002E0BA48206000BF00BFB9484068F0212B
:10093000084005462D09B948405D0090206800999F
:10094000C8406060B2484068072109020840054677
:100950002D0AB248405D009061680098C140A160D6
:10096000AB48006BFF2101310840884202D0AC48FF
:10097000E0600DE0A64840680121890308408842F4
:1009800003D0A0684008E06002E0A0688008E06052
:100990009F48006B40210840402802D0A1482061B8
:1009A00002E00120C00320619948006B102108403B
:1009B000102802D09548606101E020686061944889
:1009C000006B8007800F002802D1A068A06119E0A9
:1009D0008F48006B8007800F012802D12068A0613A
:1009E00010E08B48006B8007800F022802D1800343
:1009F000A06107E08648006B8007800F032801D1C3
:100A00008248A0618248006B032109040840002845
:100A100002D1A068E06120E07D48006B0321090459
:100A2000084001210904884202D12068E06114E0F5
:100A30007748006B032109040840012149048842DA
:100A400002D18010E06108E07148006B03210904C5
:100A50000840884201D16D48E0616D48006B032178
:100A600089040840002802D1A068206220E068487C
:100A7000006B03218904084001218904884202D1C6
:100A80002068206214E06248006B0321890408405A
:100A90000121C904884202D10011206208E05C48AB
:100AA000006B032189040840884201D15748206225
:100AB0005748006B80210840802802D05648606269
:100AC00000E06762FEBD5249096A0143504A116263
:100AD0007047002807D04E49096A0122D20311430A
:100AE0004B4A116206E04A49096A0122D203914346
:100AF000474A11627047002807D04549096A012218
:100B000012041143424A116206E04149096A012276
:100B1000120491433E4A11627047002905D03C4AB5
:100B2000526902433A4B5A6104E0394A526982439E
:100B3000374B5A617047002905D0354A9269024304
:100B4000334B9A6104E0324A92698243304B9A6196
:100B50007047002905D02E4AD26902432C4BDA6136
:100B600004E02B4AD2698243294BDA61704700299D
:100B700005D0274A926A0243254B9A6204E0244A30
:100B8000926A8243224B9A627047002905D0204A1C
:100B9000D26802431E4BDA6004E01D4AD2688243E9
:100BA0001B4BDA607047002905D0194A12690243CD
:100BB000174B1A6104E0164A12698243144B1A61FA
:100BC0007047002905D0124A527A0243104B5A72DC
:100BD00004E00F4A527A82430D4B5A7270470C4818
:100BE000406A0121090608430949486270470146E5
:100BF0000020074A92680A40002A01D0012000E044
:100C000000207047024988727047000000127A0085
:100C10000010024000093D00006CDC0200000020D2
:100C2000809FD50012800000454800688007800F33
:100C3000434908600020886000214148C16001618B
:100C400041618069FF21013108433D498861704756
:100C5000014600203A4A10688008800002460A4394
:100C60001046374A10607047002905D0344A126890
:100C70000243334B1A6004E0314A12688243304B1E
:100C80001A607047002905D02D4A126802432C4B88
:100C90001A6004E02A4A12688243294B1A6070479E
:100CA00027490968C0229143254A11601146096805
:100CB00001431160704730B500228B071C0F0F23D2
:100CC000A3401A461E4B08338C10A4001B599343B3
:100CD0001B4C08348D10AD00635123468C10A400CA
:100CE0001B598C07250F0446AC402343144C083491
:100CF0008D10AD00635130BD0146114880300A0EA1
:100D0000920080580A02120A104070470C49896903
:100D100001430B4A9161704701460020084A9269DD
:100D2000FF2301331A40002A01D0012000E00020F7
:100D30007047034989690143014A91617047000086
:100D40000000014010B50446F748844208D1012153
:100D5000C014FFF71AFF0021E014FFF716FF62E04E
:100D600001208007844208D101210846FFF71BFFBC
:100D700000210120FFF717FF55E0EC48844208D11D
:100D800001210220FFF70FFF00210220FFF70BFFD8
:100D900049E0E748844208D101211020FFF703FF12
:100DA00000211020FFF7FFFE3DE0E248844208D119
:100DB00001212020FFF7F7FE00212020FFF7F3FE9E
:100DC00031E0DD48844208D101218015FFF7EBFEB8
:100DD0000021A015FFF7E7FE25E0D848844209D19D
:100DE00001210804FFF7D1FE002101200004FFF7D4
:100DF000CCFE18E0D248844209D101214804FFF713
:100E0000C4FE002101204004FFF7BFFE0BE0CD48E7
:100E1000844208D101218804FFF7B7FE0021012098
:100E20008004FFF7B2FE10BD00220288BE4B98423C
:100E300006D001239B07984202D0BC4B984203D1B5
:100E4000C14B1A404B881A43B94B984203D0BF4B51
:100E50001A400B891A4302804B68C3620B880385D2
:100E6000B14B984208D0B54B984205D0B44B98424C
:100E700002D0B44B984201D18B7A0386012383823E
:100E800070470021C94341600021018001814180F8
:100E9000817270470185828270470A46002101886D
:100EA000A94B19400B461343194601807047416214
:100EB0007047C16270470146486A70470146088D15
:100EC0007047002904D0028802231A43028004E0FC
:100ED00002889D4B6E331A4002807047002904D06F
:100EE000028804231A43028004E00288964B6C3384
:100EF0001A4002807047002904D0028880231A43D8
:100F0000028004E00288904B103B1A400280704738
:100F100002888D4B68331A40028002880A4302809F
:100F200070470288894B1A40028002880A43028077
:100F30007047002904D0028801231A43028004E08C
:100F40000288814B6F331A40028070470A884B88B1
:100F50001A438B881A43CB881A430B891A434B894F
:100F60001A438B891A4344231A5270470021018087
:100F700041808180C1800181418181817047002948
:100F800007D04422125A0123DB031A4344231A5286
:100F900005E04422125A53045B0C4422135270475A
:100FA00070B5002400220023058C674E6F36354053
:100FB0000584028C8388048B634D2C40B51E2C4025
:100FC0000D882C43751E2A408D892A434D882A435B
:100FD000554DA84208D0594DA84205D0584DA842B9
:100FE00002D0584DA84212D1574D68352A40CD89BC
:100FF0002A43554D6C352A408D882A43524D903DE9
:101000002B40534D2B400D8A2B434D8A2B4383801D
:1010100004838D684563028470BD70B5002400228E
:101020000023058C484E603635400584028C838849
:10103000048B484D2C40454D2C400D782D062D0C31
:101040002C43414D50352A408D892D052D0C2A43C6
:101050004D882D052D0C2A43334DA84202D0374D23
:10106000A8421CD13C4D2B400D8AAD042D0C2B43C6
:101070002D4DA84213D1344D103D2A40CD892D0568
:101080002D0C2A43304D30352A408D882D052D0CEE
:101090002A43324D2B404D8AAD042D0C2B438380C7
:1010A00004838D688563028470BD70B500240022BE
:1010B0000023058C244E903E35400584028C8388A5
:1010C000848B214D2C40204D6D352C400D882C43B8
:1010D0001F4D2A400D7B2D062D0C2A438D782D06A1
:1010E0002D0C2A43104DA84217D11C4D2A408D7B50
:1010F0002D062D0C2A43184D2A400D792D062D0C56
:101100002A43174D2B40174D2B400D8A2D052D0CD2
:101110002B434D8A2D052D0C2B43838084838D68B2
:10112000C563028470BD0000002C01400004004033
:10113000001000400014004000200040004001402A
:1011400000440140004801408FFF0000FFFC000008
:10115000FFFD0000FF8F0000FFFB0000FFF7000015
:10116000FFEF0000FFDF000070B500220023002425
:10117000058CF94E35400584038C8488828BF74DAD
:101180002A40F74D2A400D782D062D0C2A43F54DA7
:101190002B400D7B2D072D0C2B438D782D072D0C0F
:1011A0002B43F14DA84205D1F04D2C400D8AAD05E1
:1011B0002D0C2C43848082838D680564038470BD6C
:1011C000002101804180818081608181C181018213
:1011D0004182704770B5034600200024184618303D
:1011E00001258D40ACB21D8CA5431D84002901D082
:1011F000082909D14D10281805687026B5430560E7
:101200000568154305600DE00D1F2D046D0C2818B1
:10121000056807263603B543056005681606360CD3
:101220003543056070BD4163704781637047C1639A
:101230007047016470470A460021018BCC4B19406E
:101240000B4613431946018370470A460021018B60
:10125000C24B194013061B0C1943018370470A4601
:101260000021818BC24B19400B46134319468183E1
:1012700070470A460021818BB84B194013061B0C9E
:10128000194381837047002904D0828801231A43BF
:10129000828004E08288B64B6F331A4082807047A8
:1012A0000A460021018BB24B683319400B461343A9
:1012B0001946018370470A460021018BAD4B194046
:1012C00013061B0C1943018370470A460021818BCA
:1012D000A74B683319400B46134319468183704767
:1012E0000A460021818BA34B194013061B0C19439E
:1012F000818370470A460021018B9D4B6C33194056
:101300000B4613431946018370470A460021018B9F
:10131000994B194013061B0C1943018370470A4669
:101320000021818B924B6C3319400B4613431946B5
:10133000818370470A460021818B8F4B1940130629
:101340001B0C1943818370470A460021018B884B8F
:10135000103B19400B4613431946018370470A4658
:101360000021018B4904490C13061B0C194301830E
:1013700070470A460021818B7D4B103B19400B467C
:1013800013431946818370470A460021818B490423
:10139000490C13061B0C1943818370470A46002130
:1013A000018C734B6E3319400B461343194601846D
:1013B00070470A460021018C6D4B683319400B467B
:1013C00013431946018470470A460021018C684B7B
:1013D0005033194013051B0C1943018470470A460A
:1013E0000021018C624B103B194013051B0C194363
:1013F000018470470A460021018C604B1940130696
:101400001B0C1943018470470A460021018C594B7B
:10141000194013061B0C1943018470470A4600212A
:10142000018C504B194013071B0C19430184704762
:1014300002894F4B68331A40028102890A430281B4
:10144000704730B5002301248C40A3B2048C9C4328
:101450000484048C15468D40ADB22C43048430BD09
:1014600030B5002304248C40A3B2048C9C43048434
:10147000048C15468D40ADB22C43048430BD002948
:1014800004D0828804231A43828004E08288384B87
:101490006C331A4082807047828B394B1A408283AA
:1014A000828B0B061B0C1A4382837047F8B50C46DF
:1014B0000021002500260096068C274F3E4006841A
:1014C000818B058C2607360C00962E4E3140160671
:1014D000360C31431E07360C31432B4E3540012765
:1014E0003F03009E3E43354381830584F8BD828BD4
:1014F0001F4B64331A408283828B0A438283704776
:10150000F8B50C460021002500260096068C184FE1
:10151000903F3E400684818B058C2606360C009653
:10152000134E833E31401E05360C16433143174E91
:101530003540FF270137009E3E43354381830584B4
:10154000F8BD028B0E4B1A400283028B0B061B0C5C
:101550001A43028370470000FFEF0000FF8F000076
:10156000FFFC0000FFDF0000002C0140FFBF000077
:101570008FFF0000FFF70000FFFB0000FFFD0000F1
:10158000FFF30000FF0C0000FF5F0000FFF500000C
:10159000F8B50C460021002500260096068CE64F83
:1015A0003E400684018B058C2605360C0096E34EE2
:1015B00031401E07360C31431606360C3143DE4EE1
:1015C000903E35401027009E3E43354301830584FD
:1015D000F8BD028BD84B1B1D1A400283028B0A43B5
:1015E00002837047F0B50C4600210025068CD24FCF
:1015F0000F373E400684018B058CCF4EE33E3140D1
:101600001E05360C16433143CB4EB61D3540012620
:101610002643354301830584F0BD70B505460C466D
:10162000208800280AD12389A28861882846FFF7EC
:10163000D9FFE1882846FFF7CCFF25E02088042861
:101640000AD12389A28861882846FFF7A1FFE18893
:101650002846FFF776FF17E0208808280AD123895B
:10166000A28861882846FFF74BFFE1882846FFF7EC
:101670003EFF09E02389A28861882846FFF716FF0C
:10168000E1882846FFF708FF70BD002101804180F6
:10169000012181800021C18001817047F8B5054694
:1016A0000C46002601276088002801D1022600E0B0
:1016B0000026A088012801D1022700E00127208808
:1016C000002814D12389A28861882846FFF78AFF61
:1016D000E1882846FFF77DFF23893A4631462846B0
:1016E000FFF756FFE1882846FFF72BFF13E0238919
:1016F000A28861882846FFF74BFFE1882846FFF75C
:1017000020FF23893A4631462846FFF76BFFE188E0
:101710002846FFF75EFFF8BD0146486B704701465B
:10172000886B70470146C86B70470146086C70476C
:10173000002A03D083890B43838102E083898B4392
:10174000838170478182704702460020138A0B40D4
:10175000002B01D0012000E000207047CA43028224
:10176000704730B50246002000230024158A0D4042
:101770002B4695890D402C46002B03D0002C01D020
:10178000012000E0002030BDCA430282704710B53E
:101790000B4613434824235210BD002A03D08389EB
:1017A0000B43838102E083898B4383817047002947
:1017B00004D0828808231A43828004E082885E4B2A
:1017C00008331A408280704701895B4A0932114010
:1017D000018170470A4600210189574B603B19403F
:1017E0000B46134319460181704730B504460D4638
:1017F00029462046FFF7EEFF208907210843208174
:1018000030BDF8B504460D4616461F46602D06D17C
:101810003B46012231462046FFF7BAFE05E03B4633
:10182000012231462046FFF7DDFE29462046FFF71C
:10183000D1FF2089072108432081F8BD30B50C462F
:1018400000210189C9B21D062D0C154325432943EA
:10185000018130BDFFB505460E46174600243A46C5
:1018600031462846039BFFF7E9FF2C8932480930AF
:10187000044007200443304860380440702004438B
:101880002C81FFBDF0B504460D4616461F463B466B
:10189000324629462046FFF7D1FF208901218903DE
:1018A00008432081F0BD8288234B603B1A40828030
:1018B00082880A438280704702891F4B09331A408D
:1018C000028102890A430281704702891A4B703BE8
:1018D0001A40028102890A4302817047F0B50C4622
:1018E0000021002500260189058B068C124F09373F
:1018F00039400F4627433946114F3D40FF270237F5
:101900003D430D4F9A3F3E401F053F0C17433E435A
:10191000018105830684F0BD002904D082888023DC
:101920001A43828004E08288034B703B1A40828015
:101930007047502211527047EFFF0000FF0C00006B
:10194000FCFC000010B50446F848844209D101218E
:101950008803FFF71AF9002101208003FFF715F92A
:1019600056E0F348844209D101214804FFF71BF9EE
:10197000002101204004FFF716F949E0ED488442B8
:1019800009D101218804FFF70EF90021012080040C
:10199000FFF709F93CE0E848844209D10121C80475
:1019A000FFF701F900210120C004FFF7FCF82FE048
:1019B000E248844209D101210805FFF7F4F800212B
:1019C00001200005FFF7EFF822E0DD48844208D14E
:1019D00001212020FFF7D9F800212020FFF7D5F8BA
:1019E00016E0D848844208D101214020FFF7CDF805
:1019F00000214020FFF7C9F80AE0D348844207D10C
:101A000001218020FFF7C1F800218020FFF7BDF8F9
:101A100010BDF0B58BB004460D46002700200A909B
:101A20000026206840084000206066680321090302
:101A3000304688430646A868064366602668C34861
:101A40000640E96868680843296908430643266038
:101A5000A6680321090230468843064668690643A2
:101A6000A6606846FEF70FFFB048844202D1069890
:101A70000A900DE0AE48844202D107980A9007E030
:101A8000AC48844202D108980A9001E002980A907A
:101A900020680121C903084000280CD029680A9A4F
:101AA000500001F097FA074629680A9A500001F0A1
:101AB00091FA0E4609E029680A9801F08BFA074668
:101AC00029680A9801F086FA0E4628684008B04254
:101AD00000D87F1C20680121C9030840002806D0D7
:101AE0003807460F38469A49084030430746A781D1
:101AF0000BB0F0BD4B21C901016000214160816044
:101B0000C1600C21016100214161704710B50022C4
:101B100042680F2424021346A3431A464C680B68FC
:101B200023438C682343CC6823431A43426010BD8F
:101B30000021016041608160C1607047002904D0CC
:101B4000026801231A43026003E00268520852004F
:101B500002607047002A03D003680B43036002E071
:101B600003688B4303607047002905D00268012396
:101B7000DB031A43026004E002680123DB039A439B
:101B800002607047002905D082680123DB021A43F6
:101B9000826004E082680123DB029A43826070471E
:101BA000002905D042680123DB041A43426004E0A7
:101BB00042680123DB049A4342607047002905D044
:101BC000426801239B041A43426004E042680123F7
:101BD0009B049A4342607047002A03D043680B433A
:101BE000436002E043688B4343607047002905D09F
:101BF00042680123DB031A43426004E04268012388
:101C0000DB039A4342607047002905D042680123F4
:101C1000DB051A43426004E042680123DB059A4376
:101C2000426070474269120E1206426142690A43DD
:101C300042617047028AFF231B021A400282028A15
:101C40000A4302827047002904D0026802231A4323
:101C5000026003E0026802239A43026070478268D0
:101C600003231B059A43826082680A43826070479F
:101C7000002905D0426801231B051A43426004E095
:101C8000426801231B059A43426070474268032360
:101C90005B059A43426042680A4342607047CA0546
:101CA000D20D028570470146888CC005C00D704773
:101CB00042681202120A426042680B061A434260EE
:101CC0007047002905D0026801235B031A430260B4
:101CD00004E0026801235B039A43026070470268D4
:101CE0000123DB029A43026002680A4302607047E4
:101CF000426810239A43426042680A434260704738
:101D0000426820239A43426042680A434260704717
:101D1000002905D0426801239B031A43426004E076
:101D2000426801239B039A43426070470038014098
:101D30000044004000480040004C0040005000407B
:101D40000014014000180140001C0140F3E9FFFFAE
:101D5000F0FF0000002904D0826808231A43826043
:101D600003E0826808239A4382607047028AD2B2F5
:101D70000282028A0B021A4302827047002904D0B1
:101D8000826820231A43826003E0826820239A43FA
:101D900082607047002904D0826810231A43826051
:101DA00003E0826810239A438260704782680723A9
:101DB0005B049A43826082684B041A4382607047D6
:101DC00042691202120A426142690B061A434261D9
:101DD0007047826804239A43826082680A43826063
:101DE0007047002904D0826802231A43826003E00E
:101DF000826802239A4382607047002905D0826876
:101E000001239B031A43826004E0826801239B0341
:101E10009A438260704782680123DB039A438260A1
:101E200082680A438260704702681F235B059A43F9
:101E3000026002684B051A430260704702681F2364
:101E40001B049A43026002680B041A430260704745
:101E5000002A03D083680B43836002E083688B43CE
:101E600083607047826801235B039A4382608268C3
:101E70000A4382607047F8B50346002400260096A6
:101E80000025002018460E04340ECEB2009601271D
:101E9000009EB7403D46022C01D1001D02E0032CFC
:101EA00000D10830002A03D006682E43066002E005
:101EB0000668AE430660F8BD002A03D0038B0B43CF
:101EC000038302E0038B8B43038370478268012303
:101ED0001B039A43826082680A438260704702460D
:101EE0000020D3690B40002B01D0012000E000202E
:101EF00070470162704770B502460B46002400210E
:101F0000002500201E04350ED9B201268E40314630
:101F1000012D02D11668314006E0022D02D156682B
:101F2000314001E0966831401C0C0126A640344641
:101F3000D6693440002903D0002C01D0012000E0F4
:101F4000002070BD10B5002300220B0C01249C4022
:101F50002246026210BD000041480068012108438A
:101F60003F490860084640684860084640680521C7
:101F7000C90408433A494860084640684860084632
:101F800000680121090608433549086000BF34484C
:101F900000680121490608400028F8D03048406810
:101FA000800880002E4948600846406802210843A6
:101FB0002B49486000BF2A4840680C210840082887
:101FC000F9D17047F8B500250024002600272448E1
:101FD00040680C2108400546002D04D0042D06D091
:101FE000082D2AD107E01F481F49086029E01D4835
:101FF0001D49086025E01A4840680F2189040840FF
:102000000446174840680321C90308400646A00C4F
:10201000841C002E04D115486043134908600BE06E
:102020000F48C06A0007000F471C39460D4800F0F2
:10203000D1FF60430C49086003E00A480A49086080
:1020400000BF00BF06484068F02108400009084969
:102050000D5C05480068E84003490860F8BD0000D1
:102060000010024000127A001000002000093D001C
:102070001400002010B500F012F900F063F900F030
:102080003BFA00F022FF00F0EBF910BD4B25AD024A
:10209000FFF7F0FF0021084600F0C4FB002404E035
:1020A000FF21084600F0E8FB641CAC42F8D34FE087
:1020B0002848007840210840002831D00920C00677
:1020C000808A490248400921C9068882214800784F
:1020D000402188431F49087000F020FF00BF802185
:1020E0001D48FFF7FCFE0028F9D01A4841881BA0C4
:1020F00000F098FF00BF80211748FFF7F0FE00288E
:10210000F9D01448818918A000F08CFF19A000F0C4
:1021100089FF104A918950880123032200F046FC70
:102120000C48007820210840002811D00948007888
:102130008843084908700021084600F073FB00241A
:1021400004E0FF21084600F097FB641CAC42F8D382
:10215000AEE70000280000200038014058D7F8B151
:10216000EA3A0925640D0A0059D7F8B1EA3A092577
:10217000640D0A000D0A0000704700BFFEE77047BB
:102180007047704710B51C491C48FFF7B4FE002883
:1021900005D01A4920318988C8B200F088F810BDEE
:1021A00010B5012000F0EBF80121C9021448FEF738
:1021B000E4F8002805D1134800784021084311496C
:1021C00008700120C002FEF710F87D20C00000F06A
:1021D000D6F8FF2101310A48FEF7CFF8002805D1D3
:1021E000084800782021084306490870FF20013084
:1021F000FDF7FBFF10BD00000501050000380140A0
:1022000000040048280000201CB501214804FEF706
:1022100084FC01218803FEF78EFC01220921C806F7
:10222000FEF7D1F801220A210920C006FEF7CBF8FB
:102230000320400200900221684601710321417190
:10224000002181710121C17169460920C006FEF794
:1022500031F81CBD00B587B0E1204002019000209C
:1022600002900390049006900C20059001A9334839
:10227000FFF7CFFB012232493048FFF7FCFD012177
:102280002E48FFF75BFC07B000BD08B51B21684670
:102290000170012141708170FEF7C4F808BD10B5CE
:1022A000FFF7B2FFFFF7D6FFFFF7EFFF10BD10B546
:1022B000044600BF80212148FFF711FE0028F9D015
:1022C00021461E48FFF7EBFC00BF40211B48FFF7EB
:1022D00006FE0028F9D010BD70B504460D4603E097
:1022E0002078FFF7E4FF641C2846691E8DB20028A1
:1022F000F6D170BD10B5044603E02078FFF7D7FF94
:10230000641C20780028F8D10A20FFF7D0FF10BD08
:1023100070B504460D46E0B2FFF7C9FF204670BD18
:1023200010B5044600BF20210448FFF7D8FD00285F
:10233000F9D00248FFF7B7FC10BD0000003801409B
:10234000050105000EB501210802FEF702FC264931
:102350002648006800F03EFE401E81B268460180BB
:10236000002141800920019068460181694620488A
:10237000FEF75AFD01211E48FEF7BDFD0EBD10B54A
:10238000044601211A48FEF7D4FD0AE000BF0121EE
:102390001748FFF7D9F90028F9D001211448FFF7B1
:1023A000DDF92046611E8CB20028EFD100211048D3
:1023B000FEF7BFFD10BD10B5044602E06420FFF734
:1023C000DEFF2046611E8CB20028F7D110BD10B58B
:1023D000044603E07D20C000FFF7EDFF2046611EAC
:1023E0008CB20028F6D110BD40420F001000002032
:1023F000002000401CB501218804FEF78EFBFF2061
:10240000013000900021684601710121C1716946C7
:102410001648FDF74FFF1CBD0EB501210846FEF71B
:102420008AFB08210120FEF746FCFF2001300190C5
:102430000021684601720C2141720121817201A8BC
:10244000FDF778FEFF200130FDF7DDFE072168462D
:1024500001700321417001218170FDF7E3FF0EBD82
:1024600010B5FFF7C7FFFFF7D7FF10BD0004004806
:1024700010B504462021FE48FDF79BFF8021FC4853
:10248000FDF795FFE0430006000A20430921C90635
:1024900088611021F648FDF78CFF4021F448FDF7D4
:1024A00088FF4021F248FDF782FF1021F048FDF738
:1024B0007EFF10BD10B504462021ED48FDF777FFE3
:1024C0008021EB48FDF773FFE0430006000A20433C
:1024D0000921C90688611021E548FDF76AFF4021FE
:1024E000E348FDF766FF4021E148FDF760FF10215A
:1024F000DF48FDF75CFF10BD1CB50121032040043F
:10250000FEF70BFB0120C00300900121684601711A
:10251000032141710021817169460920C006FDF740
:10252000C9FE082000906946D148FDF7C3FE10207F
:1025300000906946CE48FDF7BDFE20200090694618
:10254000CB48FDF7B7FE402000906946C848FDF72C
:10255000B1FE802000906946C548FDF7ABFE012121
:102560004804FEF7DAFA0920C0060068000C0004EF
:102570000921C906086008460068BE4908430921C8
:10258000C906086008468088FF2109020840092121
:10259000C90688800846808AFF210902084009216F
:1025A000C90688820821B248FDF703FF0A20FFF719
:1025B00002FF0821AE48FDF7FAFE6420FFF7FBFE9C
:1025C000B220FFF755FF0520FFF774FF0520FFF746
:1025D00071FF0020FFF76EFF3320FFF76BFF332002
:1025E000FFF768FFB720FFF743FF3220FFF762FFD6
:1025F000C220FFF73DFF0120FFF75CFFC320FFF77C
:1026000037FF0B20FFF756FFBB20FFF731FF2020DD
:10261000FFF750FFC520FFF72BFF2020FFF74AFFF1
:10262000D020FFF725FFA420FFF744FFA120FFF7EC
:1026300041FFD220FFF71CFF4C20FFF73BFFE820B3
:10264000FFF716FF0320FFF735FFE920FFF710FF24
:102650000D20FFF72FFF1220FFF72CFF0020FFF7C0
:1026600029FF3620FFF704FF0020FFF723FF352066
:10267000FFF7FEFE0020FFF71DFF3A20FFF7F8FEF0
:102680000520FFF717FFC620FFF7F2FE1120FFF726
:1026900011FFE020FFF7ECFED020FFF70BFF062034
:1026A000FFF708FF0B20FFF705FF0A20FFF702FFE7
:1026B0000920FFF7FFFE0520FFF7FCFE2E20FFF7A5
:1026C000F9FE4320FFF7F6FE4420FFF7F3FE092052
:1026D000FFF7F0FE1620FFF7EDFE1520FFF7EAFEEC
:1026E0002320FFF7E7FE2720FFF7E4FEE120FFF7B6
:1026F000BFFED020FFF7DEFE0620FFF7DBFE0B203B
:10270000FFF7D8FE0920FFF7D5FE0820FFF7D2FE1D
:102710000620FFF7CFFE2E20FFF7CCFE4420FFF768
:10272000C9FE4420FFF7C6FE3A20FFF7C3FE15207E
:10273000FFF7C0FE1520FFF7BDFE2320FFF7BAFE0E
:102740002620FFF7B7FE2120FFF792FE1120FFF7AA
:102750008FFE7820FFF72FFE2920FFF789FE322019
:10276000FFF729FE0121C9030920C006FDF71FFE5E
:102770001CBD10B50920C0060068000C000409212A
:10278000C90608600846C068000C0004C860084616
:10279000C068384908430921C906C8600846808ACC
:1027A000FF21090208400921C906888220213048FA
:1027B000FDF7FDFD40212E48FDF7F9FD10212C48C5
:1027C000FDF7F7FD80212A48FDF7F3FD0920C0063B
:1027D000008AC4B280212648FDF7E9FD1021244873
:1027E000FDF7E5FD0920C0060068000C0004092182
:1027F000C9060860084600681E4908430921C90641
:10280000086008468088FF21090208400921C9069E
:1028100088800846808AFF2108430921C9068882EA
:10282000204610BD70B504460D462A20FFF720FE55
:102830002012FFF73FFEE0B2FFF73CFE0020FFF75B
:1028400039FEF020FFF736FE2B20FFF711FE28128D
:10285000FFF730FEE8B2FFF72DFE0120FFF72AFE5A
:102860004020FFF727FE2C20FFF702FE70BD00007E
:10287000000400485555000070B504460D4620215F
:10288000A948FDF794FD8021A748FDF790FDE0439E
:102890000006000A20430921C90688611021A248C8
:1028A000FDF787FD4021A048FDF783FD40219E48AC
:1028B000FDF77DFDE8430006000A28430921C9060B
:1028C000886140219848FDF774FD40219648FDF746
:1028D0006EFD10219448FDF76AFD70BD70B5054688
:1028E0000E4614462A20FFF7C3FD2812FFF7E2FD2B
:1028F000E8B2FFF7DFFD2B20FFF7BAFD3012FFF73C
:10290000D9FDF0B2FFF7D6FD2C20FFF7B1FD202155
:102910008548FDF74CFD80218348FDF748FD2012D6
:10292000C0430006000A211208430921C906886134
:1029300010217D48FDF73DFD40217B48FDF739FD25
:1029400040217948FDF733FDE0430006000AE1B27B
:1029500008430921C906886140217348FDF729FD14
:1029600040217148FDF723FD10216F48FDF71FFD41
:1029700070BDF3B581B0044620460299FFF752FFBF
:102980003E20FFF775FDFFF7F4FEFFF7F2FE054668
:10299000FFF7EFFE0646FFF7ECFE0746E810C00221
:1029A000B11049010843F9100843FEBDFFB583B0DB
:1029B00005460E460024059807B2059840000321FD
:1029C000081A00B20290AAE00698002851D001949B
:1029D0004BE0019AB21891B22A1990B21F22D2028A
:1029E000FFF77CFF019AB21891B22A1B90B21F2206
:1029F000D202FFF773FF321991B2019AAA1A90B26C
:102A00001F22D202FFF76AFF321B91B2019AAA1A63
:102A100090B21F22D202FFF761FF019AB21A91B25F
:102A20002A1B90B21F22D202FFF758FF019AB21A56
:102A300091B22A1990B21F22D202FFF74FFF321B28
:102A400091B2019AAA1890B21F22D202FFF746FF54
:102A5000321991B2019AAA1890B21F22D202FFF73E
:102A60003DFF0198401C00B201900198B842B0DDD2
:102A70003FE0F21991B22A1990B21F22D202FFF759
:102A80002DFFF21991B22A1B90B21F22D202FFF73A
:102A900025FF321991B2EA1B90B21F22D202FFF732
:102AA0001DFF321B91B2EA1B90B21F22D202FFF728
:102AB00015FFF21B91B22A1B90B21F22D202FFF720
:102AC0000DFFF21B91B22A1990B21F22D202FFF71A
:102AD00005FF321B91B2EA1990B21F22D202FFF712
:102AE000FDFE321991B2EA1990B21F22D202FFF70D
:102AF000F5FE601C04B20298002806DAA000801DD2
:102B00000299401800B2029008E0E01B80000A30F1
:102B10000299401800B20290781E07B200BFBC4272
:102B200000DC51E707B0F0BD00040048C10000BF61
:102B30000A46491E002AFBD170477D22920142437A
:102B4000114600BF0A46491E002AFBD170471CB53A
:102B500001218804FDF7E1FF012000900121684672
:102B6000017103214171002181716946FE48FDF721
:102B7000A1FB022000906946FB48FDF79BFB022168
:102B8000F948FDF714FC0120800200906946F648E0
:102B9000FDF790FB01218902F348FDF708FC0120B5
:102BA000C0020090002168460171C1716946EE487B
:102BB000FDF780FB1CBD0EB501210846FDF7BBFFEC
:102BC0000B210120FEF777F80120C00201900021BF
:102BD000684601720C2141720121817201A8FDF742
:102BE000A9FA0120C002FDF70EFB0721684601701B
:102BF0000221417001218170FDF714FC0EBD1CB54E
:102C00000120800200900121684601710321417179
:102C1000002181716946D448FDF74CFB1CBD1CB5F1
:102C20000120800200900021684601710121C171DC
:102C30006946CD48FDF73EFB1CBD10B5FFF7DFFF31
:102C400001218902C848FDF7B2FB0221C648FDF701
:102C5000AEFB0520FFF76AFF01218902C248FDF79C
:102C6000A8FB0520FFF762FF0221BF48FDF7A1FB8B
:102C700010BD10B5FFF7C3FF0221BB48FDF799FB5C
:102C800001218902B848FDF794FB0520FFF74EFFAC
:102C90000221B548FDF78BFB0520FFF747FF012117
:102CA0008902B148FDF783FB10BD10B50221AE4883
:102CB000FDF77FFBFFF7A3FF01218902AA48FDF77B
:102CC00078FB0520FFF732FF0221A748FDF76FFBD5
:102CD0000520FFF72BFF0221A348FDF76AFB10BD7B
:102CE00010B50221A048FDF764FBFFF788FF012122
:102CF00089029D48FDF75BFB0520FFF717FF0221C6
:102D00009948FDF754FB0520FFF710FF0221964874
:102D1000FDF74FFB10BD10B50024FFF780FF012128
:102D200089029148FDF743FB0520FFF7FFFE0221D2
:102D30008D48FDF73CFB0520FFF7F8FE07E0601C1F
:102D4000C4B2FA2C03DDFFF794FF012010BD01216E
:102D500089028548FDF711FB0028F0D10221824845
:102D6000FDF727FB0020F1E770B50446FFF747FFAA
:102D700002217D48FDF71DFB0520FFF7D7FE00254A
:102D800020E080202040002805D0012189027648DB
:102D9000FDF70DFB04E0012189027348FDF709FBF3
:102DA0006006040E02217048FDF701FB0520FFF7C5
:102DB000BDFE02216C48FDF7FCFA0520FFF7B6FEC8
:102DC000681CC5B2082DDCDB70BD70B5054600245B
:102DD000FFF725FF0520FFF7A9FE082617E00221CF
:102DE0006148FDF7E6FA0520FFF7A0FE02215E48E4
:102DF000FDF7DDFA6006040E012189025A48FDF74D
:102E0000BCFA002801D0601CC4B2701EC6B2002EED
:102E1000E5DC002D02D1FFF763FF01E0FFF745FF7E
:102E2000204670BDF8B505460E46174600200090B6
:102E3000FFF703FF7020FFF797FFFFF76CFFE8B283
:102E4000FFF792FFFFF767FF00240BE0305DFFF70D
:102E50008BFFFFF760FF00900098002800D003E090
:102E6000601CC4B2BC42F1DB00BFFFF702FF009858
:102E7000F8BDF8B507460C461546FFF7DEFE702094
:102E8000FFF772FFFFF747FFF8B2FFF76DFFFFF79D
:102E900042FFFFF7D2FE7120FFF766FFFFF73BFF0F
:102EA00000260CE0691EB14201D0012100E00021A2
:102EB0000846FFF78AFF2070641C701CC6B2AE4241
:102EC000F0DBFFF7D6FE0020F8BD08B5FFF73FFEA8
:102ED000FFF771FE01212448FDF76BFA1420FFF77C
:102EE0002CFE01212048FDF762FA3C20FFF725FE69
:102EF00000210091012269460020FFF793FF16216F
:102F00000091012269468020FFF78CFF0C2100917F
:102F1000012269468820FFF785FF08BD1CB5002106
:102F2000019100200090012201A90220FFF7A1FFDA
:102F3000684600790007000F012830D10B49088846
:102F400004226946FFF795FF684600780007010DE7
:102F50006846407808180649488068468078000727
:102F6000010D6846C07805E000040048B43100084F
:102F70002800002008181649888168460078C0217A
:102F80000840802804D000201149888148801CBD59
:102F90000F480078802108430D49087015E00C485F
:102FA000007880210840002805D00948007888432F
:102FB0000749087009E000200549488088810846D3
:102FC0000078E02108400249087000BFDFE70000F8
:102FD0002800002030B50B460146002020220124A5
:102FE00009E00D46D5409D4205D31D469540491B3D
:102FF0002546954040191546521E002DF1DC30BD86
:10300000064C0125064E05E0E36807CC2B430C3C3B
:1030100098471034B442F7D3FDF750F8C031000898
:10302000E03100080FB410B503A9044B044A02981C
:1030300000F018F810BC08BC04B0184711230008B1
:103040002400002002E008C8121F08C1002AFAD19B
:1030500070477047002001E001C1121F002AFBD118
:1030600070470000FFB58DB00446002506E0252816
:103070000AD0109A0F999047641C6D1C2078002884
:10308000F5D1284611B0F0BD00270121484A00972C
:1030900000E00743641C23780846203B9840104218
:1030A000F7D120782E2817D1042007436078641CBC
:1030B0002A280CD10E98641C02C800910E900BE0D7
:1030C00000990A22514330394018641C009020783E
:1030D000014630390929F3D920780028D1D0642855
:1030E00008D0692806D075281ED0109A0F999047ED
:1030F0006D1C5BE00A200E99019001C90E91002819
:1031000002DA40422D2102E0390504D52B216A461E
:103110001172012103E0F90704D02021F7E70BAE7B
:103120000B910DE00021FAE70A200E99019001C9E8
:103130000E91F7E70199FFF74DFF3031761E3170A0
:103140000028F7D103A8801B20300190780701D513
:10315000009801E0012000900199884201DD401AA9
:1031600000E000200027009006E002A8109AC05D51
:103170000F9990476D1C7F1C0B988742F5DB04E08C
:10318000109A30200F9990476D1C0099481E0090AE
:103190000029F5DC05E03078109A761C0F999047ED
:1031A0006D1C0199481E01900029F4DC641C65E740
:1031B00009280100030009000F0015001B00000092
:1031C000E031000800000020280000004430000822
:1031D00008320008280000201804000054300008BD
:1031E00000000000010203040102030406070809AD
:1031F000006CDC020000000000000000010203047B
:083200000607080900000000A8
:04000005080000B53A
:00000001FF
