:020000040800F2
:10000000889000204501000895120008971200080A
:100010009B1200089F120008A312000800000000B5
:10002000000000000000000000000000A71200080F
:10003000A912000800000000AB120008AD12000871
:100040005F0100085F0100085F0100085F01000810
:100050005F0100085F0100085F0100085F01000800
:100060005F0100085F0100085F0100085F010008F0
:100070005F0100085F0100085F0100085F010008E0
:100080005F0100085F0100085F0100085F010008D0
:100090005F0100085F0100085F0100085F010008C0
:1000A0005F0100085F0100085F0100085F010008B0
:1000B0005F0100085F0100085F0100085F010008A0
:1000C0005F0100085F0100085F0100085F01000890
:1000D0005F010008C31200085F0100085F0100080B
:1000E0005F0100085F0100085F0100085F01000870
:1000F0005F0100085F0100085F0100085F01000860
:100100005F0100085F0100085F0100085F0100084F
:100110005F0100085F0100085F0100085F0100083F
:100120005F0100085F0100085F0100085F0100082F
:10013000DFF80CD003F0FAF9004800475512000828
:10014000889000200648804706480047FEE7FEE703
:10015000FEE7FEE7FEE7FEE7FEE7FEE7FEE7FEE777
:1001600047020008310100080CB500200190009002
:100170006C48006840F480306A49086000BF6948F4
:10018000006800F4003000900198401C0190009835
:1001900018B90198B0F5A06FF1D16248006800F479
:1001A000003010B10120009001E000200090009884
:1001B000012843D15C48006840F010005A490860AB
:1001C0000846006820F0030008600846006840F018
:1001D0000200086053484068524948600846406839
:1001E00048600846406840F48060486008464068BF
:1001F00020F47C1048600846406840F4E8104860ED
:100200000846006840F08070086000BF45480068FC
:1002100000F000700028F9D04248406820F0030048
:10022000404948600846406840F00200486000BF0E
:100230003C48406800F00C000828F9D10CBD10B50E
:10024000FFF792FF10BD10B53648006840F001007E
:1002500034490860084640683449084031494860DC
:1002600008460068324908402E4908600846006880
:1002700020F4802008600846406820F4FE004860B2
:100280004FF41F008860FFF7DAFF4FF00060294944
:10029000086010BD10B5002100200022214B5B68D2
:1002A00003F00C0121B1042906D0082928D107E068
:1002B000214B224C236027E01F4B204C236023E07E
:1002C000184B5B6803F47010164B5B6803F48032C4
:1002D000022303EB904022B9194B4343174C236090
:1002E0000DE0104B5B6803F4003323B1144B434320
:1002F000124C236003E0104B4343104C236003E097
:100300000D4B0E4C236000BF00BF064B5B68C3F370
:1003100003130C4CE15C094B1B68CB40074C23607A
:1003200010BD000000100240002002400000FFF855
:10033000FFFFF6FE08ED00E000127A00000000204A
:1003400000093D000400002031490143314A116099
:10035000704770B5002100230F22C47804B32D4CE0
:10036000246804F4E064C4F5E064210AC1F10403E4
:10037000CA40447804FA03F1847814402143090107
:10038000254C0678A155047804F01F050124AC40E3
:1003900005786D11AD0005F1E025C5F8004109E0D3
:1003A000047804F01F050124AC401C4D067876113A
:1003B00045F8264070BD1A4A0A400243154B1B1FE0
:1003C0001A60704739B1134A121D12680243114B6B
:1003D0001B1D1A6006E00F4A121D126882430D4B66
:1003E0001B1D1A607047042808D14FF0E0210969ED
:1003F00041F004014FF0E022116107E04FF0E021ED
:10040000096921F004014FF0E022116170470000FA
:100410000000FA050CED00E000E400E080E100E0FF
:1004200080FFFF1F10B50446CC48844208D101214B
:10043000042000F02DFB0021042000F029FB46E001
:10044000C748844208D10121082000F021FB002187
:10045000082000F01DFB3AE0C248844208D1012187
:10046000102000F015FB0021102000F011FB2EE001
:10047000BD48844208D10121202000F009FB002161
:10048000202000F005FB22E0B848844208D1012179
:10049000402000F0FDFA0021402000F0F9FA16E0BB
:1004A000B348844208D10121802000F0F1FA0021F4
:1004B000802000F0EDFA0AE0AE48844207D1012125
:1004C000801500F0E5FA0021A01500F0E1FA10BD5A
:1004D00010B50121084600F0DBFA0021012000F0F0
:1004E000D7FA10BD2DE9F041024600250026002074
:1004F00000230024002791F803C00CF00F0591F8A9
:1005000003C00CF0100CBCF1000F03D091F802C036
:100510004CEA050591F800C0BCF1000F31D0146819
:1005200000202BE04FF0010C0CFA00F3B1F800C0F2
:100530000CEA03069E4220D183004FF00F0C0CFA08
:1005400003F7BC4305FA03FC4CEA040491F803C02A
:10055000BCF1280F06D14FF0010C0CFA00FCC2F8D8
:1005600014C00AE091F803C0BCF1480F05D14FF068
:10057000010C0CFA00FCC2F810C0401C0828D1D3B2
:100580001460B1F800C0BCF1FF0F34DD54680020E6
:100590002EE000F1080C4FF0010808FA0CF3B1F856
:1005A00000C00CEA03069E4221D183004FF00F0CDD
:1005B0000CFA03F7BC4305FA03FC4CEA040491F877
:1005C00003C0BCF1280F05D100F1080C08FA0CF8A3
:1005D000C2F8148091F803C0BCF1480F07D100F1B4
:1005E000080C4FF0010808FA0CF8C2F81080401C03
:1005F0000828CED35460BDE8F0814FF6FF7101802A
:10060000022181700421C170704702460020936866
:100610000B400BB1012000E00020704701468868C4
:1006200080B2704702460020D3680B400BB1012016
:1006300000E0002070470146C86880B27047016141
:100640007047416170470AB1016100E04161704744
:10065000C16070474FF480320A43826181618261D8
:1006600082698269704702460020434B18684FF642
:100670008073184040EA021008433F4B18607047EF
:100680003E49C8617047F0B50A46002300240021A6
:10069000002500F00046B6F1004F02D1364EF16958
:1006A00001E0354E7168C0F3034583B200F4401693
:1006B000B6F5401F08D121F070612F4E766826F004
:1006C00070662D4F7E6012E000F48016B6F5801F34
:1006D00006D1032606FA05F4A14341F0706106E055
:1006E000460D360103FA06F6B14341F0706122B1BE
:1006F000460D360103FA06F6314300F00046B6F126
:10070000004F02D11C4EF16101E01B4E7160F0BD43
:1007100030B500228B071C0F0F2303FA04F2164B8F
:1007200008338C1053F824309343134C08348D1045
:1007300044F8253023468C1053F824308C07240FBE
:1007400000FA04F423430C4C08348D1044F825308F
:1007500030BD0A49DC3108607047000000080140E4
:10076000000C01400010014000140140001801403D
:10077000001C014000200140000001400000204218
:10078000DF48006840F00100DD4908600846406825
:10079000DC490840DA49486008460068DA49084000
:1007A000D74908600846006820F4802008600846A1
:1007B000406820F4FE0048604FF41F0088607047D6
:1007C000CF49096821F48031CD4A1160114609688A
:1007D00021F480211160B0F5803F03D0B0F5802F67
:1007E0000ED106E0C649096841F48031C44A11605F
:1007F00007E0C349096841F4A021C14A116000E043
:1008000000BF00BF704710B5014600220023002042
:100810004A11012A02D1BA4C236806E0022A02D109
:10082000B74C236A01E0B64C636A01F01F02012451
:1008300094401C400CB1012000E0002010BD38B5F0
:10084000002000900024002500BF3120FFF7DBFFCF
:1008500005460098401C00900098B0F5A06F01D0AC
:10086000002DF2D03120FFF7CEFF08B1012400E0C7
:100870000024204638BD01460020A14A106820F01F
:10088000F80040EAC10010607047A0490860704756
:10089000024600209A4B586820F47C1042EA01037B
:1008A0001843974B5860704798490866704701464F
:1008B0000020934A506820F00300084350607047BE
:1008C0008F48406800F00C007047014600208C4AB9
:1008D000506820F0F0000843506070470146002047
:1008E000874A506820F4E060084350607047014632
:1008F0000020834A506820F4605040EAC1005060F4
:10090000704729B17E4A527A02437D4B5A7204E005
:100910007B4A527A82437A4B5A7270477B49D8316C
:100920000860704701460020754A506820F4404036
:100930000843506070470021714A20321170704A9C
:1009400082F82010012802D004280AD104E00121F5
:100950006B4A2032117005E00521694A203211707E
:1009600000E000BF00BF70476949086070476449F4
:10097000096A0143624A1162704765494439086057
:10098000704730B500210022002400235C4D6D68C3
:1009900005F00C0121B1042905D0082923D105E077
:1009A0005C4D056022E05B4D05601FE0544D6D68B5
:1009B00005F47012524D6D6805F48034022505EB84
:1009C00092421CB9544D554305600BE04C4D6D6887
:1009D00005F400351DB1504D5543056002E04D4D05
:1009E0005543056002E04B4D056000BF00BF444D1C
:1009F0006D6805F0F0010909484D6B5C0568DD4044
:100A000045603F4D6D6805F4E061090A434D6B5C3C
:100A10004568DD4085603A4D6D6805F46051C90A4E
:100A20003E4D6B5C4568DD40C560354D6D6805F435
:100A30004041890B3A4D6B5CC568B5FBF3F5056128
:100A400030BD29B12E4A526902432D4B5A6104E050
:100A50002B4A526982432A4B5A61704729B1284A6E
:100A600092690243264B9A6104E0254A92698243C7
:100A7000234B9A61704729B1214AD2690243204B26
:100A8000DA6104E01E4AD26982431D4BDA61704785
:100A900029B11B4AD2680243194BDA6004E0184AB4
:100AA000D2688243164BDA60704729B1144A126942
:100AB0000243134B1A6104E0114A12698243104B3E
:100AC0001A61704712494039086070470F49C8647D
:100AD00070470B49C87170470948406A40F0807000
:100AE00007494862704701460020054A92680A405B
:100AF0000AB1012000E00020704701498872704768
:100B0000001002400000FFF8FFFFF6FE0000424226
:100B10008004424200127A0000093D0014000020C7
:100B20002400002010B50446BE48844208D10121AB
:100B30008014FFF7ADFF0021A014FFF7A9FF16E016
:100B4000B948844208D101210014FFF7AEFF00210B
:100B50002014FFF7AAFF0AE0B448844207D101211C
:100B6000C013FFF7A2FF0021E013FFF79EFF10BDA7
:100B700010B50022028802F441520B884C882343AE
:100B80008C882343CC8823430C8923434C892343FB
:100B90008C892343CC8923431A430280838B4FF2F1
:100BA000FF74234083830B8A038210BD2DE9F04F2D
:100BB00085B005460C464FF0000902274FF00008AB
:100BC0004FF0010B0026B246A88B4FF240010840BF
:100BD000A88302202884B5F81C90A068022801D1BF
:100BE00000BF38E0A08810B94FF0010B01E04FF0D2
:100BF000020B8D48854200D100E000BF6846FFF738
:100C0000C0FEDDF800A0E088B0F5007F0AD14FEA11
:100C10001A2000EB80004000A168B0FBF1F0401DFD
:100C200086B20BE04FEA4B10BAFBF0F000EB80000D
:100C30004000A168B0FBF1F0401D86B20A20B6FB6F
:100C4000F0F606F00108A6EB0800C0F34F074FF6D8
:100C5000FF7000EA0828022F01DBFF2F02DD0227C8
:100C60004FF00008E08840EA080038432884A08854
:100C7000A1890843618808432188084340F4006043
:100C800040EA0909A5F81C9005B0BDE8F08F0021E5
:100C9000018041808180C180018141818181C18148
:100CA0000721018270470021018041808180C1803D
:100CB0000221816000218181704721B1028842F0C8
:100CC0004002028004E002884FF6BF731A4002809F
:100CD000704721B1828B42F48062828304E0828B70
:100CE0004FF6FF331A408283704730B5002400234B
:100CF0000C110125A540ABB21AB185881D43858032
:100D000002E085889D43858030BD1AB183880B43FE
:100D1000838002E083888B438380704781817047A2
:100D20000146888970474FF6FF62914204D00288DD
:100D300042F48072028004E002884FF6FF631A409A
:100D40000280704721B1828842F00402828004E070
:100D500082884FF6FB731A408280704702884FF2F8
:100D6000FF731A40028002880A430280704701889C
:100D700041F480510180704721B1028842F4005251
:100D8000028004E002884DF6FF731A40028070472B
:100D900002460020012901D0108B00E0908A7047A4
:100DA0000146088A7047B1F5804F04D1028842F4A9
:100DB0008042028004E002884BF6FF731A400280F2
:100DC00070470246002013890B400BB1012000E060
:100DD00000207047CA4302817047F0B502460020E8
:100DE00000240023002501F00F070126BE40B4B205
:100DF0000B1101269E40B3B2968806EA03051689B8
:100E0000264016B10DB1012000E00020F0BD10B564
:100E1000002201F00F040123A3409AB2D3430381BF
:100E200010BD00000030014000380040003C004090
:100E300010B50446FB48844209D101218803FFF71D
:100E400027FE00214FF48040FFF722FE32E0F648F3
:100E5000844209D101214804FFF727FE00214FF405
:100E60000030FFF722FE25E0F048844209D101213D
:100E70008804FFF71AFE00214FF48020FFF715FECB
:100E800018E0EB48844209D10121C804FFF70DFEA8
:100E900000214FF40020FFF708FE0BE0E5488442F4
:100EA00008D101210805FFF700FE00214FF4801052
:100EB000FFF7FBFD10BD2DE9F04786B005460E4655
:100EC0000024A24600BFA1460027B08900B100BFA0
:100ED0002F462C8A4CF6FF700440F08804432C8285
:100EE000AC894EF6F3100440B0883189084371890B
:100EF00008430443AC81AC8A4FF6FF400440B089FC
:100F00000443AC8201A8FFF73CFDC648874202D1EA
:100F1000DDF810A001E0DDF80CA0A88900F4004085
:100F200040B10AEBCA0000EB0A1031684900B0FB7F
:100F3000F1F807E00AEBCA0000EB0A1031688900FB
:100F4000B0FBF1F86420B8FBF0F004012009642143
:100F500001FB1089A88900F4004040B1322000EB69
:100F6000C900B0FBF1F000F00700044308E03220B4
:100F700000EB09106421B0FBF1F000F00F00044316
:100F80002C8106B0BDE8F0874FF4165101600021B6
:100F90008180C18001810C214181002181817047C4
:100FA00010B502460020108A4FF2FF0318400B884C
:100FB0004C8823438C882343CC88234318431082D6
:100FC00010BD0021018041808180C180704721B126
:100FD000828942F40052828104E082894DF6FF73D7
:100FE0001A4082817047F0B5034600240026002590
:100FF000002040F66A17B94200D100BF1846C1F37D
:10100000421401F01F06012707FA06F5012C01D151
:101010000C3004E0022C01D1103000E014301AB181
:1010200007682F43076002E00768AF430760F0BD21
:101030001AB1838A0B43838202E0838A8B438382C3
:101040007047028A4FF6F0731A400282028A0A43FE
:101050000282704782894FF2FF731A40828182892F
:101060000A438281704721B1828942F00202828163
:1010700004E082894FF6FD731A4082817047028A2C
:101080004FF6DF731A400282028A0A4302827047D7
:1010900021B1028A42F48042028204E0028A4BF6C5
:1010A000FF731A4002827047C1F3080282807047C2
:1010B00001468888C0F308007047818941F001012A
:1010C00081817047028BD2B20283028B42EA0122F5
:1010D00002837047028B02F47F420283028B0A4331
:1010E0000283704721B1828A42F02002828204E0AA
:1010F000828A4FF6DF731A408282704721B1828A5A
:1011000042F01002828204E0828A4FF6EF731A40A6
:101110008282704721B1828A42F00802828204E012
:10112000828A4FF6F7731A408282704721B1828912
:1011300042F40042828103E08289C2F30E0282817E
:10114000704721B1828A42F40062828204E0828A7E
:101150004FF2FF731A4082827047828A4FF6FB7308
:101160001A408282828A0A438282704721B1828A2F
:1011700042F00202828204E0828A4FF6FD731A4036
:101180008282704702460020B1F5007F00D100BF87
:1011900013880B400BB1012000E00020704701F4E0
:1011A0000072B2F5007F00D100BFCA4302807047D1
:1011B00070B50246002400230025002040F66A1680
:1011C000B14200D100BFC1F3421501F01F03012657
:1011D00006FA03F3012D02D19689334006E0022D71
:1011E00002D1168A334001E0968A33400C12012660
:1011F00006FA04F41688344013B10CB1012000E063
:10120000002070BD10B50022002340F66A14A142F0
:1012100000D100BF0A1201249440A3B2DC43048031
:1012200010BD00000038014000440040004800406C
:10123000004C00400050004010B500F047F800F0AE
:10124000B2F800F015F901214020FFF7FAFB05F094
:10125000CBF810BD10B5FFF7EFFF6FF07F4005F042
:10126000E5FE0A22114605A004F0F6FC4FF4FA60F0
:1012700004F05CFC01F0A2FC002010BD5354656D2D
:1012800057696E20537065656420746573742044DB
:10129000656D6F00704700BFFEE700BFFEE700BF4F
:1012A000FEE700BFFEE770477047704705480088BB
:1012B000401E0449088004480068401C0249086038
:1012C00070477047280000202C00002030B52848C7
:1012D00000684FF47A72B0FBF2F1B1F1807F01D374
:1012E00001201DE021F07F40401E4FF0E0225061C0
:1012F00050170F22002807DA13071D0E1D4B00F0B0
:101300000F04241F1D5503E013071C0E1A4B1C5419
:1013100000BF00204FF0E022906107201061002004
:1013200008B100BFFEE730BD06E00C2100BF0A1E79
:10133000A1F10103D9B2FAD1021EA0F1010398B2C2
:10134000F3D170470D49088000BF0C490988002976
:10135000FBD1704700B5024603E04FF47A70FFF707
:10136000F1FF101EA2F101018AB2F6D100BD00000A
:101370000000002018ED00E000E400E0280000205C
:1013800008B54FF4A060FEF7DFFF25208DF80000C0
:1013900001208DF801008DF802008DF803006846E9
:1013A000FEF7D7FF08BD00B585B001210420FFF787
:1013B00055FB01218803FFF751FB4FF40070ADF896
:1013C000100018208DF8130003208DF8120004A9D6
:1013D0002548FFF787F84FF48060ADF8100004202F
:1013E0008DF8130004A92048FFF77CF84FF4E13092
:1013F00000900020ADF80400ADF80600ADF808003C
:10140000ADF80C000C20ADF80A0069461748FFF74C
:1014100052FDFFF7B5FF012240F225511348FFF7B7
:10142000E2FD01211148FFF7D2FD05B000BD70B506
:1014300004460D46E1B20D48FFF736FE00BF80219D
:101440000A48FFF79FFE0028F9D0204670BD10B56E
:10145000044600BF20210548FFF794FE0028F9D07C
:101460000248FFF725FE10BD00080140003801408A
:1014700000B587B001210803FFF7F0FA0121D4205D
:10148000FFF7ECFA0120ADF8040003208DF8060008
:1014900010208DF8070001A94548FFF723F8202008
:1014A000ADF8040018208DF8070001A94148FFF7A6
:1014B00019F84020ADF8040001A93E48FFF712F8E2
:1014C0008020ADF8040001A93A48FFF70BF801218C
:1014D0003748FFF7B4F80020ADF808004FF48270E9
:1014E000ADF80A000020ADF80C00ADF80E00ADF824
:1014F00010004FF40070ADF812000020ADF8140099
:10150000ADF816000720ADF8180002A92A48FFF729
:101510002FFB01212848FFF7D0FB07B000BD10B515
:10152000044600212448FFF7C8FB082C04D1002101
:101530002148FFF713FC05E0102C03D1E1011E4800
:10154000FFF70CFC01211C48FFF7B7FB10BD10B5DD
:10155000044600BF02211848FFF733FC0028F9D0E9
:1015600021461548FFF7DAFB00BF01211248FFF7BB
:1015700028FC0028F9D01048FFF7D2FBC0B210BDFC
:1015800010B5044600BF02210B48FFF71AFC0028E3
:10159000F9D021460848FFF7C1FB00BF01210648EA
:1015A000FFF70FFC0028F9D00348FFF7B9FB10BD87
:1015B00000100140000801400030014008B5012141
:1015C0001420FFF74BFA0420ADF8000003208DF83B
:1015D000020010208DF803006946F948FEF782FFEB
:1015E0000820ADF800006946F548FEF77BFF4FF490
:1015F0008070ADF800006946F148FEF773FF0421E2
:10160000EF48FFF71CF808BD10B504460121ED486E
:10161000FFF717F84FF48071E948FFF712F82046FA
:10162000FFF795FF0121E748FFF709F810BD10B556
:1016300004460121E348FFF704F84FF48071E048C5
:10164000FEF7FDFF2046FFF782FF0121DD48FEF790
:10165000F6FF10BD10B50121DA48FEF7F2FF4FF496
:101660008071D748FEF7EBFFFF20FFF770FF0446BD
:101670000121D448FEF7E3FF204610BD10B5044613
:101680000121D048FEF7DDFF4FF48071CC48FEF712
:10169000D6FF2046FFF774FF0121CA48FEF7CFFFAF
:1016A00010BD10B50821C648FEF7CBFF0A20FFF792
:1016B00049FE0821C248FEF7C2FF6420FFF742FE40
:1016C000B220FFF7A1FF0C20FFF7B1FF0C20FFF7BE
:1016D000AEFF0020FFF7ABFF3320FFF7A8FF33205A
:1016E000FFF7A5FFB720FFF78FFF0220FFF79FFF4F
:1016F000C220FFF789FF0120FFF799FFC320FFF702
:1017000083FF1620FFF793FFBB20FFF77DFF3C20F0
:10171000FFF78DFFC520FFF777FF2020FFF787FF3A
:10172000D020FFF771FFA420FFF781FFA220FFF771
:101730007EFFD220FFF768FF4C20FFF778FFE820FC
:10174000FFF762FF8320FFF772FFE920FFF75CFFDE
:101750000920FFF76CFF0920FFF769FF0820FFF75A
:1017600066FF3620FFF750FF0020FFF760FF3520AF
:10177000FFF74AFF0020FFF75AFF3A20FFF744FF28
:101780000520FFF754FFC620FFF73EFF0D20FFF7AF
:101790004EFFE020FFF738FFD020FFF748FF06207C
:1017A000FFF745FF0C20FFF742FF0920FFF73FFF3F
:1017B0000920FFF73CFF2520FFF739FF2E20FFF718
:1017C00036FF3320FFF733FF4520FFF730FF362089
:1017D000FFF72DFF1220FFF72AFF1220FFF727FF48
:1017E0002E20FFF724FF3420FFF721FFE120FFF731
:1017F0000BFFD020FFF71BFF0620FFF718FF0C2080
:10180000FFF715FF0920FFF712FF0920FFF70FFF71
:101810002520FFF70CFF2E20FFF709FF3320FFF7ED
:1018200006FF4520FFF703FF3620FFF700FF1220D9
:10183000FFF7FDFE1220FFF7FAFE2E20FFF7F7FE5E
:101840003420FFF7F4FE2120FFF7DEFE1120FFF722
:10185000DBFE7820FFF776FD2920FFF7D5FE32204A
:10186000FFF770FD04215648FEF7EBFE10BD10B5E2
:10187000FFF7A4FEFFF715FF10BD70B504460D4637
:101880002B20FFF7C1FE2012FFF7D1FEE0B2FFF7D9
:10189000CEFE2812FFF7CBFEE8B2FFF7C8FE70BD00
:1018A00070B504460D462A20FFF7AEFE2012FFF762
:1018B000BEFEE0B2FFF7BBFE2812FFF7B8FEE8B2AB
:1018C000FFF7B5FE70BD70B504464FF46145EF21DA
:1018D0000020FFF7D2FFEF210020FFF7E1FF2C20CF
:1018E000FFF792FE01213748FEF7ABFE4FF48071FF
:1018F0003348FEF7A4FE02E02046FFF741FE281E13
:10190000A5F101018DB2F7D101212E48FEF797FE16
:1019100070BD2DE9F04707460C4615461E46DDF81A
:10192000208029463846FFF7BBFF31462046FFF7A7
:10193000A4FFE81B401C311B491C00FB01F92C20B3
:10194000FFF762FE01211F48FEF77BFE4FF4807116
:101950001B48FEF774FE1020FFF7E1FD02E0404651
:10196000FFF70EFEB9F10000A9F10109F7D101213D
:101970001448FEF764FE0820FFF7D1FDBDE8F087AC
:1019800070B504460D4616462A20FFF73DFE20128C
:10199000FFF74DFEE0B2FFF74AFE2B20FFF734FEC3
:1019A0002812FFF744FEE8B2FFF741FE2C20FFF7B4
:1019B0002BFE3012FFF73BFEF0B2FFF738FE70BD92
:1019C00000080140001001402DE9F04704460D4693
:1019D0002A20FFF719FE2012FFF729FEE0B2FFF7D9
:1019E00026FE2B20FFF710FE2812FFF720FEE8B29C
:1019F000FFF71DFE3E20FFF707FEFFF72BFE064612
:101A0000FFF728FE0746FFF725FE8046FFF722FE78
:101A10008146300640EA074040EA082040EA0900D3
:101A2000BDE8F087084800687047074A1268111837
:101A300000BF054A12688A1A002AFADC704770470C
:101A400070477047704770472C00002010B54FF466
:101A5000F041034803F04CFC024805F0F3FA10BDD6
:101A6000B0050020247402082DE9F04107460C4619
:101A700015461E46B2B2A9B2A0B2FFF781FFBDE87B
:101A8000F08110B50346002010BD2DE9F041044659
:101A90000D461646324629462046FFF7F2FF074616
:101AA000216988688047804687EA080332462946CC
:101AB0002046FFF7D9FFBDE8F0812DE9F84F8146B8
:101AC0000D4614461E46DDF82880FA480068C06BB3
:101AD000D0F800A0F7480068007C00F0010070B169
:101AE0000AE02F4605E0224639464846FFF7CDFF7B
:101AF0007F1CB742F7DD641C4445F2DD09E01FFAA4
:101B00008AF01FFA88F3B2B2A1B20090A8B2FFF730
:101B100000FFBDE8F88FF8B505460E4614461F468F
:101B20003B462246314628460094FFF7C6FFF8BDE3
:101B3000F8B506460C4617461D4623463A4621464A
:101B400030460095FFF7B9FFF8BD2DE9FF4F83B090
:101B500081460E461C46DDE9117A109DDAF8000038
:101B60000290DAF8040001902E44D2480068007C0C
:101B700000F0030030B1012836D002281CD0032821
:101B800055D130E000BF207880222A41104008B1B2
:101B9000019800E0029803463146761C4846059AB3
:101BA000FFF762FF681C0546082801D10025641C68
:101BB000781E071EE7D13AE000BF20788021294136
:101BC000084028B131464846019B059AFFF74CFF73
:101BD000761C681C0546082801D10025641C781E67
:101BE000071EEAD123E000BFD9F8101088688047AB
:101BF000804600BF207880212941084060B13146ED
:101C00004846059AFFF73DFF83468BEA08033146B5
:101C10004846059AFFF728FF761C681C05460828E9
:101C200001D10025641C781E071EE3D100BF00BF50
:101C300007B0BDE8F08F2DE9FF4F81B00F46984601
:101C4000DDE90F9A98F800B00E9D0E9D2F4499483B
:101C50000068007C00F0030010B102284BD14BE07B
:101C6000BAF1000F25D000BFC5F103004400C4F154
:101C70000601C020084100EA0B0020FA04F65AF8D9
:101C80002600009039467F1CDDE90030039AFFF7FB
:101C9000EBFE681C0546042805D1002508F101006B
:101CA000804690F800B0A9F10100B0F10009DBD145
:101CB00021E000BFC5F103004400C4F10601C020CB
:101CC000084100EA0B0020FA04F639467F1C33462F
:101CD000039A0198FFF7C8FE681C0546042805D141
:101CE000002508F10100804690F800B0A9F101003C
:101CF000B0F10009DED14DE0BAF1000F26D000BFEF
:101D0000C5F103004400C4F10601C020084100EA07
:101D10000B0020FA04F646B15AF826000090394626
:101D2000DDE90030039AFFF79FFE7F1C681C054623
:101D3000042805D1002508F10100804690F800B084
:101D4000A9F10100B0F10009DAD122E000BFC5F12C
:101D500003004400C4F10601C020084100EA0B0062
:101D600020FA04F62EB133463946039A0198FFF75C
:101D70007BFE7F1C681C0546042805D1002508F160
:101D80000100804690F800B0A9F10100B0F100090F
:101D9000DDD100BF00BF05B0BDE8F08F2DE9FF4FDA
:101DA00081B00F469846DDE90F9A98F800B00E9D75
:101DB0000E9D2F443F480068007C00F0030010B1E6
:101DC00002284BD14BE0BAF1000F25D000BFC5F17E
:101DD00001008400C4F10401F020084100EA0B0076
:101DE00020FA04F65AF82600009039467F1CDDE9F7
:101DF0000030039AFFF738FE681C0546022805D11B
:101E0000002508F10100804690F800B0A9F101001A
:101E1000B0F10009DBD121E000BFC5F10100840071
:101E2000C4F10401F020084100EA0B0020FA04F696
:101E300039467F1C3346039A0198FFF715FE681C4C
:101E40000546022805D1002508F10100804690F8DA
:101E500000B0A9F10100B0F10009DED150E0BAF103
:101E6000000F29D000BFC5F101008400C4F10401B6
:101E7000F020084100EA0B0020FA04F646B15AF8B7
:101E8000260000903946DDE90030039AFFF7ECFDAB
:101E90007F1C681C0546022805D1002508F10100B9
:101EA000804690F800B0A9F10100B0F10009DAD144
:101EB00025E000007C00002000BFC5F10100840087
:101EC000C4F10401F020084100EA0B0020FA04F6F6
:101ED0002EB133463946039A0198FFF7C5FD7F1CA2
:101EE000681C0546022805D1002508F1010080463E
:101EF00090F800B0A9F10100B0F10009DDD100BFF8
:101F000000BF05B0BDE8F08F2DE9F04781460F46D0
:101F100092461C46DDE90858EF480068007C00F056
:101F2000030010B1022841D11EE0B8F1000F0ED01D
:101F30000AE0267858F82630524639464846FFF7D8
:101F400093FD6D1E7F1C641C002DF2DC0BE008E08D
:101F50002378524639464846FFF786FD6D1E7F1CA2
:101F6000641C002DF4DC21E0B8F1000F0FD00BE071
:101F7000267836B158F82630524639464846FFF79B
:101F800073FD6D1E7F1C641C002DF1DC0DE00AE06A
:101F900026782EB13346524639464846FFF764FD4F
:101FA0006D1E7F1C641C002DF2DC00BF00BFBDE86D
:101FB000F0872DE9F04107460D4690461C46069EE7
:101FC00008E02388424629463846FFF74DFD761E35
:101FD0006D1CA41C002EF4DCBDE8F0812DE9F0415D
:101FE00007460D4690461C46069E08E04246294696
:101FF00038462368FFF738FD761E6D1C241D002E21
:10200000F4DCBDE8F0812DE9FF4F83B015461E4694
:10201000DDE914BADDE91297DDF84080119808284F
:102020003FD006DC012809D0022818D0042863D14B
:1020300026E0102844D020285ED14FE000240BE099
:1020400062193B46CDE900B6CDF808A0DDE90301F1
:10205000FFF77BFD4F44641C4445F1DB4CE000245A
:102060000BE062193B46CDE900B6CDF808A0DDE9EA
:102070000301FFF7E0FD4F44641C4445F1DB3BE006
:1020800000240BE062193B46CDE900B6CDF808A06C
:10209000DDE90301FFF782FE4F44641C4445F1DB98
:1020A0002AE0002409E062193B46CDE9006ADDE937
:1020B0000301FFF729FF4F44641C4445F3DB1BE099
:1020C000002408E062193B460096DDE90301FFF7B2
:1020D00070FF4F44641C4445F4DB0DE0002408E02D
:1020E00062193B460096DDE90301FFF777FF4F4495
:1020F000641C4445F4DB00BF00BF07B0BDE8F08FAF
:1021000070B50446A06858B91C2003F037F9A060E8
:10211000A568216988688047064606F0B9FFA8616E
:10212000A06808B9012070BD0020FCE703460A46FC
:1021300099680F2A1FD2DFE802F01E080A0C0E1E53
:102140001E1E10121416181A1C0048687047886862
:10215000FCE7C868FAE70869F8E78869F6E700204D
:10216000F4E70120F2E70120F0E70020EEE700208D
:10217000ECE70020EAE74FF0FF30E7E702460129ED
:1021800001D1564870470020FCE7826800230B808D
:102190004B8093895B1E1BB28B80138A5B1E1BB224
:1021A000CB8070477CB504460D4616460020009053
:1021B0000190009501966A460321A06900F0B0F8ED
:1021C0007CBDF8B504460D46002000902046FFF780
:1021D00097FFA06838B1A668356000956A4602216D
:1021E000A06900F09DF8F8BD2DE9F04105460E46C6
:1021F00017462846FFF784FFA86818B1AC68E66068
:1022000027616661BDE8F0812DE9FC4105460E4677
:1022100017460020009001902846FFF771FFA8683C
:1022200078B1AC68606908B9304600E06069606107
:102230006660A760009601976A460721A86900F0CA
:102240006FF8BDE8FC8170B504462046FFF758FFE3
:10225000054600220121A06900F062F805432846E6
:1022600070BD10B5044600220521A06900F058F8A1
:1022700010BD10B5044600220621A06900F050F8F8
:1022800010BD7CB504460D46164600200090019016
:102290008DF8045000966A460421A06900F040F8C9
:1022A0007CBD0246A1F10900082813D2DFE800F046
:1022B0000406080A120C0E10094870470948FCE78A
:1022C0000948FAE70948F8E70948F6E70948F4E752
:1022D0000948F2E70020F0E77C00002010860208A1
:1022E000C3210008E921000809220008472200084C
:1022F00063220008732200088322000810B500231F
:102300001A461049104803F055FBF02211460020F0
:1023100006F092FDF0221146002006F0A3FD10BD4C
:102320002DE9F04106460C461746012C04D1FFF773
:102330009EFA0020BDE8F0814FF0FF3500BF00BFDE
:102340002846F7E7E0610208442201080020F74927
:102350000860F7490860F7490860704710B50446FF
:102360004FF4080004F05EFE03F06AFA24B105227F
:102370001146F14803F042FD10BD7CB5044606F05D
:10238000CDFA054606F0DEFA06464FF40800EB49A2
:1023900033462A46CDE900100021084603F0FEFD31
:1023A00024B105221146E44803F028FD7CBD2DE947
:1023B000F04F85B0804606F0B1FA039006F0C2FAFD
:1023C000064606F09FFA8346B34509DD4FF4080040
:1023D00004F028FE5B4600210846039A03F03EFA0B
:1023E000D7480068002867D1C925D648D6490122B8
:1023F0002B46CDE9002102902A460021084604F030
:10240000FDF8824601203346009000210846039AD9
:1024100004F0B6F8CA490860CA48CB4901226423CF
:10242000CDE9002102900021084604F0E7F881463A
:10243000504604F053FA04904FF4080004F0F2FD03
:1024400003F0FEF9484604F049FA4FF40800BB498E
:1024500064230022CDE900101146104603F09EFDD2
:10246000484604F0F3F90746504604F037FA0024D2
:1024700009E0386804F0DAFD22466421084603F0DA
:10248000E3FC641C3F1D642CF3DBAD48006804F0E2
:1024900025FA0021039833460A46CDE900600291EF
:1024A000504604F081F9504604F0B8F8484604F06C
:1024B000B5F8049804F012FAA148006804F062FA32
:1024C000B8F1000F04D0052211469B4803F096FC9A
:1024D00005B0BDE8F08F10B54FF404719B4800685B
:1024E00007F008FE0446204607F0B2FE10BD10B506
:1024F0004FF404719548006807F0FCFD044620463F
:1025000008F02BFA10BD70B5044620680E280DD0D7
:102510000F2802D01E2815D105E08D4800788D497E
:102520000968884712E00020E0600FE0E56868680D
:1025300038B128686E2803D101208749086000BFA0
:1025400000BF03E0204607F0ABFC00BF00BF70BD3A
:1025500010B502E00A2003F0E9FA74480068012887
:10256000F8D07D480068012804D100207A4908602D
:10257000012010BD0020FCE7FEB506460C4625688C
:1025800003F000FE684604F0E7FB9DF8080018B170
:10259000012020600020FEBD9DF8080038B9012D03
:1025A00005D10020206001206B490860F3E7FFF7A8
:1025B000CFFF6949086008460068ECE72DE9FC4751
:1025C000044620680E2806D00F283CD01D2809D0CC
:1025D00026287BD14BE007F081FD8246214608F09A
:1025E00049F882E04FF40471606807F083FD81468A
:1025F0000E21484606F0A8FE5849484606F07CFEE3
:102600004FF40061606807F075FD8146002148467F
:1026100001F038FA40F60101606807F06BFD814671
:102620000021484601F02EFA4FF4B071606807F0BF
:1026300061FD81464AA1484607F0E0F94A4948460B
:1026400007F0CAF951E0606807F0C0FD064660680F
:1026500007F0CDFD074645486FF07F417B1E721E97
:10266000CDE900100021084603F098FC3DE0A06889
:1026700007F067FD0546D4F80C80B8F1020F2ED1A3
:10268000B5F5006F03D0A5F6010030BB1FE0274869
:10269000006868B100202549086003F061FE254903
:1026A0000968401A22490860002007F0F7FE0CE094
:1026B00001201E49086003F053FE1D490968401AB5
:1026C0001C490860606807F0E9FE06E009E00120A7
:1026D00021490860FFF73AFE00BF00BF00BF00BFFE
:1026E00003E0204607F0DCFB00BF00BFBDE8FC872D
:1026F0002DE9FC410446206801280BD00E2802D0A9
:102700000F2849D134E007F0E9FC0746214607F0DD
:10271000B1FF45E006F002F9054641206B10691053
:1027200000900022606808F009F939E04C000020B0
:102730004400002048000020706102085555FF0049
:102740005C000020C8610208848602083000002076
:102750005800002038000020500000209824010874
:10276000496E74726F000000F4670208C0CEDC008E
:10277000606807F02BFD0546606807F038FD0646E7
:10278000F8486FF07F41731E6A1ECDE900100021EA
:10279000084603F003FC03E0204607F081FB00BF7E
:1027A00000BFBDE8FC8110B50446606840B90E2149
:1027B000206801F0A6FD0021206801F0B6FD03E0CD
:1027C000204601F063FB10BD00BF0020FBE770B5A1
:1027D0000246002300E05B1CD55C002DFBD10124E8
:1027E000012003E004EB84056C00401CB1FBF4F510
:1027F0000A2DF7D20025D61835540DE00A25B1FB75
:10280000F5F605FB16153035D618064406F8015CBA
:102810000A25B1FBF5F1401E0028EFD170BD10B5BF
:1028200002460020002300E0401C145C002CFBD179
:1028300003E0CC5C1454401C5B1CCC5C002CF8D135
:10284000145410BD10B586B0142101A800F09BFCF3
:102850004FF4B071C448006807F04CFC0446C3A1B3
:1028600001A8FFF7DCFFC3480168491C01A8FFF776
:10287000AEFFC1A101A8FFF7D2FFC048016801A8BF
:10288000FFF7A5FFBEA101A8FFF7C9FFBD4840683B
:10289000411E01A8FFF79BFF01A9204607F0AEF8F3
:1028A00006B010BD7CB507F019FC064607F0C4FE63
:1028B00002F0C6FF02F086FF06F030F8044606F08C
:1028C00041F8054607F00AFC0646A5F13D01A4F1D2
:1028D00050003346AC4ACDE900010521AB4802F077
:1028E000EFFFA149086007F0F9FB0646002101202F
:1028F000C0EB64003346A64ACDE900010221A54899
:1029000002F0DEFFA44908600846006807F0A0FC5A
:102910009548006807F055FD07F0E0FB064607F014
:1029200067FB03F02FFC07F0D9FB064607F06BFBB3
:1029300000F0C4F900208F49086014E0FFF706FD9D
:10294000FFF780FF8F4909688A4A126851F8220010
:1029500080470020894908609049086085480068E0
:10296000401C84490860874800688249096850F81B
:1029700021000028E2D17F4908607B48006807F009
:10298000C3FA8548006807F0BFFA02F087FE7CBDF5
:1029900008B1012100E00021814A11707047002137
:1029A0000170704710B57F48006810B17E4800681C
:1029B00010BD03F0D5FC7D490968401AF8E72DE900
:1029C000F04104464FF404716748006807F092FB39
:1029D0008046642C01DDFFF78AFD0021404606F0A9
:1029E000C3FC22460021404606F095FC03F0B8FCEB
:1029F000064600BFFFF7D6FF871B642C03DD394670
:102A0000404606F0B1FC052003F090F8FFF7A0FD6A
:102A10000546A74201D2002DECD0642C01DDFFF762
:102A20005AFD03F0AFFBBDE8F08110B50446204627
:102A30005F490968884710BD01465248008908402F
:102A400008B1012070470020FCE710B54648006837
:102A500007F0FEFB07F042FB044607F091FF10BDB4
:102A600010B54D48006807F0F3FB07F037FB04464C
:102A700007F086FF10BD10B540480068401C3F4974
:102A80000860FFF763FCFFF7DDFE10BD10B53648A8
:102A9000006807F062FF03F075FB10BD70B50446D7
:102AA0003D48006807F0EBFC50B14FF4B0713A4874
:102AB000006807F01FFB05462146284606F09EFFEA
:102AC00070BD10B53448006807F047FF10BD10B561
:102AD00004462046FFF773FFFFF7CDFF10BD2DE939
:102AE000F84F07460C4605F019FF824605F02AFF0D
:102AF00083464FEA6A0000904FEA6B09FFF7B0FF88
:102B0000FFF7C4FF03F03EFB0120FFF78EFF6FF0DD
:102B10007F4004F08BFA022004F0E0FA254804F02C
:102B200099FA3C223846009903F09EF8224804F0B6
:102B300091FA03F0FFFB8046A9EB080000F10A02BE
:102B40002046009903F090F8002500E06D1C605DC0
:102B50000028FBD105EB850006013046FFF7B7FFE3
:102B6000BDE8F88FC0CEDC003000002044656D6FFA
:102B7000200000003C0000202E000000400000204B
:102B80002F000000B07D0020BD250008782201083C
:102B9000F12600080423010834000020540000201E
:102BA000580000204C000020480000204400002075
:102BB00038000020A0530108AC8502088CB02C49D5
:102BC0002C4803F0ADFE07F089FA06462A4907F0C3
:102BD00067FD00F069FF002101A801F025FB00203E
:102BE0000690002101A801F045FB012101A801F098
:102BF0001BFB00200690012101A801F03BFB1F48B0
:102C000001F024FB1E4806F069FB1E4800F02CFF73
:102C10001D4806F07DFD1D4806F034FE1C4805F0F9
:102C2000DDFB022004F05AFA1A4800F03DF805F0E6
:102C3000E3FD0546102D11DB0420FFF7FDFE68B112
:102C400002F014FC0446B4F5001F03DD12481349DA
:102C5000086006E012481149086002E011480F4977
:102C600008600120FFF794FE01E0FFF71BFEFCE780
:102C7000540000207925000807250008A727000830
:102C800059920008313800087D95000859970008CE
:102C90009D830008B07D0020AF230008380000208D
:102CA0007B2300085D230008034901600221416085
:102CB000052101817047000060000020F0B589B057
:102CC00020223A4901A800F037FA05F027FE054610
:102CD00005F038FE04466E100020FFF7A6FE022025
:102CE00004F0FCF96FF07F4004F0A0F9304804F0E4
:102CF000B1F944F3191231462EA002F0B5FF2F4866
:102D000004F0A8F904EB440000EBC4008211314642
:102D10002BA002F0A9FF384804F088F91620604380
:102D20008211314635A002F09FFF404804F092F92D
:102D300016206043122101EBA01231463CA002F0A4
:102D400093FF6FF07F4004F071F91C4804F082F9A2
:102D500003F008FB0746394601A800F01FFAC4EB50
:102D600044108211314601A802F07EFF2620604304
:102D7000821137480088281A4110364803F03EF87F
:102D80006FF07F4004F052F9094804F063F9C4EB96
:102D9000C40040F3D90231462FA002F065FF41F292
:102DA0008830FFF70CFE09B0F0BD00003C2301089D
:102DB000A05301085354656D57696E00AC85020835
:102DC000556E6976657273616C20677261706869AF
:102DD0006320736F6674776172650A666F7220652F
:102DE0006D626564646564206170706C69636174B0
:102DF000696F6E7300000000FF882200466F72202A
:102E000053544D3332204D43552050726F647563D7
:102E10007473202D20436F72746578204D33202DFC
:102E200020436F72746578204D3400000C7B0208DB
:102E3000436F6D70696C6564204D61792031382075
:102E4000323031382031353A34383A3031000000F0
:102E50002C940108143B02087777772E73742E6345
:102E60006F6D2F73746D3332000000002DE9F04F49
:102E700085B005F053FD029005F064FD01904FF020
:102E8000000A00250298471E41260198A0F13D083E
:102E900003F03FFA049003F01FFA0390039804F044
:102EA000C5F8FFF77FFD814600BF43463A463146ED
:102EB000284603F089F90AF1010AFFF773FD044679
:102EC00009F16401601A0028EFDDA4EB0904781B06
:102ED000401CA8EB0601491C484300FB0AF0009087
:102EE0000098B0FBF4F04FF47A7100FB01FB0498FA
:102EF00004F09CF8584605B0BDE8F08F2DE9F04786
:102F000096B02821684600F03EF905F007FD054619
:102F100005F018FD044605F0F5FC804602F0BEFB06
:102F2000A0450DDD0020ADF82800ADF82A0028B23C
:102F3000ADF82C0020B2ADF82E000AA804F074F809
:102F40005EA16AA0FFF7CBFD002608E06A4951F8B0
:102F5000260002F0B3FC0EA941F82600761C082ECC
:102F6000F4DBFFF71FFD0746002667E006F00701C8
:102F70000EAA52F8210004F05BF800F0CBF890FBA9
:102F8000F5F105FB1100A94605EBD971A0EB610035
:102F900000B2ADF8300000F0BDF890FBF4F104FB96
:102FA0001100A14604EBD971A0EB610000B2ADF8AD
:102FB000320000F0AFF890FBF5F105FB1101BDF810
:102FC00030001430084400B2ADF8340000F0A2F82C
:102FD00090FBF4F104FB1101BDF8320014300844F9
:102FE00000B2ADF83600BDF93630BDF93420BDF978
:102FF0003210BDF9300003F0E7F8BDF93400A84203
:1030000003DB681E00B2ADF83400BDF93600A04203
:1030100003DB601E00B2ADF83600BDF930000028B9
:1030200002DA0020ADF83000BDF93600002802DADF
:103030000020ADF8360003F0A5F8761CFFF7B2FCCF
:10304000C01B41F28831884203DAFFF781FA002879
:103050008CD0FFF710FDFFF709FF8246002003F038
:10306000E3FF0020FFF7E1FC6FF07F4003F0DEFF9D
:10307000022004F033F8214803F0ECFF052211464A
:103080001F4802F0BBFE1FA16846FFF7C8FB514670
:103090006846FFF79CFB03F055F9201A4FEA6009D8
:1030A00069104A46684602F0DFFD4FF47A60FFF788
:1030B00086FC02F087FB16B0BDE8F0874D756C7496
:1030C00069206C6179657220636C697070696E67E4
:1030D0000A486967686C79206F7074696D697A65F0
:1030E00064206472697665727300000048696768DD
:1030F000207370656564000084610208A0530108B4
:1031000070610208506978656C732F7365633A20AB
:10311000000000000649074A0868504343F239029C
:10312000104408604008704701490860704700007B
:10313000A80500206D4EC64110B5431A934209D22E
:103140008318881803E010F8011D03F8011D521EB2
:10315000F9D210BD40EA01039B0703D009E008C97A
:10316000121F08C0042AFAD203E011F8013B00F84C
:10317000013B521EF9D210BDD2B201E000F8012B82
:10318000491EFBD270470022F6E710B513460A46E7
:1031900004461946FFF7F0FF204610BD421E12F804
:1031A000013F002BFBD111F8013B02F8013B002B42
:1031B000F9D17047421C10F8011B0029FBD1801A7D
:1031C0007047034611F8012B00F8012B002AF9D1B2
:1031D00018467047F0B480EA0102D40F4200B2EB07
:1031E000410F02D20246084611464A0042D0C30DA2
:1031F000DDB2C1F3C752AD1A202D35DAC1F3160185
:1032000041F4000204B15242C5F1200602FA06F16F
:103210002A411044B3EBD05F23D0C4B1012DA0EB01
:10322000C35009DCF0BC4FF0004202EAC352DBB2EB
:1032300000F5000000F0FBB8400000F1807000EBEA
:10324000C350A0F1807040EAD170490009E04908FC
:1032500041EAC071A0EBC35000F50000400800EB4C
:10326000C350F0BC00F0DAB86142012202EB410128
:10327000001BF6E7F0BC704781F00041AAE780F040
:103280000040A7E780EA010210B502F000434000C9
:1032900022D04A001FD0010E01EB1261C0F356008C
:1032A000C2F3560240F4000042F40002A0FB0220E8
:1032B00000047F39140400D0401C50EA124001D4AD
:1032C0004000491EC2B20C0604EBD010401C40085E
:1032D000802A02D003E0002010BD20F00100002968
:1032E00000DA0020184310BD30B480EA010202F079
:1032F000004530F0004221F0004013D090B1C30DE2
:10330000D40DC2F31601C0F31600E41A41F4000113
:1033100040F400027D34914201D3641C00E0490076
:10332000002C02DA30BC002070474FF4000000236C
:10333000914201D3891A034340084FEA4101F7D172
:1033400051B1914202D14FF0004105E002D24FF05D
:10335000010101E06FF0010103EBC450284430BCCF
:1033600000F05CB8C10F80EAE0700844CA079623F9
:10337000002100F05CB800F0004220F00040C10DD8
:10338000C0F3160040F400007F2901DA00207047E6
:10339000962903DCC1F19601C84001E096398840C6
:1033A000002AF4D04042704700F0004230F0004064
:1033B0000AD0C10D01F56071C0F3160042EA015157
:1033C000C20840071143704700200146704701F0D2
:1033D000004330B421F0004150EA010206D00A0D4A
:1033E000A2F56072C1F31301002A02DC30BC002098
:1033F0007047440F44EAC104C100E01830BC00EB40
:10340000C25000F00BB80000002801DBC0F1004002
:10341000002901DBC1F10041814270470029A8BFAA
:103420007047401C490008BF20F00100704710B4ED
:10343000B0FA80FC00FA0CF050EA010404BF10BCA2
:10344000704749B1CCF1200421FA04F411FA0CF1CF
:1034500018BF012121430843A3EB0C01CB1D4FEA08
:1034600000614FEA102042BF002010BC704700EB03
:10347000C35010440029A4BF10BC7047401C490031
:1034800008BF20F0010010BC70472DE9F04D00236B
:103490001A461B1A8A4103DB00200146BDE8F08D65
:1034A000C1F30A52C1F3130141F480154FF0000B30
:1034B000D10702D100186D41521E0027044640F288
:1034C000FF11384601EB620A3E4680460246002064
:1034D0004FF4801100F03CF8C2197141BB1846EB63
:1034E0000100B4EB030C75EB000C04D3E41A65EB9C
:1034F000000517460E46241908F101006D4180466B
:103500003428E3DDF91946EB0600091BA84103D274
:103510004FF0FF32134601E0002213461BEB070079
:1035200046EB0A51BDE8F04D00F022B8064C074DBD
:1035300006E0E06840F0010394E807009847103483
:10354000AC42F6D3FCF7F8FDFCA302081CA4020869
:10355000202A04DB203A21FA02F00021704721FAE8
:1035600002F3D040C2F1200291400843194670474F
:1035700010B5141E73F1000408DA401C41F100017B
:1035800092185B411A4301D120F0010010BD2DE9D2
:10359000F04D92469B4611B1B1FA81F202E0B0FAC9
:1035A00080F22032904600F040F804460F4640EA90
:1035B0000A0041EA0B0153465A46084313D011460C
:1035C00053EA010019D0C8F140025046FFF7C0FF8E
:1035D00005460E4650465946424600F026F8084336
:1035E00005D0012004E020463946BDE8F08D0020DA
:1035F000054346EAE0762C4337430A986305E40A1C
:10360000A0EB08000022FD0A44EA47540A3002D524
:1036100000200146E9E7010510196941DDE9084587
:1036200000196941BDE8F04DA2E7202A04DB203AE9
:1036300000FA02F1002070479140C2F1200320FA05
:1036400003F319439040704770B58C1810F8015B74
:1036500015F0070301D110F8013B2A1106D110F82B
:10366000012B03E010F8016B01F8016B5B1EF9D12F
:103670002B0705D40023521E0DD401F8013BFAE7B5
:1036800010F8013BCB1A921C03E013F8015B01F820
:10369000015B521EF9D5A142D8D3002070BD00288D
:1036A00000DC40427047000038B5456804460146DA
:1036B000284606F0DCF900282BD02068304A112873
:1036C0000DD006DC0B2825D00E2833D00F2852D180
:1036D00012E0282849D0B0F5107F4CD108E092685C
:1036E000002A16D02146284601B0BDE830401047D8
:1036F000214628465268F7E7284601F0CFFE0090A1
:10370000406E0468684601F013FF002C01D0284683
:10371000A04738BD284601F0C1FE0090683001F096
:1037200017FE009803216C3001F01AFE684601F084
:10373000FFFE20E0E168486809680D2902D02029D1
:1037400013D105E0002810DD28460CF056FB06E0FA
:10375000002804DD2846BDE838400CF04EBB284662
:10376000BDE8384002210CF05EBBE06818B90021CA
:10377000284600F08FF92046BDE8384006F090BB9F
:1037800010010020F0B5044685B08069B4F90850F6
:10379000668A0027CDE90265CDE900170490B4F9E7
:1037A0000C00B4F91060C118B4F90A00B4F90E5055
:1037B000104433462A4600F007F80546616800F0D9
:1037C0007FF905B02846F0BDF0B585B00C46DDE9BF
:1037D0000D51DFF854C04C31DDE90A67CDE902C173
:1037E0002146CDE9006706F0ADFA040018D001F0DB
:1037F00055FE10222946049006F042FA0498302221
:103800000A493430FFF798FC084D04990C3D2868AC
:10381000486604A801F08CFE286841682046884765
:1038200005B02046F0BD0000A93600081C010020AC
:10383000F0B5044680688B4989B051F82050606823
:1038400000287DD0052804D006287AD0122879D106
:10385000AEE0E86900284FD095E80E008DE80F0033
:1038600004F110010FC904F07BF9002655F8260079
:1038700003F0DCFBA169E8690A1A21690144606967
:10388000304402F0BFFBA169E8690A1A21690144CA
:10389000E069801B02F0B6FBE169E8690A1A616918
:1038A00001442069304402F04DFCE169E8690A1ADC
:1038B00061690144A069801B02F044FC761C022E61
:1038C000D4DBA86803F0B2FBE069E9696669431AD2
:1038D000206942183144801C521E02F075FCE169D7
:1038E000E869A2690B1A61690144101A401C921E12
:1038F00002F06AFCEE6913E05FF0000655F826005E
:1039000003F094FBE069831BA069821B6069811945
:103910002069304402F0D8FB761C022EEEDB022632
:10392000D5E90301CDE900016169E069084443106C
:10393000A069891C821B2069304402F02FFB02E041
:1039400089E012E08AE0D5E90501CDE90001E369EB
:1039500060690121184401EB6001A0699B1E821B74
:103960002069304402F01AFB78E0206801F096FDEF
:103970000490206807F0CAFA40B1A06808B100209E
:1039800008E00498006F28B1012003E00498406F1C
:1039900000B10220049901EB8000C56E04A801F07B
:1039A000C7FD00231A462846216802F087F855E033
:1039B000206801F073FD0490866EEEB3B0F95C7080
:1039C000A168D1B3032942D05FF0000100EB81016F
:1039D000406D0C6C03F03EFB204603F027FB05A86E
:1039E00002F092FCBDF81410A88B0144ADF814103D
:1039F000BDF81810081AADF81800BDF81600801CA4
:103A0000ADF81600BDF81A00801EADF81A00049833
:103A1000B0F96020B0F95E1005A803F08EF904A893
:103A200001F086FD022003F059FB304601F036FD1F
:103A30003A4605A9079001E00BE006E002F02EF9F6
:103A40000DF11C0001F074FD08E00121BEE7022128
:103A5000BCE704A8F6E7206806F024FF09B00020C0
:103A6000F0BD0000B8860208044A03491160044909
:103A70004A6A4862104670474C010020100100203D
:103A80001C01002000294FF0100101D006F07FB882
:103A900005F0D9BF4FF480720029114601D006F01D
:103AA00076B805F0D0BF00000348024941600349E1
:103AB000816070479D00010810010020A9FF0008E7
:103AC0002DE9FF410E4605004FF001041CD001F026
:103AD000E5FC0190876E01A8009701F029FD3146B1
:103AE000684604F03BFB78B100980024B84208D047
:103AF000284601F0D3FC01900099816601A801F0ED
:103B000017FD284606F05DFC04B02046BDE8F081B4
:103B10002DE9FC5F15460746DFF8908028440190A8
:103B2000D8F800201C460E46526E21448946526841
:103B30009047D8F80020781B4946526E824652685A
:103B40009047711938190090D8F800208946526EB4
:103B500052689047D8F80020711B8B46526E00982F
:103B600052689047002C1ED0D8F80010361B4546EE
:103B7000496E01984A68314690472A683146504656
:103B8000526E5268904728683C1B4946406E426816
:103B9000204690472A6859462046526E526802B025
:103BA000BDE8F05F1047BDE8FC9F00007C000020EE
:103BB0002DE9F047044640688EB00027804601F0AA
:103BC0006DFC0090B0F87CA0D0F86890D0F88060D0
:103BD000D0F88850C06D00B10768684601F0A8FCB5
:103BE00005E0696820468847002843D12D68002DEC
:103BF000F7D12068172853D00CDC0F283DD004DC07
:103C00000B2877D00D2825D18BE0112810D014284F
:103C100020D13BE0262846D004DC1E2851D02028A5
:103C200018D18AE02A2816D0B0F5107F12D128E0EA
:103C30004046E56801F032FC0290697A39B9297A88
:103C4000012904D130F87C1F41F48071018002A861
:103C500001F06EFC75E0404601F020FC0090E16848
:103C600011B1C0F8841002E0D0F88400E06068462A
:103C700001F05EFC0EB0BDE8F087D7B34046B84710
:103C80005FE0214640460CF0B1F9F3E705A9404654
:103C900000F060FBE0680699016007994160E9E780
:103CA000C4F80C90E6E7E0680228E3D1CDF8308054
:103CB000E0680D9027200A900AA9A06807F0FEFA94
:103CC000D8E7E068012804D00021404600F0B8FAA7
:103CD000D0E7304606F0E0FB68B1304606F06CFDF8
:103CE000304606F0A5FA98B10121304605F04FFFA5
:103CF0000EE026E02FE0484606F0ACFD06464046C2
:103D000001F0CCFB0090C0F88060684601F010FC28
:103D10000121404600F094FA002EABD10020E06073
:103D2000A8E75FEA0A700CD4E068C06848B1007A7E
:103D300038B1404606F040FD03E0214640460CF015
:103D40008FF82146404605F092FE002892D020468A
:103D500006F0A6F88EE7404601F0A0FB0090703018
:103D600001F0F6FA684673E7F0B587B0B0F908409D
:103D70000DF10C0C0C9E876945688CE8F000448AB4
:103D80000025CDE900150294B0F90C10B0F91050DF
:103D9000B0F90E40B0F90A00194410442B462246EF
:103DA00000F002F807B0F0BD2DE9F0478AB00DF140
:103DB0004C0CDDE917849CE86006129F45F48055A1
:103DC000DFF8BCC06034CDE902C4CDE9007505F070
:103DD000B9FF04004FD001F061FB30224946049046
:103DE00005F04EFF0498282226493430FFF7A4F945
:103DF0000498244FC0F86480A0F87C600026C0F8C6
:103E00008060C666083FC0F888607968C16504A80C
:103E100001F08EFB05A9204600F09CFA1A4841F2F9
:103E2000827103960094CDE90110BDF91E00BDF921
:103E30001A10BDF91C20431ABDF918005B1C121A98
:103E4000521C05F07FFF0646786841682046884787
:103E5000204601F023FB0490866604A801F068FB6D
:103E600042F20400054202D1204606F0C1F8514654
:103E7000204600F027FA0AB02046BDE8F08700008F
:103E8000B13B0008E00100200F4500082DE9F0419A
:103E9000044694B0006800F0B7F908B1D94D01E0CC
:103EA000D84D2C35606815281ED00CDC0B281FD08F
:103EB00004DC00287ED005287DD12FE10E287BD0A0
:103EC0001228F9D141E1162806D0172808D0182861
:103ED00008D01C28F0D109E0E86914B0BDE8F081F1
:103EE000286AFAE7686AF8E7A86AF6E76869F4E713
:103EF00020680B901C200C90206801F0CFFA0390F2
:103F0000016D0BA88847064603A801F011FB022E9D
:103F10000FDB95E807008DE80700D4E9040233467B
:103F2000A16903F0EBFD20698719A069A0EB0608E1
:103F30002CE0286803F07AF82169E8690A18521E13
:103F4000606902F05FF8A269E869111A491C6069AA
:103F500002F058F8D4E904077F1C394602F094F8BF
:103F60003946A06902F090F8686803F05FF82069AC
:103F70003946401C02F088F8A0693946401E02F01C
:103F800083F8A0692769A0F10208BF1C286803F024
:103F90004DF842463946606902F034F8686803F02B
:103FA00045F8606942463946401C02F02BF8686AC1
:103FB000022802E015E1B0E000E10BDDA86803F0A3
:103FC00035F861696A6A881C8B1801464246384692
:103FD0005B1E27E0296AB14226DD6069022E074692
:103FE00000F1020801DB374401E007F10207206914
:103FF00001DB304401E000F1020022693B460A4443
:104000004146A2F1010202F0DFF8022E02DBA069B4
:10401000821B01E0A269921EA069E9693B46401A31
:104020004146401C02F0D0F8022E02DB60690644D3
:1040300001E06669B61CE76928687F1E02F0F6FF9A
:104040003A463146206902F07DF83A463146A06989
:1040500002F078F8E7696868BF1E02F0E7FF2069A0
:104060003A463146401C02F06DF8A0693A463146A6
:10407000401E02F067F8E869022802DC286A02287C
:1040800023DDA86A022802DDE1690F1A01E0E76971
:10409000BF1EA86802F0CAFFE969022909DD20698C
:1040A0003B46421800F1020C31466046521E02F0B7
:1040B0008BF8286A022808DDA269E8693B46101AD5
:1040C0003146401C921E02F07FF8286802F0AEFFD5
:1040D000D4E90620216901F095FF686802F0A6FF87
:1040E000D4E906202169401E491C521E01F08AFFB6
:1040F000A86A022811DDA1692669E469A1F1020814
:10410000271AA41EB61C7F1CA86802F08FFF234646
:1041100042463946304602F057F871E0208A00B234
:10412000ADF81400A18A09B2ADF81610228B12B2B4
:10413000ADF81820A38B1BB2ADF81A302C69ED68CE
:10414000CDE9005401F02AFF5AE0208A298B084467
:10415000ADF81400A08AADF81600208B298B401A08
:10416000ADF81800A08BADF81A00206801F096F9A0
:104170000390006FF0B1022002F0B0FF039890F8B6
:104180007C10C1F3C00100EB8100006C02F04EFF17
:104190000398406B02F05EFF0398006F01F07EF918
:1041A00003990990B1F95A2005A901F077FD09A8F2
:1041B00001F0BEF903A801F0BBF921E0208AADF8B7
:1041C0001400A08AADF81600208BADF81800A08B63
:1041D000ADF81A00A86802F029FF05A802F018F847
:1041E0000EE0206801F05AF9039030F85A1F41F0B0
:1041F0000C01018003A801F09BF9206806F052FB36
:1042000000206AE61C02002038B5002450B101F0FD
:1042100045F9009090F87C00000700D5012468461D
:1042200001F086F9204638BD022905D2034A52F82A
:1042300021102C22FEF780BF70470000C8860208BC
:10424000002801D00CF034BC70470000074A064932
:10425000054B1160064A083BD16958601B68C2E9EA
:10426000063008467047000010020020DC010020E4
:10427000E001002070B50D460146022D1ED2104C03
:104280002C2254F82500FEF757FF54F82510022081
:10429000CA69022A00DAC86154F825100A6A022A9B
:1042A00000DA086254F825104A6A022A00DA4862E5
:1042B00054F825108A6A022A00DA886270BD00006C
:1042C000C88602087CB50D46040019D001F0E6F856
:1042D0000090006F0190684601F02AF9294601A874
:1042E00003F03CFF00280BD0204601F0D7F80090E7
:1042F00001990167684601F01BF9204606F061F854
:104300007CBD38B50C4605000ED001F0C7F8009012
:10431000B0F95A10A14204D0A0F85A40284606F03D
:1043200050F8684601F004F938BD38B50C46050070
:104330000FD001F0B3F80022009000EB8201521C74
:104340000C64022AF9D3684601F0F2F8284606F018
:1043500038F838BD2DE9F34F85B000270C46B84634
:10436000059801F09BF80090C06D012185680598C3
:104370002A68904782462A6803210598904704904E
:104380002A6802210598904703902A680021059821
:1043900090470646009806F037FC8346009806F0E2
:1043A0003AFC8146009890F83210890601D5B0F9A0
:1043B000588000F036F805460098C06E10B105F040
:1043C00016FF074625806780A4F804A0049AABEB8B
:1043D000020006EB0802401E2A4420813A44E28093
:1043E000039BA9EB0302521E6281A4F80CA0208259
:1043F0007019E681401E6082684601F099F8B4F9B0
:104400000C000190B4F91000029002AA01A90598CD
:1044100000F03AF80198A0810298208207B0BDE828
:10442000F08F10B50146002091F83220920607D592
:10443000B1F95400002803D1486B01F0B7FF801C8C
:1044400010BD70B58AB00C46054601F027F80990FA
:10445000C06D866809A801F06BF8009534B1012C95
:1044600006D0022C0BD0032C04D10AE0182000E067
:10447000162001907168684688470AB070BD152003
:10448000F7E71720F5E700002DE9FC4117468846BD
:10449000044601F003F80090C16D056868468E6817
:1044A00001F046F832680021204690470646204633
:1044B00005F028FE27E000BF00F0F0FF0190B0F902
:1044C00000102AB2B0F90430891A9A1AB0F90230F1
:1044D000A3EB2543B34210D190F82800000605D580
:1044E0003868884209DB491E396006E0D8F80000C8
:1044F000904202DC521CC8F8002001A801F018F814
:10450000204605F02BFE0400D6D1BDE8FC812DE944
:10451000F0430446406889B0054605F026FE814612
:1045200000F0BCFF0290D0F84880D0F88070466E52
:1045300002A800F0FDFF2068172853D008DC0E28E1
:104540003AD00F2811D014284CD015283DD149E07D
:104550001E281ED01F282AD0222840D0312834D12E
:104560000020E06009B0BDE8F0836FF07041404684
:10457000884503D004F08AFB01F062F9002EF1D0E7
:10458000D4E902122068CDE90405CDE9061204A899
:104590001FE0E0680028E5D02FB1AF4203D03846D5
:1045A00006F00AF9DEE7284606F054F9DAE7214674
:1045B000484605F05CFAD5E7E0684168002904DD6B
:1045C00000680928EFD00A2805D05EB12046C4F85B
:1045D0000490B047C6E7284606F044F9C2E7C4F89D
:1045E0000C80BFE7204605F05BFCBBE72DE9F043FC
:1045F0000446C56887B090468946002002F028FD31
:10460000064625B1287910B146F0020001E026F0F7
:10461000020002F01DFD2069012558B1D4E9021203
:104620008DE8260003956388228804684146484641
:10463000A0471EE0124F134B214638681B68427C8E
:10464000E068984730B9E088012801D0002001E0F7
:104650003868806BA288E388A1680095CDE90410D2
:10466000CDE902320195638822884146484603F02D
:104670000BFF07B03046BDE8F04302F0E9BC000094
:104680007C000020740000202DE9F0478146884618
:1046900040F2C32050434FF47A7190FBF1F502FBD6
:1046A00002F002EBD27100EB61061746002341468F
:1046B00048466D1CFFF72CFA012413E004FB04F0BC
:1046C00007FB0700B04206DD3B462246414648460E
:1046D000FFF71EFA7F1E3B46224641464846FFF73B
:1046E00017FA641CAC42E9DDBDE8F0871CB5002474
:1046F000019401AC009400F0E7F81CBD2DE9FF4FD8
:1047000083B0814606988A46A0EB0A08109E0020D6
:104710000090A2EB09043568934654EA080018D0CB
:104720002046FEF7BCFF07464046FEF7B8FF87422B
:104730000BDA2046444680464846D14682465846D3
:10474000DDF818B0069001200090002C07DD20460F
:1047500006E007B04846BDE8F04F00F03BB96042C4
:10476000A0420AD04846D9466442C8F100088346B0
:104770004FF0FF37DDF818A000E001275148B8F1ED
:10478000000F11D004EBD4714FEA610B01DACBF1C9
:10479000000B4C480068807E88B3002F02DA306836
:1047A0002044306000257BE000990029016821D079
:1047B000897E11B10027804615E007B05A46494668
:1047C0005046BDE8F04F03F0C1BF28466D1C0CF009
:1047D0003FFA38B9D8F8000009EB0701406E42688B
:1047E000504690477F1CA742EFDD6D1E356007B035
:1047F000BDE8F08F8A7E1AB10027804617E019E0E5
:10480000486E5A465146036807B04846BDE8F04F27
:10481000184728466D1C0CF01BFA38B9D8F8001060
:1048200009EB0700496E4A68514690477F1CA74232
:10483000EFDDDAE700250FE008FB05B090FBF4F1AF
:1048400001EB0A00009951B11E4A09EB05011268FB
:10485000526E526890476D1CA542EDDDC7E71949BD
:1048600009EB05030968496E4A6801461846F1E7F5
:1048700008FB05B090FBF4F101EB0A0001903068F1
:10488000384430600CF0E4F948B9009890B10D4814
:1048900009EB05010068406E4268019890476D1C65
:1048A000A542E5DD3068002F01DA20443060C01BEE
:1048B00030609CE7034909EB05000968496E4A68C6
:1048C0000199EBE77C0000202DE9FF470F464049A6
:1048D0001646804609680C981D460A7E012A1CD09F
:1048E000A8EB0600791B50EA01031CD0A2F10109D4
:1048F0000DF0AEFB00F58060824603F01EFD00FB6C
:1049000009F4504603F01EFD00FB09F1002C0CDAFF
:10491000C4F50070801240420AE0009032463946E9
:104920004046FFF7EBFEBDE8FF8704F50074A012D8
:10493000002904DAC1F5007189124C4202E001F548
:1049400000718C12002804DD411C01EBD17149106B
:1049500003E000EBD0714910401E00EBD070421014
:10496000002C04DD601C00EBD070401003E004EB71
:10497000D4704010641E04EBD47308EB0104ADF84E
:1049800000403C18ADF80240A8EB02045B10B21ADC
:10499000ADF80440ADF808203144FC1AEA1AADF82D
:1049A0000C102844ADF80A20ADF80E000023ADF835
:1049B00006401A460421684600F07AF83946404617
:1049C00009F0E6FA2946304609F0E2FAABE70000C2
:1049D0007C000020064A13681A7E012A05D0521E68
:1049E00002EBD272521000F005B85A6E52681047AE
:1049F0007C0000202DE9F05F0646884640F2C32087
:104A000002FB00F14FF47A7091FBF0F702FB02F128
:104A100002EBD27001EB600B1446B118234A301B35
:104A20007F1C1268526E13680A464146984701255A
:104A300038E000BF05FB05F004FB040159451CDD0F
:104A4000BC4219DD194B06EB050AA6EB05091B68EC
:104A5000AAF1010208EB04015B6E09F101001B6879
:104A60009847124BAAF10102A8EB04011B6809F157
:104A700001005B6E1B689847641E0C4B3219301B9B
:104A80001B68924608EB05015B6E81461B689847E0
:104A9000064B5246A8EB05011B6848465B6E1B6837
:104AA00098476D1CBD42C5DDBDE8F09F7C0000202D
:104AB0002DE9FF4F43F6FF740F46664283B09B46D5
:104AC000814600210BE000BF09EB8100B0F9020034
:104AD000A04200DA0446B04200DD0646491CB94255
:104AE000F2DB67480068406900280DD0B0F9061075
:104AF0001A46A1EB0B01B14200DA0E46B0F90200F2
:104B0000801AA04200DD0446B4E0DFF878A100205E
:104B10000546CAF8000088E0781E854201DA6B1C61
:104B200000E0002309EB850C09EB8302BCF90200CD
:104B3000B2F90210A04244D1A14215D139F9233073
:104B4000059A39F9251003EB020C4D4A05981268B5
:104B5000084404EB0B01526E6045136801DA6246AB
:104B60002AE00246604627E02846A4464FF00008A7
:104B70007A1E0BE008B1401E00E0781E09EB8003AE
:104B8000B3F90230634504D108F101089045F1DB27
:104B90002346A34248D01A1B39F92500A1EB040C87
:104BA000059B92EA0C0F09D4354A184404EB0B011B
:104BB0001268526E13680246984735E006F052FCC0
:104BC00032E0A14230D001DBA04203DDA0422BDB6A
:104BD000A14229DCE04688420ADC0346A04223DCED
:104BE0000846A14220DBB8F900C0B2F9001008E085
:104BF0000B46A14218DCA04216DBB2F900C0B8F99E
:104C00000010E21AA1EB0C0151430029A0EB0302B2
:104C100002DD01EB620102E0A1EB6201491CC01A56
:104C200091FBF0F06044C9E76D1CBD42FFF674AF24
:104C30000598009004EB0B0001900020804605468B
:104C400013E01149B8F1000F31F915A009D000990E
:104C500001EB0A0208440A490968496E0B68019988
:104C6000984788F0010850466D1C064909688D4236
:104C7000E7DB641CB4427FF748AF07B0BDE8F08FB4
:104C80007C000020840500207080002010B50020EA
:104C900002F0C8F96FF07F4002F0C8F9012002F07D
:104CA0000BFA002002F010FA002002F017FA0020A0
:104CB00002F0CEF90448006802F0CCF9BDE81040DB
:104CC000002002F0D5B90000780000202DE9F04F57
:104CD000DFF828B191B04FF0FF35DBF80030B3F9C1
:104CE00022100691DE69B3F924A0F469A1898142FA
:104CF00006D8E289824203D3471AD4F8008012E032
:104D0000D4E90181002970D00A8882426DD84D888B
:104D100085426AD3801A82B2486800EB8200B0F9FB
:104D20000070B0F90250781C5FD0307EA27C014642
:104D300000FB02F9207CCDE90710B3F92A60304668
:104D400003F0F4FFC0B20E90DBF8001007FB0980FF
:104D5000A37C8A6B0127CDE90402CDE90273C869FF
:104D6000089AC17E807ECDE90001DDE90603514647
:104D700003F08AFB681C18D046F0020003F0D6FF4F
:104D8000DBF80000A37C05FB0981826BCDE902738F
:104D9000CDE90412C069089AC17E807ECDE9000188
:104DA000DDE90603514603F06FFBDBF800005D46CA
:104DB000C069417E007E814214D9022E12D086F055
:104DC000040003F0B3FF2868C069027EC37E857EBD
:104DD00002FB03A1437E089A0698534402FB050296
:104DE00003F0DEFC0E9803F0A1FFDBF80000627C0C
:104DF000418C1144418411B0BDE8F08F7C0000204B
:104E000004480068C069C06909B1027C0A60407C3E
:104E1000704700007C000020022008807047C069B5
:104E200082898A4202D8C2898A4210D2806880B1BF
:104E300002888A420DD843888B420AD3406800EB2F
:104E40008100A0EB8200B0F90000002801DB012006
:104E50007047002070470000F0B52C4D044687B025
:104E600028682146B0F92A60C069C06900F0BEF91F
:104E7000002848D041680088201A00EB400001EB70
:104E800080042078C01C8708304603F04FFF064698
:104E90001F48D0F800C0BCF1000F1AD00021A06854
:104EA000CDE904010222012001A9009081E88500DA
:104EB000286894F90320DCF80070B0F92410B0F9E8
:104EC0002200114494F90220637810442278B847F4
:104ED00011E0A068CDE90070286894F90320637898
:104EE000B0F92410B0F92200114494F902201044C2
:104EF000227800F0BDF9304603F018FF28682279C7
:104F0000418C1144418407B0F0BD00007C000020BA
:104F1000B8000020F0B52C4D044687B02868214623
:104F2000B0F92A60C069C06900F060F9002848D073
:104F300041680088201A00EB400001EB80042078D3
:104F4000401C4708304603F0F1FE06461F48D0F8E3
:104F500000C0BCF1000F1AD00021A068CDE9040107
:104F60000422012001A9009081E88500286894F9B5
:104F70000320DCF80070B0F92410B0F922001144CD
:104F800094F90220637810442278B84711E0A068B1
:104F9000CDE90070286894F903206378B0F92410F3
:104FA000B0F92200114494F902201044227800F054
:104FB00071F9304603F0BAFE28682279418C114419
:104FC000418407B0F0BD00007C000020B800002044
:104FD0002DE9F0432F4C034687B020681946B0F9FD
:104FE0002A80C069C06900F038F900284ED04168B5
:104FF0000088181A01EBC0054046AE7803F096FE13
:10500000814620686A680123816BCDE90236CDE9CB
:105010000421C169CB7E8A7ECDE900230B7EB0F9E5
:1050200024102A78B0F9220003F02EFA2068C06913
:10503000477E067EB7421DD9C07E47434643B8F13E
:10504000020F17D001F065F9804601F045F901F033
:10505000EDFF21682A78CB69B1F92200B1F924105B
:10506000DB7E02FB0302CB19314403F099FB40467F
:1050700001F0DCFF484603F059FE20686A78C369F6
:10508000B0F922109B7E02FB0311418407B0BDE8FA
:10509000F08300007C00002030B50F4C05460B4625
:1050A00020682946C069C06900F0A0F8002812D025
:1050B000416800882468281A00EB40020420E46953
:1050C00000EB8200085CA47E6043002B03D011F843
:1050D00022106143196030BD7C00002003460C485B
:1050E00010B500680C461946C069C06900F07EF82A
:1050F00058B141680088181A00EB400001EB8000AD
:1051000007C884E80700002010BD012010BD000082
:105110007C00002001200880704700B5C06900F0C5
:1051200065F8002800D0012000BD00002DE9F34102
:105130001B4E0F46002530682C46C069417EC07E5C
:1051400001FB00F81CE0684602F034F805463068C0
:105150002946C069C06900F049F888B141680088F3
:10516000281A00EB400001EB800090F90210007952
:1051700008443168C969897E4843002800DD044439
:105180007F1EE0D51DB1284602F074FE044441465E
:10519000204606F00BFB034901200870BDE8FC81A6
:1051A0007C000020D80000202DE9F3410D4D0E4F6A
:1051B0000E462868B0F92A40A0070AD17A680098FC
:1051C000904706E0684601F0F5FF2968C96909685B
:1051D0008847761EF6D50020387028684485BDE8DB
:1051E000FC8100007C000020D800002006E002883E
:1051F0008A4202D842888A4202D280680028F6D1C8
:105200007047000030B50E4C05460B462068294615
:10521000C069C06900F021F8002810D041680088FA
:1052200024682A1A0120E46900EBC200085CA47E0D
:105230006043002B03D011F832106143196030BD78
:105240007C00002001200880704700B5C06900F094
:1052500004F8002800D0012000BD06E002888A4240
:1052600002D842888A4202D280680028F6D170476C
:105270007CB5074EDDE906543668367CCDE900542E
:10528000B60702D408F02EFA7CBD08F07DFA7CBD8A
:105290007C0000207CB5084EDDE906543668367C7B
:1052A000CDE90054B60702D408F0D0FA7CBD034C17
:1052B0002468A0477CBD00007C000020440400203E
:1052C000002801D006F032B9704738B50546FFF71F
:1052D000F7FF040009D000F0E1F82A460021009011
:1052E00002F0ADFF684600F023F9204638BD00000B
:1052F000024A106021F00300506070477C7E00205D
:1053000010B5002814D004460A48406B10F8341039
:1053100000290DD002290BD2042101EBC401415810
:10532000486806F0BBF82046BDE810400BF006BB0D
:1053300010BD0000BC7D0020002805D0034AD16BC1
:10534000016001B14860D06370470000BC7D00205F
:1053500010B504460068FFF7D3FF0020206010BDA1
:1053600070B50D460646002405E000BF06EB84003C
:10537000FFF7EEFF641CAC42F8DB70BD2DE9F04195
:1053800004460AF05FFC2848E41C24F00305016C85
:105390002D1DA94200D90D46C46B13E054F8042C0E
:1053A000AA420ED184B1216809B162684A6061687D
:1053B00009B122680A60C26BA24231D12168C1637F
:1053C0002EE02468002CE9D18046816BC0680F185C
:1053D00057F8040C3E1A306838B100200BF018FB67
:1053E00057F8040C3E1A3068D0B97068A84217DB31
:1053F0003044441B3046241D0BF0C2FAD8F80C1080
:10540000491BC8F80C10D8F814102944C8F8141017
:105410007068401B02D0314606F040F844F8045C46
:105420002046BDE8F0810000BC7D002010B50024BE
:105430000AF008FC0C490F2001EBC002526C1AB1B3
:1054400001EBC000406C08E0401EF5D508E0416863
:10545000A14200D90C46806810B180680028F6D1BE
:10546000A4F10C0010BD0000BC7D002003480068C2
:105470000C38002800DC002070470000BC7D0020B4
:10548000002138B10449042202EBC000496B0858DE
:1054900041680C3908467047BC7D00200549CA693F
:1054A000521CCA61496B01EBC0010A78521C0A7098
:1054B00000F056B8BC7D00207CB506460C46084678
:1054C000FFF7FEFE05001CD0DEB13046FFF7D8FF27
:1054D000A04200DA04462846FFF7E0FF009030467D
:1054E000FFF7DCFF0146019022460098FDF724FEFD
:1054F000684600F01DF801A800F01AF83046FFF7E2
:10550000FFFE28467CBD000010B5FFF78FFF642228
:105510000649B0F5800F04D990FBF2F0096A4843C0
:1055200010BD096A4143B1FBF2F010BDBC7D002003
:105530000A4902684B6B52F8082C03EBC20213783D
:10554000022B03D3CB690BB15B1ECB611178491ED3
:10555000117000210160084670470000BC7D0020EA
:10556000002806D00349042202EBC000496B08580A
:1055700008307047BC7D002038B5002430B1FFF7FB
:105580008DFF009004886846FFF7D2FF204638BDA3
:1055900038B50D46002448B1FFF780FF294600903A
:1055A00000F018F804466846FFF7C2FF204638BDF1
:1055B00038B50D4601880024A94209D9406838B1A0
:1055C000FFF76CFF009050F825406846FFF7B0FFEA
:1055D000204638BD10B50024FFF7EAFF10B1FFF7F1
:1055E0005DFF0446204610BD70B50C46054600F030
:1055F0003DFFC1B223462846BDE87040002200F0BE
:1056000001B80000F0B52D271C68B0F1004F08D09C
:10561000002600280DDA651C1D6027704042012419
:1056200008E0651C01261D606FF000402770491ED0
:1056300001E00024091BC9B22AB3491EC9B222E005
:105640000C46491EC9B2944205D1124C27781C68F9
:10565000651C1D602770104C54F8215090FBF5F428
:10566000E4B20A2C11D804FB150011B90EB1641C68
:10567000E4B20A2C02D10124491CC9B21D686F1C76
:1056800030341F602C700029DAD1196800200870AE
:10569000F0BD000070000020AC9A020802480068CB
:1056A000407C00F003B800007C00002070B5054687
:1056B00000EB85011048002600EB81046671236928
:1056C00053B150F82100E26881684068521AA1681D
:1056D000091A184601F002FC284600F021FE18B114
:1056E000002101F0C3FC05E02079002803D02069E7
:1056F00001F0DCFB267170BDF87E00202DE9FC5F17
:1057000004468946084600F00BFE2B4E09EB89073C
:10571000824656F82700019028484FF0010801689A
:1057200041B92649C0F80080091D2548086008468F
:1057300002F0D4FC204A09EB8901BAF1000002EB27
:1057400081051BD001F056FC83464FF07F4001F0ED
:1057500069FC00F075F800221146206800F04EFB4D
:10576000206842880188504601F07EFC46F82740B8
:1057700085F80580584601F03DFC17E046F82740C3
:1057800085F805802869464618B101F071FB0020B4
:10579000286174B10096E868A1684B46421AA8686F
:1057A0006168411A206801F0BDFB286148460BF092
:1057B000A9FD0198BDE8FC9FF87E0020C0000020F4
:1057C00021FF000802480068407C00F003B8000098
:1057D0007C00002030B4094900EB800201EB820418
:1057E0000123637151F8221011B130BC0BF08ABD56
:1057F000014630BC0248FFF781BF0000F87E002060
:105800004C89020810B5C2B2CBB2D21A00D55242AE
:1058100093B25B43C0F30722C1F30724121B00D5E8
:105820005242000C92B2A0EB114002FB023200B2D5
:10583000002801DA404200B280B200FB002010BD17
:1058400010B50021084600F0C5FD43F6FF72504236
:10585000BDE8104013460146AFF300802DE9FC413E
:1058600007461C4615460E46042003F05FFA8046A4
:105870001148C068C16C006D0F4406440D440444D7
:10588000ADF80070ADF80450ADF80260ADF8064018
:10589000684605F0C7F907E023462A4631463846F0
:1058A00002F07EFF05F072F90028F5D1404603F0C2
:1058B0003DFABDE8FC8100007000002002F0D6BD7A
:1058C0002DE9F8431C00DDE9089816460F46054609
:1058D00002D104F003FC044600962E6843464A4673
:1058E00021462846B047061E35D004F0EBFB814622
:1058F000698A304604F04BF9304605F02EF84846E8
:1059000005F02BF84FF000080CE000BFCDF8008048
:1059100055F81CCF00231A4649462846E047E0B117
:1059200005F01BF87F1E002FF0DC1D21484604F017
:10593000A6FE601C0ED004F0EDFB30B1FFF710FEA8
:105940008469B44201D02000F8D1B44202D030467C
:1059500004F080FF3046BDE8F883304604F0D4FA06
:105960000020F8E72DE9F0411C4616460D46074693
:10597000022B02DB0020BDE8F0811C20FFF7FEFCBB
:105980000028F8D00DB105610AE0094A52F8241048
:1059900009B905E011460A68002AFBD109690161CD
:1059A00084618682002101604160C0E90217E2E75C
:1059B0009400002070B51D46FFF7D4FF040009D005
:1059C00000F00EF8E068006820B90348006800EBBA
:1059D00085008465204670BD7C000020FFF7ACBCCC
:1059E00070B590B38269022A30DA1E4C54F8221046
:1059F00019B944F8220032E019464B68002BFBD15C
:105A000006E0CB68C5681B682D68AB4203DD0968FA
:105A10000029F6D11AE0C1B1CB68C6681B683668A8
:105A2000B3420CD1838A012B05D008E01946DB680C
:105A30001B68AB4203DB0B68002BF7D129B14B6825
:105A400033B118604A68426004E0FFE7012070BD8E
:105A500044F822004860884200D100210160002003
:105A600070BD0000940000200A4A816952F821307C
:105A7000834202D1036842F82130416809B10268CB
:105A80000A60016809B142684A6000210160416012
:105A90007047000094000020022801DB00207047BE
:105AA000054951F8200004E0C16809680029F6D0D2
:105AB00000680028F8D17047940000202DE9F843D1
:105AC0001D461646884604000CD0FFF7E7FC009000
:105AD000006807686846FFF72BFD2B4632464146B3
